S01600002E2E2F506572666F726D616E6365332E733139AE
S32D0000C0000000002069D90000C5DC0000C5DC0000C5DC0000C5DC0000C5DC00000000000000000000000000008B
S32D0000C02800000000C5DC0000C5DC000000000000C5DC0000C5DC0000C5DC0000C5DC0000C5DC0000C5DC0000E2
S32D0000C050C5DC0000C5DC0000C5DC0000C5DC0000C5DC0000C5DC0000C5DC0000C5DC0000C5DC0000C5DC000078
S32D0000C078C5DC0000C5DC0000C5DC0000C5DC0000C5DC0000C5DC0000C5DC0000C5DC0000C5DC0000C5DC000050
S32D0000C0A0C5DC0000C5DC0000C5DC0000C5DC0000C5DC0000C5DC0000C5DC0000C5DC0000C5DC0000C5DC000028
S32D0000C0C8C5DC0000C5DC0000C5DC0000C5DC0000C5DC0000C5DC0000C5DC0000C5DC0000C5DC0000C5DC000000
S32D0000C0F0C5DC00004D2F0100C5DC0000C5DC0000C5DC0000C5DC0000C5DC0000C5DC0000C5DC0000C5DC0000FC
S32D0000C118C5DC0000C5DC0000C5DC0000C5DC0000C5DC0000C5DC0000C5DC0000C5DC0000C5DC0000C5DC0000AF
S32D0000C140C5DC0000C5DC0000C5DC0000C5DC00009DF90000C5DC0000C5DC0000C5DC0000C5DC0000C5DC000092
S32D0000C168C5DC0000C5DC0000C5DC0000C5DC0000C5DC0000C5DC0000C5DC0000C5DC0000C5DC0000C5DC00005F
S32D0000C190C5DC0000C5DC0000C5DC0000FDF3000051F2000025F3000015DD0000D5F40000C5DC0000C5DC000056
S32D0000C1B8C5DC0000C5DC0000C5DC0000C5DC0000C5DC0000C5DC0000C5DC0000C5DC0000C5DC0000C5DC00000F
S32D0000C41081F0004102E000BF83F0004330B54FEA41044FEA430594EA050F08BF90EA020F1FBF54EA000C55EAC6
S32D0000C438020C7FEA645C7FEA655C00F0E2804FEA5454D4EB5555B8BF6D420CDD2C4480EA020281EA030382EA0F
S32D0000C460000083EA010180EA020281EA0303362D88BF30BD11F0004F4FEA01314FF4801C4CEA113102D0404263
S32D0000C48861EB410113F0004F4FEA03334CEA133302D0524263EB430394EA050F00F0A780A4F10104D5F1200E8A
S32D0000C4B00DDB02FA0EFC22FA05F2801841F1000103FA0EF2801843FA05F359410EE0A5F120050EF1200E012A2D
S32D0000C4D803FA0EFC28BF4CF0020C43FA05F3C01851EBE37101F0004507D54FF0000EDCF1000C7EEB00006EEB67
S32D0000C5000101B1F5801F1BD3B1F5001F0CD349085FEA30004FEA3C0C04F101044FEA445212F5800F80F09A8000
S32D0000C528BCF1004F08BF5FEA500C50F1000041EB045141EA050130BD5FEA4C0C404141EB010111F4801FA4F114
S32D0000C5500104E9D191F0000F04BF01460020B1FA81F308BF2033A3F10B03B3F120020CDA0C3208DD02F1140C87
S32D0000C578C2F10C0201FA0CF021FA02F10CE002F11402D8BFC2F1200C01FA02F120FA0CFCDCBF41EA0C019040B1
S32D0000C5A0E41AA2BF01EB0451294330BD6FEA04041F3C1CDA0C340EDC04F11404C4F1200220FA04F001FA02F3B6
S32D0000C5C840EA030021FA04F345EA030130BDC4F10C04C4F1200220FA02F001FA04F340EA0300294630BD21FAA8
S32D0000C5F004F0294630BD94F0000F83F4801306BF81F480110134013D4EE77FEA645C18BF7FEA655C29D094EA1C
S32D0000C618050F08BF90EA020F05D054EA000C04BF1946104630BD91EA030F1EBF0021002030BD5FEA545C05D1A3
S32D0000C6404000494128BF41F0004130BD14F580043CBF01F5801130BD01F0004545F0FE4141F470014FF0000031
S32D0000C66830BD7FEA645C1ABF194610467FEA655C1CBF0B46024650EA013406BF52EA033591EA030F41F40021D7
S32D0000C69030BD00BF90F0000F04BF0021704730B54FF4806404F132044FF000054FF0000150E700BF90F0000F66
S32D0000C6B804BF0021704730B54FF4806404F1320410F0004548BF40424FF000013EE700BF42004FEAE2014FEAF9
S32D0000C6E031014FEA02701FBF12F07F4393F07F4F81F06051704792F0000F14BF93F07F4F704730B54FF460741B
S32D0000C70801F0004521F0004120E700BF50EA010208BF704730B54FF000050AE050EA010208BF704730B511F046
S32D0000C730004502D5404261EB41014FF4806404F132045FEA915C3FF4DCAE4FF003025FEADC0C18BF03325FEAA0
S32D0000C758DC0C18BF033202EBDC02C2F1200300FA03FC20FA02F001FA03FE40EA0E0021FA02F11444C1E600BF19
S32D0000C78070B54FF0FF0C4CF4E06C1CEA11541DBF1CEA135594EA0C0F95EA0C0F00F0DEF82C4481EA030621EAF3
S32D0000C7A84C5123EA4C5350EA013518BF52EA033541F4801143F4801338D0A0FB02CE4FF00005E1FB02E506F05F
S32D0000C7D00042E0FB03E54FF00006E1FB03569CF0000F18BF4EF0010EA4F1FF04B6F5007F64F5407404D25FEA0F
S32D0000C7F84E0E6D4146EB060642EAC62141EA55514FEAC52040EA5E504FEACE2EB4F1FD0C88BFBCF5E06F1ED8D2
S32D0000C820BEF1004F08BF5FEA500E50F1000041EB045170BD06F0004646EA010140EA020081EA0301B4EB5C0487
S32D0000C848C2BFD4EB0C0541EA045170BD41F480114FF0000E013C00F3AB8014F1360FDEBF002001F0004170BDF0
S32D0000C870C4F10004203C35DA0C341BDC04F11404C4F1200500FA05F320FA04F001FA05F240EA020001F0004207
S32D0000C89821F0004110EBD37021FA04F642EB06015EEA430E08BF20EAD37070BDC4F10C04C4F1200500FA04F32F
S32D0000C8C020FA05F001FA04F240EA020001F0004110EBD37041F100015EEA430E08BF20EAD37070BDC4F12005C7
S32D0000C8E800FA05F24EEA020E20FA04F301FA05F243EA020321FA04F001F0004121FA04F220EA020000EBD37028
S32D0000C9105EEA430E08BF20EAD37070BD94F0000F0FD101F00046400041EB010111F4801F08BF013CF7D041EA6D
S32D0000C938060195F0000F18BF704703F00046520043EB030313F4801F08BF013DF7D043EA0603704794EA0C0FF1
S32D0000C9600CEA135518BF95EA0C0F0CD050EA410618BF52EA4306D1D181EA030101F000414FF0000070BD50EA38
S32D0000C988410606BF1046194652EA430619D094EA0C0F02D150EA013613D195EA0C0F05D152EA03361CBF10467B
S32D0000C9B019460AD181EA030101F0004141F0FE4141F470014FF0000070BD41F0FE4141F4780170BD70B54FF04D
S32D0000C9D8FF0C4CF4E06C1CEA11541DBF1CEA135594EA0C0F95EA0C0F00F0A7F8A4EB050481EA030E52EA03359B
S32D0000CA004FEA013100F088804FEA03334FF0805545EA131343EA12634FEA022245EA111545EA10654FEA002676
S32D0000CA280EF000419D4208BF964244F1FD0404F5407402D25B084FEA3202B61A65EB03055B084FEA32024FF461
S32D0000CA5080104FF4002CB6EB020E75EB030E22BFB61A754640EA0C005B084FEA3202B6EB020E75EB030E22BF22
S32D0000CA78B61A754640EA5C005B084FEA3202B6EB020E75EB030E22BFB61A754640EA9C005B084FEA3202B6EBEA
S32D0000CAA0020E75EB030E22BFB61A754640EADC0055EA060E18D04FEA051545EA16754FEA06164FEAC30343EAAC
S32D0000CAC852734FEAC2025FEA1C1CC0D111F4801F0BD141EA00014FF000004FF0004CB6E711F4801F04BF0143AE
S32D0000CAF00020B4F1FD0C88BFBCF5E06F3FF6AFAEB5EB030C04BFB6EB020C5FEA500C50F1000041EB045170BDBC
S32D0000CB180EF0004E4EEA113114EB5C04C2BFD4EB0C0541EA045170BD41F480114FF0000E013C90E645EA060EC3
S32D0000CB408DE60CEA135594EA0C0F08BF95EA0C0F3FF43BAF94EA0C0F0AD150EA01347FF434AF95EA0C0F7FF499
S32D0000CB6825AF104619462CE795EA0C0F06D152EA03353FF4FDAE1046194622E750EA410618BF52EA43067FF432
S32D0000CB90C5AE50EA41047FF40DAF52EA43057FF4EBAE12E74FF0FF3C06E000BF4FF0010C02E000BF4FF0010C75
S32D0000CBB84DF804CD4FEA410C7FEA6C5C4FEA430C18BF7FEA6C5C1BD001B050EA410C0CBF52EA430C91EA030FEC
S32D0000CBE002BF90EA020F0020704710F1000F91EA030F58BF994208BF90422CBFD8176FEAE37040F0010070476E
S32D0000CC084FEA410C7FEA6C5C02D150EA013C07D14FEA430C7FEA6C5CD6D152EA033CD3D05DF8040B704700BFCD
S32D0000CC308446104662468C461946634600E000BF01B5FFF7B7FF002848BF10F1000F01BD4DF808EDFFF7F4FF13
S32D0000CC580CBF012000205DF808FB00BF4DF808EDFFF7EAFF34BF012000205DF808FB00BF4DF808EDFFF7E0FF18
S32D0000CC8094BF012000205DF808FB00BF4DF808EDFFF7CEFF94BF012000205DF808FB00BF4DF808EDFFF7C4FF40
S32D0000CCA834BF012000205DF808FB00BF4FEA410212F5001215D211D56FF47873B3EB625212D94FEAC12343F0D6
S32D0000CCD0004343EA505311F0004F23FA02F018BF404270474FF00000704750EA013005D111F0004008BF6FF016
S32D0000CCF8004070474FF00000704700BF4A0011D212F5001211D20DD56FF47873B3EB62520ED44FEAC12343F085
S32D0000CD20004343EA505323FA02F070474FF00000704750EA013002D14FF0FF3070474FF0000070474FEA410241
S32D0000CD48B2F1E04324BFB3F5001CDCF1FE5C0DD901F0004C4FEAC0024CEA5070B2F1004F40EB830008BF20F09E
S32D0000CD700100704711F0804F21D113F13872BCBF01F00040704741F480114FEA5252C2F11802C2F1200C10FAB1
S32D0000CD980CF320FA02F018BF40F001004FEAC1234FEAD32303FA0CFC40EA0C0023FA02F34FEA4303CCE77FEA26
S32D0000CDC0625307D150EA01331EBF4FF0FE4040F44000704701F0004040F0FE4040F40000704700BF80F00040CC
S32D0000CDE802E000BF81F0004142001FBF5FEA410392EA030F7FEA226C7FEA236C6AD04FEA1262D2EB1363C1BF06
S32D0000CE10D218414048404140B8BF5B42192B88BF704710F0004F40F4000020F07F4018BF404211F0004F41F4FA
S32D0000CE38000121F07F4118BF494292EA030F3FD0A2F1010241FA03FC10EB0C00C3F1200301FA03F100F000432B
S32D0000CE6002D5494260EB4000B0F5000F13D3B0F1807F06D340084FEA310102F10102FE2A51D2B1F1004F40EB94
S32D0000CE88C25008BF20F0010040EA03007047490040EB000010F4000FA2F10102EDD1B0FA80FCACF1080CB2EB5F
S32D0000CEB00C0200FA0CF0AABF00EBC25052421843BCBFD0401843704792F0000F81F4000106BF80F400000132EB
S32D0000CED8013BB5E74FEA41037FEA226C18BF7FEA236C21D092EA030F04D092F0000F08BF0846704790EA010FD7
S32D0000CF001CBF0020704712F07F4F04D1400028BF40F00040704712F100723CBF00F50000704700F0004343F0DC
S32D0000CF28FE4040F4000070477FEA226216BF08467FEA23630146420206BF5FEA412390EA010F40F480007047C1
S32D0000CF504FF0000304E000BF10F0004348BF40425FEA000C08BF704743F0964301464FF000001CE050EA010264
S32D0000CF7808BF70474FF000030AE000BF50EA010208BF704711F0004302D5404261EB41015FEA010C02BF84465B
S32D0000CFA00146002043F0B64308BFA3F18053A3F50003BCFA8CF2083AA3EBC25310DB01FA02FC634400FA02FC6B
S32D0000CFC8C2F12002BCF1004F20FA02F243EB020008BF20F00100704702F1200201FA02FCC2F1200250EA4C0034
S32D0000CFF021FA02F243EB020008BF20EADC7070474FF0FF0C1CEAD0521EBF1CEAD15392EA0C0F93EA0C0F6FD019
S32D0000D0181A4480EA010C400218BF5FEA41211ED04FF0006343EA501043EA5111A0FB01310CF00040B1F5000FE7
S32D0000D0403EBF490041EAD3715B0040EA010062F17F02FD2A1DD8B3F1004F40EBC25008BF20F00100704790F058
S32D0000D068000F0CF0004C08BF49024CEA502040EA51207F3AC2BFD2F1FF0340EAC250704740F400004FF0000388
S32D0000D090013A5DDC12F1190FDCBF00F000407047C2F10002410021FA02F1C2F1200200FA02FC5FEA310040F1D5
S32D0000D0B8000053EA4C0308BF20EADC70704792F0000F00F0004C02BF400010F4000F013AF9D040EA0C0093F04C
S32D0000D0E0000F01F0004C02BF490011F4000F013BF9D041EA0C018FE70CEAD15392EA0C0F18BF93EA0C0F0AD00B
S32D0000D10830F0004C18BF31F0004CD8D180EA010000F00040704790F0000F17BF90F0004F084691F0000F91F0BB
S32D0000D130004F14D092EA0C0F01D142020FD193EA0C0F03D14B0218BF084608D180EA010000F0004040F0FE4051
S32D0000D15840F40000704740F0FE4040F4400070474FF0FF0C1CEAD0521EBF1CEAD15392EA0C0F93EA0C0F69D044
S32D0000D180A2EB030280EA010C49024FEA402037D04FF0805343EA111143EA10130CF000408B4238BF5B0042F14E
S32D0000D1A87D024FF4000C8B4224BF5B1A40EA0C00B3EB510F24BFA3EB510340EA5C00B3EB910F24BFA3EB9103A4
S32D0000D1D040EA9C00B3EBD10F24BFA3EBD10340EADC001B0118BF5FEA1C1CE0D1FD2A3FF650AF8B4240EBC25018
S32D0000D1F808BF20F0010070470CF0004C4CEA50207F32C2BFD2F1FF0340EAC250704740F400004FF00003013AF1
S32D0000D22037E792F0000F00F0004C02BF400010F4000F013AF9D040EA0C0093F0000F01F0004C02BF490011F4C9
S32D0000D248000F013BF9D041EA0C0195E70CEAD15392EA0C0F08D142027FF47DAF93EA0C0F7FF470AF084676E7AE
S32D0000D27093EA0C0F04D14B023FF44CAF08466EE730F0004C18BF31F0004CCAD130F000427FF45CAF31F0004376
S32D0000D2987FF43CAF5FE700BF4FF0FF3C06E000BF4FF0010C02E000BF4FF0010C4DF804CD4FEA40024FEA41039F
S32D0000D2C07FEA226C18BF7FEA236C11D001B052EA530C18BF90EA010F58BFB2EB030088BFC81738BF6FEAE1706E
S32D0000D2E818BF40F0010070477FEA226C02D15FEA402C05D17FEA236CE4D15FEA412CE1D05DF8040B704700BF16
S32D0000D310844608466146FFE70FB5FFF7C9FF002848BF10F1000F0FBD4DF808EDFFF7F4FF0CBF012000205DF839
S32D0000D33808FB00BF4DF808EDFFF7EAFF34BF012000205DF808FB00BF4DF808EDFFF7E0FF94BF012000205DF8A9
S32D0000D36008FB00BF4DF808EDFFF7D2FF94BF012000205DF808FB00BF4DF808EDFFF7C8FF34BF012000205DF8B1
S32D0000D38808FB00BF4FEA4002B2F1FE4F0FD34FF09E03B3EB12620DD94FEA002343F0004310F0004F23FA02F060
S32D0000D3B018BF404270474FF00000704712F1610F01D1420205D110F0004008BF6FF0004070474FF00000704797
S32D0000D3D880B582B000AF78607868FFF7B9FD034641F25010C1F6FF70194600F065FD7B6803F101031846FFF7CB
S32D0000D400ABFD034641F25810C1F6FF70194600F057FD07F10807BD4680BD00BF80B582B000AF78607868FFF7DF
S32D0000D42897FD034641F25010C1F6FF70194600F043FD7B68C3F100031846FFF789FD034641F25810C1F6FF7033
S32D0000D450194600F035FD07F10807BD4680BD00BF80B500AF41F25010C1F6FF7000F0D8FC41F25810C1F6FF7005
S32D0000D47800F0D2FC4FF000004FF07E5101F5C00101F0B2FA80BD00BF80B500AF41F26010C1F6FF7002F096F8FE
S32D0000D4A041F26410C1F6FF7002F090F880BD00BF98B500AF41F26410C1F6FF7002F072F8044641F26010C1F652
S32D0000D4C8FF7002F06BF80346E3181846FFF7EEF802460B46104619464FF000024FF08043FFF774FA02460B4666
S32D0000D4F010461946FFF7DEFB0346184698BD00BF80B586B000AFF860C7E90023D7E900011BA3D3E90023FFF736
S32D0000D51833F902460B461046194619A3D3E90023FFF754FA02460B4610461946FFF7BEFB03467B61FFF7A8FFCD
S32D0000D540F868FFF749FF09E0FFF7B2FF034641F23020C1F6FF70194603F07CFCFFF7A8FF02467B699A42ACBFC3
S32D0000D56800230123DBB2002BEAD1FFF775FF07F11807BD4680BD00BF0000000000E073400BD7A3703D6A1F40CD
S32D0000D59080B582B000AF78603960FFF779FF7868FFF73CFF09E0FFF783FF034641F23020C1F6FF70194603F0C2
S32D0000D5B84DFCFFF779FF02463B689A42ACBF00230123DBB2002BEAD1FFF746FF07F10807BD4680BD0000000020
S32D0000D5E090B583B000AF41F22810C1F6FF7002F013F803461846FFF76FF802460B464FF001010C461046194683
S32D0000D6082DA3D3E90023FFF729FB0346002B02D14FF000031C46E3B2002B03D04FF001037B6043E041F2281001
S32D0000D630C1F6FF7001F0F0FF03461846FFF74CF802460B464FF001010C46104619461CA3D3E90023FFF724FB51
S32D0000D6580346002B02D14FF000031C46E3B2002B19D041F22810C1F6FF7001F0D1FF03464FF00102144618467B
S32D0000D6801149FFF75BFE0346002B02D14FF000031C46E3B2002B02D04FF0010301E04FF00003002B03D04FF0B3
S32D0000D6A802037B6002E04FF003037B60184607F10C07BD4690BD00BFE17A14AE47E1E23F0000803FAFF30080B3
S32D0000D6D080B500AF41F29820C1F6FF7006F0B4F941F23020C1F6FF7045F64C01C0F2010103F0CEFA41F2982009
S32D0000D6F8C1F6FF7006F074FE034641F23020C1F6FF70194603F0B6FB41F23020C1F6FF7045F67001C0F2010178
S32D0000D72003F084FB09E0FFF75BFF034641F23020C1F6FF70194603F08DFBFFF751FF0346032B14BF002301238D
S32D0000D748DBB2002BEBD14FF01E00FFF741FE00BF41F21810C1F6FF7001F0C4FA0346002B0BD041F21C10C1F659
S32D0000D770FF7001F0BBFA0346002B02D04FF0010301E04FF00003002BE6D16FF013004FF000024FF07E5303F52D
S32D0000D798E003FFF7B1FE41F23020C1F6FF7045F68401C0F2010103F03DFB4FF01E0040F28111FFF7E9FE41F262
S32D0000D7C03020C1F6FF7045F69801C0F2010103F02DFB6FF01300FFF7FFFD6FF013004FF000024FF0804303F511
S32D0000D7E8E013FFF789FE41F23020C1F6FF7045F6B401C0F2010103F015FBFEE780B582B000AF786039607B6804
S32D0000D810012B7ED13A684FF6FF739A4279D141F21810C1F6FF704FF0130101F02FF941F21C10C1F6FF704FF03F
S32D0000D838040101F027F941F22010C1F6FF704FF0120101F01FF941F22410C1F6FF704FF0030101F017F941F2C4
S32D0000D8602810C1F6FF704FF0100101F0C3FE41F22C10C1F6FF704FF00A0101F0BBFE41F23010C1F6FF704FF0D9
S32D0000D888090101F0B3FE41F23410C1F6FF704FF0080101F0ABFE41F23810C1F6FF704FF0000102F0E3FA41F264
S32D0000D8B04410C1F6FF704FF0010102F0DBFA41F25010C1F6FF704FF00101144A00F050FA41F25810C1F6FF7075
S32D0000D8D84FF000010F4A00F047FA41F26010C1F6FF704FF0000101F0A1FA41F26410C1F6FF704FF0010101F0C4
S32D0000D90099FA41F26810C1F6FF704FF0030102F021F907F10807BD4680BD00BF0000404180B500AF4FF001009B
S32D0000D9284FF6FF71FFF76AFF80BD00BF80B500AF41F2D422C1F6FF7241F21813C1F6FF73D31A194641F218135B
S32D0000D950C1F6FF731A460B4610464FF000011A4606F0C9FE80BD00BF07F03EFF00F0B0F9FFF7E0FF07F010FF78
S32D0000D97807F0ACFE07F044FF00F00CF84FF0000041F26C11C1F6FF71FFF79EFE0346184606F088FE80B500AF03
S32D0000D9A04FF4E043C4F204034FF4E042C4F2040202F5805202F13802126842F4785203F5805303F138031A6031
S32D0000D9C800F02EF900F094F841F27C13C1F6FF734FF058021A6041F27C13C1F6FF731B684FF47A7202FB03F211
S32D0000D9F041F27813C1F6FF731A6041F27813C1F6FF731B681A464FF4E043C4F2040303F5825303F104031B6870
S32D0000DA1803F070634FEA136303F10103B2FBF3F31A4641F28013C1F6FF731A604FF4E043C4F204034FF4E0428F
S32D0000DA40C4F2040202F5805202F13C02126842F0225203F5805303F13C031A604FF4E043C4F204034FF4E042E2
S32D0000DA68C4F2040202F5805202F13002126842F0006203F5805303F130031A604FF45043C4F203034FF48072A5
S32D0000DA901A614FF0640000F023FE4FF45043C4F203034FF45042C4F20302526922F010025A614FF45043C4F2F1
S32D0000DAB803034FF000021A604FF45043C4F203034FF010025A6101F0D5FE01F07DFF41F27410C1F6FF7000F0E3
S32D0000DAE083FE41F23020C1F6FF7002F001FD41F2883000F061FF80BD80B400AF4FF48043C4F206034FF000029D
S32D0000DB085A704FF48043C4F206034FF098021A704FF48043C4F206039B79DBB203F01003002B0CBF0023012354
S32D0000DB30DBB2002BF0D14FF48043C4F206039B79DBB203F00C034FEA9303022B0CBF00230123DBB2002BEED161
S32D0000DB584FF48043C4F206034FF018021A714FF48043C4F206034FF000025A714FF4E043C4F2040303F5825335
S32D0000DB8003F104034FF00002C0F213121A604FF48043C4F206034FF054025A7100BF4FF48043C4F206039B792D
S32D0000DBA8DBB203F02003002B14BF00230123DBB2002BF0D100BF4FF48043C4F206039B79DBB203F04003002B68
S32D0000DBD014BF00230123DBB2002BF0D14FF48043C4F206034FF48042C4F206021278D2B202F03F02D2B21A70BD
S32D0000DBF84FF48043C4F206039B79DBB203F00C034FEA9303032B0CBF00230123DBB2002BEED14FF00003184671
S32D0000DC20BD4680BC704700BF80B400AF4FF44043C4F204034FF480725A634FF2C003C4F20F034FF2C002C4F244
S32D0000DC480F02526942F400525A614FF2C003C4F20F034FF2C002C4F20F02126842F400521A604FF44043C4F211
S32D0000DC70040340F20312C0F20A021A634FF46143CEF200034FF46142CEF20002D2F8882142F08062C3F88821C0
S32D0000DC984FF46143CEF200034FF46142CEF20002926842F080629A60BD4680BC704700BF80B483B000AF786061
S32D0000DCC0FEE700BF80B400AF00BEBD4680BC704780B400AF4FF0E0224CF20003C0F20003C2F8083D4FF400534C
S32D0000DCE8C4F205034CF22052DA814FF40053C4F205034DF62812DA814FF40053C4F205034FF0D2021A80BD4615
S32D0000DD1080BC704780B400AF4FF44043C4F20403D3F8A03003F48053002B0CBF00230123DBB2002B19D04FF406
S32D0000DD384043C4F204034FF44042C4F20402D2F8A02022F48052C3F8A0204FF2C003C4F20F034FF2C002C4F28A
S32D0000DD600F02126822F400521A60BD4680BC704790B585B000AFF8600B467A60FB72FB68FA7A1A71FB684FF015
S32D0000DD8800025A714FF001031C4678682049FFF7EFFA0346002B02D14FF000031C46E3B2002B02D01A4B7B6016
S32D0000DDB011E04FF001031C4678681849FFF7C8FA0346002B02D14FF000031C46E3B2002B01D0124B7B60786822
S32D0000DDD8FEF77EFC02460B46104619460AA3D3E90023FEF7C9FC02460B4610461946FEF7A5FF0246FB681A600E
S32D0000DE00FB68184607F11407BD4690BDAFF30080ABAAAAAAAAAA2040000040410000803F80B582B000AF786023
S32D0000DE287B685B79002B10D07B684FF000025A717B681B7941F27410C1F6FF7019464FF000024FF01E0300F0D7
S32D0000DE5015FD07F10807BD4680BD00BF80B584B000AF786039603B687F2B03DD4FF07F03FB7309E03B6813F117
S32D0000DE78800F03DA4FF08003FB7301E03B68FB737B685B79FA7B9A420FD07B68FA7B5A717B681A79FB7B41F2C5
S32D0000DEA07410C1F6FF7011461A464FF01E0300F0E5FC07F11007BD4680BD00BF00000000B0B584B000AF786094
S32D0000DEC839604FF001031C4638684D49FFF732FA0346002B02D14FF000031C46E3B2002B02D0474B3B6011E0FB
S32D0000DEF04FF001031C4638684449FFF73DFA0346002B02D14FF000031C46E3B2002B01D03E4B3B603868FEF7D0
S32D0000DF18DFFB04460D467B681B681846FEF7D8FB02460B46104619464FF000024FF0804303F5B203FEF74AFD5E
S32D0000DF4002460B4620462946FEF71AFC02460B4610461946FEF7F6FE03463B604FF001031C4638682A49FFF771
S32D0000DF68FDF90346002B02D14FF000031C46E3B2002B14D03868FEF7ABFB02460B46104619461DA3D3E90023DE
S32D0000DF90FEF7F6FB02460B4610461946FEF78AFE0346FB6022E03868FEF796FB02460B46104619464FF0000257
S32D0000DFB84FF0804303F5C003FEF7DEFB02460B46104619464FF000024FF0804303F5B203FEF7FCFC02460B46EC
S32D0000DFE010461946FEF766FE0346FB607868F968FFF734FF07F11007BD46B0BDAFF3008052B81E85EB51F43F3A
S32D0000E0080000C8C20000C84200000000AFF3008080B485B000AF02460B46FA71BB71BB79002B07D141F27013FF
S32D0000E030C1F6FF734FF000021A7006E041F27013C1F6FF734FF001021A704FF03803FB7341F27013C1F6FF7376
S32D0000E0581A78FB7B1343FB734FF4C043C4F206034FF4C042C4F206029278D2B242F01002D2B29A704FF4C04320
S32D0000E080C4F206034FF4C042C4F206029278D2B242F02002D2B29A704FF4C043C4F20603FA7B1A7107F1140728
S32D0000E0A8BD4680BC704700BF80B483B000AF4FF001037B6004E000BF7B6803F101037B607B68312BCCBF00231B
S32D0000E0D00123DBB2002BF2D107F10C07BD4680BC704700BF80B582B000AF02460B46FA71BB7141F27113C1F60F
S32D0000E0F8FF731B7818464FF00001FFF789FF4FF4C043C4F20603DB78DBB203F00203002B14BF00230123DBB22A
S32D0000E120002BF0D14FF4C043C4F206034FF4C042C4F20602D278D2B242F00202D2B2DA704FF4C043C4F2060306
S32D0000E148FA791A714FF4C043C4F20603DB78DBB203F00203002B14BF00230123DBB2002BF0D14FF4C043C4F214
S32D0000E17006034FF4C042C4F20602D278D2B242F00202D2B2DA704FF4C043C4F20603BA791A714FF4C043C4F2E4
S32D0000E1980603DB78DBB203F00203002B14BF00230123DBB2002BF0D14FF4C043C4F206034FF4C042C4F20602B2
S32D0000E1C0D278D2B242F00202D2B2DA704FF4C043C4F206034FF4C042C4F206029278D2B222F02002D2B29A7007
S32D0000E1E84FF4C043C4F206034FF4C042C4F206029278D2B222F01002D2B29A70FFF754FF07F10807BD4680BD31
S32D0000E21080B582B000AF0346FB71FB79184600F06BF807F10807BD4680BD00BF80B582B000AF02460B46FA71D0
S32D0000E238BB7100F039F8FB794FEA4303DBB21846FFF7E2FFBB791846FFF7DEFF00F03EF807F10807BD4680BDE4
S32D0000E26080B500AF4FF0FF0000F046F80346184680BD00BF80B584B000AF0346FB7100F017F8FB794FEA4303DE
S32D0000E288DBB243F00103DBB2DBB21846FFF7BCFFFFF7E2FF0346FB7300F018F8FB7B184607F11007BD4680BDCA
S32D0000E2B080B400AF4FF24003C4F20F034FF24002C4F20F02926842F480129A60BD4680BC704700BF80B400AF73
S32D0000E2D84FF24003C4F20F034FF24002C4F20F02526842F480125A60BD4680BC704700BF80B485B000AF034630
S32D0000E300FB714FF00003BB7303E0FB7B03F10103FB734FF44043C4F20A03DB6A4FF00003002BF2D14FF4404390
S32D0000E328C4F20A034FF44042C4F20A02D26A42F00042DA624FF44043C4F20A03FA795A6300BF4FF44043C4F29D
S32D0000E3500A03DB6A03F40033002B14BF00230123DBB2002BF1D14FF44043C4F20A039B6BBB73BB7B184607F11B
S32D0000E3781407BD4680BC704780B582B000AF4FF4E043C4F204034FF4E042C4F2040202F5805202F130021268A4
S32D0000E3A042F4805203F5805303F130031A604FF42043C4F204034FF480721A654FF24003C4F20F034FF24002F5
S32D0000E3C8C4F20F02526942F480125A61FFF77EFF4FF42043C4F204034FF400725A654FF42043C4F204034FF432
S32D0000E3F000729A654FF42043C4F204034FF40072DA654FF44043C4F20A034FF44062C8F200021A604FF44043CD
S32D0000E418C4F20A034FF00502C3F60062DA604FF000037B6007E04FF0FF00FFF7EDFE7B6803F101037B607B68BC
S32D0000E440092BCCBF00230123DBB2002BEFD104A1D1E9000100F0CCFA07F10807BD4680BD9A9999999999B93F44
S32D0000E46890B486B000AFF860B9607A60FA684FF42043C4F206039A4214D14FF4E043C4F204034FF4E042C4F24C
S32D0000E490040202F5805202F13402126842F4806203F5805303F134031A6083E0FA684FF43043C4F206039A424E
S32D0000E4B814D14FF4E043C4F204034FF4E042C4F2040202F5805202F13402126842F4006203F5805303F1340313
S32D0000E4E01A6067E0FA684FF44043C4F206039A4214D14FF4E043C4F204034FF4E042C4F2040202F5805202F1A5
S32D0000E5083402126842F4805203F5805303F134031A604BE0FA684FF45043C4F206039A4214D14FF4E043C4F2BE
S32D0000E53004034FF4E042C4F2040202F5805202F13402126842F4005203F5805303F134031A602FE0FA684FF47D
S32D0000E5582043C4F20E039A4214D14FF4E043C4F204034FF4E042C4F2040202F5805202F12802126842F48062EE
S32D0000E58003F5805303F128031A6013E04FF4E043C4F204034FF4E042C4F2040202F5805202F12802126842F43C
S32D0000E5A8006203F5805303F128031A60FB68DB78DBB223F00C03DAB2FB68DA70FB684FF000029A70BB684FF4CD
S32D0000E5D07A7202FB03F27B684FEA031392FBF3F39CB2FB681B78DBB223F01F03FB75234603F4F8534FEA2323FA
S32D0000E5F8DBB203F01F03DAB2FB7D1343DAB2FB681A70E2B2FB685A70BB684FF4FA4202FB03F27B684FEA0313F9
S32D0000E62092FBF3F39AB2234619464FEAC121CB1A4FEA43139BB2D3189CB2FB689B7ADBB223F01F03FB75E3B2F1
S32D0000E64803F01F03DAB2FB7D1343DAB2FB689A72FB68DB78DBB243F00C03DAB2FB68DA7007F11807BD4690BC16
S32D0000E670704700BF80B483B000AF786000BF7B681B79DBB203F02003002B14BF00230123DBB2002BF3D17B689B
S32D0000E698DB79DBB2184607F10C07BD4680BC704780B483B000AF78600B46FB7000BF7B681B79DBB2DBB26FEAC1
S32D0000E6C00303DBB24FEAD313DBB2002BF3D17B68FA78DA7107F10C07BD4680BC704700BF80B483B000AF7860B0
S32D0000E6E84FF4E043C4F204034FF4E042C4F2040202F5805202F13802126842F0010203F5805303F138031A60A7
S32D0000E7104FF00003C4F204037A689A604FF00003C4F204034FF005025A604FF00003C4F204034FF00002C4F20B
S32D0000E7380402126842F001021A6000BF4FF00003C4F204031B6803F08003002B14BF00230123DBB2002BF1D10E
S32D0000E7604FF00003C4F204034FF00002C4F20402126822F001021A6007F10C07BD4680BC704700BF80B582B05F
S32D0000E78800AF786039607B68012B0AD13A684FF6FF739A4205D141F27410C1F6FF7000F00FF807F10807BD4670
S32D0000E7B080BD00BF80B500AF4FF001004FF6FF71FFF7E0FF80BD00BF80B483B000AF78607B684FF000021A70F9
S32D0000E7D87B68184607F10C07BD4680BC704700BF80B582B000AF78607B681B7883F00103DBB2002B36D04FF436
S32D0000E800E043C4F2040303F5805303F128034FF400621A604FF45043C4F204034FF440721A624FF45043C4F271
S32D0000E82804034FF440725A6241F27813C1F6FF731B684FEAD372D3184FEA63034FF43040C4F20E0019464FF47F
S32D0000E8506142FFF709FE4FF0640000F0ADF87B684FF001021A704FF0010301E04FF00003184607F10807BD4645
S32D0000E87880BD00BF80B582B000AF7860F970BA707B704FF43040C4F20E004FF07F01FFF707FF4FF43040C4F26F
S32D0000E8A00E004FF00801FFF7FFFEFB784FF43040C4F20E001946FFF7F7FEBB784FF43040C4F20E001946FFF7CE
S32D0000E8C8EFFE7B784FF43040C4F20E001946FFF7E7FE4FF43040C4F20E004FF0FF01FFF7DFFE07F10807BD46FE
S32D0000E8F080BD00BF80B487B000AFF860B9607A60FA6844F6D353C1F26203A3FB02134FEA9312BB68D3187B6144
S32D0000E918FA6844F6D353C1F26203A3FB02134FEA93134FF47A7101FB03F3D31AFB60FB684FEAC33244F6D3530C
S32D0000E940C1F26203A3FB02134FEA93127B68D3183B613B694FEAD3337A69D3187B613B694FEA43434FEA5343D7
S32D0000E9683B614FF45043C4F203031B681A467B699A4211D34FF45043C4F203031B681A467B699A420BD14FF478
S32D0000E9905043C4F203035B681A463B699A4202D24FF0010301E04FF00003002BDDD107F11C07BD4680BC704743
S32D0000E9B880B584B000AF78604FF45043C4F203031B68FB604FF45043C4F203035B68BB607B681846F968BA689D
S32D0000E9E0FFF788FF07F11007BD4680BD0000000080B584B000AFC7E900014FF45043C4F203031B68FB604FF4C1
S32D0000EA085043C4F203035B68BB60D7E900010AA3D3E90023FDF7B0FE02460B4610461946FEF76CF90346184675
S32D0000EA30F968BA68FFF75EFF07F11007BD4680BD0000000000408F4080B483B000AF4FF45043C4F203031B6859
S32D0000EA584FF47A7202FB03F37B604FF45043C4F203035B684FF47A7202FB03F34FEAD3337A68D3187B607B6852
S32D0000EA80184607F10C07BD4680BC704780B582B000AF78600B46FB70FB787868194600F013F87B68184607F179
S32D0000EAA80807BD4680BD00BF80B483B000AF78607B68184607F10C07BD4680BC704700BF80B483B000AF786055
S32D0000EAD00B46FB707B68FA781A707B681B781A4645F69433C0F201039B5C042B00F2F98001A252F823F000BF9F
S32D0000EAF80DEB00006BEB0000C9EB000027EC000085EC00004FF41043C4F204037A681278114645F6D832C0F25D
S32D0000EB20010252F8212040F2031143F822104FF47043C4F20F034FF47042C4F20F02526911467A681278104638
S32D0000EB4845F6D832C0F2010252F8202002F01F024FF0010000FA02F26FEA02020A405A61BBE04FF42043C4F281
S32D0000EB7004037A681278114645F6D832C0F2010252F8212040F2031143F822104FF24003C4F20F034FF24002A6
S32D0000EB98C4F20F02526911467A681278104645F6D832C0F2010252F8202002F01F024FF0010000FA02F26FEA96
S32D0000EBC002020A405A618CE04FF43043C4F204037A681278114645F6D832C0F2010252F8212040F2031143F876
S32D0000EBE822104FF28003C4F20F034FF28002C4F20F02526911467A681278104645F6D832C0F2010252F820205F
S32D0000EC1002F01F024FF0010000FA02F26FEA02020A405A615DE04FF44043C4F204037A681278114645F6D8326B
S32D0000EC38C0F2010252F8212040F2031143F822104FF2C003C4F20F034FF2C002C4F20F02526911467A681278A7
S32D0000EC60104645F6D832C0F2010252F8202002F01F024FF0010000FA02F26FEA02020A405A612EE04FF4504325
S32D0000EC88C4F204037A681278114645F6D832C0F2010252F8212040F2031143F822104FF47143C4F20F034FF4A4
S32D0000ECB07142C4F20F02526911467A681278104645F6D832C0F2010252F8202002F01F024FF0010000FA02F223
S32D0000ECD86FEA02020A405A6100BF07F10C07BD4680BC704780B485B000AF78604FF00003FB607B681B781A4689
S32D0000ED0045F69433C0F201039B5C042B00F2868001A252F823F000BF2DED00005DED00008DED0000BDED0000C8
S32D0000ED28EDED00004FF47043C4F20F031B691A467B681B78194645F6D833C0F2010353F8213003F01F034FF080
S32D0000ED50010101FA03F31340FB605FE04FF24003C4F20F031B691A467B681B78194645F6D833C0F2010353F869
S32D0000ED78213003F01F034FF0010101FA03F31340FB6047E04FF28003C4F20F031B691A467B681B78194645F680
S32D0000EDA0D833C0F2010353F8213003F01F034FF0010101FA03F31340FB602FE04FF2C003C4F20F031B691A4634
S32D0000EDC87B681B78194645F6D833C0F2010353F8213003F01F034FF0010101FA03F31340FB6017E04FF47143CD
S32D0000EDF0C4F20F031B691A467B681B78194645F6D833C0F2010353F8213003F01F034FF0010101FA03F3134042
S32D0000EE18FB6000BFFB68002B0CBF00230123DBB2184607F11407BD4680BC704780B584B000AF78600B46FB7072
S32D0000EE404FF00B03FB73FA78FB7B786811461A4600F0ECF87B68184607F11007BD4680BD80B485B000AF786016
S32D0000EE687B68A3F11003002B01DA03F11F034FEA6313FB60FB68012B48D0022B00F08980002B40F0C9804FF418
S32D0000EE906142CEF200024FF46143CEF20003D3F8803119467B68A3F110004FF01F03C8F200030340002B05DA78
S32D0000EEB803F1FF3363F01F0303F101034FF0010000FA03F30B43C2F880314FF46142CEF200024FF46143CEF261
S32D0000EEE000031B6819467B68A3F110004FF01F03C8F200030340002B05DA03F1FF3363F01F0303F101034FF05B
S32D0000EF08010000FA03F30B43136085E04FF46142CEF200024FF46143CEF20003D3F8843119467B68A3F110000C
S32D0000EF304FF01F03C8F200030340002B05DA03F1FF3363F01F0303F101034FF0010000FA03F30B43C2F88431C8
S32D0000EF584FF46142CEF200024FF46143CEF200035B6819467B68A3F110004FF01F03C8F200030340002B05DA25
S32D0000EF8003F1FF3363F01F0303F101034FF0010000FA03F30B43536042E04FF46142CEF200024FF46143CEF22E
S32D0000EFA80003D3F8883119467B68A3F110004FF01F03C8F200030340002B05DA03F1FF3363F01F0303F10103D0
S32D0000EFD04FF0010000FA03F30B43C2F888314FF46142CEF200024FF46143CEF200039B6819467B68A3F11000E7
S32D0000EFF84FF01F03C8F200030340002B05DA03F1FF3363F01F0303F101034FF0010000FA03F30B43936000BFBD
S32D0000F02007F11407BD4680BC704700BF80B584B000AF786013460A46FA70BB707B68FA781A70BB78FB737B6869
S32D0000F0481B781A4645F69433C0F201039B5C042B00F2F68001A252F823F000BF79F00000EDF0000061F100000A
S32D0000F07049F20000D5F100004FF41043C4F204037A681278114645F6D832C0F2010252F82110FA7B4FEA0242F4
S32D0000F09802F4702242F4887242F0030243F821204FF47043C4F20F034FF47042C4F20F02526911467A681278E7
S32D0000F0C0104645F6D832C0F2010252F8202002F01F024FF0010000FA02F26FEA02020A405A614FF06700FFF709
S32D0000F0E8BBFEADE04FF42043C4F204037A681278114645F6D832C0F2010252F82110FA7B4FEA024202F470229F
S32D0000F11042F4887242F0030243F821204FF24003C4F20F034FF24002C4F20F02526911467A681278104645F649
S32D0000F138D832C0F2010252F8202002F01F024FF0010000FA02F26FEA02020A405A614FF06800FFF781FE73E04E
S32D0000F1604FF43043C4F204037A681278114645F6D832C0F2010252F82110FA7B4FEA024202F4702242F488722C
S32D0000F18842F0030243F821204FF28003C4F20F034FF28002C4F20F02526911467A681278104645F6D832C0F2C5
S32D0000F1B0010252F8202002F01F024FF0010000FA02F26FEA02020A405A614FF06900FFF747FE39E04FF450432F
S32D0000F1D8C4F204037A681278114645F6D832C0F2010252F82110FA7B4FEA024202F4702242F4887242F0030233
S32D0000F20043F821204FF47143C4F20F034FF47142C4F20F02526911467A681278104645F6D832C0F2010252F8D0
S32D0000F228202002F01F024FF0010000FA02F26FEA02020A405A614FF06B00FFF70DFE00BF07F11007BD4680BD1C
S32D0000F250B0B48BB000AF45F6C803C0F2010307F104041D460FCD0FC495E80F0084E80F004FF000037B6248E026
S32D0000F2784FF42043C4F20403D3F8A0301A467B6A4FEA830307F12800C31853F8243C4FF0010101FA03F313403B
S32D0000F2A0002B0CBF00230123DBB2002B29D041F2A413C1F6FF737A6A53F8223003F1010141F2A413C1F6FF73B5
S32D0000F2C87A6A43F822104FF42043C4F204034FF42042C4F20402D2F8A02011467A6A4FEA820207F128008218C7
S32D0000F2F052F8242C4FF0010000FA02F20A40C3F8A0207B6A03F101037B627B6A072BCCBF00230123DBB2002B08
S32D0000F318AED107F12C07BD46B0BC7047B0B489B000AF45F6E803C0F2010307F104041D460FCD0FC495E803003D
S32D0000F34084E803004FF00003FB6149E04FF43043C4F20403D3F8A0301A46FB694FEA830307F12000C31853F89A
S32D0000F3681C3C4FF0010101FA03F31340002B0CBF00230123DBB2002B2AD0FB6903F1080241F2A413C1F6FF7336
S32D0000F39053F8223003F1010141F2A413C1F6FF7343F822104FF43043C4F204034FF43042C4F20402D2F8A020CE
S32D0000F3B81146FA694FEA820207F12000821852F81C2C4FF0010000FA02F20A40C3F8A020FB6903F10103FB61C1
S32D0000F3E0FB69052BCCBF00230123DBB2002BADD107F12407BD46B0BC704700BFB0B48DB000AF45F60013C0F20B
S32D0000F40801033C461D460FCD0FC40FCD0FC495E8070084E807004FF00003FB6249E04FF41043C4F20403D3F8B2
S32D0000F430A0301A46FB6A4FEA830307F13000C31853F8303C4FF0010101FA03F31340002B0CBF00230123DBB251
S32D0000F458002B2AD0FB6A03F10E0241F2A413C1F6FF7353F8223003F1010141F2A413C1F6FF7343F822104FF48F
S32D0000F4801043C4F204034FF41042C4F20402D2F8A0201146FA6A4FEA820207F13000821852F8302C4FF0010053
S32D0000F4A800FA02F20A40C3F8A020FB6A03F10103FB62FB6A0A2BCCBF00230123DBB2002BADD107F13407BD46F1
S32D0000F4D0B0BC7047B0B487B000AF45F62C13C0F201033C461D460FCD0FC42B6823604FF000037B6149E04FF43D
S32D0000F4F85043C4F20403D3F8A0301A467B694FEA830307F11800C31853F8183C4FF0010101FA03F31340002BBE
S32D0000F5200CBF00230123DBB2002B2AD07B6903F1190241F2A413C1F6FF7353F8223003F1010141F2A413C1F6BF
S32D0000F548FF7343F822104FF45043C4F204034FF45042C4F20402D2F8A02011467A694FEA820207F11800821867
S32D0000F57052F8182C4FF0010000FA02F20A40C3F8A0207B6903F101037B617B69042BCCBF00230123DBB2002B97
S32D0000F598ADD107F11C07BD46B0BC704780B483B000AF78607B681B781A4641F2A413C1F6FF7353F822301846B4
S32D0000F5C007F10C07BD4680BC704700BF80B483B000AF78607B681B781A4641F2A413C1F6FF734FF0000143F80B
S32D0000F5E8221007F10C07BD4680BC704780B483B000AF78600B46FB707B68FA781A707B68184607F10C07BD46EA
S32D0000F61080BC70470000000080B586B000AF78607B681B781A4645F65843C0F2010353F822303B617B681B78D6
S32D0000F6381A4645F6B433C0F201039B5CFB733B69DBB203F01F03DAB241F28413C1F6FF731A723B69DBB203F092
S32D0000F6601F03DAB241F28413C1F6FF735A724FF46143CEF200034FF01002C3F88820FB7B002B1ED14FF430406E
S32D0000F688C4F2030041F28411C1F6FF7100F08AFB4FF43043C4F203031B6803F08003002B14BF00230123DBB2FA
S32D0000F6B0002BF1D14FF43043C4F203031B697B611DE04FF43040C4F20B0041F28411C1F6FF7100F06BFB4FF474
S32D0000F6D83043C4F20B031B6803F08003002B14BF00230123DBB2002BF1D14FF43043C4F20B031B697B614FF4F8
S32D0000F7006143CEF200034FF46142CEF20002D2F8882142F01002C3F888214FF46143CEF200034FF46142CEF261
S32D0000F7280002926842F010029A607B694FEA03434FEA13431846FCF7A9FF02460B46104619460FA3D3E90023AF
S32D0000F750FDF716F802460B46104619460CA3D3E90023FDF737F902460B4610461946FDF7E9FA0346BB60BB68DD
S32D0000F778184607F11807BD4680BD00BFAFF30080A4703D0AD7A30A4000000000E0FFEF4080B586B000AF7860AE
S32D0000F7A07B681B781A4645F65843C0F2010353F822303B617B681B781A4645F6B433C0F201039B5CFB733B69E9
S32D0000F7C8DBB203F01F03DAB241F29413C1F6FF731A723B69DBB203F01F03DAB241F29413C1F6FF735A72FB7B3F
S32D0000F7F0002B1ED14FF43040C4F2030041F29411C1F6FF7100F0D2FA4FF43043C4F203031B6803F08003002B14
S32D0000F81814BF00230123DBB2002BF1D14FF43043C4F203031B697B611DE04FF43040C4F20B0041F29411C1F65C
S32D0000F840FF7100F0B3FA4FF43043C4F20B031B6803F08003002B14BF00230123DBB2002BF1D14FF43043C4F2EF
S32D0000F8680B031B697B617B69184607F11807BD4680BD00BF98B500AF41F28413C1F6FF734FF05C021A7041F263
S32D0000F8908413C1F6FF734FF010025A7041F28413C1F6FF7341F234225A8041F28413C1F6FF7345F278629A80FB
S32D0000F8B841F28413C1F6FF734FF010029A7141F28413C1F6FF734FF00702DA7141F28413C1F6FF734FF4C02235
S32D0000F8E0DA6041F28413C1F6FF734FF01F021A7241F28413C1F6FF734FF01F025A724FF43040C4F2030041F223
S32D0000F9088411C1F6FF7100F04DFA4FF43040C4F20B0041F28411C1F6FF7100F043FA4FF43040C4F20B0000F0EA
S32D0000F93097F94FF43040C4F2030000F091F94FF43040C4F20B0041F28411C1F6FF7100F02DFA4FF43040C4F250
S32D0000F958030041F28411C1F6FF7100F023FA41F29412C1F6FF7241F28413C1F6FF7314460FCB84E80F0041F2AC
S32D0000F9809413C1F6FF734FF05C021A7041F29413C1F6FF734FF00402DA7198BD80B500AF41F22823C1F6FF73EF
S32D0000F9A81B6803F1010241F22823C1F6FF731A6000F04CF84FF4E043C4F203034FF00102C3F80C2180BD00BF1A
S32D0000F9D080B500AF4FF4E043C4F203034FF001021A6048F2A060C0F2010000F023F84FF4E043C4F203034FF0EE
S32D0000F9F80302C3F808214FF46143CEF200034FF46142CEF20002D2F8882142F01002C3F888214FF46143CEF2E4
S32D0000FA2000034FF46142CEF20002926842F010029A6080BD80B483B000AF78604FF4E043C4F203037A68C3F8EB
S32D0000FA48002107F10C07BD4680BC704780B584B000AF41F22423C1F6FF731B68FB6029E0FB685B78FB71FB68C7
S32D0000FA709B68184600F02EF80346BB71BB79002B19D0FB685B68012B15DDFB689B681B69BB6008E0BB685B681D
S32D0000FA9803F10102BB685A60BB681B69BB60BB68002B0CBF00230123DBB2002BEED1FB68DB68FB60FB68002B44
S32D0000FAC00CBF00230123DBB2002BCDD107F11007BD4680BD80B584B000AF78607868FFF75BFE0346FB607B68BB
S32D0000FAE89B695B78FB72FB7A002B12D17B68DA68FB689A420DDA7B689B694FF001025A707B685B6803F101024E
S32D0000FB107B685A604FF0010317E0FB7A012B12D17B689A68FB689A420DDD7B689B694FF000025A707B685B68C6
S32D0000FB3803F101027B685A604FF0010301E04FF00003184607F11007BD4680BD80B582B000AF78600B46FB704E
S32D0000FB607B681846FEF7A4FF7B6803F101031846FEF79EFF7B6803F102031846FEF798FFFB78032B66D801A28B
S32D0000FB8852F823F09DFB0000CBFB0000F9FB000027FC00007B6818464FF00001FEF790FF7B6803F1010318463F
S32D0000FBB04FF00101FEF788FF7B6803F1020318464FF00201FEF780FF44E07B6818464FF00801FEF779FF7B687D
S32D0000FBD803F1010318464FF00901FEF771FF7B6803F1020318464FF00A01FEF769FF2DE07B6818464FF010017C
S32D0000FC00FEF762FF7B6803F1010318464FF01101FEF75AFF7B6803F1020318464FF01201FEF752FF16E07B68FD
S32D0000FC2818464FF01801FEF74BFF7B6803F1010318464FF01901FEF743FF7B6803F1020318464FF01A01FEF767
S32D0000FC503BFF00BF7B68184607F10807BD4680BD80B485B000AF78607B681B6A23F040027B681A627B685B6A51
S32D0000FC7823F00B027B685A627B685B6A43F007027B685A627B685B6A43F080027B685A627B681B6803F0800344
S32D0000FCA0002B14BF00230123DBB2002BF4D17B685B6A03F04003002B0CBF00230123DBB2002B02D04FF001038C
S32D0000FCC869E04FF00003FB817B68DB6CFB817B689B6C9AB2FB89D318FB817B685B6C9AB2FB89D318FB817B687C
S32D0000FCF01B6C9AB2FB89D318FB817B68DB6B9AB2FB89D318FB817B689B6B9AB2FB89D318FB81FB894FEA530395
S32D0000FD18FB81FB896FEA43436FEA5343FB81FA897B68DA624FF00003FB817B68DB6EFB817B689B6E9AB2FB89AF
S32D0000FD40D318FB817B685B6E9AB2FB89D318FB817B681B6E9AB2FB89D318FB817B68DB6D9AB2FB89D318FB8146
S32D0000FD687B689B6D9AB2FB89D318FB81FB894FEA5303FB81FB896FEA43436FEA5343FB81FA897B681A637B6828
S32D0000FD905B6A23F080027B685A624FF00003184607F11407BD4680BC704700BF80B483B000AF786039603B68BA
S32D0000FDB81B781A467B689A603B685B781A467B68DA603B685B881A467B689A613B689B881A467B68DA613B68AF
S32D0000FDE09B791A467B681A623B68DB791A467B685A623B68DA687B681A653B681B7A1A467B681A603B685B7A78
S32D0000FE081A467B685A6007F10C07BD4680BC704780B483B000AF78607B68184607F10C07BD4680BC704700BFDF
S32D0000FE3080B582B000AF786039607B68012B0AD13A684FF6FF739A4205D141F22C20C1F6FF70FFF7E1FF07F1B5
S32D0000FE580807BD4680BD00BF80B500AF4FF001004FF6FF71FFF7E0FF80BD00BF80B483B000AF78600B46FB701A
S32D0000FE807B68FA781A707B684FF4FA725A807B6840F6C4129A807B68044A9A607B68184607F10C07BD4680BC4A
S32D0000FEA8704700BF000080BF80B582B000AF78604FF43043C4F204034FF48072DA604FF42043C4F204034FF401
S32D0000FED080729A644FF42043C4F204034FF480721A644FF42043C4F204034FF480725A644FF42043C4F2040345
S32D0000FEF84FF48072DA604FF28003C4F20F034FF28002C4F20F02526942F008025A614FF24003C4F20F034FF218
S32D0000FF204002C4F20F02526942F480225A614FF24003C4F20F034FF24002C4F20F02526942F480325A614FF227
S32D0000FF484003C4F20F034FF24002C4F20F02526942F400325A614FF24003C4F20F034FF24002C4F20F02126848
S32D0000FF7042F008021A604FF24003C4F20F034FF24002C4F20F02526942F008025A614FF28003C4F20F034FF298
S32D0000FF988002C4F20F02126842F008021A604FF42043C4F204034FF480725A624FF42043C4F204034FF48072D6
S32D0000FFC01A624FF43043C4F204034FF480721A614FF43043C4F204034FF480725A614FF43043C4F204034FF45B
S32D0000FFE880729A614FF43043C4F204034FF48072DA614FF43043C4F204034FF480721A634FF43043C4F2040383
S32D000100104FF480725A634FF43043C4F204034FF480729A634FF43043C4F204034FF48072DA634FF43043C4F2D9
S32D0001003804034FF480721A644FF43043C4F204034FF480725A644FF43043C4F204034FF480729A644FF430431D
S32D00010060C4F204034FF48072DA644FF44043C4F204034FF480721A604FF44043C4F204034FF480729A604FF41A
S32D000100884043C4F204034FF48072DA604FF44043C4F204034FF480721A614FF24003C4F20F034FF24002C4F2E2
S32D000100B00F02526942F440725A614FF28002C4F20F024FF28003C4F20F035B6919464FF2F003C0F20F030B4333
S32D000100D853614FF2C003C4F20F034FF2C002C4F20F02526942F01D025A6178684FF0E20100F0EAFE78684FF0EF
S32D000101001D0101F029F878684FF0020101F024F878684FF0040101F01FF878684FF0E00100F0D6FE78684FF062
S32D00010128010101F015F84FF06400FEF741FC78684FF0E00100F0C8FE78684FF0030101F007F878684FF00101E9
S32D0001015000F0BEFE4FF00100FEF72EFC78684FF0E60100F0B5FE78684FF0010100F0F4FF78684FF0A00100F018
S32D00010178EFFF78684FF0FF0100F0EAFF78684FF0B00100F0A1FE78684FF01C0100F0E0FF78684FF00F0100F0E9
S32D000101A0DBFF78684FF0010100F0D6FF78684FF03F0100F0D1FF78684FF0000100F0CCFF78684FF0EF0100F077
S32D000101C8C7FF78684FF0000100F0C2FF78684FF0B40100F079FE78684FF0010100F0B8FF78684FF0990100F0C5
S32D000101F0B3FF78684FF0000100F0AEFF78684FF0450100F0A9FF78684FF0020100F0A4FF78684FF0000100F0AF
S32D000102189FFF78684FF0000100F09AFF78684FF0000100F095FF78684FF0B60100F04CFE78684FF0010100F0AB
S32D000102408BFF78684FF0090100F086FF78684FF0000100F081FF78684FF00E0100F07CFF78684FF0020100F02C
S32D0001026877FF78684FF0000100F072FF78684FF0000100F06DFF78684FF0BA0100F024FE78684FF00F0100F0E9
S32D0001029063FF4FF06400FEF78FFB78684FF03A0100F016FE78684FF0600100F055FF78684FF02A0100F00CFE55
S32D000102B878684FF0000100F04BFF78684FF0000100F046FF78684FF0010100F041FF78684FF03F0100F03CFF8D
S32D000102E078684FF02B0100F0F3FD78684FF0000100F032FF78684FF0000100F02DFF78684FF0000100F028FF10
S32D0001030878684FF0EF0100F023FF78684FF0360100F0DAFD78684FF0000100F019FF78684FF0F00100F0D0FD93
S32D0001033078684FF0040100F00FFF78684FF0B80100F0C6FD78684FF00F0100F005FF78684FF0010100F000FFBE
S32D000103584FF24003C4F20F034FF24002C4F20F02126842F008021A604FF06400FEF720FB78684FF0360100F0B7
S32D00010380A7FD78684FF0000100F0E6FE78684FF0F00100F09DFD78684FF0040100F0DCFE41F23020C1F6FF7085
S32D000103A84FF0010100F03EFA41F23020C1F6FF704FF06F014FF01E0200F0B2F841F23020C1F6FF704FF056012D
S32D000103D04FF0AF0200F028F941F23020C1F6FF704FF0000100F080FA41F23020C1F6FF7045F64011C0F20101C1
S32D000103F84FF001024FF0010300F09AFA78684FF0290100F061FD4FF06400FEF7D1FA78684FF0BE0100F058FDB0
S32D0001042078684FF00E0100F097FE78684FF0F00100F092FE78684FF0010100F08DFE78684FF0000100F088FE38
S32D0001044878684FF0000100F083FE78684FF00F0100F07EFE786800F097FA41F23020C1F6FF704FF0010100F01E
S32D000104703BFA41F23020C1F6FF704FF0000100F00BFA07F10807BD4680BD00BF80B582B000AF78607B684FF034
S32D000104980002DA617B684FF001021A627B684FF00E025A607B684FF01A029A607B684FF000025A617B684FF032
S32D000104C000029A617B684FF4A072DA607B684FF0F0021A617B684FF000021A70786801F08BFD7B68184607F1CF
S32D000104E80807BD4680BD00BF80B582B000AF786041F27423C1F6FF731B7883F00103DBB2002B09D041F2742391
S32D00010510C1F6FF734FF001021A707868FFF7C8FC07F10807BD4680BD80B58AB002AFF860B9607A604FF07E03BB
S32D000105380093F868B9687A684FF0620301F0FAF840F24E733B614FF00003FB615BE04FF00003BB6143E0FB69CA
S32D0001056003F1010240F20043C1F6FF739B5C002B09D14FF0FF03FB754FF0FF03BB754FF0FF037B751CE0FB6928
S32D0001058803F1010240F20043C1F6FF739B5C012B09D14FF0D403FB754FF00003BB754FF026037B7508E04FF03B
S32D000105B0B503FB754FF0BA03BB754FF0B0037B75F97DBA7D7B7DF86800F00EF90246FB68DA61F86801F010FDA6
S32D000105D8F86801F0ADFBBB6903F10103BB6140F20043C1F6FF73FA699B181B781A46BB699A42D4BF0023012342
S32D00010600DBB2002BABD1FB6903F10203FB61FA693B699A42ACBF00230123DBB2002B9AD107F12007BD4680BDC7
S32D0001062880B58AB002AFF860B9607A604FF027030093F868B9687A684FF0950301F07AF840F2E6333B614FF079
S32D000106500003FB615BE04FF00003BB6143E0FB6903F1010240F65033C1F6FF739B5C002B09D14FF0FF03FB7576
S32D000106784FF0FF03BB754FF0FF037B751CE0FB6903F1010240F65033C1F6FF739B5C012B09D14FF00003FB75C9
S32D000106A04FF00003BB754FF000037B7508E04FF0D403FB754FF00003BB754FF026037B75F97DBA7D7B7DF8684A
S32D000106C800F08EF80246FB68DA61F86801F090FCF86801F02DFBBB6903F10103BB6140F65033C1F6FF73FA69D4
S32D000106F09B181B781A46BB699A42D4BF00230123DBB2002BABD1FB6903F10203FB61FA693B699A42ACBF0023FD
S32D000107180123DBB2002B9AD107F12007BD4680BD80B485B000AF78600B46FB70FB78062B2ED801A252F823F0B6
S32D00010740650701005D0701006D070100750701007D070100850701008D0701006FF07F43FB6019E04FF0000368
S32D00010768FB6015E04FF47F03FB6011E04FF47F43FB600DE04FF0FF03FB6009E04FF41903FB6005E049F69913A5
S32D00010790C0F29903FB6000BFFB68184607F11407BD4680BC704700BF80B584B000AF786039603B6803F47F03A4
S32D000107B84FEA1343FB733B6803F47F434FEA1323BB733B687B73F97BBA7B7B7B786800F007F80346184607F17E
S32D000107E01007BD4680BD00BF80B487B000AF7860F970BA707B70FB784FEAA3037B61BB784FEAA3033B617B7895
S32D000108084FEAA303FB607B694FEA03323B694FEA83131A43FB681343184607F11C07BD4680BC704780B582B0D6
S32D0001083000AF78600B46FB70FB7878681946FFF773FF03467868194600F004F807F10807BD4680BD80B582B01A
S32D0001085800AF7860396078683968FFF7A1FF02467B681A62786801F0C3FB786800F09AFD07F10807BD4680BD56
S32D0001088080B582B000AF7860786800F08FFD07F10807BD4680BD00BF80B582B000AF78600B46FB70FB787868FC
S32D000108A81946FFF73DFF03467868194600F004F807F10807BD4680BD80B582B000AF7860396078683968FFF7D7
S32D000108D06BFF02467B681A62786801F08DFB07F10807BD4680BD00BF80B582B000AF78600B46FB70FB7878688C
S32D000108F81946FFF715FF03467868194600F004F807F10807BD4680BD80B582B000AF7860396078683968FFF7AF
S32D0001092043FF02467B68DA61786801F065FB07F10807BD4680BD00BF80B586B000AFF860B9607A603B604FF08A
S32D0001094800037B6110E07B69BA68D3181B78F86879683A6801F052F87B6803F10C037B607B6903F101037B6196
S32D000109707B69BA68D3181B78002B0CBF00230123DBB2002BE3D107F11807BD4680BD00BF80B582B000AF786027
S32D00010998FDF7F2FC4FF001004FF06701FDF742FC4FF002004FF00001FDF73CFC4FF003004FF0A001FDF736FC40
S32D000109C04FF004004FF05001FDF730FC4FF005004FF02001FDF72AFC4FF006004FF02001FDF724FC4FF0070058
S32D000109E84FF07701FDF71EFC4FF008004FF00001FDF718FC4FF009004FF00001FDF712FC4FF00A004FF0000179
S32D00010A10FDF70CFC4FF00B004FF00401FDF706FC7B684FF0FF32DA637B684FF0FF321A6407F10807BD4680BD8F
S32D00010A3880B586B000AFF860B9607A604FF00000FDF714FC0346FB75FB7D03F00203002B00F0E380FDF728FC28
S32D00010A604FF0E000FDF7D4FBFDF734FC4FF00200FDF7A2FFFDF71CFC4FF0A500FDF7C8FBFDF7EEFB03464FEA85
S32D00010A880323BB82FDF7E8FB03461A46BB8A1343BB82FDF7E1FB03464FEA03237B82FDF7DBFB03461A467B8A97
S32D00010AB013437B82BB8A4FEA2313BB827B8A4FEA23137B82FDF706FCFB68DB6BB3F1FF3F3DD1FB681B6CB3F145
S32D00010AD8FF3F38D1BA8AFB68DA637A8AFB681A647B8AC3F57E6303F11F037B82BB8A1846FBF7DCFD02460B4627
S32D00010B001046194652A3D3E90023FBF739FE02460B4610461946FCF715F90246BB681A607B8A1846FBF7C6FDC8
S32D00010B2802460B461046194649A3D3E90023FBF723FE02460B4610461946FCF7FFF802467B681A6066E0FB68EC
S32D00010B50DA6BBB8AD31AF868194600F085F80346632B0DDCFB681A6C7B8AD31AF868194600F07AF80346632B40
S32D00010B7802DC4FF0010301E04FF00003002B38D0BA8AFB68DA637A8AFB681A647B8AC3F57E6303F11F037B825D
S32D00010BA0BB8A1846FBF786FD02460B461046194627A3D3E90023FBF7E3FD02460B4610461946FCF7BFF8024605
S32D00010BC8BB681A607B8A1846FBF770FD02460B46104619461EA3D3E90023FBF7CDFD02460B4610461946FCF7B4
S32D00010BF0A9F802467B681A6010E0BB68184A1A607B68174A1A60FB684FF0FF32DA63FB684FF0FF321A644FF043
S32D00010C18000312E04FF001030FE0BB680E4A1A607B680D4A1A60FB684FF0FF32DA63FB684FF0FF321A644FF03D
S32D00010C400003184607F11807BD4680BDAFF30080144001144001B43F1EE0011EE001AE3F000080BFAFF30080C2
S32D00010C6880B483B000AF786039603B68002B03DA3B68C3F100033B603B68184607F10C07BD4680BC704700BF75
S32D00010C9080B584B000AF786039604FF00003FB60786800F0AFFC11E07B6859697B689A69FB683868C3181B78A7
S32D00010CB8786800F083FE786800F0B6FCFB6803F10103FB60FB683A68D3181B78002B0CBF00230123DBB2002B0C
S32D00010CE0E2D107F11007BD4680BD00BF80B590B000AF7860396007F10C03184645F64C11C0F201013A6803F049
S32D00010D0895FC07F10C0378681946FFF7BDFF07F14007BD4680BD00BF90B593B000AF786039604FF001031C46A8
S32D00010D3038683049FCF716FB0346002B02D14FF000031C46E3B2002B23D03868FCF71EFB03467B64786CFCF72E
S32D00010D58FFF8034638681946FCF744F8034618462349FCF749F903461846FCF70BFB03463B6407F10C031846C9
S32D00010D8045F65C11C0F201017A6C3B6C03F052FC26E03B6883F000433B603868FCF7F6FA03467B64786CFCF79E
S32D00010DA8D7F8034638681946FCF71CF8034618460F49FCF721F903461846FCF7E3FA03463B6407F10C0318462E
S32D00010DD045F65011C0F201017A6C3B6C03F02AFC07F10C0378681946FFF752FF07F14C07BD4690BD00000000D6
S32D00010DF800007A4480B582B000AF78600B46FB70786800F0FBFB7B6859697B689A69FB78786800F0D3FD786820
S32D00010E2000F006FC07F10807BD4680BD80B582B000AF78603960786800F0E4FB78683968FFF726FF786800F0C8
S32D00010E48C5FB07F10807BD4680BD00BF80B582B000AF78603960786800F0D0FB78683968FFF740FF786800F00D
S32D00010E70B1FB07F10807BD4680BD00BF80B582B000AF78603960786800F0BCFB78683968FFF746FF786800F007
S32D00010E989DFB07F10807BD4680BD00BF80B582B000AF78600B46FB70786800F0A7FBFB7878681946FFF79EFF2C
S32D00010EC0786800F087FB07F10807BD4680BD00BF80B483B000AF78600B46FB704FF28003C4F20F034FF28002B2
S32D00010EE8C4F20F02126822F008021A604FF24003C4F20F034FF24002C4F20F02126822F480221A604FF240033E
S32D00010F10C4F20F034FF24002C4F20F02126842F480321A604FF24003C4F20F034FF24002C4F20F02126822F49E
S32D00010F3840721A604FF28003C4F20F034FF28002C4F20F02126822F4425222F070021A604FF24003C4F20F03DA
S32D00010F604FF24002C4F20F0212681146FA7802F00102D2B2002A02D04FF4007201E04FF000020A431A604FF281
S32D00010F884003C4F20F034FF24002C4F20F0212681146FA7802F00202002A02D04FF4807201E04FF000020A430C
S32D00010FB01A604FF28003C4F20F034FF28002C4F20F0212681146FA7802F00402002A02D04FF0100201E04FF0DA
S32D00010FD800020A431A604FF28003C4F20F034FF28002C4F20F0212681146FA7802F00802002A02D04FF020026F
S32D0001100001E04FF000020A431A604FF28003C4F20F034FF28002C4F20F0212681146FA7802F01002002A02D07F
S32D000110284FF0400201E04FF000020A431A604FF28003C4F20F034FF28002C4F20F0212681146FA7802F02002C2
S32D00011050002A02D04FF0800201E04FF000020A431A604FF28003C4F20F034FF28002C4F20F0212681146FA7872
S32D0001107802F04002002A02D04FF4805201E04FF000020A431A604FF28003C4F20F034FF28002C4F20F0212688B
S32D000110A01146FA7852B2002A02DA4FF4005201E04FF000020A431A604FF24003C4F20F034FF24002C4F20F023A
S32D000110C8126822F400321A604FF24003C4F20F034FF24002C4F20F02126842F400321A604FF28003C4F20F033F
S32D000110F04FF28002C4F20F02126842F008021A604FF24003C4F20F034FF24002C4F20F02126842F440721A60A5
S32D000111184FF28003C4F20F034FF28002C4F20F02126842F4425242F070021A604FF24003C4F20F034FF2400261
S32D00011140C4F20F02126842F480221A6007F10C07BD4680BC704700BF80B483B000AF78600B46FB704FF28003BF
S32D00011168C4F20F034FF28002C4F20F02126822F008021A604FF24003C4F20F034FF24002C4F20F02126842F4B0
S32D0001119080321A604FF24003C4F20F034FF24002C4F20F02126842F480221A604FF24003C4F20F034FF24002D3
S32D000111B8C4F20F02126822F440721A604FF28003C4F20F034FF28002C4F20F02126822F4425222F070021A604D
S32D000111E04FF24003C4F20F034FF24002C4F20F0212681146FA7802F00102D2B2002A02D04FF4007201E04FF0BD
S32D0001120800020A431A604FF24003C4F20F034FF24002C4F20F0212681146FA7802F00202002A02D04FF48072EE
S32D0001123001E04FF000020A431A604FF28003C4F20F034FF28002C4F20F0212681146FA7802F00402002A02D059
S32D000112584FF0100201E04FF000020A431A604FF28003C4F20F034FF28002C4F20F0212681146FA7802F00802D8
S32D00011280002A02D04FF0200201E04FF000020A431A604FF28003C4F20F034FF28002C4F20F0212681146FA78A0
S32D000112A802F01002002A02D04FF0400201E04FF000020A431A604FF28003C4F20F034FF28002C4F20F0212681D
S32D000112D01146FA7802F02002002A02D04FF0800201E04FF000020A431A604FF28003C4F20F034FF28002C4F267
S32D000112F80F0212681146FA7802F04002002A02D04FF4805201E04FF000020A431A604FF28003C4F20F034FF278
S32D000113208002C4F20F0212681146FA7852B2002A02DA4FF4005201E04FF000020A431A604FF24003C4F20F033E
S32D000113484FF24002C4F20F02126822F400321A604FF24003C4F20F034FF24002C4F20F02126842F400321A60FE
S32D000113704FF28003C4F20F034FF28002C4F20F02126842F008021A604FF24003C4F20F034FF24002C4F20F0272
S32D00011398126822F480221A6007F10C07BD4680BC704700BF80B586B000AF78607B684FF000025A617B684FF0C7
S32D000113C000029A617B681B6AFB60FB68FB72FB684FEA1323BB72FB684FEA1343DBB203F003037B7278684FF0EB
S32D000113E82A01FFF771FD78684FF00001FFF7B0FE78684FF00001FFF7ABFE78684FF00101FFF7A6FE78684FF0EA
S32D000114103F01FFF7A1FE78684FF02B01FFF758FD78684FF00001FFF797FE78684FF00001FFF792FE78684FF0D2
S32D000114380001FFF78DFE78684FF0EF01FFF788FE78684FF02C01FFF73FFD4FF24003C4F20F034FF24002C4F275
S32D000114600F02126822F440721A604FF28002C4F20F024FF28003C4F20F031B68194640F60F73CFF6F0730B406D
S32D0001148813604FF2C003C4F20F034FF2C002C4F20F02126822F01D021A604FF24003C4F20F034FF24002C4F282
S32D000114B00F02126811467A68126B0A431A604FF28003C4F20F034FF28002C4F20F02126811467A68526B0A4332
S32D000114D81A604FF2C003C4F20F034FF2C002C4F20F02126811467A68926B0A431A604FF28003C4F20F034FF291
S32D000115008002C4F20F02126822F008021A604FF24003C4F20F034FF24002C4F20F02126842F480221A604FF0C2
S32D0001152800037B612DE04FF000033B611BE04FF24003C4F20F034FF24002C4F20F02126822F400321A604FF2BC
S32D000115504003C4F20F034FF24002C4F20F02126842F400321A603B6903F101033B613A6940F23F139A428CBF35
S32D0001157800230123DBB2002BD9D17B6903F101037B617B69EF2B8CBF00230123DBB2002BC9D14FF28003C4F287
S32D000115A00F034FF28002C4F20F02126842F008021A604FF24003C4F20F034FF24002C4F20F02126822F4802288
S32D000115C81A6007F11807BD4680BD00BF80B483B000AF78607B689B69002B09DD7B685B6903F101027B685A6142
S32D000115F07B684FF000029A6107F10C07BD4680BC704700BF80B582B000AF78607B685A697B685B689A4206DBF6
S32D000116187B684FF000025A617868FFF7C3FE07F10807BD4680BD00BF80B582B000AF78607B689B6903F101025B
S32D000116407B689A617B689A697B689B689A4205D17868FFF7BFFF7868FFF7D4FF07F10807BD4680BD80B586B030
S32D0001166802AFF860B9607A604FF001030093F868B9687A684FF0010300F05CF8F86800F057FB07F11007BD46E3
S32D0001169080BD00BF80B485B000AF786039607B681B68FB603B681A687B681A603B68FA681A6007F11407BD46CE
S32D000116B880BC704780B586B002AFF860B9607A603B60BA683B68D3187A680092F868B9687A6800F0B5F8BA68C8
S32D000116E03B68D218B9683B68CB187868B96941180091F86811467A6800F0A6F8BA683B68D2187968BB69CB18FD
S32D000117087868B96941180091F86811461A46BB6800F096F87A68BB69D3187A680092F868B9681A46BB6800F0B5
S32D000117308BF807F11007BD4680BD00BF80B588B000AFF860B9607A603B60FB681B78022B03D0FB681B78032BDD
S32D0001175813D17B68FB61BA6AFB69D31803F1FF33BB61FB68DA68BB68D31A3B613B683A69D31A03F101037B6132
S32D000117800FE0BB68FB613A68FB69D31803F1FF33BB617B687B61BA6A7B69D31803F1FF333B61F8684FF02A015B
S32D000117A8FFF792FBFB6903F470634FEA1323DBB2F8681946FFF7CCFCFB69DBB2F8681946FFF7C6FCBB6903F465
S32D000117D070634FEA1323DBB2F8681946FFF7BCFCBB69DBB2F8681946FFF7B6FCF8684FF02B01FFF76DFB7B6989
S32D000117F803F470634FEA1323DBB2F8681946FFF7A7FC7B69DBB2F8681946FFF7A1FC3B6903F470634FEA132304
S32D00011820DBB2F8681946FFF797FC3B69DBB2F8681946FFF791FCF8684FF02C01FFF748FB07F12007BD4680BDED
S32D0001184890B58BB000AFF860B9607A603B603A68BB68D31AF8681946FFF702FA0346FB61BA6B7B68D31AF868FF
S32D000118701946FFF7F9F90346BB61BA69FB699A42D4BF00230123FB75FB7D002B0DD007F1080207F10403104619
S32D000118981946FFF7FBFE3B46184607F13801FFF7F5FEBA683B689A420DDD07F108023B4610461946FFF7EAFE39
S32D000118C007F10403184607F13801FFF7E3FE3A68BB689A4207D1BA687B68F86811461A46FFF7C0FE69E0BA6BDD
S32D000118E87B68D31A1846FBF733FB04463A68BB68D31A1846FBF72CFB034620461946FBF72FFC03463B617B681D
S32D000119101846FBF721FB03467B62BB683B6243E0FB7D002B1BD0786AFAF7D6FE02460B46104619464FF000026F
S32D000119384FF07E5303F5C003FAF76CFD02460B4610461946FBF7B2F90346F86819463A6AFFF784FE1AE0786A70
S32D00011960FAF7BAFE02460B46104619464FF000024FF07E5303F5C003FAF750FD02460B4610461946FBF796F948
S32D000119880346F868396A1A46FFF768FE786A3969FBF72AFA03467B623B6A03F101033B623B683A6A9A42CCBF80
S32D000119B000230123DBB2002BB2D107F12C07BD4690BD00BF80B584B000AFF860B9607A60FB707A6813464FEA0A
S32D000119D843039B184FEA830303F10201BA6813464FEA03139B1803F10302FB78F86800F005F807F11007BD46E9
S32D00011A0080BD00BF80B58EB002AFF860B9607A60FB70FB780A2B06D1F868FFF7F3FDF868FFF7D8FD25E1FB7878
S32D00011A287D2B02D8FB781F2B02D84FF02003FB70FB78A3F12003FB704FF011030093F868B9687A684FF00C037D
S32D00011A50FFF774FEFA7813464FEA83039A1840F63873C1F6FF739B5C3B75FA7813464FEA83039B1803F10102DE
S32D00011A7840F63873C1F6FF739B5C7B75FA7813464FEA83039B1803F1020240F63873C1F6FF739B5CBB75FA7876
S32D00011AA013464FEA83039B1803F1030240F63873C1F6FF739B5CFB75FA7813464FEA83039B1803F1040240F675
S32D00011AC83873C1F6FF739B5C3B764FF00003BB62A8E0F86800F0DCF9F86800F0CBF84FF0000387F82F304FF0F5
S32D00011AF000037B6231E007F114027B6AD3181B7803F00103FB76FB7E002B11D097F82F3083F00103DBB2002B5B
S32D00011B1803D0F86800F00CF902E0F86800F0AAF8F86800F0A7F80DE097F82F30002B03D0F86800F0ADF902E002
S32D00011B40F86800F09BF8F86800F098F8FB7E87F82F307B6A03F101037B627B6A042BCCBF00230123DBB2002B04
S32D00011B68C5D197F82F30002B03D0F86800F090F902E0F86800F07EF8F86800F07BF84FF0000387F82F304FF029
S32D00011B9000033B623EE007F114023B6AD3181B7803F00103BB76BB7E002B11D097F82F3083F00103DBB2002BAD
S32D00011BB803D0F86800F0BCF802E0F86800F05AF8F86800F057F80DE097F82F30002B03D0F86800F05DF902E0A3
S32D00011BE0F86800F04BF8F86800F048F8BB7E87F82F3007F114023B6AD3181B784FEA6303DAB207F114013B6A8E
S32D00011C08CB181A703B6A03F101033B623B6A042BCCBF00230123DBB2002BB8D1BB6A03F10103BB62BB6A062B8F
S32D00011C30CCBF00230123DBB2002B7FF44EAFF86800F02AF94FF0000387F82F304FF00103FB6106E0F86800F023
S32D00011C5811F8FB6903F10103FB61FB69232BCCBF00230123DBB2002BF0D107F13007BD4680BD00BF80B483B00A
S32D00011C8000AF78604FF24003C4F20F034FF24002C4F20F02126842F480321A604FF28003C4F20F034FF28002ED
S32D00011CA8C4F20F02126822F008021A604FF24003C4F20F034FF24002C4F20F02126842F480221A604FF2400350
S32D00011CD0C4F20F034FF24002C4F20F02126822F400321A604FF24003C4F20F034FF24002C4F20F02126842F451
S32D00011CF800321A604FF28003C4F20F034FF28002C4F20F02126842F008021A604FF24003C4F20F034FF24002FC
S32D00011D20C4F20F02126822F480221A6007F10C07BD4680BC704700BF80B483B000AF78604FF24003C4F20F0327
S32D00011D484FF24002C4F20F02126842F480321A604FF28003C4F20F034FF28002C4F20F02126822F008021A6020
S32D00011D704FF24003C4F20F034FF24002C4F20F02126842F480221A604FF24003C4F20F034FF24002C4F20F024C
S32D00011D98126822F440721A604FF28002C4F20F024FF28003C4F20F031B68194640F60F73CFF6F0730B401360CA
S32D00011DC04FF2C003C4F20F034FF2C002C4F20F02126822F01D021A604FF24003C4F20F034FF24002C4F20F02A3
S32D00011DE8126811467A68526A0A431A604FF28003C4F20F034FF28002C4F20F02126811467A68926A0A431A600A
S32D00011E104FF2C003C4F20F034FF2C002C4F20F02126811467A68D26A0A431A604FF24003C4F20F034FF2400288
S32D00011E38C4F20F02126822F400321A604FF24003C4F20F034FF24002C4F20F02126842F400321A604FF28003C2
S32D00011E60C4F20F034FF28002C4F20F02126842F008021A604FF24003C4F20F034FF24002C4F20F02126822F4AB
S32D00011E8880221A6007F10C07BD4680BC704700BF80B483B000AF78604FF24003C4F20F034FF24002C4F20F02CB
S32D00011EB0126842F480321A604FF28003C4F20F034FF28002C4F20F02126822F008021A604FF24003C4F20F03B5
S32D00011ED84FF24002C4F20F02126842F480221A604FF24003C4F20F034FF24002C4F20F02126822F440721A6073
S32D00011F004FF28002C4F20F024FF28003C4F20F031B68194640F60F73CFF6F0730B4013604FF2C003C4F20F0350
S32D00011F284FF2C002C4F20F02126822F01D021A604FF24003C4F20F034FF24002C4F20F02126811467A68126BD5
S32D00011F500A431A604FF28003C4F20F034FF28002C4F20F02126811467A68526B0A431A604FF2C003C4F20F0382
S32D00011F784FF2C002C4F20F02126811467A68926B0A431A604FF24003C4F20F034FF24002C4F20F02126822F4D3
S32D00011FA000321A604FF24003C4F20F034FF24002C4F20F02126842F400321A604FF28003C4F20F034FF2800225
S32D00011FC8C4F20F02126842F008021A604FF24003C4F20F034FF24002C4F20F02126822F480221A6007F10C07A6
S32D00011FF0BD4680BC704700BF80B485B000AF78607B681B6AFB60FB68FB72FB684FEA1323BB72FB684FEA134399
S32D00012018DBB203F003037B727B684FF000025A627B684FF000029A627B684FF00002DA627B684FF000021A6325
S32D000120407B684FF000025A637B684FF000029A637B681A6BFB7A03F00103DBB2002B02D04FF4007301E04FF03B
S32D0001206800031A437B681A637B681A6BFB7A03F00203002B02D04FF4807301E04FF000031A437B681A637B68BE
S32D000120905A6BFB7A03F00403002B02D04FF0100301E04FF000031A437B685A637B685A6BFB7A03F00803002B38
S32D000120B802D04FF0200301E04FF000031A437B685A637B685A6BFB7A03F01003002B02D04FF0400301E04FF0E3
S32D000120E000031A437B685A637B685A6BFB7A03F02003002B02D04FF0800301E04FF000031A437B685A637B68DC
S32D000121085A6BFB7A03F04003002B02D04FF4805301E04FF000031A437B685A637B685A6BFB7A5BB2002B02DAD4
S32D000121304FF4005301E04FF000031A437B685A637B685A6BBB7A03F00103DBB2002B02D04FF4804301E04FF046
S32D0001215800031A437B685A637B685A6BBB7A03F00203002B02D04FF4004301E04FF000031A437B685A637B68FD
S32D000121805A6BBB7A03F00403002B02D04FF4803301E04FF000031A437B685A637B685A6BBB7A03F00803002B23
S32D000121A802D04FF4003301E04FF000031A437B685A637B685A6BBB7A03F01003002B02D04FF4802301E04FF0BA
S32D000121D000031A437B685A637B685A6BBB7A03F02003002B02D04FF4002301E04FF000031A437B685A637B6887
S32D000121F89A6BBB7A03F04003002B02D04FF0010301E04FF000031A437B689A637B689A6BBB7A5BB2002B02DA77
S32D000122204FF0040301E04FF000031A437B689A637B689A6B7B7A03F00103DBB2002B02D04FF0080301E04FF021
S32D0001224800031A437B689A637B689A6B7B7A03F00203002B02D04FF0100301E04FF000031A437B689A637B68C0
S32D00012270DB69FB60FB68FB72FB684FEA1323BB72FB684FEA1343DBB203F003037B727B685A6AFB7A03F0010359
S32D00012298DBB2002B02D04FF4007301E04FF000031A437B685A627B685A6AFB7A03F00203002B02D04FF4807371
S32D000122C001E04FF000031A437B685A627B689A6AFB7A03F00403002B02D04FF0100301E04FF000031A437B68C8
S32D000122E89A627B689A6AFB7A03F00803002B02D04FF0200301E04FF000031A437B689A627B689A6AFB7A03F064
S32D000123101003002B02D04FF0400301E04FF000031A437B689A627B689A6AFB7A03F02003002B02D04FF080037C
S32D0001233801E04FF000031A437B689A627B689A6AFB7A03F04003002B02D04FF4805301E04FF000031A437B680F
S32D000123609A627B689A6AFB7A5BB2002B02DA4FF4005301E04FF000031A437B689A627B689A6ABB7A03F00103DA
S32D00012388DBB2002B02D04FF4804301E04FF000031A437B689A627B689A6ABB7A03F00203002B02D04FF40043A0
S32D000123B001E04FF000031A437B689A627B689A6ABB7A03F00403002B02D04FF4803301E04FF000031A437B6833
S32D000123D89A627B689A6ABB7A03F00803002B02D04FF4003301E04FF000031A437B689A627B689A6ABB7A03F0DF
S32D000124001003002B02D04FF4802301E04FF000031A437B689A627B689A6ABB7A03F02003002B02D04FF40023C3
S32D0001242801E04FF000031A437B689A627B68DA6ABB7A03F04003002B02D04FF0010301E04FF000031A437B68F1
S32D00012450DA627B68DA6ABB7A5BB2002B02DA4FF0040301E04FF000031A437B68DA627B68DA6A7B7A03F00103B9
S32D00012478DBB2002B02D04FF0080301E04FF000031A437B68DA627B68DA6A7B7A03F00203002B02D04FF010035F
S32D000124A001E04FF000031A437B68DA6207F11407BD4680BC704700BF80B483B000AF78607B68184607F10C076C
S32D000124C8BD4680BC704700BF80B584B000AFF860B9607A603B60FB6803F120031846B96802F00BF9FB687A68FE
S32D000124F01A60FB683A689A60FB68BA691A61FB68FA695A61FB681A68FB681B69D218FB685A60FB689A68FB6827
S32D000125185B69D218FB68DA60FB683A6A9A61FB687A6ADA61FB684FF00002C3F8E82007F11007BD4680BD00BF50
S32D00012540F0B585B002AF78607B689B6941F23020C1F6FF701946FEF7DBF97B6819687B689A687B681B697868C1
S32D000125684069009041F23020C1F6FF70FFF7A2F87B68DB6941F23020C1F6FF701946FEF7C3F97B6803F12004F7
S32D000125907B681B681D467B681B691E467B6803F12003184602F0B9F8024613464FEA43039B184FEA8303F31AEE
S32D000125B84FEA5303EB181A467B6899687B685B69A3F111034FEAD370C3184FEA6303CB1841F23020C1F6FF704D
S32D000125E02146FEF7A9F907F10C07BD46F0BD00BF80B584B002AF78607B689B6941F23020C1F6FF701946FEF77E
S32D0001260883F97B681B6803F101017B689B6803F101027B681B69A3F1020378684069A0F10200009041F23020BF
S32D00012630C1F6FF70FFF742F87B681B6803F102017B689B6803F102027B681B69A3F1040378684069A0F10400CA
S32D00012658009041F23020C1F6FF70FFF72BF87B681B6803F103017B689B6803F103027B681B69A3F106037868E0
S32D000126804069A0F10600009041F23020C1F6FF70FFF714F87B684FF00102C3F8E82007F10807BD4680BD00BFC2
S32D000126A880B584B002AF786041F23020C1F6FF704FF00001FEF728F97B681B6803F103017B689B6803F10302D5
S32D000126D07B681B69A3F1060378684069A0F10600009041F23020C1F6FF70FEF7E7FF7B681B6803F102017B6863
S32D000126F89B6803F102027B681B69A3F1040378684069A0F10400009041F23020C1F6FF70FEF7D0FF7B681B6835
S32D0001272003F101017B689B6803F101027B681B69A3F1020378684069A0F10200009041F23020C1F6FF70FEF76D
S32D00012748B9FF7B684FF00002C3F8E82007F10807BD4680BD90B585B000AFF860B9607A603B60FB681B68184629
S32D00012770FAF7F2FB0246BB684FF001010C4610461946FAF7E5FD0346002B02D14FF000031C46E3B2002B00F03B
S32D00012798C680FB685B681846FAF7DAFB0246BB684FF001010C4610461946FAF7D7FD0346002B02D14FF0000381
S32D000127C01C46E3B2002B00F0AE80FB689B681846FAF7C2FB02467B684FF001010C4610461946FAF7B5FD0346D9
S32D000127E8002B02D14FF000031C46E3B2002B00F09680FB68DB681846FAF7AAFB02467B684FF001010C461046AC
S32D000128101946FAF7A7FD0346002B02D14FF000031C46E3B2002B7ED007F1080207F1040341F23020C1F6FF7002
S32D0001283811461A46FEF7FCF8FB681B681846FAF787FB0246BB684FF001010C4610461946FAF77AFD0346002B8B
S32D0001286002D14FF000031C46E3B2002B5ED0FB685B681846FAF770FB0246BB684FF001010C4610461946FAF760
S32D000128886DFD0346002B02D14FF000031C46E3B2002B47D0FB689B681846FAF759FB02467B684FF001010C462E
S32D000128B010461946FAF74CFD0346002B02D14FF000031C46E3B2002B30D0FB68DB681846FAF742FB02467B6802
S32D000128D84FF001010C4610461946FAF73FFD0346002B02D14FF000031C46E3B2002B19D03B68002B10D1FB68B6
S32D00012900D3F8E830002B03D1F868FFF771FE07E0FB68D3F8E830002B02D0F868FFF7C4FE4FF0010303E04FF05A
S32D00012928000300E0FFE7184607F11407BD4690BD80B586B000AFF860B9607A60BB687B617B683B610BE007F130
S32D00012950140207F1100341F23020C1F6FF7011461A46FEF769F87A693B69F86811461A464FF00103FFF7F2FEBA
S32D000129780346002B0CBF00230123DBB2002BE2D1184607F11807BD4680BD00BFB0B592B004AFF860B9607A6026
S32D000129A03B60FB6C7B633B683B63F86CF9F782FE02460B464FF000004FF0804101F5E801F9F72AFD02460B46AC
S32D000129C814461D46386DF9F771FE02460B4620462946F9F71DFD02460B4610461946FAF7ADF903463B6238683C
S32D000129F0F9F760FE02460B464FF000004FF0804101F5DC01F9F708FD02460B4614461D46B86CF9F74FFE0246CB
S32D00012A180B4620462946F9F7FBFC02460B4610461946FAF78BF90346FB617868FAF790FA0346386A1946FAF784
S32D00012A4093FB03461846FAF7A1FC0346BB61B868FAF782FA0346F8691946FAF785FB03461846FAF793FC0346C8
S32D00012A687B614FF000037B624FF00103BB624AE04FF00103FB6233E07B6A4FF0EC0202FB03F3FA68D1187A6AD3
S32D00012A9013464FEA83039B184FEA83037A6DD318BA6900927A690192BA6D0292FA6D0392084619467A6B3B6BA1
S32D00012AB8FFF70AFD7B6A4FF0EC0202FB03F3FA68D3181846FFF738FD7B6A03F101037B627A6BBB69D3187B638B
S32D00012AE0FB6A03F10103FB62FA6A7B689A42CCBF00230123DBB2002BC2D13A6B7B69D3183B63FB6C7B63BB6A51
S32D00012B0803F10103BB62BA6ABB689A42CCBF00230123DBB2002BABD107F13807BD46B0BD80B582B000AF7860CB
S32D00012B3039607B68012B0AD13A684FF6FF739A4205D141F23020C1F6FF70FDF79FFC07F10807BD4680BD00BFAA
