S01100002E2E2F54657374696E672E7331397A
S32D0000C00000000020B9D4000015D8000015D8000015D8000015D8000015D80000000000000000000000000000C4
S32D0000C0280000000015D8000015D800000000000015D8000015D8000015D8000015D8000015D8000015D8000082
S32D0000C05015D8000015D8000015D8000015D8000015D8000015D8000015D8000015D8000015D8000015D8000080
S32D0000C07815D8000015D8000015D8000015D8000015D8000015D8000015D8000015D8000015D8000015D8000058
S32D0000C0A015D8000015D8000015D8000015D8000015D8000015D8000015D8000015D8000015D8000015D8000030
S32D0000C0C815D8000015D8000015D8000015D8000015D8000015D8000015D8000015D8000015D8000015D8000008
S32D0000C0F015D80000DD18010015D8000015D8000015D8000015D8000015D8000015D8000015D8000015D80000D7
S32D0000C11815D8000015D8000015D8000015D8000015D8000015D8000015D8000015D8000015D8000015D80000B7
S32D0000C14015D8000015D8000015D8000015D8000015F0000015D8000015D8000015D8000015D8000015D8000077
S32D0000C16815D8000015D8000015D8000015D8000015D8000015D8000015D8000015D8000015D8000015D8000067
S32D0000C19015D8000015D8000015D8000049EC00009DEA000071EB000065D8000021ED000015D8000015D800007D
S32D0000C1B815D8000015D8000015D8000015D8000015D8000015D8000015D8000015D8000015D8000015D8000017
S32D0000C41081F0004102E000BF83F0004330B54FEA41044FEA430594EA050F08BF90EA020F1FBF54EA000C55EAC6
S32D0000C438020C7FEA645C7FEA655C00F0E2804FEA5454D4EB5555B8BF6D420CDD2C4480EA020281EA030382EA0F
S32D0000C460000083EA010180EA020281EA0303362D88BF30BD11F0004F4FEA01314FF4801C4CEA113102D0404263
S32D0000C48861EB410113F0004F4FEA03334CEA133302D0524263EB430394EA050F00F0A780A4F10104D5F1200E8A
S32D0000C4B00DDB02FA0EFC22FA05F2801841F1000103FA0EF2801843FA05F359410EE0A5F120050EF1200E012A2D
S32D0000C4D803FA0EFC28BF4CF0020C43FA05F3C01851EBE37101F0004507D54FF0000EDCF1000C7EEB00006EEB67
S32D0000C5000101B1F5801F1BD3B1F5001F0CD349085FEA30004FEA3C0C04F101044FEA445212F5800F80F09A8000
S32D0000C528BCF1004F08BF5FEA500C50F1000041EB045141EA050130BD5FEA4C0C404141EB010111F4801FA4F114
S32D0000C5500104E9D191F0000F04BF01460020B1FA81F308BF2033A3F10B03B3F120020CDA0C3208DD02F1140C87
S32D0000C578C2F10C0201FA0CF021FA02F10CE002F11402D8BFC2F1200C01FA02F120FA0CFCDCBF41EA0C019040B1
S32D0000C5A0E41AA2BF01EB0451294330BD6FEA04041F3C1CDA0C340EDC04F11404C4F1200220FA04F001FA02F3B6
S32D0000C5C840EA030021FA04F345EA030130BDC4F10C04C4F1200220FA02F001FA04F340EA0300294630BD21FAA8
S32D0000C5F004F0294630BD94F0000F83F4801306BF81F480110134013D4EE77FEA645C18BF7FEA655C29D094EA1C
S32D0000C618050F08BF90EA020F05D054EA000C04BF1946104630BD91EA030F1EBF0021002030BD5FEA545C05D1A3
S32D0000C6404000494128BF41F0004130BD14F580043CBF01F5801130BD01F0004545F0FE4141F470014FF0000031
S32D0000C66830BD7FEA645C1ABF194610467FEA655C1CBF0B46024650EA013406BF52EA033591EA030F41F40021D7
S32D0000C69030BD00BF90F0000F04BF0021704730B54FF4806404F132044FF000054FF0000150E700BF90F0000F66
S32D0000C6B804BF0021704730B54FF4806404F1320410F0004548BF40424FF000013EE700BF42004FEAE2014FEAF9
S32D0000C6E031014FEA02701FBF12F07F4393F07F4F81F06051704792F0000F14BF93F07F4F704730B54FF460741B
S32D0000C70801F0004521F0004120E700BF50EA010208BF704730B54FF000050AE050EA010208BF704730B511F046
S32D0000C730004502D5404261EB41014FF4806404F132045FEA915C3FF4DCAE4FF003025FEADC0C18BF03325FEAA0
S32D0000C758DC0C18BF033202EBDC02C2F1200300FA03FC20FA02F001FA03FE40EA0E0021FA02F11444C1E600BF19
S32D0000C78070B54FF0FF0C4CF4E06C1CEA11541DBF1CEA135594EA0C0F95EA0C0F00F0DEF82C4481EA030621EAF3
S32D0000C7A84C5123EA4C5350EA013518BF52EA033541F4801143F4801338D0A0FB02CE4FF00005E1FB02E506F05F
S32D0000C7D00042E0FB03E54FF00006E1FB03569CF0000F18BF4EF0010EA4F1FF04B6F5007F64F5407404D25FEA0F
S32D0000C7F84E0E6D4146EB060642EAC62141EA55514FEAC52040EA5E504FEACE2EB4F1FD0C88BFBCF5E06F1ED8D2
S32D0000C820BEF1004F08BF5FEA500E50F1000041EB045170BD06F0004646EA010140EA020081EA0301B4EB5C0487
S32D0000C848C2BFD4EB0C0541EA045170BD41F480114FF0000E013C00F3AB8014F1360FDEBF002001F0004170BDF0
S32D0000C870C4F10004203C35DA0C341BDC04F11404C4F1200500FA05F320FA04F001FA05F240EA020001F0004207
S32D0000C89821F0004110EBD37021FA04F642EB06015EEA430E08BF20EAD37070BDC4F10C04C4F1200500FA04F32F
S32D0000C8C020FA05F001FA04F240EA020001F0004110EBD37041F100015EEA430E08BF20EAD37070BDC4F12005C7
S32D0000C8E800FA05F24EEA020E20FA04F301FA05F243EA020321FA04F001F0004121FA04F220EA020000EBD37028
S32D0000C9105EEA430E08BF20EAD37070BD94F0000F0FD101F00046400041EB010111F4801F08BF013CF7D041EA6D
S32D0000C938060195F0000F18BF704703F00046520043EB030313F4801F08BF013DF7D043EA0603704794EA0C0FF1
S32D0000C9600CEA135518BF95EA0C0F0CD050EA410618BF52EA4306D1D181EA030101F000414FF0000070BD50EA38
S32D0000C988410606BF1046194652EA430619D094EA0C0F02D150EA013613D195EA0C0F05D152EA03361CBF10467B
S32D0000C9B019460AD181EA030101F0004141F0FE4141F470014FF0000070BD41F0FE4141F4780170BD70B54FF04D
S32D0000C9D8FF0C4CF4E06C1CEA11541DBF1CEA135594EA0C0F95EA0C0F00F0A7F8A4EB050481EA030E52EA03359B
S32D0000CA004FEA013100F088804FEA03334FF0805545EA131343EA12634FEA022245EA111545EA10654FEA002676
S32D0000CA280EF000419D4208BF964244F1FD0404F5407402D25B084FEA3202B61A65EB03055B084FEA32024FF461
S32D0000CA5080104FF4002CB6EB020E75EB030E22BFB61A754640EA0C005B084FEA3202B6EB020E75EB030E22BF22
S32D0000CA78B61A754640EA5C005B084FEA3202B6EB020E75EB030E22BFB61A754640EA9C005B084FEA3202B6EBEA
S32D0000CAA0020E75EB030E22BFB61A754640EADC0055EA060E18D04FEA051545EA16754FEA06164FEAC30343EAAC
S32D0000CAC852734FEAC2025FEA1C1CC0D111F4801F0BD141EA00014FF000004FF0004CB6E711F4801F04BF0143AE
S32D0000CAF00020B4F1FD0C88BFBCF5E06F3FF6AFAEB5EB030C04BFB6EB020C5FEA500C50F1000041EB045170BDBC
S32D0000CB180EF0004E4EEA113114EB5C04C2BFD4EB0C0541EA045170BD41F480114FF0000E013C90E645EA060EC3
S32D0000CB408DE60CEA135594EA0C0F08BF95EA0C0F3FF43BAF94EA0C0F0AD150EA01347FF434AF95EA0C0F7FF499
S32D0000CB6825AF104619462CE795EA0C0F06D152EA03353FF4FDAE1046194622E750EA410618BF52EA43067FF432
S32D0000CB90C5AE50EA41047FF40DAF52EA43057FF4EBAE12E74A0011D212F5001211D20DD56FF47873B3EB625222
S32D0000CBB80ED44FEAC12343F0004343EA505323FA02F070474FF00000704750EA013002D14FF0FF3070474FF0AC
S32D0000CBE0000070474FEA4102B2F1E04324BFB3F5001CDCF1FE5C0DD901F0004C4FEAC0024CEA5070B2F1004F5A
S32D0000CC0840EB830008BF20F00100704711F0804F21D113F13872BCBF01F00040704741F480114FEA5252C2F198
S32D0000CC301802C2F1200C10FA0CF320FA02F018BF40F001004FEAC1234FEAD32303FA0CFC40EA0C0023FA02F327
S32D0000CC584FEA4303CCE77FEA625307D150EA01331EBF4FF0FE4040F44000704701F0004040F0FE4040F40000C0
S32D0000CC80704700BF80F0004002E000BF81F0004142001FBF5FEA410392EA030F7FEA226C7FEA236C6AD04FEA70
S32D0000CCA81262D2EB1363C1BFD218414048404140B8BF5B42192B88BF704710F0004F40F4000020F07F4018BF44
S32D0000CCD0404211F0004F41F4000121F07F4118BF494292EA030F3FD0A2F1010241FA03FC10EB0C00C3F12003B0
S32D0000CCF801FA03F100F0004302D5494260EB4000B0F5000F13D3B0F1807F06D340084FEA310102F10102FE2A1B
S32D0000CD2051D2B1F1004F40EBC25008BF20F0010040EA03007047490040EB000010F4000FA2F10102EDD1B0FA53
S32D0000CD4880FCACF1080CB2EB0C0200FA0CF0AABF00EBC25052421843BCBFD0401843704792F0000F81F40001F6
S32D0000CD7006BF80F400000132013BB5E74FEA41037FEA226C18BF7FEA236C21D092EA030F04D092F0000F08BF63
S32D0000CD980846704790EA010F1CBF0020704712F07F4F04D1400028BF40F00040704712F100723CBF00F50000D4
S32D0000CDC0704700F0004343F0FE4040F4000070477FEA226216BF08467FEA23630146420206BF5FEA412390EA89
S32D0000CDE8010F40F4800070474FF0000304E000BF10F0004348BF40425FEA000C08BF704743F0964301464FF08C
S32D0000CE1000001CE050EA010208BF70474FF000030AE000BF50EA010208BF704711F0004302D5404261EB41016C
S32D0000CE385FEA010C02BF84460146002043F0B64308BFA3F18053A3F50003BCFA8CF2083AA3EBC25310DB01FA90
S32D0000CE6002FC634400FA02FCC2F12002BCF1004F20FA02F243EB020008BF20F00100704702F1200201FA02FC5B
S32D0000CE88C2F1200250EA4C0021FA02F243EB020008BF20EADC7070474FF0FF0C1CEAD0521EBF1CEAD15392EA19
S32D0000CEB00C0F93EA0C0F6FD01A4480EA010C400218BF5FEA41211ED04FF0006343EA501043EA5111A0FB013150
S32D0000CED80CF00040B1F5000F3EBF490041EAD3715B0040EA010062F17F02FD2A1DD8B3F1004F40EBC25008BF19
S32D0000CF0020F00100704790F0000F0CF0004C08BF49024CEA502040EA51207F3AC2BFD2F1FF0340EAC25070471F
S32D0000CF2840F400004FF00003013A5DDC12F1190FDCBF00F000407047C2F10002410021FA02F1C2F1200200FA71
S32D0000CF5002FC5FEA310040F1000053EA4C0308BF20EADC70704792F0000F00F0004C02BF400010F4000F013A8E
S32D0000CF78F9D040EA0C0093F0000F01F0004C02BF490011F4000F013BF9D041EA0C018FE70CEAD15392EA0C0F3B
S32D0000CFA018BF93EA0C0F0AD030F0004C18BF31F0004CD8D180EA010000F00040704790F0000F17BF90F0004F3B
S32D0000CFC8084691F0000F91F0004F14D092EA0C0F01D142020FD193EA0C0F03D14B0218BF084608D180EA0100FA
S32D0000CFF000F0004040F0FE4040F40000704740F0FE4040F4400070474FF0FF0C1CEAD0521EBF1CEAD15392EAFC
S32D0000D0180C0F93EA0C0F69D0A2EB030280EA010C49024FEA402037D04FF0805343EA111143EA10130CF000401D
S32D0000D0408B4238BF5B0042F17D024FF4000C8B4224BF5B1A40EA0C00B3EB510F24BFA3EB510340EA5C00B3EB60
S32D0000D068910F24BFA3EB910340EA9C00B3EBD10F24BFA3EBD10340EADC001B0118BF5FEA1C1CE0D1FD2A3FF6E5
S32D0000D09050AF8B4240EBC25008BF20F0010070470CF0004C4CEA50207F32C2BFD2F1FF0340EAC250704740F4CE
S32D0000D0B800004FF00003013A37E792F0000F00F0004C02BF400010F4000F013AF9D040EA0C0093F0000F01F011
S32D0000D0E0004C02BF490011F4000F013BF9D041EA0C0195E70CEAD15392EA0C0F08D142027FF47DAF93EA0C0FFA
S32D0000D1087FF470AF084676E793EA0C0F04D14B023FF44CAF08466EE730F0004C18BF31F0004CCAD130F0004284
S32D0000D1307FF45CAF31F000437FF43CAF5FE700BF4FF0FF3C06E000BF4FF0010C02E000BF4FF0010C4DF804CD1E
S32D0000D1584FEA40024FEA41037FEA226C18BF7FEA236C11D001B052EA530C18BF90EA010F58BFB2EB030088BF5F
S32D0000D180C81738BF6FEAE17018BF40F0010070477FEA226C02D15FEA402C05D17FEA236CE4D15FEA412CE1D0D9
S32D0000D1A85DF8040B704700BF844608466146FFE70FB5FFF7C9FF002848BF10F1000F0FBD4DF808EDFFF7F4FF2A
S32D0000D1D00CBF012000205DF808FB00BF4DF808EDFFF7EAFF34BF012000205DF808FB00BF4DF808EDFFF7E0FF9B
S32D0000D1F894BF012000205DF808FB00BF4DF808EDFFF7D2FF94BF012000205DF808FB00BF4DF808EDFFF7C8FFBB
S32D0000D22034BF012000205DF808FB00BF0000000080B582B000AF41F23C10C1F6FF7040F2823102F0ABF941F22C
S32D0000D2483C10C1F6FF7040F26B7102F0C1F941F24810C1F6FF704FF4FA7102F09BF941F24810C1F6FF7040F2C4
S32D0000D2706D6102F0B1F941F24810C1F6FF702E4902F0CAF941F23C10C1F6FF702B4902F0C3F94FF028037B603D
S32D0000D2987868FFF7ADFD034641F24810C1F6FF70194602F0B5F931E041F26C10C1F6FF7002F00EF80346002B9D
S32D0000D2C00FD07B6803F1FF337B6041F23420C1F6FF70796803F044F815A1D1E9000100F0CFFF41F26C10C1F62B
S32D0000D2E8FF7002F01BF80346002B0FD07B6803F101037B6041F23420C1F6FF70796803F02BF809A1D1E9000192
S32D0000D31000F0B6FF41F26C10C1F6FF7001F0EEFF034683F00103DBB2002BC1D1B4E700BF9A9999999999B93FA4
S32D0000D338000020420000A04080B582B000AF786039607B68012B40F088803A684FF6FF739A4240F0828041F21D
S32D0000D3601810C1F6FF704FF0130100F0B5FF41F21C10C1F6FF704FF0040100F0ADFF41F22010C1F6FF704FF02D
S32D0000D388120100F0A5FF41F22410C1F6FF704FF0030100F09DFF41F22810C1F6FF704FF00E0101F021FD41F253
S32D0000D3B02C10C1F6FF704FF0100101F019FD41F23010C1F6FF704FF00C0101F011FD41F23410C1F6FF704FF0D6
S32D0000D3D80A0101F009FD41F23810C1F6FF704FF0080101F001FD41F23C10C1F6FF704FF0000102F0B1F841F29A
S32D0000D4004810C1F6FF704FF0020102F0A9F841F25410C1F6FF704FF00101144A00F050FA41F25C10C1F6FF7050
S32D0000D4284FF000010F4A00F047FA41F26410C1F6FF704FF0000101F01FF941F26810C1F6FF704FF0010101F0F3
S32D0000D45017F941F26C10C1F6FF704FF0030101F0B5FE07F10807BD4680BD00BF0000404180B500AF4FF0010037
S32D0000D4784FF6FF71FFF760FF80BD00BF80B500AF41F2D822C1F6FF7241F21813C1F6FF73D31A194641F2181316
S32D0000D4A0C1F6FF731A460B4610464FF000011A4604F089FC80BD00BF05F0F2FC00F0B0F9FFF7E0FF05F0C4FC13
S32D0000D4C805F060FC05F0F8FC00F00CF84FF0000041F27011C1F6FF71FFF7A6FE0346184604F048FC80B500AF91
S32D0000D4F04FF4E043C4F204034FF4E042C4F2040202F5805202F13802126842F4785203F5805303F138031A60E6
S32D0000D51800F02EF900F094F841F28013C1F6FF734FF058021A6041F28013C1F6FF731B684FF47A7202FB03F2BD
S32D0000D54041F27C13C1F6FF731A6041F27C13C1F6FF731B681A464FF4E043C4F2040303F5825303F104031B681C
S32D0000D56803F070634FEA136303F10103B2FBF3F31A4641F28413C1F6FF731A604FF4E043C4F204034FF4E04240
S32D0000D590C4F2040202F5805202F13C02126842F0225203F5805303F13C031A604FF4E043C4F204034FF4E04297
S32D0000D5B8C4F2040202F5805202F13002126842F0006203F5805303F130031A604FF45043C4F203034FF480725A
S32D0000D5E01A614FF0640000F0FFFC4FF45043C4F203034FF45042C4F20302526922F010025A614FF45043C4F2CC
S32D0000D60803034FF000021A604FF45043C4F203034FF010025A6101F069FC01F011FD41F27810C1F6FF7000F06F
S32D0000D6305FFD41F23420C1F6FF7002F0B1FB41F2883000F001FE80BD80B400AF4FF48043C4F206034FF0000225
S32D0000D6585A704FF48043C4F206034FF098021A704FF48043C4F206039B79DBB203F01003002B0CBF0023012309
S32D0000D680DBB2002BF0D14FF48043C4F206039B79DBB203F00C034FEA9303022B0CBF00230123DBB2002BEED116
S32D0000D6A84FF48043C4F206034FF018021A714FF48043C4F206034FF000025A714FF4E043C4F2040303F58253EA
S32D0000D6D003F104034FF00002C0F213121A604FF48043C4F206034FF054025A7100BF4FF48043C4F206039B79E2
S32D0000D6F8DBB203F02003002B14BF00230123DBB2002BF0D100BF4FF48043C4F206039B79DBB203F04003002B1D
S32D0000D72014BF00230123DBB2002BF0D14FF48043C4F206034FF48042C4F206021278D2B202F03F02D2B21A7071
S32D0000D7484FF48043C4F206039B79DBB203F00C034FEA9303032B0CBF00230123DBB2002BEED14FF00003184625
S32D0000D770BD4680BC704700BF80B400AF4FF44043C4F204034FF480725A634FF2C003C4F20F034FF2C002C4F2F9
S32D0000D7980F02526942F400525A614FF2C003C4F20F034FF2C002C4F20F02126842F400521A604FF44043C4F2C6
S32D0000D7C0040340F20312C0F20A021A634FF46143CEF200034FF46142CEF20002D2F8882142F08062C3F8882175
S32D0000D7E84FF46143CEF200034FF46142CEF20002926842F080629A60BD4680BC704700BF80B483B000AF786016
S32D0000D810FEE700BF80B400AF00BEBD4680BC704780B400AF4FF0E0224CF20003C0F20003C2F8083D4FF4005300
S32D0000D838C4F205034CF22052DA814FF40053C4F205034DF62812DA814FF40053C4F205034FF0D2021A80BD46C9
S32D0000D86080BC704780B400AF4FF44043C4F20403D3F8A03003F48053002B0CBF00230123DBB2002B19D04FF4BB
S32D0000D8884043C4F204034FF44042C4F20402D2F8A02022F48052C3F8A0204FF2C003C4F20F034FF2C002C4F23F
S32D0000D8B00F02126822F400521A60BD4680BC704790B585B000AFF8600B467A60FB72FB68FA7A1A71FB684FF0CA
S32D0000D8D800025A714FF001031C4678682049FFF797FC0346002B02D14FF000031C46E3B2002B02D01A4B7B6021
S32D0000D90011E04FF001031C4678681849FFF770FC0346002B02D14FF000031C46E3B2002B01D0124B7B6078682C
S32D0000D928FEF7D6FE02460B46104619460AA3D3E90023FEF721FF02460B4610461946FFF74DF90246FB681A606A
S32D0000D950FB68184607F11407BD4690BDAFF30080ABAAAAAAAAAA2040000040410000803F80B485B000AF024666
S32D0000D9780B46FA71BB71BB79002B07D141F27413C1F6FF734FF000021A7006E041F27413C1F6FF734FF00102A9
S32D0000D9A01A704FF03803FB7341F27413C1F6FF731A78FB7B1343FB734FF4C043C4F206034FF4C042C4F2060230
S32D0000D9C89278D2B242F01002D2B29A704FF4C043C4F206034FF4C042C4F206029278D2B242F02002D2B29A7059
S32D0000D9F04FF4C043C4F20603FA7B1A7107F11407BD4680BC704700BF80B483B000AF4FF001037B6004E000BF65
S32D0000DA187B6803F101037B607B68312BCCBF00230123DBB2002BF2D107F10C07BD4680BC704700BF80B582B077
S32D0000DA4000AF02460B46FA71BB7141F27513C1F6FF731B7818464FF00001FFF789FF4FF4C043C4F20603DB78EE
S32D0000DA68DBB203F00203002B14BF00230123DBB2002BF0D14FF4C043C4F206034FF4C042C4F20602D278D2B277
S32D0000DA9042F00202D2B2DA704FF4C043C4F20603FA791A714FF4C043C4F20603DB78DBB203F00203002B14BF86
S32D0000DAB800230123DBB2002BF0D14FF4C043C4F206034FF4C042C4F20602D278D2B242F00202D2B2DA704FF463
S32D0000DAE0C043C4F20603BA791A714FF4C043C4F20603DB78DBB203F00203002B14BF00230123DBB2002BF0D1FD
S32D0000DB084FF4C043C4F206034FF4C042C4F20602D278D2B242F00202D2B2DA704FF4C043C4F206034FF4C042CB
S32D0000DB30C4F206029278D2B222F02002D2B29A704FF4C043C4F206034FF4C042C4F206029278D2B222F01002FF
S32D0000DB58D2B29A70FFF754FF07F10807BD4680BD80B582B000AF0346FB71FB79184600F043F807F10807BD46AF
S32D0000DB8080BD00BF80B582B000AF02460B46FA71BB7100F011F8FB794FEA4303DBB21846FFF7E2FFBB791846F5
S32D0000DBA8FFF7DEFF00F016F807F10807BD4680BD80B400AF4FF24003C4F20F034FF24002C4F20F02926842F48E
S32D0000DBD080129A60BD4680BC704700BF80B400AF4FF24003C4F20F034FF24002C4F20F02526842F480125A6031
S32D0000DBF8BD4680BC704700BF80B485B000AF0346FB714FF00003BB7303E0FB7B03F10103FB734FF44043C4F2D2
S32D0000DC200A03DB6A4FF00003002BF2D14FF44043C4F20A034FF44042C4F20A02D26A42F00042DA624FF4404392
S32D0000DC48C4F20A03FA795A6300BF4FF44043C4F20A03DB6A03F40033002B14BF00230123DBB2002BF1D14FF402
S32D0000DC704043C4F20A039B6BBB73BB7B184607F11407BD4680BC704780B582B000AF4FF4E043C4F204034FF4F3
S32D0000DC98E042C4F2040202F5805202F13002126842F4805203F5805303F130031A604FF42043C4F204034FF4FE
S32D0000DCC080721A654FF24003C4F20F034FF24002C4F20F02526942F480125A61FFF77EFF4FF42043C4F204031B
S32D0000DCE84FF400725A654FF42043C4F204034FF400729A654FF42043C4F204034FF40072DA654FF44043C4F2B0
S32D0000DD100A034FF44062C8F200021A604FF44043C4F20A034FF00502C3F60062DA604FF000037B6007E04FF056
S32D0000DD38FF00FFF715FF7B6803F101037B607B68092BCCBF00230123DBB2002BEFD104A1D1E9000100F090FAC3
S32D0000DD6007F10807BD4680BD9A9999999999B93F90B486B000AFF860B9607A60FA684FF42043C4F206039A42A8
S32D0000DD8814D14FF4E043C4F204034FF4E042C4F2040202F5805202F13402126842F4806203F5805303F13403CA
S32D0000DDB01A6083E0FA684FF43043C4F206039A4214D14FF4E043C4F204034FF4E042C4F2040202F5805202F1D0
S32D0000DDD83402126842F4006203F5805303F134031A6067E0FA684FF44043C4F206039A4214D14FF4E043C4F25A
S32D0000DE0004034FF4E042C4F2040202F5805202F13402126842F4805203F5805303F134031A604BE0FA684FF418
S32D0000DE285043C4F206039A4214D14FF4E043C4F204034FF4E042C4F2040202F5805202F13402126842F4005281
S32D0000DE5003F5805303F134031A602FE0FA684FF42043C4F20E039A4214D14FF4E043C4F204034FF4E042C4F257
S32D0000DE78040202F5805202F12802126842F4806203F5805303F128031A6013E04FF4E043C4F204034FF4E0421F
S32D0000DEA0C4F2040202F5805202F12802126842F4006203F5805303F128031A60FB68DB78DBB223F00C03DAB24B
S32D0000DEC8FB68DA70FB684FF000029A70BB684FF47A7202FB03F27B684FEA031392FBF3F39CB2FB681B78DBB217
S32D0000DEF023F01F03FB75234603F4F8534FEA2323DBB203F01F03DAB2FB7D1343DAB2FB681A70E2B2FB685A70FF
S32D0000DF18BB684FF4FA4202FB03F27B684FEA031392FBF3F39AB2234619464FEAC121CB1A4FEA43139BB2D318C7
S32D0000DF409CB2FB689B7ADBB223F01F03FB75E3B203F01F03DAB2FB7D1343DAB2FB689A72FB68DB78DBB243F046
S32D0000DF680C03DAB2FB68DA7007F11807BD4690BC704700BF80B483B000AF786000BF7B681B79DBB203F02003A0
S32D0000DF90002B14BF00230123DBB2002BF3D17B68DB79DBB2184607F10C07BD4680BC704780B483B000AF786091
S32D0000DFB80B46FB7000BF7B681B79DBB2DBB26FEA0303DBB24FEAD313DBB2002BF3D17B68FA78DA7107F10C07FD
S32D0000DFE0BD4680BC704700BF80B483B000AF78604FF4E043C4F204034FF4E042C4F2040202F5805202F1380236
S32D0000E008126842F0010203F5805303F138031A604FF00003C4F204037A689A604FF00003C4F204034FF00502A7
S32D0000E0305A604FF00003C4F204034FF00002C4F20402126842F001021A6000BF4FF00003C4F204031B6803F0AF
S32D0000E0588003002B14BF00230123DBB2002BF1D14FF00003C4F204034FF00002C4F20402126822F001021A6053
S32D0000E08007F10C07BD4680BC704700BF80B582B000AF786039607B68012B0AD13A684FF6FF739A4205D141F203
S32D0000E0A87810C1F6FF7000F00FF807F10807BD4680BD00BF80B500AF4FF001004FF6FF71FFF7E0FF80BD00BFF5
S32D0000E0D080B483B000AF78607B684FF000021A707B68184607F10C07BD4680BC704700BF80B582B000AF786097
S32D0000E0F87B681B7883F00103DBB2002B36D04FF4E043C4F2040303F5805303F128034FF400621A604FF450434D
S32D0000E120C4F204034FF440721A624FF45043C4F204034FF440725A6241F27C13C1F6FF731B684FEAD372D31888
S32D0000E1484FEA63034FF43040C4F20E0019464FF46142FFF709FE4FF0640000F071F87B684FF001021A704FF067
S32D0000E170010301E04FF00003184607F10807BD4680BD00BF80B487B000AFF860B9607A60FA6844F6D353C1F21C
S32D0000E1986203A3FB02134FEA9312BB68D3187B61FA6844F6D353C1F26203A3FB02134FEA93134FF47A7101FBE3
S32D0000E1C003F3D31AFB60FB684FEAC33244F6D353C1F26203A3FB02134FEA93127B68D3183B613B694FEAD3330C
S32D0000E1E87A69D3187B613B694FEA43434FEA53433B614FF45043C4F203031B681A467B699A4211D34FF45043A2
S32D0000E210C4F203031B681A467B699A420BD14FF45043C4F203035B681A463B699A4202D24FF0010301E04FF039
S32D0000E2380003002BDDD107F11C07BD4680BC704780B584B000AF78604FF45043C4F203031B68FB604FF4504395
S32D0000E260C4F203035B68BB607B681846F968BA68FFF788FF07F11007BD4680BD0000000080B584B000AFC7E99E
S32D0000E28800014FF45043C4F203031B68FB604FF45043C4F203035B68BB60D7E900010AA3D3E90023FEF768FAE3
S32D0000E2B002460B4610461946FEF774FC03461846F968BA68FFF75EFF07F11007BD4680BD0000000000408F40B2
S32D0000E2D880B582B000AF78600B46FB70FB787868194600F013F87B68184607F10807BD4680BD00BF80B483B013
S32D0000E30000AF78607B68184607F10C07BD4680BC704700BF80B483B000AF78600B46FB707B68FA781A707B68FB
S32D0000E3281B781A4642F67073C0F201039B5C042B00F2F98001A252F823F000BF59E30000B7E3000015E40000E4
S32D0000E35073E40000D1E400004FF41043C4F204037A681278114642F6B472C0F2010252F8212040F2031143F85E
S32D0000E37822104FF47043C4F20F034FF47042C4F20F02526911467A681278104642F6B472C0F2010252F820205A
S32D0000E3A002F01F024FF0010000FA02F26FEA02020A405A61BBE04FF42043C4F204037A681278114642F6B4728D
S32D0000E3C8C0F2010252F8212040F2031143F822104FF24003C4F20F034FF24002C4F20F02526911467A68127820
S32D0000E3F0104642F6B472C0F2010252F8202002F01F024FF0010000FA02F26FEA02020A405A618CE04FF4304347
S32D0000E418C4F204037A681278114642F6B472C0F2010252F8212040F2031143F822104FF28003C4F20F034FF238
S32D0000E4408002C4F20F02526911467A681278104642F6B472C0F2010252F8202002F01F024FF0010000FA02F2B3
S32D0000E4686FEA02020A405A615DE04FF44043C4F204037A681278114642F6B472C0F2010252F8212040F20311BD
S32D0000E49043F822104FF2C003C4F20F034FF2C002C4F20F02526911467A681278104642F6B472C0F2010252F82A
S32D0000E4B8202002F01F024FF0010000FA02F26FEA02020A405A612EE04FF45043C4F204037A681278114642F6B7
S32D0000E4E0B472C0F2010252F8212040F2031143F822104FF47143C4F20F034FF47142C4F20F02526911467A6885
S32D0000E5081278104642F6B472C0F2010252F8202002F01F024FF0010000FA02F26FEA02020A405A6100BF07F10E
S32D0000E5300C07BD4680BC704780B485B000AF78604FF00003FB607B681B781A4642F67073C0F201039B5C042B5A
S32D0000E55800F2868001A252F823F000BF79E50000A9E50000D9E5000009E6000039E600004FF47043C4F20F0368
S32D0000E5801B691A467B681B78194642F6B473C0F2010353F8213003F01F034FF0010101FA03F31340FB605FE0CF
S32D0000E5A84FF24003C4F20F031B691A467B681B78194642F6B473C0F2010353F8213003F01F034FF0010101FA3E
S32D0000E5D003F31340FB6047E04FF28003C4F20F031B691A467B681B78194642F6B473C0F2010353F8213003F069
S32D0000E5F81F034FF0010101FA03F31340FB602FE04FF2C003C4F20F031B691A467B681B78194642F6B473C0F24E
S32D0000E620010353F8213003F01F034FF0010101FA03F31340FB6017E04FF47143C4F20F031B691A467B681B7827
S32D0000E648194642F6B473C0F2010353F8213003F01F034FF0010101FA03F31340FB6000BFFB68002B0CBF002364
S32D0000E6700123DBB2184607F11407BD4680BC704780B584B000AF78600B46FB704FF00B03FB73FA78FB7B786835
S32D0000E69811461A4600F0ECF87B68184607F11007BD4680BD80B485B000AF78607B68A3F11003002B01DA03F1C5
S32D0000E6C01F034FEA6313FB60FB68012B48D0022B00F08980002B40F0C9804FF46142CEF200024FF46143CEF240
S32D0000E6E80003D3F8803119467B68A3F110004FF01F03C8F200030340002B05DA03F1FF3363F01F0303F10103A1
S32D0000E7104FF0010000FA03F30B43C2F880314FF46142CEF200024FF46143CEF200031B6819467B68A3F1100037
S32D0000E7384FF01F03C8F200030340002B05DA03F1FF3363F01F0303F101034FF0010000FA03F30B43136085E05F
S32D0000E7604FF46142CEF200024FF46143CEF20003D3F8843119467B68A3F110004FF01F03C8F200030340002B47
S32D0000E78805DA03F1FF3363F01F0303F101034FF0010000FA03F30B43C2F884314FF46142CEF200024FF4614375
S32D0000E7B0CEF200035B6819467B68A3F110004FF01F03C8F200030340002B05DA03F1FF3363F01F0303F10103D1
S32D0000E7D84FF0010000FA03F30B43536042E04FF46142CEF200024FF46143CEF20003D3F8883119467B68A3F114
S32D0000E80010004FF01F03C8F200030340002B05DA03F1FF3363F01F0303F101034FF0010000FA03F30B43C2F8A4
S32D0000E82888314FF46142CEF200024FF46143CEF200039B6819467B68A3F110004FF01F03C8F200030340002B42
S32D0000E85005DA03F1FF3363F01F0303F101034FF0010000FA03F30B43936000BF07F11407BD4680BC704700BF30
S32D0000E87880B584B000AF786013460A46FA70BB707B68FA781A70BB78FB737B681B781A4642F67073C0F201031D
S32D0000E8A09B5C042B00F2F68001A252F823F000BFC5E8000039E90000ADE9000095EA000021EA00004FF4104378
S32D0000E8C8C4F204037A681278114642F6B472C0F2010252F82110FA7B4FEA024202F4702242F4887242F0030233
S32D0000E8F043F821204FF47043C4F20F034FF47042C4F20F02526911467A681278104642F6B472C0F2010252F8D3
S32D0000E918202002F01F024FF0010000FA02F26FEA02020A405A614FF06700FFF7BBFEADE04FF42043C4F20403A9
S32D0000E9407A681278114642F6B472C0F2010252F82110FA7B4FEA024202F4702242F4887242F0030243F82120FB
S32D0000E9684FF24003C4F20F034FF24002C4F20F02526911467A681278104642F6B472C0F2010252F8202002F088
S32D0000E9901F024FF0010000FA02F26FEA02020A405A614FF06800FFF781FE73E04FF43043C4F204037A6812785A
S32D0000E9B8114642F6B472C0F2010252F82110FA7B4FEA024202F4702242F4887242F0030243F821204FF280032B
S32D0000E9E0C4F20F034FF28002C4F20F02526911467A681278104642F6B472C0F2010252F8202002F01F024FF0F4
S32D0000EA08010000FA02F26FEA02020A405A614FF06900FFF747FE39E04FF45043C4F204037A681278114642F605
S32D0000EA30B472C0F2010252F82110FA7B4FEA024202F4702242F4887242F0030243F821204FF47143C4F20F0346
S32D0000EA584FF47142C4F20F02526911467A681278104642F6B472C0F2010252F8202002F01F024FF0010000FA15
S32D0000EA8002F26FEA02020A405A614FF06B00FFF70DFE00BF07F11007BD4680BDB0B48BB000AF42F6C463C0F2FA
S32D0000EAA8010307F104041D460FCD0FC495E80F0084E80F004FF000037B6248E04FF42043C4F20403D3F8A030DE
S32D0000EAD01A467B6A4FEA830307F12800C31853F8243C4FF0010101FA03F31340002B0CBF00230123DBB2002BF4
S32D0000EAF829D041F2A813C1F6FF737A6A53F8223003F1010141F2A813C1F6FF737A6A43F822104FF42043C4F2A5
S32D0000EB2004034FF42042C4F20402D2F8A02011467A6A4FEA820207F12800821852F8242C4FF0010000FA02F25B
S32D0000EB480A40C3F8A0207B6A03F101037B627B6A072BCCBF00230123DBB2002BAED107F12C07BD46B0BC7047AF
S32D0000EB70B0B489B000AF42F6E463C0F2010307F104041D460FCD0FC495E8030084E803004FF00003FB6149E02E
S32D0000EB984FF43043C4F20403D3F8A0301A46FB694FEA830307F12000C31853F81C3C4FF0010101FA03F31340A3
S32D0000EBC0002B0CBF00230123DBB2002B2AD0FB6903F1080241F2A813C1F6FF7353F8223003F1010141F2A8133E
S32D0000EBE8C1F6FF7343F822104FF43043C4F204034FF43042C4F20402D2F8A0201146FA694FEA820207F120006C
S32D0000EC10821852F81C2C4FF0010000FA02F20A40C3F8A020FB6903F10103FB61FB69052BCCBF00230123DBB20C
S32D0000EC38002BADD107F12407BD46B0BC704700BFB0B48DB000AF42F6FC63C0F201033C461D460FCD0FC40FCDF0
S32D0000EC600FC495E8070084E807004FF00003FB6249E04FF41043C4F20403D3F8A0301A46FB6A4FEA830307F18A
S32D0000EC883000C31853F8303C4FF0010101FA03F31340002B0CBF00230123DBB2002B2AD0FB6A03F10E0241F28C
S32D0000ECB0A813C1F6FF7353F8223003F1010141F2A813C1F6FF7343F822104FF41043C4F204034FF41042C4F29D
S32D0000ECD80402D2F8A0201146FA6A4FEA820207F13000821852F8302C4FF0010000FA02F20A40C3F8A020FB6A46
S32D0000ED0003F10103FB62FB6A0A2BCCBF00230123DBB2002BADD107F13407BD46B0BC7047B0B487B000AF42F613
S32D0000ED282873C0F201033C461D460FCD0FC42B6823604FF000037B6149E04FF45043C4F20403D3F8A0301A46ED
S32D0000ED507B694FEA830307F11800C31853F8183C4FF0010101FA03F31340002B0CBF00230123DBB2002B2AD0F4
S32D0000ED787B6903F1190241F2A813C1F6FF7353F8223003F1010141F2A813C1F6FF7343F822104FF45043C4F2C0
S32D0000EDA004034FF45042C4F20402D2F8A02011467A694FEA820207F11800821852F8182C4FF0010000FA02F2C6
S32D0000EDC80A40C3F8A0207B6903F101037B617B69042BCCBF00230123DBB2002BADD107F11C07BD46B0BC704744
S32D0000EDF080B483B000AF78600B46FB707B68FA781A707B68184607F10C07BD4680BC704780B586B000AF786038
S32D0000EE187B681B781A4643F23403C0F2010353F822303B617B681B781A4642F69073C0F201039B5CFB733B69CB
S32D0000EE40DBB203F01F03DAB241F29813C1F6FF731A723B69DBB203F01F03DAB241F29813C1F6FF735A72FB7BC8
S32D0000EE68002B1ED14FF43040C4F2030041F29811C1F6FF7100F00CFB4FF43043C4F203031B6803F08003002B66
S32D0000EE9014BF00230123DBB2002BF1D14FF43043C4F203031B697B611DE04FF43040C4F20B0041F29811C1F6EA
S32D0000EEB8FF7100F0EDFA4FF43043C4F20B031B6803F08003002B14BF00230123DBB2002BF1D14FF43043C4F247
S32D0000EEE00B031B697B617B69184607F11807BD4680BD00BF98B500AF41F28813C1F6FF734FF05C021A7041F2F1
S32D0000EF088813C1F6FF734FF010025A7041F28813C1F6FF7341F234225A8041F28813C1F6FF7345F278629A8080
S32D0000EF3041F28813C1F6FF734FF010029A7141F28813C1F6FF734FF00702DA7141F28813C1F6FF734FF4C022BA
S32D0000EF58DA6041F28813C1F6FF734FF01F021A7241F28813C1F6FF734FF01F025A724FF43040C4F2030041F2AC
S32D0000EF808811C1F6FF7100F087FA4FF43040C4F20B0041F28811C1F6FF7100F07DFA4FF43040C4F20B0000F000
S32D0000EFA8D1F94FF43040C4F2030000F0CBF94FF43040C4F20B0041F28811C1F6FF7100F067FA4FF43040C4F230
S32D0000EFD0030041F28811C1F6FF7100F05DFA41F29812C1F6FF7241F28813C1F6FF7314460FCB84E80F0041F2F8
S32D0000EFF89813C1F6FF734FF05C021A7041F29813C1F6FF734FF00402DA7198BD80B500AF41F22C23C1F6FF7375
S32D0000F0201B6803F1010241F22C23C1F6FF731A6000F04CF84FF4E043C4F203034FF00102C3F80C2180BD00BFA7
S32D0000F04880B500AF4FF4E043C4F203034FF001021A6048F2A060C0F2010000F023F84FF4E043C4F203034FF07F
S32D0000F0700302C3F808214FF46143CEF200034FF46142CEF20002D2F8882142F01002C3F888214FF46143CEF275
S32D0000F09800034FF46142CEF20002926842F010029A6080BD80B483B000AF78604FF4E043C4F203037A68C3F87D
S32D0000F0C0002107F10C07BD4680BC704780B584B000AF41F22823C1F6FF731B68FB6029E0FB685B78FB71FB6855
S32D0000F0E89B68184600F02EF80346BB71BB79002B19D0FB685B68012B15DDFB689B681B69BB6008E0BB685B68AF
S32D0000F11003F10102BB685A60BB681B69BB60BB68002B0CBF00230123DBB2002BEED1FB68DB68FB60FB68002BD5
S32D0000F1380CBF00230123DBB2002BCDD107F11007BD4680BD80B584B000AF78607868FFF75BFE0346FB607B684C
S32D0000F1609B695B78FB72FB7A002B12D17B68DA68FB689A420DDA7B689B694FF001025A707B685B6803F10102DF
S32D0000F1887B685A604FF0010317E0FB7A012B12D17B689A68FB689A420DDD7B689B694FF000025A707B685B6858
S32D0000F1B003F101027B685A604FF0010301E04FF00003184607F11007BD4680BD80B582B000AF78600B46FB70E0
S32D0000F1D87B681846FFF78EF87B6803F101031846FFF788F87B6803F102031846FFF782F8FB78032B66D801A271
S32D0000F20052F823F015F2000043F2000071F200009FF200007B6818464FF00001FFF77AF87B6803F10103184631
S32D0000F2284FF00101FFF772F87B6803F1020318464FF00201FFF76AF844E07B6818464FF00801FFF763F87B6862
S32D0000F25003F1010318464FF00901FFF75BF87B6803F1020318464FF00A01FFF753F82DE07B6818464FF0100145
S32D0000F278FFF74CF87B6803F1010318464FF01101FFF744F87B6803F1020318464FF01201FFF73CF816E07B68E3
S32D0000F2A018464FF01801FFF735F87B6803F1010318464FF01901FFF72DF87B6803F1020318464FF01A01FFF730
S32D0000F2C825F800BF7B68184607F10807BD4680BD80B582B000AF78607B681846FFF728F9034683F00103DBB221
S32D0000F2F0184607F10807BD4680BD00BF80B582B000AF78607B6803F101031846FFF714F9034683F00103DBB215
S32D0000F318184607F10807BD4680BD00BF80B582B000AF78607B6803F102031846FFF700F9034683F00103DBB2FF
S32D0000F340184607F10807BD4680BD00BF80B485B000AF78607B681B6A23F040027B681A627B685B6A23F00B0267
S32D0000F3687B685A627B685B6A43F007027B685A627B685B6A43F080027B685A627B681B6803F08003002B14BF7F
S32D0000F39000230123DBB2002BF4D17B685B6A03F04003002B0CBF00230123DBB2002B02D04FF0010369E04FF01B
S32D0000F3B80003FB817B68DB6CFB817B689B6C9AB2FB89D318FB817B685B6C9AB2FB89D318FB817B681B6C9AB24A
S32D0000F3E0FB89D318FB817B68DB6B9AB2FB89D318FB817B689B6B9AB2FB89D318FB81FB894FEA5303FB81FB8981
S32D0000F4086FEA43436FEA5343FB81FA897B68DA624FF00003FB817B68DB6EFB817B689B6E9AB2FB89D318FB8161
S32D0000F4307B685B6E9AB2FB89D318FB817B681B6E9AB2FB89D318FB817B68DB6D9AB2FB89D318FB817B689B6DDB
S32D0000F4589AB2FB89D318FB81FB894FEA5303FB81FB896FEA43436FEA5343FB81FA897B681A637B685B6A23F054
S32D0000F48080027B685A624FF00003184607F11407BD4680BC704700BF80B483B000AF786039603B681B781A46B8
S32D0000F4A87B689A603B685B781A467B68DA603B685B881A467B689A613B689B881A467B68DA613B689B791A4647
S32D0000F4D07B681A623B68DB791A467B685A623B68DA687B681A653B681B7A1A467B681A603B685B7A1A467B68C2
S32D0000F4F85A6007F10C07BD4680BC704780B483B000AF78607B68184607F10C07BD4680BC704700BF80B582B0D5
S32D0000F52000AF786039607B68012B0AD13A684FF6FF739A4205D141F23020C1F6FF70FFF7E1FF07F10807BD461F
S32D0000F54880BD00BF80B500AF4FF001004FF6FF71FFF7E0FF80BD00BF80B483B000AF78600B46FB707B68FA78F0
S32D0000F5701A707B684FF4FA725A807B6840F6C4129A807B68044A9A607B68184607F10C07BD4680BC704700BF42
S32D0000F598000080BF80B483B000AF786039603A6840F2F3139A4204DD3A6840F6C4139A4204DD7B684FF4FA72EA
S32D0000F5C05A8003E03B689AB27B685A8007F10C07BD4680BC704700BF80B483B000AF786039603A6840F2F31393
S32D0000F5E89A4204DD3A6840F6C4139A4204DD7B6840F6C4129A8003E03B689AB27B689A8007F10C07BD4680BCAA
S32D0000F610704700BF00000000F0B585B000AF786039604FF001031C4638684B49FDF7D6FD0346002B02D14FF036
S32D0000F63800031C46E3B2002B01D0454B3B604FF001031C4638684349FDF7E2FD0346002B02D14FF000031C46F4
S32D0000F660E3B2002B01D03D4B3B607B689B6818463968FDF7A9FD0346002B64D17B683A689A607B685E887B6875
S32D0000F6889B881A467B685B88D31A1846FDF70EF802460B46104619462BA3D3E90023FDF795F902460B46144656
S32D0000F6B01D463868FDF710F802460B4620462946FDF75EF802460B4610461946FDF76AFA03469BB2F318FB81B2
S32D0000F6D8FB897B73FB894FEA23233B734FF43040C4F20E004FF07F01FEF75EFC4FF43040C4F20E004FF00501A0
S32D0000F700FEF756FC7B681B784FF43040C4F20E001946FEF74DFC3B7B4FF43040C4F20E001946FEF745FC7B7B52
S32D0000F7284FF43040C4F20E001946FEF73DFC4FF43040C4F20E004FF0FF01FEF735FC07F11407BD46F0BD00BF51
S32D0000F7500000000000806640000000000000344380B582B000AF78604FF43043C4F204034FF48072DA604FF4DB
S32D0000F7782043C4F204034FF480729A644FF42043C4F204034FF480721A644FF42043C4F204034FF480725A64A4
S32D0000F7A04FF42043C4F204034FF48072DA604FF28003C4F20F034FF28002C4F20F02526942F008025A614FF260
S32D0000F7C84003C4F20F034FF24002C4F20F02526942F480225A614FF24003C4F20F034FF24002C4F20F0252691F
S32D0000F7F042F480325A614FF24003C4F20F034FF24002C4F20F02526942F400325A614FF24003C4F20F034FF247
S32D0000F8184002C4F20F02126842F008021A604FF24003C4F20F034FF24002C4F20F02526942F008025A614FF200
S32D0000F8408003C4F20F034FF28002C4F20F02126842F008021A604FF42043C4F204034FF480725A624FF420439B
S32D0000F868C4F204034FF480721A624FF43043C4F204034FF480721A614FF43043C4F204034FF480725A614FF43B
S32D0000F8903043C4F204034FF480729A614FF43043C4F204034FF48072DA614FF43043C4F204034FF480721A63E2
S32D0000F8B84FF43043C4F204034FF480725A634FF43043C4F204034FF480729A634FF43043C4F204034FF4807270
S32D0000F8E0DA634FF43043C4F204034FF480721A644FF43043C4F204034FF480725A644FF43043C4F204034FF47B
S32D0000F90880729A644FF43043C4F204034FF48072DA644FF44043C4F204034FF480721A604FF44043C4F2040346
S32D0000F9304FF480729A604FF44043C4F204034FF48072DA604FF44043C4F204034FF480721A614FF24003C4F21B
S32D0000F9580F034FF24002C4F20F02526942F440725A614FF28002C4F20F024FF28003C4F20F035B6919464FF24D
S32D0000F980F003C0F20F030B4353614FF2C003C4F20F034FF2C002C4F20F02526942F01D025A6178684FF0E20141
S32D0000F9A800F0EEFC78684FF01D0100F02DFE78684FF0020100F028FE78684FF0040100F023FE78684FF0E00192
S32D0000F9D000F0DAFC78684FF0010100F019FE4FF06400FEF731FC78684FF0E00100F0CCFC78684FF0030100F08B
S32D0000F9F80BFE78684FF0010100F0C2FC4FF00100FEF71EFC78684FF0E60100F0B9FC78684FF0010100F0F8FD09
S32D0000FA2078684FF0A00100F0F3FD78684FF0FF0100F0EEFD78684FF0B00100F0A5FC78684FF01C0100F0E4FDB0
S32D0000FA4878684FF00F0100F0DFFD78684FF0010100F0DAFD78684FF03F0100F0D5FD78684FF0000100F0D0FDAF
S32D0000FA7078684FF0EF0100F0CBFD78684FF0000100F0C6FD78684FF0B40100F07DFC78684FF0010100F0BCFDC7
S32D0000FA9878684FF0990100F0B7FD78684FF0000100F0B2FD78684FF0450100F0ADFD78684FF0020100F0A8FD6E
S32D0000FAC078684FF0000100F0A3FD78684FF0000100F09EFD78684FF0000100F099FD78684FF0B60100F050FC05
S32D0000FAE878684FF0010100F08FFD78684FF0090100F08AFD78684FF0000100F085FD78684FF00E0100F080FD86
S32D0000FB1078684FF0020100F07BFD78684FF0000100F076FD78684FF0000100F071FD78684FF0BA0100F028FC4E
S32D0000FB3878684FF00F0100F067FD4FF06400FEF77FFB78684FF03A0100F01AFC78684FF0600100F059FD786804
S32D0000FB604FF02A0100F010FC78684FF0000100F04FFD78684FF0000100F04AFD78684FF0010100F045FD78682B
S32D0000FB884FF03F0100F040FD78684FF02B0100F0F7FB78684FF0000100F036FD78684FF0000100F031FD786815
S32D0000FBB04FF0000100F02CFD78684FF0EF0100F027FD78684FF0360100F0DEFB78684FF0000100F01DFD786882
S32D0000FBD84FF0F00100F0D4FB78684FF0040100F013FD78684FF0B80100F0CAFB78684FF00F0100F009FD78685A
S32D0000FC004FF0010100F004FD4FF24003C4F20F034FF24002C4F20F02126842F008021A604FF06400FEF710FB3B
S32D0000FC2878684FF0360100F0ABFB78684FF0000100F0EAFC78684FF0F00100F0A1FB78684FF0040100F0E0FC40
S32D0000FC5041F23420C1F6FF704FF0010100F03EFA41F23420C1F6FF704FF06F014FF01E0200F0B2F841F2342094
S32D0000FC78C1F6FF704FF056014FF0AF0200F028F941F23420C1F6FF704FF0000100F074FA41F23420C1F6FF70A9
S32D0000FCA042F63C71C0F201014FF001024FF0010300F08EFA78684FF0290100F065FB4FF06400FEF7C1FA7868D4
S32D0000FCC84FF0BE0100F05CFB78684FF00E0100F09BFC78684FF0F00100F096FC78684FF0010100F091FC786804
S32D0000FCF04FF0000100F08CFC78684FF0000100F087FC78684FF00F0100F082FC786800F08BFA41F23420C1F66B
S32D0000FD18FF704FF0010100F02FFA41F23420C1F6FF704FF0000100F0FFF907F10807BD4680BD00BF80B582B0B2
S32D0000FD4000AF78607B684FF00002DA617B684FF001021A627B684FF00E025A607B684FF01A029A607B684FF0C8
S32D0000FD6800025A617B684FF000029A617B684FF4A072DA607B684FF0F0021A617B684FF000021A70786801F011
S32D0000FD9065FA7B68184607F10807BD4680BD00BF80B582B000AF786041F27823C1F6FF731B7883F00103DBB223
S32D0000FDB8002B09D041F27823C1F6FF734FF001021A707868FFF7C8FC07F10807BD4680BD80B58AB002AFF860FD
S32D0000FDE0B9607A604FF07E030093F868B9687A684FF0620300F092FE40F24E733B614FF00003FB615BE04FF081
S32D0000FE080003BB6143E0FB6903F1010240F20043C1F6FF739B5C002B09D14FF0FF03FB754FF0FF03BB754FF034
S32D0000FE30FF037B751CE0FB6903F1010240F20043C1F6FF739B5C012B09D14FF0D403FB754FF00003BB754FF089
S32D0000FE5826037B7508E04FF0B503FB754FF0BA03BB754FF0B0037B75F97DBA7D7B7DF86800F00EF90246FB685F
S32D0000FE80DA61F86801F0EAF9F86801F087F8BB6903F10103BB6140F20043C1F6FF73FA699B181B781A46BB6912
S32D0000FEA89A42D4BF00230123DBB2002BABD1FB6903F10203FB61FA693B699A42ACBF00230123DBB2002B9AD1D1
S32D0000FED007F12007BD4680BD80B58AB002AFF860B9607A604FF027030093F868B9687A684FF0950300F012FE04
S32D0000FEF840F2E6333B614FF00003FB615BE04FF00003BB6143E0FB6903F1010240F65033C1F6FF739B5C002B3C
S32D0000FF2009D14FF0FF03FB754FF0FF03BB754FF0FF037B751CE0FB6903F1010240F65033C1F6FF739B5C012B2A
S32D0000FF4809D14FF00003FB754FF00003BB754FF000037B7508E04FF0D403FB754FF00003BB754FF026037B7523
S32D0000FF70F97DBA7D7B7DF86800F08EF80246FB68DA61F86801F06AF9F86801F007F8BB6903F10103BB6140F690
S32D0000FF985033C1F6FF73FA699B181B781A46BB699A42D4BF00230123DBB2002BABD1FB6903F10203FB61FA695C
S32D0000FFC03B699A42ACBF00230123DBB2002B9AD107F12007BD4680BD80B485B000AF78600B46FB70FB78062B0F
S32D0000FFE82ED801A252F823F0150001000D0001001D000100250001002D000100350001003D0001006FF07F43BA
S32D00010010FB6019E04FF00003FB6015E04FF47F03FB6011E04FF47F43FB600DE04FF0FF03FB6009E04FF4190399
S32D00010038FB6005E049F69913C0F29903FB6000BFFB68184607F11407BD4680BC704700BF80B584B000AF78608D
S32D0001006039603B6803F47F034FEA1343FB733B6803F47F434FEA1323BB733B687B73F97BBA7B7B7B786800F0C6
S32D0001008807F80346184607F11007BD4680BD00BF80B487B000AF7860F970BA707B70FB784FEAA3037B61BB78C4
S32D000100B04FEAA3033B617B784FEAA303FB607B694FEA03323B694FEA83131A43FB681343184607F11C07BD4622
S32D000100D880BC704780B582B000AF78600B46FB70FB7878681946FFF773FF03467868194600F004F807F10807C7
S32D00010100BD4680BD80B582B000AF7860396078683968FFF7A1FF02467B681A62786801F09DF8786800F09EFB7C
S32D0001012807F10807BD4680BD80B582B000AF78600B46FB70FB7878681946FFF749FF03467868194600F004F853
S32D0001015007F10807BD4680BD80B582B000AF7860396078683968FFF777FF02467B681A62786801F073F807F1EA
S32D000101780807BD4680BD00BF80B582B000AF78600B46FB70FB7878681946FFF721FF03467868194600F004F864
S32D000101A007F10807BD4680BD80B582B000AF7860396078683968FFF74FFF02467B68DA61786801F04BF807F12B
S32D000101C80807BD4680BD00BF80B586B000AFF860B9607A603B604FF000037B6110E07B69BA68D3181B78F86808
S32D000101F079683A6800F038FD7B6803F10C037B607B6903F101037B617B69BA68D3181B78002B0CBF00230123FE
S32D00010218DBB2002BE3D107F11807BD4680BD00BF80B582B000AF7860FDF72AFD4FF001004FF06701FDF7A2FCB3
S32D000102404FF002004FF00001FDF79CFC4FF003004FF0A001FDF796FC4FF004004FF05001FDF790FC4FF0050043
S32D000102684FF02001FDF78AFC4FF006004FF02001FDF784FC4FF007004FF07701FDF77EFC4FF008004FF0000182
S32D00010290FDF778FC4FF009004FF00001FDF772FC4FF00A004FF00001FDF76CFC4FF00B004FF00401FDF766FC24
S32D000102B87B684FF0FF32DA637B684FF0FF321A6407F10807BD4680BD80B584B000AF786039604FF00003FB6049
S32D000102E0786800F0EBFB11E07B6859697B689A69FB683868C3181B78786800F095FC786800F0F2FBFB6803F1D7
S32D000103080103FB60FB683A68D3181B78002B0CBF00230123DBB2002BE2D107F11007BD4680BD00BF80B590B0B9
S32D0001033000AF7860396007F10C03184642F64871C0F201013A6801F0DDFC07F10C0378681946FFF7BDFF07F118
S32D000103584007BD4680BD00BF80B582B000AF78603960786800F0A6FB78683968FFF7DAFF786800F087FB07F19E
S32D000103800807BD4680BD00BF80B483B000AF78600B46FB704FF28003C4F20F034FF28002C4F20F02126822F0F4
S32D000103A808021A604FF24003C4F20F034FF24002C4F20F02126822F480221A604FF24003C4F20F034FF2400291
S32D000103D0C4F20F02126842F480321A604FF24003C4F20F034FF24002C4F20F02126822F440721A604FF2800345
S32D000103F8C4F20F034FF28002C4F20F02126822F4425222F070021A604FF24003C4F20F034FF24002C4F20F02CC
S32D0001042012681146FA7802F00102D2B2002A02D04FF4007201E04FF000020A431A604FF24003C4F20F034FF2CA
S32D000104484002C4F20F0212681146FA7802F00202002A02D04FF4807201E04FF000020A431A604FF28003C4F2AF
S32D000104700F034FF28002C4F20F0212681146FA7802F00402002A02D04FF0100201E04FF000020A431A604FF20F
S32D000104988003C4F20F034FF28002C4F20F0212681146FA7802F00802002A02D04FF0200201E04FF000020A4355
S32D000104C01A604FF28003C4F20F034FF28002C4F20F0212681146FA7802F01002002A02D04FF0400201E04FF099
S32D000104E800020A431A604FF28003C4F20F034FF28002C4F20F0212681146FA7802F02002002A02D04FF08002F2
S32D0001051001E04FF000020A431A604FF28003C4F20F034FF28002C4F20F0212681146FA7802F04002002A02D04A
S32D000105384FF4805201E04FF000020A431A604FF28003C4F20F034FF28002C4F20F0212681146FA7852B2002A0F
S32D0001056002DA4FF4005201E04FF000020A431A604FF24003C4F20F034FF24002C4F20F02126822F400321A6040
S32D000105884FF24003C4F20F034FF24002C4F20F02126842F400321A604FF28003C4F20F034FF28002C4F20F023C
S32D000105B0126842F008021A604FF24003C4F20F034FF24002C4F20F02126842F440721A604FF28003C4F20F03EE
S32D000105D84FF28002C4F20F02126842F4425242F070021A604FF24003C4F20F034FF24002C4F20F02126842F4C2
S32D0001060080221A6007F10C07BD4680BC704700BF80B483B000AF78600B46FB704FF28003C4F20F034FF28002F6
S32D00010628C4F20F02126822F008021A604FF24003C4F20F034FF24002C4F20F02126842F480321A604FF24003D6
S32D00010650C4F20F034FF24002C4F20F02126842F480221A604FF24003C4F20F034FF24002C4F20F02126822F477
S32D0001067840721A604FF28003C4F20F034FF28002C4F20F02126822F4425222F070021A604FF24003C4F20F03A3
S32D000106A04FF24002C4F20F0212681146FA7802F00102D2B2002A02D04FF4007201E04FF000020A431A604FF24A
S32D000106C84003C4F20F034FF24002C4F20F0212681146FA7802F00202002A02D04FF4807201E04FF000020A43D5
S32D000106F01A604FF28003C4F20F034FF28002C4F20F0212681146FA7802F00402002A02D04FF0100201E04FF0A3
S32D0001071800020A431A604FF28003C4F20F034FF28002C4F20F0212681146FA7802F00802002A02D04FF0200237
S32D0001074001E04FF000020A431A604FF28003C4F20F034FF28002C4F20F0212681146FA7802F01002002A02D048
S32D000107684FF0400201E04FF000020A431A604FF28003C4F20F034FF28002C4F20F0212681146FA7802F020028B
S32D00010790002A02D04FF0800201E04FF000020A431A604FF28003C4F20F034FF28002C4F20F0212681146FA783B
S32D000107B802F04002002A02D04FF4805201E04FF000020A431A604FF28003C4F20F034FF28002C4F20F02126854
S32D000107E01146FA7852B2002A02DA4FF4005201E04FF000020A431A604FF24003C4F20F034FF24002C4F20F0203
S32D00010808126822F400321A604FF24003C4F20F034FF24002C4F20F02126842F400321A604FF28003C4F20F0307
S32D000108304FF28002C4F20F02126842F008021A604FF24003C4F20F034FF24002C4F20F02126822F480221A609D
S32D0001085807F10C07BD4680BC704700BF80B586B000AF78607B684FF000025A617B684FF000029A617B681B6A59
S32D00010880FB60FB68FB72FB684FEA1323BB72FB684FEA1343DBB203F003037B7278684FF02A01FFF771FD78682C
S32D000108A84FF00001FFF7B0FE78684FF00001FFF7ABFE78684FF00101FFF7A6FE78684FF03F01FFF7A1FE7868EF
S32D000108D04FF02B01FFF758FD78684FF00001FFF797FE78684FF00001FFF792FE78684FF00001FFF78DFE786871
S32D000108F84FF0EF01FFF788FE78684FF02C01FFF73FFD4FF24003C4F20F034FF24002C4F20F02126822F44072D0
S32D000109201A604FF28002C4F20F024FF28003C4F20F031B68194640F60F73CFF6F0730B4013604FF2C003C4F2DE
S32D000109480F034FF2C002C4F20F02126822F01D021A604FF24003C4F20F034FF24002C4F20F02126811467A6836
S32D00010970126B0A431A604FF28003C4F20F034FF28002C4F20F02126811467A68526B0A431A604FF2C003C4F20D
S32D000109980F034FF2C002C4F20F02126811467A68926B0A431A604FF28003C4F20F034FF28002C4F20F0212684D
S32D000109C022F008021A604FF24003C4F20F034FF24002C4F20F02126842F480221A604FF000037B612DE04FF0A6
S32D000109E800033B611BE04FF24003C4F20F034FF24002C4F20F02126822F400321A604FF24003C4F20F034FF2E7
S32D00010A104002C4F20F02126842F400321A603B6903F101033B613A6940F23F139A428CBF00230123DBB2002BCD
S32D00010A38D9D17B6903F101037B617B69EF2B8CBF00230123DBB2002BC9D14FF28003C4F20F034FF28002C4F246
S32D00010A600F02126842F008021A604FF24003C4F20F034FF24002C4F20F02126822F480221A6007F11807BD46CA
S32D00010A8880BD00BF80B483B000AF78607B689B69002B09DD7B685B6903F101027B685A617B684FF000029A6102
S32D00010AB007F10C07BD4680BC704700BF80B582B000AF78607B685A697B685B689A4206DB7B684FF000025A6181
S32D00010AD87868FFF7C3FE07F10807BD4680BD00BF80B582B000AF78607B689B6903F101027B689A617B689A69C2
S32D00010B007B689B689A4205D17868FFF7BFFF7868FFF7D4FF07F10807BD4680BD80B588B000AFF860B9607A6043
S32D00010B283B60FB681B78022B03D0FB681B78032B13D17B68FB61BA6AFB69D31803F1FF33BB61FB68DA68BB6849
S32D00010B50D31A3B613B683A69D31A03F101037B610FE0BB68FB613A68FB69D31803F1FF33BB617B687B61BA6A62
S32D00010B787B69D31803F1FF333B61F8684FF02A01FFF7FEFBFB6903F470634FEA1323DBB2F8681946FFF738FDF0
S32D00010BA0FB69DBB2F8681946FFF732FDBB6903F470634FEA1323DBB2F8681946FFF728FDBB69DBB2F86819461D
S32D00010BC8FFF722FDF8684FF02B01FFF7D9FB7B6903F470634FEA1323DBB2F8681946FFF713FD7B69DBB2F86814
S32D00010BF01946FFF70DFD3B6903F470634FEA1323DBB2F8681946FFF703FD3B69DBB2F8681946FFF7FDFCF86819
S32D00010C184FF02C01FFF7B4FB07F12007BD4680BD80B584B000AFF860B9607A60FB707A6813464FEA43039B1802
S32D00010C404FEA830303F10201BA6813464FEA03139B1803F10302FB78F86800F005F807F11007BD4680BD00BF8B
S32D00010C6880B58EB002AFF860B9607A60FB70FB780A2B06D1F868FFF71DFFF868FFF702FF25E1FB787D2B02D840
S32D00010C90FB781F2B02D84FF02003FB70FB78A3F12003FB704FF011030093F868B9687A684FF00C03FFF732FF7E
S32D00010CB8FA7813464FEA83039A1840F63873C1F6FF739B5C3B75FA7813464FEA83039B1803F1010240F638730B
S32D00010CE0C1F6FF739B5C7B75FA7813464FEA83039B1803F1020240F63873C1F6FF739B5CBB75FA7813464FEA6B
S32D00010D0883039B1803F1030240F63873C1F6FF739B5CFB75FA7813464FEA83039B1803F1040240F63873C1F64A
S32D00010D30FF739B5C3B764FF00003BB62A8E0F86800F0DCF9F86800F0CBF84FF0000387F82F304FF000037B621C
S32D00010D5831E007F114027B6AD3181B7803F00103FB76FB7E002B11D097F82F3083F00103DBB2002B03D0F868AD
S32D00010D8000F00CF902E0F86800F0AAF8F86800F0A7F80DE097F82F30002B03D0F86800F0ADF902E0F86800F08B
S32D00010DA89BF8F86800F098F8FB7E87F82F307B6A03F101037B627B6A042BCCBF00230123DBB2002BC5D197F8D5
S32D00010DD02F30002B03D0F86800F090F902E0F86800F07EF8F86800F07BF84FF0000387F82F304FF000033B6254
S32D00010DF83EE007F114023B6AD3181B7803F00103BB76BB7E002B11D097F82F3083F00103DBB2002B03D0F868C0
S32D00010E2000F0BCF802E0F86800F05AF8F86800F057F80DE097F82F30002B03D0F86800F05DF902E0F86800F02B
S32D00010E484BF8F86800F048F8BB7E87F82F3007F114023B6AD3181B784FEA6303DAB207F114013B6ACB181A7016
S32D00010E703B6A03F101033B623B6A042BCCBF00230123DBB2002BB8D1BB6A03F10103BB62BB6A062BCCBF0023F4
S32D00010E980123DBB2002B7FF44EAFF86800F02AF94FF0000387F82F304FF00103FB6106E0F86800F011F8FB690A
S32D00010EC003F10103FB61FB69232BCCBF00230123DBB2002BF0D107F13007BD4680BD00BF80B483B000AF786096
S32D00010EE84FF24003C4F20F034FF24002C4F20F02126842F480321A604FF28003C4F20F034FF28002C4F20F0253
S32D00010F10126822F008021A604FF24003C4F20F034FF24002C4F20F02126842F480221A604FF24003C4F20F03F4
S32D00010F384FF24002C4F20F02126822F400321A604FF24003C4F20F034FF24002C4F20F02126842F400321A6012
S32D00010F604FF28003C4F20F034FF28002C4F20F02126842F008021A604FF24003C4F20F034FF24002C4F20F0286
S32D00010F88126822F480221A6007F10C07BD4680BC704700BF80B483B000AF78604FF24003C4F20F034FF2400211
S32D00010FB0C4F20F02126842F480321A604FF28003C4F20F034FF28002C4F20F02126822F008021A604FF24003C5
S32D00010FD8C4F20F034FF24002C4F20F02126842F480221A604FF24003C4F20F034FF24002C4F20F02126822F4E6
S32D0001100040721A604FF28002C4F20F024FF28003C4F20F031B68194640F60F73CFF6F0730B4013604FF2C003FB
S32D00011028C4F20F034FF2C002C4F20F02126822F01D021A604FF24003C4F20F034FF24002C4F20F02126811467B
S32D000110507A68526A0A431A604FF28003C4F20F034FF28002C4F20F02126811467A68926A0A431A604FF2C0037C
S32D00011078C4F20F034FF2C002C4F20F02126811467A68D26A0A431A604FF24003C4F20F034FF24002C4F20F026B
S32D000110A0126822F400321A604FF24003C4F20F034FF24002C4F20F02126842F400321A604FF28003C4F20F0367
S32D000110C84FF28002C4F20F02126842F008021A604FF24003C4F20F034FF24002C4F20F02126822F480221A60FD
S32D000110F007F10C07BD4680BC704700BF80B483B000AF78604FF24003C4F20F034FF24002C4F20F02126842F4DD
S32D0001111880321A604FF28003C4F20F034FF28002C4F20F02126822F008021A604FF24003C4F20F034FF2400287
S32D00011140C4F20F02126842F480221A604FF24003C4F20F034FF24002C4F20F02126822F440721A604FF28002D8
S32D00011168C4F20F024FF28003C4F20F031B68194640F60F73CFF6F0730B4013604FF2C003C4F20F034FF2C002B6
S32D00011190C4F20F02126822F01D021A604FF24003C4F20F034FF24002C4F20F02126811467A68126B0A431A60B7
S32D000111B84FF28003C4F20F034FF28002C4F20F02126811467A68526B0A431A604FF2C003C4F20F034FF2C002EC
S32D000111E0C4F20F02126811467A68926B0A431A604FF24003C4F20F034FF24002C4F20F02126822F400321A60D0
S32D000112084FF24003C4F20F034FF24002C4F20F02126842F400321A604FF28003C4F20F034FF28002C4F20F02AF
S32D00011230126842F008021A604FF24003C4F20F034FF24002C4F20F02126822F480221A6007F10C07BD4680BCD3
S32D00011258704700BF80B485B000AF78607B681B6AFB60FB68FB72FB684FEA1323BB72FB684FEA1343DBB203F0FD
S32D0001128003037B727B684FF000025A627B684FF000029A627B684FF00002DA627B684FF000021A637B684FF029
S32D000112A800025A637B684FF000029A637B681A6BFB7A03F00103DBB2002B02D04FF4007301E04FF000031A43A3
S32D000112D07B681A637B681A6BFB7A03F00203002B02D04FF4807301E04FF000031A437B681A637B685A6BFB7A8A
S32D000112F803F00403002B02D04FF0100301E04FF000031A437B685A637B685A6BFB7A03F00803002B02D04FF007
S32D00011320200301E04FF000031A437B685A637B685A6BFB7A03F01003002B02D04FF0400301E04FF000031A4339
S32D000113487B685A637B685A6BFB7A03F02003002B02D04FF0800301E04FF000031A437B685A637B685A6BFB7AA7
S32D0001137003F04003002B02D04FF4805301E04FF000031A437B685A637B685A6BFB7A5BB2002B02DA4FF400531E
S32D0001139801E04FF000031A437B685A637B685A6BBB7A03F00103DBB2002B02D04FF4804301E04FF000031A4322
S32D000113C07B685A637B685A6BBB7A03F00203002B02D04FF4004301E04FF000031A437B685A637B685A6BBB7A09
S32D000113E803F00403002B02D04FF4803301E04FF000031A437B685A637B685A6BBB7A03F00803002B02D04FF4AE
S32D00011410003301E04FF000031A437B685A637B685A6BBB7A03F01003002B02D04FF4802301E04FF000031A4314
S32D000114387B685A637B685A6BBB7A03F02003002B02D04FF4002301E04FF000031A437B685A637B689A6BBB7A52
S32D0001146003F04003002B02D04FF0010301E04FF000031A437B689A637B689A6BBB7A5BB2002B02DA4FF0040310
S32D0001148801E04FF000031A437B689A637B689A6B7B7A03F00103DBB2002B02D04FF0080301E04FF000031A43AD
S32D000114B07B689A637B689A6B7B7A03F00203002B02D04FF0100301E04FF000031A437B689A637B68DB69FB6027
S32D000114D8FB68FB72FB684FEA1323BB72FB684FEA1343DBB203F003037B727B685A6AFB7A03F00103DBB2002BE6
S32D0001150002D04FF4007301E04FF000031A437B685A627B685A6AFB7A03F00203002B02D04FF4807301E04FF0AE
S32D0001152800031A437B685A627B689A6AFB7A03F00403002B02D04FF0100301E04FF000031A437B689A627B68AE
S32D000115509A6AFB7A03F00803002B02D04FF0200301E04FF000031A437B689A627B689A6AFB7A03F01003002BAA
S32D0001157802D04FF0400301E04FF000031A437B689A627B689A6AFB7A03F02003002B02D04FF0800301E04FF040
S32D000115A000031A437B689A627B689A6AFB7A03F04003002B02D04FF4805301E04FF000031A437B689A627B68F6
S32D000115C89A6AFB7A5BB2002B02DA4FF4005301E04FF000031A437B689A627B689A6ABB7A03F00103DBB2002BA7
S32D000115F002D04FF4804301E04FF000031A437B689A627B689A6ABB7A03F00203002B02D04FF4004301E04FF0DE
S32D0001161800031A437B689A627B689A6ABB7A03F00403002B02D04FF4803301E04FF000031A437B689A627B6819
S32D000116409A6ABB7A03F00803002B02D04FF4003301E04FF000031A437B689A627B689A6ABB7A03F01003002B25
S32D0001166802D04FF4802301E04FF000031A437B689A627B689A6ABB7A03F02003002B02D04FF4002301E04FF087
S32D0001169000031A437B689A627B68DA6ABB7A03F04003002B02D04FF0010301E04FF000031A437B68DA627B6898
S32D000116B8DA6ABB7A5BB2002B02DA4FF0040301E04FF000031A437B68DA627B68DA6A7B7A03F00103DBB2002BC6
S32D000116E002D04FF0080301E04FF000031A437B68DA627B68DA6A7B7A03F00203002B02D04FF0100301E04FF09D
S32D0001170800031A437B68DA6207F11407BD4680BC704700BF80B582B000AF786039607B68012B0AD13A684FF613
S32D00011730FF739A4205D141F23420C1F6FF70FEF7FDFA07F10807BD4680BD00BF80B500AF4FF001004FF6FF71EE
S32D00011758FFF7E0FF80BD00BF80B582B000AF78604FF4E043C4F204034FF4E042C4F2040202F5805202F134026D
S32D00011780126842F0400203F5805303F134031A604FF44043C4F204034FF400725A624FF44043C4F204034FF422
S32D000117A800721A624FF4C043C4F206034FF014025A704FF4C043C4F206034FF080029A704FF02B004FF0020184
S32D000117D0FCF734F94FF02A004FF03D01FCF72EF97B68184607F10807BD4680BD80B582B000AF786039607B68D8
S32D000117F8012B0AD13A684FF6FF739A4205D141F27C20C1F6FF70FFF7A7FF07F10807BD4680BD00BF80B500AF35
S32D000118204FF001004FF6FF71FFF7E0FF80BD00BF80B582B000AF78600B46FB707A68FB7810461946FDF7D4FA5D
S32D000118487B68184607F10807BD4680BD80B582B000AF786039607B68012B0CD13A684FF6FF739A4207D141F236
S32D000118708020C1F6FF704FF02001FFF7D9FF07F10807BD4680BD00BF80B500AF4FF001004FF6FF71FFF7DEFFA3
S32D0001189880BD00BF80B483B000AF78607B684FF000021A707B68184607F10C07BD4680BC704700BF80B483B021
S32D000118C000AF7860396041F28423C1F6FF733A681A6007F10C07BD4680BC704780B582B000AF4FF42040C4F24A
S32D000118E80600FCF747FB0346FB7141F29B23C1F6FF73FA791A7041F29A23C1F6FF734FF001021A7041F29923F6
S32D00011910C1F6FF731B78012B2BD0022B5CD0002B40F09280FB79FF2B40F08B8041F29923C1F6FF734FF00102CC
S32D000119381A7041F29823C1F6FF734FF000021A7041F29823C1F6FF731A78114641F28823C1F6FF73F8795854F0
S32D0001196002F10103DAB241F29823C1F6FF731A7067E041F29823C1F6FF731A78114641F28823C1F6FF73F87975
S32D00011988585402F10103DAB241F29823C1F6FF731A7041F29823C1F6FF731B780D2B4ED141F28423C1F6FF735C
S32D000119B01A6841F29823C1F6FF731B7841F28820C1F6FF701946904741F29923C1F6FF734FF002021A7036E0AA
S32D000119D8FB79FF2B22D141F29923C1F6FF734FF001021A7041F29823C1F6FF734FF000021A7041F29823C1F6E4
S32D00011A00FF731A78114641F28823C1F6FF73F879585402F10103DAB241F29823C1F6FF731A7011E041F2982335
S32D00011A28C1F6FF734FF000021A7041F29923C1F6FF734FF000021A7002E000BF00E000BF07F10807BD4680BD31
S32D00011A5080B582B000AF78607B681846FFF71EFF7B68184641F6D921C0F20101FFF726FF7B684FF0FF325A60D7
S32D00011A7841F2A823C1F6FF73144A1A6041F2AC23C1F6FF73114A1A6041F2B023C1F6FF730E4A1A6041F2B42335
S32D00011AA0C1F6FF734FF000021A6041F2B823C1F6FF734FF000021A7041F2B923C1F6FF734FF000021A707B684B
S32D00011AC8184607F10807BD4680BD00BF0000000080B582B000AF78600B46FB7041F2A423C1F6FF731B78002B00
S32D00011AF000F0AA807B6803F101031B784FEA03227B6803F102031B78D3181846FBF774F9034618464E49FBF79A
S32D00011B1877FA034618464D49FBF7B4F803461A4641F2A823C1F6FF731A607B6803F103031B784FEA03227B6857
S32D00011B4003F104031B78D3181846FBF755F9034618463F49FBF758FA034618463D49FBF795F803461A4641F264
S32D00011B68AC23C1F6FF731A607B6803F105031B784FEA03227B6803F106031B78D3181846FBF736F90346184688
S32D00011B902F49FBF739FA034618462E49FBF776F803461A4641F2B023C1F6FF731A607B6803F107031B784FEA0C
S32D00011BB803627B6803F108031B784FEA0343D2187B6803F109031B784FEA0323D2187B6803F10A031B78D2189B
S32D00011BE041F2B423C1F6FF731A607B68DA7A41F2B823C1F6FF731A707B6803F10C031B78AA2B14BF00230123C9
S32D00011C08DAB241F2B923C1F6FF731A7041F2BA23C1F6FF734FF001021A7041F2B923C1F6FF731B78002B0BD089
S32D00011C304FF2C003C4F20F034FF2C002C4F20F02126822F400521A6007F10807BD4680BD000020410000C844DF
S32D00011C5880B582B000AF786039607B68012B0AD13A684FF6FF739A4205D141F29C20C1F6FF70FFF7E9FE07F1F7
S32D00011C800807BD4680BD00BF80B500AF4FF001004FF6FF71FFF7E0FF80BD00BF80B483B000AF786041F2BC237D
S32D00011CA8C1F6FF734FF000021A607B68184607F10C07BD4680BC704780B582B000AF786039607B68012B0AD176
S32D00011CD03A684FF6FF739A4205D141F2BC20C1F6FF70FFF7DBFF07F10807BD4680BD00BF80B500AF4FF00100AB
S32D00011CF84FF6FF71FFF7E0FF80BD00BF0EB403B503AB4FF0FF3153F8042B019300F018F8BDE80C4003B0704737
S32D00011D2038B5836845680446D018A84220688CBFC3EB050515462A46C01800F03BF8A3685D19A560012038BD06
S32D00011D4870B586B0064600240D46039004910848059403A9009400F00BF93EB1A84201D2345403E015B175199E
S32D00011D7005F8014C06B070BD211D01000B4C08B5054601F07FF801F027F8236813B1984700232360064C236850
S32D00011D9813B19847002323602846BDE80840FBF72FBD00BFC012FF1FC412FF1F10B5002302E0CC5CC4540133B9
S32D00011DC09342FAD110BD10B5044600F089FF204610BD03461A4613F8011B0029FAD1101A70472DE9F04F87B09C
S32D00011DE8002404929DF840209DF844500292DDF8488001F8014C81464A1EB8B9139CACB9029F0FB16F2D2FD0CD
S32D00011E10642D02D0692D40F0AB80022B02D18A1E202304E0012B40F0A3808A1E2B2301F8023C9DE0692D0FD0E2
S32D00011E3804D8582D14D0642D1CD109E0752D04D0782D0DD06F2D15D110E000231E4614E000280FDAB0F1004FE9
S32D00011E600ED0404281460BE000231E46102409E0139B00E000231E46082403E0002600E001260A244FF0000CD3
S32D00011E880596CDF80CC01E460191139F02E0CDF80CC05A46B9FBF4F304FB139ABAF1090F994602D80AF1300A4C
S32D00011EB005E0782D0CBF0AF1570A0AF1370A03995FFA8AFA02F1FF3B02F801AC01F1010C002BE0D1082C334641
S32D00011ED80199059E13970DD1029F5FB1BAF1300F08D04FF0300C02F802CCA2F1020B039A02F1020C049F022F4E
S32D00011F000BD106B90BB108F1FF38102C03D1029A0AB1A8F10208CDF84C80139ACBEB01018918B1F5FF7F22DA6A
S32D00011F283021174603E00BF8011D0CF1010CBC455A46F8DB102C08D1029C34B128B130210BF8015C023A0BF8F9
S32D00011F50021C0EB12D2306E0012B01D12B2302E0022B05D1202302F8013C013A00E00022104607B0BDE8F08F36
S32D00011F782DE9F04FADF50D7D1F4608918AA920230025033107908DF82E3293460591AA46CDE15846252100F08F
S32D00011FA0E7FE814688B95846FFF713FF02460AEB0005002800F0C8810898079B59469847002808BF4FF0FF35BA
S32D00011FC8BEE1B0EB0B03069307D01A460898079B59469847002800F0B18199F80140252C21460BD14FF000081B
S32D00011FF009F1020B4646C44643464246CDF824800125A5E0002309F101020993012518462B2900F0A08104DC7B
S32D00012018202908D0232912D10AE02D2900F0958130290CD106E001280CBF012002208FE101238DE1002D14BFAE
S32D000120400225002588E12A29099002D000260A240EE03E68381D002E01DA7642002502F1010B5178074608E0DE
S32D0001206812F8011F04FB0606A1F1300009289346F6D9B6F5FF7F07DB4FF000080BF1010BFF24C44642465FE02B
S32D000120902E291FD19BF801102A2905D00BF101024FF000080A240EE0D7F800809BF802106FEA0802D20F043739
S32D000120B80BF1020B0DE012F8011F04FB0808A1F1300009289346F6D9012202E04FF000084246682900F03F811A
S32D000120E06C2902D14FF0030C3BE14FF0000C6E29CCB22BD008DC632917D001DC58290EE064290DD069290AE01B
S32D0001210873290FD004DC6F2906D0702919D10EE0752901D0782914D182B1022D08BF012510E072B9BCF1000F53
S32D0001213018BFFF240AE078244FF008084FF0030C012303E04FF0010800E0FF240BF1010B06996E2C8A4464D0CE
S32D000121580BD8632C74D003D8252C77D0582C0CE0642C0CD0692C78D109E0732C36D001D86F2C02E0752C13D00D
S32D00012180782C6ED110E007F104020692BCF1030F386819D0BCF1020F01D100B214E0BCF1010F11D140B20FE0C9
S32D000121A807F104020692BCF1030F386808D0BCF1020F01D180B203E0BCF1010F08BFC0B28DE858018BA92A462E
S32D000121D0099BFFF706FE0746002842D0059BC0EB03094EE0391D06913F686049002F08BF0F463BB117F8019B17
S32D000121F8002A42D0C145A8BFC1463EE0384642B11946424600F0A3FD002835D0C7EB000933E0FFF7DAFD814673
S32D000122202FE03A1DBCF1020F06923B6806D0BCF1030F06D0BCF1000F7CD102E0A3F800A078E0C3F800A075E097
S32D000122483B1D06933B688DF82C3002E08DF82C4006970BAF4FF001090FE04846FFF7B5FD5546044630B10898F4
S32D00012270079B494622469847002863D02D1963E0C146002D3BD0022D0CBF302220228DF82E223B782B2B03D065
S32D000122982D2B01D0202B0CD1302A0AD10898079B394601229847002848D0013709F1FF3800E0C846022D10D127
S32D000122C0612C01D0412C0CD1B8F1010F3ADD0898079B394602229847002833D0A8F1020802374C4607E08AA900
S32D000122E80898079B06310122984738B30134B442F5DBC14600E04C46B9F1000F05D00898079B39464A4698472F
S32D00012310C0B175B90AE08AA98DF82F520898079B07310122984768B1013400E02025B442F1DBA244069F9BF80D
S32D000123380030002B7FF42DAE554601E04FF0FF3528460DF50D7DBDE8F08F002500E0012012F8011F58E64FF0F3
S32D00012360020C9BF801100BF1010BC0E6B83001002DE9F04FA7B000240DF18C0C81460F460C9392460B940A94CF
S32D000123880794089409942646CDF834C05AE3284600F0A0FBE8B11AF8010F00F09BFB0028F9D1002C40F04D8398
S32D000123B000E00136002138460A46C847054600F08DFB0028F5D16A1C04D13099002900F047830124384629461F
S32D000123D814E3252D15D0A4B9214638462246C847C1B2A94209D001223846C847309A002A00F032830AF1010A69
S32D0001240023E301360AF1010A20E30021282219A8FFF7D9FC9AF801806FF0004BB8F1250FCDF868B0434613D18C
S32D000124288DF867800DF1640EBEE80F000FAD0FC5BEE80F000FC59EE80300002385E803000AF1020A9C461BE1DA
S32D00012450B8F12A0F02D00AF1010506E001238DF864309AF802300AF10205A3F13002092A31D84FF0000B0A2148
S32D0001247800E01546303B01FB0B3B6B78A3F130006A1C0928F5D9CDF868B0BBF1000F1AD14FF0FF088DF86780EC
S32D000124A00DF1640CBCE80F000DF13C0EAEE80F00BCE80F00AEE80F009CE803009DF864208EE8030005F1020A8C
S32D000124C8DC465B46CAE001218DF865101546682B02D06C2B10D10BE002238DF866306B78682B40F0E0820123CD
S32D000124F08DF86630ED18DAE203238DF86630D6E28DF86730583B202B00F28D80DFE803F08E8B8B308B8B8B8B35
S32D000125188B8B8B168E8B8B8B8B8E8B8B8B8B8E8E118B8B1B8B8E8B8B8E0003238DF86630782375E09DF86630F2
S32D00012540002B73D06FE09DF8663013B1FF238DF867301BABFF2203F8012BDDF834C06345F9D1C1238DF86D3033
S32D00012568FE238DF870305DE09DF8663013B1FF238DF867306B785E2B02D00135002102E0AB78012102355D2B19
S32D000125903BD19DF8773043F020038DF877306B78013532E05FFA83FC0DF1980E0EEBDC020CF0070C12F82CECA3
S32D000125B800FA0CFC4CEA0E0E02F82CEC95F801E0BEF12D0F1AD1AA78C2B15D2A10D115E05FFA83F80DF1980CE2
S32D000125E00CEBD80E08F007081EF82CCC00FA08F848EA0C0C0EF82CCC01339342ECDDEB78033503E00135734659
S32D0001260800E001205BB15D2BC8D14FE21A78DDF834C0D24303F8012B6345F7D102E0FF238DF867300DF1640CAF
S32D00012630BCE80F000DF13C0EAEE80F00BCE80F00AEE80F009CE803008EE803009DF864209DF865309DF866C085
S32D000126589DF86780DDF868B005F1010A5AB9B8F1250F0DD0DDF830E0DEF800500EF1040ECDF830E000E0002526
S32D00012680B8F16E0F01D1CFE1002574B93846214602220693CDF814C0C847069BDDF814C020B13099002900F0EA
S32D000126A8DB810124B8F1690F2FD014D8B8F15B0F00F0248106D8B8F1250F00F0E980B8F1580F1BE0B8F1630F94
S32D000126D000F08D80B8F1640F40F0C28117E0B8F1730F00F0F88008D8B8F16E0F00F09C81B8F16F0F40F0B48126
S32D000126F807E0B8F1750F37D0B8F1780F40F0AC8130E0082031E00A2000E00020FCB924AB23AA019325AB009251
S32D00012720029359463B464A46CDF814C000F0EAF9239BDDF814C033B93099002900F08C810124184609E0F6181D
S32D00012748249B33B1B0F1004F03D0404201E001240020002D40D0BCF1030F36D8DFE80CF034303234102000E0AD
S32D000127700A20FCB924AB23A9019325AB0091029359463B464A46CDF814C000F0BBF9239BDDF814C033B9309A2C
S32D00012798002A00F05D810124184609E0F618249B33B1B0F1004F03D0404201E00124002095B1BCF1030F08D8AD
S32D000127C0DFE80CF006020406287002E0288000E028602CB9DDF824C00CF1010CCDF824C0DDF820C00CF1010C7B
S32D000127E8CDF820C06EE0002B08BF4FF0010B002D39D000232393002C40F02381079804E005F8010B239B013305
S32D000128102393BBF1000F17D0309931B1239B002B0CDA4FF0010CCDF82CC0002138460A46C847431C0BF1FF3B37
S32D00012838E6D105E04FF0000C0790CDF82CC000E00790239B002B00F0A480309919B10B9A002A00F0F680DDF831
S32D0001286024C00CF1010CF618CDF824C0D5E0239507985D4602E0239B0133239335B100210A463846C847013D49
S32D00012888411CF4D1239B0790002B40F0C280E3E0002C40F0D38000E00136002138460A46C847054600F016F93C
S32D000128B00028F5D1252D08D0294638460122C8473099002900F0C880BCE001364FF0010CCDF828C0BAE08CB9ED
S32D000128D838462146224603E00021013638460A46C847804600F0F6F80028F5D1384641460122C8474FF0010C57
S32D00012900CDF828C0002D56D000232393002C40F09C800BF1FF3B0123079814E0C2B20DF1980C0CEBD20102F098
S32D00012928070E11F8541C03FA0EFE1EEA010F0BF1FF3B20D005F8012B239A01322392BBF1FF3FD84617D0309925
S32D0001295031B1239A002A0CDC4FF0010CCDF82CC000210A4638460693C847421C069BD5D105E04FF0000C0790A7
S32D00012978CDF82CC000E00790DDF81CC0239B5FFA8CF11BB1309A42B10B9A32B938460122C847309B002B5FD0D5
S32D000129A053E0DDF824C0F6180CF1010C00232B70CDF824C02BE023950BF1FF3B0125079811E0C3B20DF1980ED5
S32D000129C803F007020EEBD30305FA02F213F8543C1A420BF1FF3B0CD0239B01332393BBF1FF3FD84605D0002173
S32D000129F038460A46C847431CE3D1239B079023B9079938460122C84720E00799F618B8F1000F02DB3846012263
S32D00012A18C847DDF820C00CF1010CCDF820C011E085B1BCF1030F0DD8DFE80CF0040602042E8007E02E6005E076
S32D00012A402E7003E001240A9400E001249AF80050002D7FF4A0AC03E04FF0010CCDF828C0384600210222C847A2
S32D00012A6838B1DDF824C00899002908BF4FF0FF3C13E0089A9AB90A9B8BB111463846C847089904460222384658
S32D00012A90C84720B9384621460122C84703E04FF0FF3CCDF824C0099827B0BDE8F08F6B78013525E500293FF4F7
S32D00012AB8B9AD1BABAAE50000B0F5807F05D8044B1818407800F0010070470020704700BFB9300100B0F5807FB0
S32D00012AE005D8044B1818407800F0100070470020704700BFB9300100A0F16103192B98BF203870472DE9F74F81
S32D00012B081546019198460D990E9A002398420B600446136012DB012810D024280EDC0199994207DD19461A461C
S32D00012B304046A847012703463E4601E01F4640263CB101E01F4640264FF0FF3ABAFBF4FA00E0A2464FF000099C
