S01600002E2E2F50657266726F6D616E6365342E733139AD
S32D0000C00000000020F9E8000055EC000055EC000055EC000055EC000055EC0000000000000000000000000000CC
S32D0000C0280000000055EC000055EC00000000000055EC000055EC000055EC000055EC000055EC000055EC0000E2
S32D0000C05055EC000055EC000055EC000055EC000055EC000055EC000055EC000055EC000055EC000055EC000038
S32D0000C07855EC000055EC000055EC000055EC000055EC000055EC000055EC000055EC000055EC000055EC000010
S32D0000C0A055EC000055EC000055EC000055EC000055EC000055EC000055EC000055EC000055EC000055EC0000E8
S32D0000C0C855EC000055EC000055EC000055EC000055EC000055EC000055EC000055EC000055EC000055EC0000C0
S32D0000C0F055EC0000553F010055EC000055EC000055EC000055EC000055EC000055EC000055EC000055EC000044
S32D0000C11855EC000055EC000055EC000055EC000055EC000055EC000055EC000055EC000055EC000055EC00006F
S32D0000C14055EC000055EC000055EC000055EC0000E507010055EC000055EC000055EC000055EC000055EC00009B
S32D0000C16855EC000055EC000055EC000055EC000055EC000055EC000055EC000055EC000055EC000055EC00001F
S32D0000C19055EC000055EC000055EC000045020100990001006D010100A5EC00001D03010055EC000055EC000039
S32D0000C1B855EC000055EC000055EC000055EC000055EC000055EC000055EC000055EC000055EC000055EC0000CF
S32D0000C41081F0004102E000BF83F0004330B54FEA41044FEA430594EA050F08BF90EA020F1FBF54EA000C55EAC6
S32D0000C438020C7FEA645C7FEA655C00F0E2804FEA5454D4EB5555B8BF6D420CDD2C4480EA020281EA030382EA0F
S32D0000C460000083EA010180EA020281EA0303362D88BF30BD11F0004F4FEA01314FF4801C4CEA113102D0404263
S32D0000C48861EB410113F0004F4FEA03334CEA133302D0524263EB430394EA050F00F0A780A4F10104D5F1200E8A
S32D0000C4B00DDB02FA0EFC22FA05F2801841F1000103FA0EF2801843FA05F359410EE0A5F120050EF1200E012A2D
S32D0000C4D803FA0EFC28BF4CF0020C43FA05F3C01851EBE37101F0004507D54FF0000EDCF1000C7EEB00006EEB67
S32D0000C5000101B1F5801F1BD3B1F5001F0CD349085FEA30004FEA3C0C04F101044FEA445212F5800F80F09A8000
S32D0000C528BCF1004F08BF5FEA500C50F1000041EB045141EA050130BD5FEA4C0C404141EB010111F4801FA4F114
S32D0000C5500104E9D191F0000F04BF01460020B1FA81F308BF2033A3F10B03B3F120020CDA0C3208DD02F1140C87
S32D0000C578C2F10C0201FA0CF021FA02F10CE002F11402D8BFC2F1200C01FA02F120FA0CFCDCBF41EA0C019040B1
S32D0000C5A0E41AA2BF01EB0451294330BD6FEA04041F3C1CDA0C340EDC04F11404C4F1200220FA04F001FA02F3B6
S32D0000C5C840EA030021FA04F345EA030130BDC4F10C04C4F1200220FA02F001FA04F340EA0300294630BD21FAA8
S32D0000C5F004F0294630BD94F0000F83F4801306BF81F480110134013D4EE77FEA645C18BF7FEA655C29D094EA1C
S32D0000C618050F08BF90EA020F05D054EA000C04BF1946104630BD91EA030F1EBF0021002030BD5FEA545C05D1A3
S32D0000C6404000494128BF41F0004130BD14F580043CBF01F5801130BD01F0004545F0FE4141F470014FF0000031
S32D0000C66830BD7FEA645C1ABF194610467FEA655C1CBF0B46024650EA013406BF52EA033591EA030F41F40021D7
S32D0000C69030BD00BF90F0000F04BF0021704730B54FF4806404F132044FF000054FF0000150E700BF90F0000F66
S32D0000C6B804BF0021704730B54FF4806404F1320410F0004548BF40424FF000013EE700BF42004FEAE2014FEAF9
S32D0000C6E031014FEA02701FBF12F07F4393F07F4F81F06051704792F0000F14BF93F07F4F704730B54FF460741B
S32D0000C70801F0004521F0004120E700BF50EA010208BF704730B54FF000050AE050EA010208BF704730B511F046
S32D0000C730004502D5404261EB41014FF4806404F132045FEA915C3FF4DCAE4FF003025FEADC0C18BF03325FEAA0
S32D0000C758DC0C18BF033202EBDC02C2F1200300FA03FC20FA02F001FA03FE40EA0E0021FA02F11444C1E600BF19
S32D0000C78070B54FF0FF0C4CF4E06C1CEA11541DBF1CEA135594EA0C0F95EA0C0F00F0DEF82C4481EA030621EAF3
S32D0000C7A84C5123EA4C5350EA013518BF52EA033541F4801143F4801338D0A0FB02CE4FF00005E1FB02E506F05F
S32D0000C7D00042E0FB03E54FF00006E1FB03569CF0000F18BF4EF0010EA4F1FF04B6F5007F64F5407404D25FEA0F
S32D0000C7F84E0E6D4146EB060642EAC62141EA55514FEAC52040EA5E504FEACE2EB4F1FD0C88BFBCF5E06F1ED8D2
S32D0000C820BEF1004F08BF5FEA500E50F1000041EB045170BD06F0004646EA010140EA020081EA0301B4EB5C0487
S32D0000C848C2BFD4EB0C0541EA045170BD41F480114FF0000E013C00F3AB8014F1360FDEBF002001F0004170BDF0
S32D0000C870C4F10004203C35DA0C341BDC04F11404C4F1200500FA05F320FA04F001FA05F240EA020001F0004207
S32D0000C89821F0004110EBD37021FA04F642EB06015EEA430E08BF20EAD37070BDC4F10C04C4F1200500FA04F32F
S32D0000C8C020FA05F001FA04F240EA020001F0004110EBD37041F100015EEA430E08BF20EAD37070BDC4F12005C7
S32D0000C8E800FA05F24EEA020E20FA04F301FA05F243EA020321FA04F001F0004121FA04F220EA020000EBD37028
S32D0000C9105EEA430E08BF20EAD37070BD94F0000F0FD101F00046400041EB010111F4801F08BF013CF7D041EA6D
S32D0000C938060195F0000F18BF704703F00046520043EB030313F4801F08BF013DF7D043EA0603704794EA0C0FF1
S32D0000C9600CEA135518BF95EA0C0F0CD050EA410618BF52EA4306D1D181EA030101F000414FF0000070BD50EA38
S32D0000C988410606BF1046194652EA430619D094EA0C0F02D150EA013613D195EA0C0F05D152EA03361CBF10467B
S32D0000C9B019460AD181EA030101F0004141F0FE4141F470014FF0000070BD41F0FE4141F4780170BD70B54FF04D
S32D0000C9D8FF0C4CF4E06C1CEA11541DBF1CEA135594EA0C0F95EA0C0F00F0A7F8A4EB050481EA030E52EA03359B
S32D0000CA004FEA013100F088804FEA03334FF0805545EA131343EA12634FEA022245EA111545EA10654FEA002676
S32D0000CA280EF000419D4208BF964244F1FD0404F5407402D25B084FEA3202B61A65EB03055B084FEA32024FF461
S32D0000CA5080104FF4002CB6EB020E75EB030E22BFB61A754640EA0C005B084FEA3202B6EB020E75EB030E22BF22
S32D0000CA78B61A754640EA5C005B084FEA3202B6EB020E75EB030E22BFB61A754640EA9C005B084FEA3202B6EBEA
S32D0000CAA0020E75EB030E22BFB61A754640EADC0055EA060E18D04FEA051545EA16754FEA06164FEAC30343EAAC
S32D0000CAC852734FEAC2025FEA1C1CC0D111F4801F0BD141EA00014FF000004FF0004CB6E711F4801F04BF0143AE
S32D0000CAF00020B4F1FD0C88BFBCF5E06F3FF6AFAEB5EB030C04BFB6EB020C5FEA500C50F1000041EB045170BDBC
S32D0000CB180EF0004E4EEA113114EB5C04C2BFD4EB0C0541EA045170BD41F480114FF0000E013C90E645EA060EC3
S32D0000CB408DE60CEA135594EA0C0F08BF95EA0C0F3FF43BAF94EA0C0F0AD150EA01347FF434AF95EA0C0F7FF499
S32D0000CB6825AF104619462CE795EA0C0F06D152EA03353FF4FDAE1046194622E750EA410618BF52EA43067FF432
S32D0000CB90C5AE50EA41047FF40DAF52EA43057FF4EBAE12E74FF0FF3C06E000BF4FF0010C02E000BF4FF0010C75
S32D0000CBB84DF804CD4FEA410C7FEA6C5C4FEA430C18BF7FEA6C5C1BD001B050EA410C0CBF52EA430C91EA030FEC
S32D0000CBE002BF90EA020F0020704710F1000F91EA030F58BF994208BF90422CBFD8176FEAE37040F0010070476E
S32D0000CC084FEA410C7FEA6C5C02D150EA013C07D14FEA430C7FEA6C5CD6D152EA033CD3D05DF8040B704700BFCD
S32D0000CC308446104662468C461946634600E000BF01B5FFF7B7FF002848BF10F1000F01BD4DF808EDFFF7F4FF13
S32D0000CC580CBF012000205DF808FB00BF4DF808EDFFF7EAFF34BF012000205DF808FB00BF4DF808EDFFF7E0FF18
S32D0000CC8094BF012000205DF808FB00BF4DF808EDFFF7CEFF94BF012000205DF808FB00BF4DF808EDFFF7C4FF40
S32D0000CCA834BF012000205DF808FB00BF4FEA410212F5001215D211D56FF47873B3EB625212D94FEAC12343F0D6
S32D0000CCD0004343EA505311F0004F23FA02F018BF404270474FF00000704750EA013005D111F0004008BF6FF016
S32D0000CCF8004070474FF00000704700BF4A0011D212F5001211D20DD56FF47873B3EB62520ED44FEAC12343F085
S32D0000CD20004343EA505323FA02F070474FF00000704750EA013002D14FF0FF3070474FF0000070474FEA410241
S32D0000CD48B2F1E04324BFB3F5001CDCF1FE5C0DD901F0004C4FEAC0024CEA5070B2F1004F40EB830008BF20F09E
S32D0000CD700100704711F0804F21D113F13872BCBF01F00040704741F480114FEA5252C2F11802C2F1200C10FAB1
S32D0000CD980CF320FA02F018BF40F001004FEAC1234FEAD32303FA0CFC40EA0C0023FA02F34FEA4303CCE77FEA26
S32D0000CDC0625307D150EA01331EBF4FF0FE4040F44000704701F0004040F0FE4040F40000704700BF80F00040CC
S32D0000CDE802E000BF81F0004142001FBF5FEA410392EA030F7FEA226C7FEA236C6AD04FEA1262D2EB1363C1BF06
S32D0000CE10D218414048404140B8BF5B42192B88BF704710F0004F40F4000020F07F4018BF404211F0004F41F4FA
S32D0000CE38000121F07F4118BF494292EA030F3FD0A2F1010241FA03FC10EB0C00C3F1200301FA03F100F000432B
S32D0000CE6002D5494260EB4000B0F5000F13D3B0F1807F06D340084FEA310102F10102FE2A51D2B1F1004F40EB94
S32D0000CE88C25008BF20F0010040EA03007047490040EB000010F4000FA2F10102EDD1B0FA80FCACF1080CB2EB5F
S32D0000CEB00C0200FA0CF0AABF00EBC25052421843BCBFD0401843704792F0000F81F4000106BF80F400000132EB
S32D0000CED8013BB5E74FEA41037FEA226C18BF7FEA236C21D092EA030F04D092F0000F08BF0846704790EA010FD7
S32D0000CF001CBF0020704712F07F4F04D1400028BF40F00040704712F100723CBF00F50000704700F0004343F0DC
S32D0000CF28FE4040F4000070477FEA226216BF08467FEA23630146420206BF5FEA412390EA010F40F480007047C1
S32D0000CF504FF0000304E000BF10F0004348BF40425FEA000C08BF704743F0964301464FF000001CE050EA010264
S32D0000CF7808BF70474FF000030AE000BF50EA010208BF704711F0004302D5404261EB41015FEA010C02BF84465B
S32D0000CFA00146002043F0B64308BFA3F18053A3F50003BCFA8CF2083AA3EBC25310DB01FA02FC634400FA02FC6B
S32D0000CFC8C2F12002BCF1004F20FA02F243EB020008BF20F00100704702F1200201FA02FCC2F1200250EA4C0034
S32D0000CFF021FA02F243EB020008BF20EADC7070474FF0FF0C1CEAD0521EBF1CEAD15392EA0C0F93EA0C0F6FD019
S32D0000D0181A4480EA010C400218BF5FEA41211ED04FF0006343EA501043EA5111A0FB01310CF00040B1F5000FE7
S32D0000D0403EBF490041EAD3715B0040EA010062F17F02FD2A1DD8B3F1004F40EBC25008BF20F00100704790F058
S32D0000D068000F0CF0004C08BF49024CEA502040EA51207F3AC2BFD2F1FF0340EAC250704740F400004FF0000388
S32D0000D090013A5DDC12F1190FDCBF00F000407047C2F10002410021FA02F1C2F1200200FA02FC5FEA310040F1D5
S32D0000D0B8000053EA4C0308BF20EADC70704792F0000F00F0004C02BF400010F4000F013AF9D040EA0C0093F04C
S32D0000D0E0000F01F0004C02BF490011F4000F013BF9D041EA0C018FE70CEAD15392EA0C0F18BF93EA0C0F0AD00B
S32D0000D10830F0004C18BF31F0004CD8D180EA010000F00040704790F0000F17BF90F0004F084691F0000F91F0BB
S32D0000D130004F14D092EA0C0F01D142020FD193EA0C0F03D14B0218BF084608D180EA010000F0004040F0FE4051
S32D0000D15840F40000704740F0FE4040F4400070474FF0FF0C1CEAD0521EBF1CEAD15392EA0C0F93EA0C0F69D044
S32D0000D180A2EB030280EA010C49024FEA402037D04FF0805343EA111143EA10130CF000408B4238BF5B0042F14E
S32D0000D1A87D024FF4000C8B4224BF5B1A40EA0C00B3EB510F24BFA3EB510340EA5C00B3EB910F24BFA3EB9103A4
S32D0000D1D040EA9C00B3EBD10F24BFA3EBD10340EADC001B0118BF5FEA1C1CE0D1FD2A3FF650AF8B4240EBC25018
S32D0000D1F808BF20F0010070470CF0004C4CEA50207F32C2BFD2F1FF0340EAC250704740F400004FF00003013AF1
S32D0000D22037E792F0000F00F0004C02BF400010F4000F013AF9D040EA0C0093F0000F01F0004C02BF490011F4C9
S32D0000D248000F013BF9D041EA0C0195E70CEAD15392EA0C0F08D142027FF47DAF93EA0C0F7FF470AF084676E7AE
S32D0000D27093EA0C0F04D14B023FF44CAF08466EE730F0004C18BF31F0004CCAD130F000427FF45CAF31F0004376
S32D0000D2987FF43CAF5FE700BF4FF0FF3C06E000BF4FF0010C02E000BF4FF0010C4DF804CD4FEA40024FEA41039F
S32D0000D2C07FEA226C18BF7FEA236C11D001B052EA530C18BF90EA010F58BFB2EB030088BFC81738BF6FEAE1706E
S32D0000D2E818BF40F0010070477FEA226C02D15FEA402C05D17FEA236CE4D15FEA412CE1D05DF8040B704700BF16
S32D0000D310844608466146FFE70FB5FFF7C9FF002848BF10F1000F0FBD4DF808EDFFF7F4FF0CBF012000205DF839
S32D0000D33808FB00BF4DF808EDFFF7EAFF34BF012000205DF808FB00BF4DF808EDFFF7E0FF94BF012000205DF8A9
S32D0000D36008FB00BF4DF808EDFFF7D2FF94BF012000205DF808FB00BF4DF808EDFFF7C8FF34BF012000205DF8B1
S32D0000D38808FB00BF4FEA4002B2F1FE4F0FD34FF09E03B3EB12620DD94FEA002343F0004310F0004F23FA02F060
S32D0000D3B018BF404270474FF00000704712F1610F01D1420205D110F0004008BF6FF0004070474FF00000704797
S32D0000D3D880B582B000AF78607868FFF7B9FD034641F25410C1F6FF70194601F02DFD7B6803F101031846FFF7FE
S32D0000D400ABFD034641F25C10C1F6FF70194601F01FFD07F10807BD4680BD00BF80B582B000AF78607868FFF712
S32D0000D42897FD034641F25410C1F6FF70194601F00BFD7B68C3F100031846FFF789FD034641F25C10C1F6FF7062
S32D0000D450194601F0FDFC07F10807BD4680BD00BF80B582B000AF78607B68C3F100031846FFF772FD034641F298
S32D0000D4785410C1F6FF70194601F0E6FC7868FFF767FD034641F25C10C1F6FF70194601F0DBFC07F10807BD4651
S32D0000D4A080BD00BF80B500AF41F25410C1F6FF7001F07EFC41F25C10C1F6FF7001F078FC4FF000004FF07E51DF
S32D0000D4C801F5C00102F058FA80BD00BF80B500AF41F26410C1F6FF7002F098FF41F26810C1F6FF7002F092FFB1
S32D0000D4F080BD00BF98B500AF41F26810C1F6FF7002F074FF044641F26410C1F6FF7002F06DFF0346E3181846C9
S32D0000D518FFF7CCF802460B46104619464FF000024FF08043FFF752FA02460B4610461946FFF7BCFB03461846B6
S32D0000D54098BD00BF0000000080B586B000AFF860C7E90023D7E900011BA3D3E90023FFF70FF902460B46104619
S32D0000D568194619A3D3E90023FFF730FA02460B4610461946FFF79AFB03467B61FFF7A6FFF868FFF725FF09E07F
S32D0000D590FFF7B0FF034641F23420C1F6FF70194604F05CFCFFF7A6FF02467B699A42ACBF00230123DBB2002B1A
S32D0000D5B8EAD1FFF773FF07F11807BD4680BD00BF0000000000E073400BD7A3703D6A1F4080B582B000AF786090
S32D0000D5E03960FFF777FF7868FFF718FF09E0FFF781FF034641F23420C1F6FF70194604F02DFCFFF777FF0246A6
S32D0000D6083B689A42ACBF00230123DBB2002BEAD1FFF744FF07F10807BD4680BD80B582B000AF78603960FFF753
S32D0000D63051FF7868FFF714FF09E0FFF75BFF034641F23420C1F6FF70194604F007FCFFF751FF02463B689A4201
S32D0000D658ACBF00230123DBB2002BEAD1FFF71EFF07F10807BD4680BD90B583B000AF41F22810C1F6FF7002F07B
S32D0000D680EFFE03461846FFF727F802460B464FF001010C461046194631A3D3E90023FFF7E1FA0346002B02D127
S32D0000D6A84FF000031C46E3B2002B03D04FF001037B604BE041F22810C1F6FF7002F0CCFE03461846FFF704F8EE
S32D0000D6D002460B464FF001010C461046194620A3D3E90023FFF7DCFA0346002B02D14FF000031C46E3B2002B32
S32D0000D6F821D041F22810C1F6FF7002F0ADFE03461846FEF7E5FF02460B464FF001010C461046194612A3D3E913
S32D0000D7200023FFF79FFA0346002B02D14FF000031C46E3B2002B02D04FF0010301E04FF00003002B03D04FF009
S32D0000D74802037B6002E04FF003037B60184607F10C07BD4690BD00BF1F85EB51B81EE53FCDCCCCCCCCCCFC3F7B
S32D0000D77090B583B000AF41F22C10C1F6FF7002F06FFE03461846FEF7A7FF02460B464FF001010C46104619464D
S32D0000D79831A3D3E90023FFF761FA0346002B02D14FF000031C46E3B2002B03D04FF001037B604BE041F22C1029
S32D0000D7C0C1F6FF7002F04CFE03461846FEF784FF02460B464FF001010C461046194620A3D3E90023FFF75CFAEB
S32D0000D7E80346002B02D14FF000031C46E3B2002B21D041F22C10C1F6FF7002F02DFE03461846FEF765FF02467D
S32D0000D8100B464FF001010C461046194612A3D3E90023FFF71FFA0346002B02D14FF000031C46E3B2002B02D031
S32D0000D8384FF0010301E04FF00003002B03D04FF002037B6002E04FF003037B60184607F10C07BD4690BD00BFC5
S32D0000D8601F85EB51B81EE53FCDCCCCCCCCCCFC3FF0B583B000AF786016E141F23420C1F6FF7046F67C01C0F24E
S32D0000D888010104F005FA41F29C20C1F6FF7007F0ABFD034641F23420C1F6FF70194604F0EDFA41F29C20C1F6F3
S32D0000D8B0FF7007F09DFD03464FF00102144618467968FFF759FD0346002B02D14FF000031C46E3B2002B68D0F7
S32D0000D8D86FF01100FFF77CFD00BF41F29C20C1F6FF7007F081FD03461846FEF7F1FE04460D467868FEF7ECFE13
S32D0000D90002460B46104619464FF000024FF07E5303F5C003FEF780FD02460B464FF001010E4620462946FFF734
S32D0000D9289DF90346002B02D14FF000031E46F3B2002B2CD141F29C20C1F6FF7007F054FD03461846FEF7C4FEC6
S32D0000D95004460D467868FEF7BFFE02460B46104619464FF000024FF07E5303F5C003FEF755FD02460B464FF001
S32D0000D97801010E4620462946FFF78EF90346002B02D14FF000031E46F3B2002B02D04FF0010301E04FF00003E4
S32D0000D9A0002B9ED1FFF77EFD7EE041F29C20C1F6FF7007F01DFD03464FF00102144618467968FFF7BBFC0346B0
S32D0000D9C8002B02D14FF000031C46E3B2002B67D04FF01200FFF7FCFC00BF41F29C20C1F6FF7007F001FD034647
S32D0000D9F01846FEF771FE04460D467868FEF76CFE02460B46104619464FF000024FF07E5303F5C003FEF700FD1F
S32D0000DA1802460B464FF001010E4620462946FFF71DF90346002B02D14FF000031E46F3B2002B2CD141F29C2028
S32D0000DA40C1F6FF7007F0D4FC03461846FEF744FE04460D467868FEF73FFE02460B46104619464FF000024FF070
S32D0000DA687E5303F5C003FEF7D5FC02460B464FF001010E4620462946FFF70EF90346002B02D14FF000031E4651
S32D0000DA90F3B2002B02D04FF0010301E04FF00003002B9ED1FFF7FEFC41F29C20C1F6FF7007F09EFC0346184689
S32D0000DAB8FEF70EFE04460D467868FEF709FE02460B46104619464FF000024FF07E5303F5C003FEF79DFC024696
S32D0000DAE00B464FF001010E4620462946FFF7BAF80346002B02D14FF000031E46F3B2002B2CD141F29C20C1F655
S32D0000DB08FF7007F071FC03461846FEF7E1FD04460D467868FEF7DCFD02460B46104619464FF000024FF07E53B8
S32D0000DB3003F5C003FEF772FC02460B464FF001010E4620462946FFF7ABF80346002B02D14FF000031E46F3B27B
S32D0000DB58002B02D04FF0010301E04FF00003002B7FF487AE07F10C07BD46F0BDF0B583B000AF786016E141F225
S32D0000DB803420C1F6FF7046F68801C0F2010104F083F841F29C20C1F6FF7007F039FC034641F23420C1F6FF70DE
S32D0000DBA8194604F06BF941F29C20C1F6FF7007F02BFC03464FF00102144618467968FFF7D7FB0346002B02D132
S32D0000DBD04FF000031C46E3B2002B68D04FF01200FFF7FAFB00BF41F29C20C1F6FF7007F00FFC03461846FEF7DD
S32D0000DBF86FFD04460D467868FEF76AFD02460B46104619464FF000024FF07E5303F5C003FEF7FEFB02460B46D9
S32D0000DC204FF001010E4620462946FFF71BF80346002B02D14FF000031E46F3B2002B2CD141F29C20C1F6FF7094
S32D0000DC4807F0E2FB03461846FEF742FD04460D467868FEF73DFD02460B46104619464FF000024FF07E5303F5BC
S32D0000DC70C003FEF7D3FB02460B464FF001010E4620462946FFF70CF80346002B02D14FF000031E46F3B2002B46
S32D0000DC9802D04FF0010301E04FF00003002B9ED1FFF7FCFB7EE041F29C20C1F6FF7007F0ABFB03464FF0010204
S32D0000DCC0144618467968FFF739FB0346002B02D14FF000031C46E3B2002B67D06FF01100FFF77AFB00BF41F2C4
S32D0000DCE89C20C1F6FF7007F08FFB03461846FEF7EFFC04460D467868FEF7EAFC02460B46104619464FF000023D
S32D0000DD104FF07E5303F5C003FEF77EFB02460B464FF001010E4620462946FEF79BFF0346002B02D14FF0000391
S32D0000DD381E46F3B2002B2CD141F29C20C1F6FF7007F062FB03461846FEF7C2FC04460D467868FEF7BDFC024656
S32D0000DD600B46104619464FF000024FF07E5303F5C003FEF753FB02460B464FF001010E4620462946FEF78CFFBD
S32D0000DD880346002B02D14FF000031E46F3B2002B02D04FF0010301E04FF00003002B9ED1FFF77CFB41F29C2082
S32D0000DDB0C1F6FF7007F02CFB03461846FEF78CFC04460D467868FEF787FC02460B46104619464FF000024FF01A
S32D0000DDD87E5303F5C003FEF71BFB02460B464FF001010E4620462946FEF738FF0346002B02D14FF000031E466A
S32D0000DE00F3B2002B2CD141F29C20C1F6FF7007F0FFFA03461846FEF75FFC04460D467868FEF75AFC02460B46CA
S32D0000DE28104619464FF000024FF07E5303F5C003FEF7F0FA02460B464FF001010E4620462946FEF729FF0346C3
S32D0000DE50002B02D14FF000031E46F3B2002B02D04FF0010301E04FF00003002B7FF487AE07F10C07BD46F0BD6A
S32D0000DE78F0B585B000AF786041F29C20C1F6FF7007F0D2FA03461846FEF722FC02460B46C7E90223BEE178689C
S32D0000DEA0FEF71AFC02460B4610461946D7E90223FEF7B2FA02460B464FF001010C46104619464FF000024FF014
S32D0000DEC80003FEF7E9FE0346002B02D14FF000031C46E3B2002B00F0C68041F23420C1F6FF7046F69401C0F23C
S32D0000DEF0010103F0D1FE41F29C20C1F6FF7007F097FA034641F23420C1F6FF70194603F0B9FF7868FEF7E0FBF3
S32D0000DF1802460B4610461946D7E90223FEF778FA02460B464FF001010C4610461946ACA3D3E90023FEF792FEAD
S32D0000DF400346002B02D14FF000031C46E3B2002B46D04FF01700FFF761FA00BF41F29C20C1F6FF7007F064FA22
S32D0000DF6805467868A049FEF73DFF03464FF00102144628461946FFF7DDF90346002B02D14FF000031C46E3B248
S32D0000DF90002B1BD141F29C20C1F6FF7007F048FA054678689249FEF723FF03464FF00102144628461946FFF739
S32D0000DFB8DFF90346002B02D14FF000031C46E3B2002B02D04FF0010301E04FF00003002BC0D1FFF763FA0FE181
S32D0000DFE04FF01700FFF73CFA00BF41F29C20C1F6FF7007F01DFA054678687D49FEF7F6FE03464FF001021446F0
S32D0000E00828461946FFF796F90346002B02D14FF000031C46E3B2002B1BD141F29C20C1F6FF7007F001FA0546AF
S32D0000E03078686F49FEF7DCFE03464FF00102144628461946FFF798F90346002B02D14FF000031C46E3B2002B77
S32D0000E05802D04FF0010301E04FF00003002BC0D1FFF71CFAC8E041F23420C1F6FF7046F69401C0F2010103F0CD
S32D0000E0800BFE41F29C20C1F6FF7007F0D1F9034641F23420C1F6FF70194603F0F3FE7868FEF71AFB02460B46D7
S32D0000E0A8D7E90201FEF7B4F902460B464FF001010C46104619464AA3D3E90023FEF7CEFD0346002B02D14FF0F2
S32D0000E0D000031C46E3B2002B46D04FF01700FFF7BFF900BF41F29C20C1F6FF7007F0A0F9054678683E49FEF7D8
S32D0000E0F879FE03464FF00102144628461946FFF719F90346002B02D14FF000031C46E3B2002B1BD141F29C2043
S32D0000E120C1F6FF7007F084F9054678683049FEF75FFE03464FF00102144628461946FFF71BF90346002B02D13E
S32D0000E1484FF000031C46E3B2002B02D04FF0010301E04FF00003002BC0D1FFF79FF94BE04FF01700FFF756F9FD
S32D0000E17000BF41F29C20C1F6FF7007F059F9054678681B49FEF732FE03464FF00102144628461946FFF7D2F83E
S32D0000E1980346002B02D14FF000031C46E3B2002B1BD141F29C20C1F6FF7007F03DF9054678680D49FEF718FEF4
S32D0000E1C003464FF00102144628461946FFF7D4F80346002B02D14FF000031C46E3B2002B08D04FF0010307E010
S32D0000E1E80000000000806640000000404FF00003002BBAD1FFF752F941F29C20C1F6FF7007F012F903461846AC
S32D0000E210FEF762FA02460B46C7E9022341F29C20C1F6FF7007F004F903461846FEF754FA04460D467868FEF7BC
S32D0000E2384FFA02460B46104619464FF000024FF0804303F58023FEF7E3F802460B464FF001010E462046294670
S32D0000E260FEF700FD0346002B02D14FF000031E46F3B2002B2CD141F29C20C1F6FF7007F0D7F803461846FEF76D
S32D0000E28827FA04460D467868FEF722FA02460B46104619464FF000024FF0804303F58023FEF7B8F802460B464F
S32D0000E2B04FF001010E4620462946FEF7F1FC0346002B02D14FF000031E46F3B2002B02D04FF0010301E04FF002
S32D0000E2D80003002B7FF4DFAD07F11407BD46F0BDF0B585B000AFC7E902017A607868FFF76FF817E041F2342057
S32D0000E300C1F6FF7046F6A001C0F2010103F0C4FC41F29C20C1F6FF7007F06AF8034641F23420C1F6FF701946C2
S32D0000E32803F0ACFD41F29C20C1F6FF7007F05CF803461846FEF7CCF904460D46D7E902014FF000024FF07E53B9
S32D0000E35003F5E003FEF760F802460B464FF001010E4620462946FEF77DFC0346002B02D14FF000031E46F3B274
S32D0000E378002B27D141F29C20C1F6FF7007F034F803461846FEF7A4F904460D46D7E902014FF000024FF07E5332
S32D0000E3A003F5E003FEF73AF802460B464FF001010E4620462946FEF773FC0346002B02D14FF000031E46F3B254
S32D0000E3C8002B02D04FF0010301E04FF00003002B90D1FFF763F807F11407BD46F0BD00BF98B500AF41F23420E2
S32D0000E3F0C1F6FF704FF0000103F030FA41F23C10C1F6FF7040F2823102F076FC41F23C10C1F6FF7040F26B71DB
S32D0000E41802F08CFC41F24810C1F6FF704FF4FA7102F066FC41F24810C1F6FF7040F26D6102F07CFC41F2481003
S32D0000E440C1F6FF70BF4902F093FC41F23C10C1F6FF70BD4902F08CFC41F29C20C1F6FF7006F0F6FA41F2342058
S32D0000E468C1F6FF7046F69401C0F2010103F010FC41F29C20C1F6FF7006F0D6FF034641F23420C1F6FF701946A7
S32D0000E49003F0F8FC09E0FFF7EBF8034641F23420C1F6FF70194603F0D9FCFFF7E1F80346032B14BF0023012338
S32D0000E4B8DBB2002BEBD14FF000004FF0804101F566114FF02202FFF70BFF9E48FFF7CCF94FF032004FF0B401AD
S32D0000E4E0FFF77AF89848FFF7C7FC41F25410C1F6FF70974900F0ACFC41F25C10C1F6FF70944900F0A5FC00BFE6
S32D0000E50841F29C20C1F6FF7006F07EFF03464FF00102144618468E49FEF70CFF0346002B02D14FF000031C4658
S32D0000E530E3B2002BE8D1FEF7B5FF8848FFF79CFC41F23C10C1F6FF70854902F011FC4FF01400FEF741FF17E04C
S32D0000E55841F23420C1F6FF7046F6B801C0F2010103F096FB41F29C20C1F6FF7006F03CFF034641F23420C1F6EE
S32D0000E580FF70194603F07EFC41F29C20C1F6FF7006F03EFF03464FF00102144618467149FEF7CCFE0346002BBA
S32D0000E5A802D14FF000031C46E3B2002BD0D1FEF775FFFFF7D9F80346022B14BF00230123DBB2002B1ED041F2D4
S32D0000E5D03420C1F6FF704FF0FF0103F075F94FF01900FEF7F9FE4FF000004FF07E5101F5F00101F0C5F9FEF7E7
S32D0000E5F855FF4FF000004FF0804101F5B01101F0BBF940E041F23420C1F6FF704FF47F0103F056F96FF01300C2
S32D0000E6204FF000024FF0804303F50813FEF78CFF4548FFF721FC41F23C10C1F6FF704A4902F096FB41F2481010
S32D0000E648C1F6FF70474902F08FFB4FF000004FF07E5101F5E00101F08FF94FF01400FEF7B7FE4FF000004FF05A
S32D0000E6707E5101F5E00101F083F9FEF713FF4FF000004FF0804101F5B01101F079F96FF013004FF000024FF017
S32D0000E698804303F5E013FEF753FF41F23C10C1F6FF702D4902F060FB41F24810C1F6FF70294902F059FB41F25B
S32D0000E6C03420C1F6FF704FF0000103F0C7F84FF01E004FF42F71FEF77FFF2548FFF7CCFB4FF01E00FEF778FE1B
S32D0000E6E800BF41F29C20C1F6FF7006F08DFE03464FF00102144618461C49FEF739FE0346002B02D14FF0000352
S32D0000E7101C46E3B2002BE8D11748FFF72BFAFEF7C1FE4FF019004FF0B401FEF77BFF1348FFF7A2FB4FF01900D1
S32D0000E738FEF74EFE4FF00003184698BD0000AF430000B4420000CC4100004C4200004842000018420000B24222
S32D0000E7600000344300006842000040410000A041000087430000B0410000A8410000434380B582B000AF7860F0
S32D0000E78839607B68012B40F088803A684FF6FF739A4240F0828041F21810C1F6FF704FF0130101F037F941F2F4
S32D0000E7B01C10C1F6FF704FF0040101F02FF941F22010C1F6FF704FF0120101F027F941F22410C1F6FF704FF0D4
S32D0000E7D8030101F01FF941F22810C1F6FF704FF00E0101F027FE41F22C10C1F6FF704FF0100101F01FFE41F2EB
S32D0000E8003010C1F6FF704FF00C0101F017FE41F23410C1F6FF704FF00A0101F00FFE41F23810C1F6FF704FF06D
S32D0000E828080101F007FE41F23C10C1F6FF704FF0000102F03FFA41F24810C1F6FF704FF0020102F037FA41F26A
S32D0000E8505410C1F6FF704FF00101144A00F050FA41F25C10C1F6FF704FF000010F4A00F047FA41F26410C1F64A
S32D0000E878FF704FF0000101F0FDF941F26810C1F6FF704FF0010101F0F5F941F26C10C1F6FF704FF0030102F0E1
S32D0000E8A07DF807F10807BD4680BD00BF0000404180B500AF4FF001004FF6FF71FFF760FF80BD00BF80B500AF40
S32D0000E8C841F2D822C1F6FF7241F21813C1F6FF73D31A194641F21813C1F6FF731A460B4610464FF000011A46CC
S32D0000E8F006F025FF80BD00BF07F09AFF00F0B0F9FFF7E0FF07F06CFF07F008FF07F0A0FF00F00CF84FF00000BD
S32D0000E91841F27011C1F6FF71FFF762FD0346184606F0E4FE80B500AF4FF4E043C4F204034FF4E042C4F20402FA
S32D0000E94002F5805202F13802126842F4785203F5805303F138031A6000F02EF900F094F841F28013C1F6FF7343
S32D0000E9684FF058021A6041F28013C1F6FF731B684FF47A7202FB03F241F27C13C1F6FF731A6041F27C13C1F6FD
S32D0000E990FF731B681A464FF4E043C4F2040303F5825303F104031B6803F070634FEA136303F10103B2FBF3F396
S32D0000E9B81A4641F28413C1F6FF731A604FF4E043C4F204034FF4E042C4F2040202F5805202F13C02126842F07A
S32D0000E9E0225203F5805303F13C031A604FF4E043C4F204034FF4E042C4F2040202F5805202F13002126842F03F
S32D0000EA08006203F5805303F130031A604FF45043C4F203034FF480721A614FF0640000F023FE4FF45043C4F290
S32D0000EA3003034FF45042C4F20302526922F010025A614FF45043C4F203034FF000021A604FF45043C4F20303A9
S32D0000EA584FF010025A6101F031FE01F0D9FE41F27810C1F6FF7000F083FE41F23420C1F6FF7002F03DFD41F23E
S32D0000EA80883000F061FF80BD80B400AF4FF48043C4F206034FF000025A704FF48043C4F206034FF098021A7048
S32D0000EAA84FF48043C4F206039B79DBB203F01003002B0CBF00230123DBB2002BF0D14FF48043C4F206039B7945
S32D0000EAD0DBB203F00C034FEA9303022B0CBF00230123DBB2002BEED14FF48043C4F206034FF018021A714FF418
S32D0000EAF88043C4F206034FF000025A714FF4E043C4F2040303F5825303F104034FF00002C0F213121A604FF4A2
S32D0000EB208043C4F206034FF054025A7100BF4FF48043C4F206039B79DBB203F02003002B14BF00230123DBB2D8
S32D0000EB48002BF0D100BF4FF48043C4F206039B79DBB203F04003002B14BF00230123DBB2002BF0D14FF4804394
S32D0000EB70C4F206034FF48042C4F206021278D2B202F03F02D2B21A704FF48043C4F206039B79DBB203F00C033E
S32D0000EB984FEA9303032B0CBF00230123DBB2002BEED14FF000031846BD4680BC704700BF80B400AF4FF44043CB
S32D0000EBC0C4F204034FF480725A634FF2C003C4F20F034FF2C002C4F20F02526942F400525A614FF2C003C4F22A
S32D0000EBE80F034FF2C002C4F20F02126842F400521A604FF44043C4F2040340F20312C0F20A021A634FF46143BB
S32D0000EC10CEF200034FF46142CEF20002D2F8882142F08062C3F888214FF46143CEF200034FF46142CEF200022E
S32D0000EC38926842F080629A60BD4680BC704700BF80B483B000AF7860FEE700BF80B400AF00BEBD4680BC7047C8
S32D0000EC6080B400AF4FF0E0224CF20003C0F20003C2F8083D4FF40053C4F205034CF22052DA814FF40053C4F2C2
S32D0000EC8805034DF62812DA814FF40053C4F205034FF0D2021A80BD4680BC704780B400AF4FF44043C4F2040321
S32D0000ECB0D3F8A03003F48053002B0CBF00230123DBB2002B19D04FF44043C4F204034FF44042C4F20402D2F825
S32D0000ECD8A02022F48052C3F8A0204FF2C003C4F20F034FF2C002C4F20F02126822F400521A60BD4680BC704703
S32D0000ED0090B585B000AFF8600B467A60FB72FB68FA7A1A71FB684FF000025A714FF001031C4678682049FEF718
S32D0000ED2827FB0346002B02D14FF000031C46E3B2002B02D01A4B7B6011E04FF001031C4678681849FEF700FB17
S32D0000ED500346002B02D14FF000031C46E3B2002B01D0124B7B607868FDF7B6FC02460B46104619460AA3D3E9A4
S32D0000ED780023FDF701FD02460B4610461946FDF7DDFF0246FB681A60FB68184607F11407BD4690BDAFF30080CF
S32D0000EDA0ABAAAAAAAAAA2040000040410000803F80B582B000AF78607B685B79002B10D07B684FF000025A7109
S32D0000EDC87B681B7941F27810C1F6FF7019464FF000024FF01E0300F015FD07F10807BD4680BD00BF80B584B054
S32D0000EDF000AF786039603B687F2B03DD4FF07F03FB7309E03B6813F1800F03DA4FF08003FB7301E03B68FB735B
S32D0000EE187B685B79FA7B9A420FD07B68FA7B5A717B681A79FB7B41F27810C1F6FF7011461A464FF01E0300F0EE
S32D0000EE40E5FC07F11007BD4680BD00BF00000000B0B584B000AF786039604FF001031C4638684D49FEF76AFAC8
S32D0000EE680346002B02D14FF000031C46E3B2002B02D0474B3B6011E04FF001031C4638684449FEF775FA034662
S32D0000EE90002B02D14FF000031C46E3B2002B01D03E4B3B603868FDF717FC04460D467B681B681846FDF710FCF5
S32D0000EEB802460B46104619464FF000024FF0804303F5B203FDF782FD02460B4620462946FDF752FC02460B4632
S32D0000EEE010461946FDF72EFF03463B604FF001031C4638682A49FEF735FA0346002B02D14FF000031C46E3B2EE
S32D0000EF08002B14D03868FDF7E3FB02460B46104619461DA3D3E90023FDF72EFC02460B4610461946FDF7C2FE4D
S32D0000EF300346FB6022E03868FDF7CEFB02460B46104619464FF000024FF0804303F5C003FDF716FC02460B46C5
S32D0000EF58104619464FF000024FF0804303F5B203FDF734FD02460B4610461946FDF79EFE0346FB607868F968FE
S32D0000EF80FFF734FF07F11007BD46B0BDAFF3008052B81E85EB51F43F0000C8C20000C84200000000AFF30080C7
S32D0000EFA880B485B000AF02460B46FA71BB71BB79002B07D141F27413C1F6FF734FF000021A7006E041F274136E
S32D0000EFD0C1F6FF734FF001021A704FF03803FB7341F27413C1F6FF731A78FB7B1343FB734FF4C043C4F2060382
S32D0000EFF84FF4C042C4F206029278D2B242F01002D2B29A704FF4C043C4F206034FF4C042C4F206029278D2B2F2
S32D0000F02042F02002D2B29A704FF4C043C4F20603FA7B1A7107F11407BD4680BC704700BF80B483B000AF4FF0BE
S32D0000F04801037B6004E000BF7B6803F101037B607B68312BCCBF00230123DBB2002BF2D107F10C07BD4680BC8C
S32D0000F070704700BF80B582B000AF02460B46FA71BB7141F27513C1F6FF731B7818464FF00001FFF789FF4FF4E0
S32D0000F098C043C4F20603DB78DBB203F00203002B14BF00230123DBB2002BF0D14FF4C043C4F206034FF4C042A8
S32D0000F0C0C4F20602D278D2B242F00202D2B2DA704FF4C043C4F20603FA791A714FF4C043C4F20603DB78DBB2AA
S32D0000F0E803F00203002B14BF00230123DBB2002BF0D14FF4C043C4F206034FF4C042C4F20602D278D2B242F03C
S32D0000F1100202D2B2DA704FF4C043C4F20603BA791A714FF4C043C4F20603DB78DBB203F00203002B14BF00233E
S32D0000F1380123DBB2002BF0D14FF4C043C4F206034FF4C042C4F20602D278D2B242F00202D2B2DA704FF4C043EC
S32D0000F160C4F206034FF4C042C4F206029278D2B222F02002D2B29A704FF4C043C4F206034FF4C042C4F2060267
S32D0000F1889278D2B222F01002D2B29A70FFF754FF07F10807BD4680BD80B582B000AF0346FB71FB79184600F0FC
S32D0000F1B06BF807F10807BD4680BD00BF80B582B000AF02460B46FA71BB7100F039F8FB794FEA4303DBB2184683
S32D0000F1D8FFF7E2FFBB791846FFF7DEFF00F03EF807F10807BD4680BD80B500AF4FF0FF0000F046F80346184669
S32D0000F20080BD00BF80B584B000AF0346FB7100F017F8FB794FEA4303DBB243F00103DBB2DBB21846FFF7BCFF38
S32D0000F228FFF7E2FF0346FB7300F018F8FB7B184607F11007BD4680BD80B400AF4FF24003C4F20F034FF2400255
S32D0000F250C4F20F02926842F480129A60BD4680BC704700BF80B400AF4FF24003C4F20F034FF24002C4F20F02DF
S32D0000F278526842F480125A60BD4680BC704700BF80B485B000AF0346FB714FF00003BB7303E0FB7B03F10103E9
S32D0000F2A0FB734FF44043C4F20A03DB6A4FF00003002BF2D14FF44043C4F20A034FF44042C4F20A02D26A42F056
S32D0000F2C80042DA624FF44043C4F20A03FA795A6300BF4FF44043C4F20A03DB6A03F40033002B14BF00230123E5
S32D0000F2F0DBB2002BF1D14FF44043C4F20A039B6BBB73BB7B184607F11407BD4680BC704780B582B000AF4FF4C3
S32D0000F318E043C4F204034FF4E042C4F2040202F5805202F13002126842F4805203F5805303F130031A604FF4A7
S32D0000F3402043C4F204034FF480721A654FF24003C4F20F034FF24002C4F20F02526942F480125A61FFF77EFF84
S32D0000F3684FF42043C4F204034FF400725A654FF42043C4F204034FF400729A654FF42043C4F204034FF4007271
S32D0000F390DA654FF44043C4F20A034FF44062C8F200021A604FF44043C4F20A034FF00502C3F60062DA604FF009
S32D0000F3B800037B6007E04FF0FF00FFF7EDFE7B6803F101037B607B68092BCCBF00230123DBB2002BEFD104A187
S32D0000F3E0D1E9000100F0CCFA07F10807BD4680BD9A9999999999B93F90B486B000AFF860B9607A60FA684FF49F
S32D0000F4082043C4F206039A4214D14FF4E043C4F204034FF4E042C4F2040202F5805202F13402126842F480622B
S32D0000F43003F5805303F134031A6083E0FA684FF43043C4F206039A4214D14FF4E043C4F204034FF4E042C4F205
S32D0000F458040202F5805202F13402126842F4006203F5805303F134031A6067E0FA684FF44043C4F206039A4202
S32D0000F48014D14FF4E043C4F204034FF4E042C4F2040202F5805202F13402126842F4805203F5805303F13403CB
S32D0000F4A81A604BE0FA684FF45043C4F206039A4214D14FF4E043C4F204034FF4E042C4F2040202F5805202F1D9
S32D0000F4D03402126842F4005203F5805303F134031A602FE0FA684FF42043C4F20E039A4214D14FF4E043C4F2AB
S32D0000F4F804034FF4E042C4F2040202F5805202F12802126842F4806203F5805303F128031A6013E04FF4E04389
S32D0000F520C4F204034FF4E042C4F2040202F5805202F12802126842F4006203F5805303F128031A60FB68DB78CD
S32D0000F548DBB223F00C03DAB2FB68DA70FB684FF000029A70BB684FF47A7202FB03F27B684FEA031392FBF3F316
S32D0000F5709CB2FB681B78DBB223F01F03FB75234603F4F8534FEA2323DBB203F01F03DAB2FB7D1343DAB2FB68E2
S32D0000F5981A70E2B2FB685A70BB684FF4FA4202FB03F27B684FEA031392FBF3F39AB2234619464FEAC121CB1AAD
S32D0000F5C04FEA43139BB2D3189CB2FB689B7ADBB223F01F03FB75E3B203F01F03DAB2FB7D1343DAB2FB689A725F
S32D0000F5E8FB68DB78DBB243F00C03DAB2FB68DA7007F11807BD4690BC704700BF80B483B000AF786000BF7B68CB
S32D0000F6101B79DBB203F02003002B14BF00230123DBB2002BF3D17B68DB79DBB2184607F10C07BD4680BC7047B1
S32D0000F63880B483B000AF78600B46FB7000BF7B681B79DBB2DBB26FEA0303DBB24FEAD313DBB2002BF3D17B6840
S32D0000F660FA78DA7107F10C07BD4680BC704700BF80B483B000AF78604FF4E043C4F204034FF4E042C4F20402CD
S32D0000F68802F5805202F13802126842F0010203F5805303F138031A604FF00003C4F204037A689A604FF000031E
S32D0000F6B0C4F204034FF005025A604FF00003C4F204034FF00002C4F20402126842F001021A6000BF4FF0000349
S32D0000F6D8C4F204031B6803F08003002B14BF00230123DBB2002BF1D14FF00003C4F204034FF00002C4F2040293
S32D0000F700126822F001021A6007F10C07BD4680BC704700BF80B582B000AF786039607B68012B0AD13A684FF6BA
S32D0000F728FF739A4205D141F27810C1F6FF7000F00FF807F10807BD4680BD00BF80B500AF4FF001004FF6FF71D8
S32D0000F750FFF7E0FF80BD00BF80B483B000AF78607B684FF000021A707B68184607F10C07BD4680BC704700BF1D
S32D0000F77880B582B000AF78607B681B7883F00103DBB2002B36D04FF4E043C4F2040303F5805303F128034FF47A
S32D0000F7A000621A604FF45043C4F204034FF440721A624FF45043C4F204034FF440725A6241F27C13C1F6FF732C
S32D0000F7C81B684FEAD372D3184FEA63034FF43040C4F20E0019464FF46142FFF709FE4FF0640000F0ADF87B68B4
S32D0000F7F04FF001021A704FF0010301E04FF00003184607F10807BD4680BD00BF80B582B000AF7860F970BA70D4
S32D0000F8187B704FF43040C4F20E004FF07F01FFF707FF4FF43040C4F20E004FF00801FFF7FFFEFB784FF43040CD
S32D0000F840C4F20E001946FFF7F7FEBB784FF43040C4F20E001946FFF7EFFE7B784FF43040C4F20E001946FFF7E1
S32D0000F868E7FE4FF43040C4F20E004FF0FF01FFF7DFFE07F10807BD4680BD00BF80B487B000AFF860B9607A6099
S32D0000F890FA6844F6D353C1F26203A3FB02134FEA9312BB68D3187B61FA6844F6D353C1F26203A3FB02134FEA2F
S32D0000F8B893134FF47A7101FB03F3D31AFB60FB684FEAC33244F6D353C1F26203A3FB02134FEA93127B68D318AC
S32D0000F8E03B613B694FEAD3337A69D3187B613B694FEA43434FEA53433B614FF45043C4F203031B681A467B69AA
S32D0000F9089A4211D34FF45043C4F203031B681A467B699A420BD14FF45043C4F203035B681A463B699A4202D2F7
S32D0000F9304FF0010301E04FF00003002BDDD107F11C07BD4680BC704780B584B000AF78604FF45043C4F20303D7
S32D0000F9581B68FB604FF45043C4F203035B68BB607B681846F968BA68FFF788FF07F11007BD4680BD00000000A3
S32D0000F98080B584B000AFC7E900014FF45043C4F203031B68FB604FF45043C4F203035B68BB60D7E900010AA342
S32D0000F9A8D3E90023FCF7E8FE02460B4610461946FDF7A4F903461846F968BA68FFF75EFF07F11007BD4680BDCE
S32D0000F9D00000000000408F4080B483B000AF4FF45043C4F203031B684FF47A7202FB03F37B604FF45043C4F246
S32D0000F9F803035B684FF47A7202FB03F34FEAD3337A68D3187B607B68184607F10C07BD4680BC704780B582B066
S32D0000FA2000AF78600B46FB70FB787868194600F013F87B68184607F10807BD4680BD00BF80B483B000AF786093
S32D0000FA487B68184607F10C07BD4680BC704700BF80B483B000AF78600B46FB707B68FA781A707B681B781A4630
S32D0000FA7046F69033C0F201039B5C042B00F2F98001A252F823F000BF9DFA0000FBFA000059FB0000B7FB0000D1
S32D0000FA9815FC00004FF41043C4F204037A681278114646F6D432C0F2010252F8212040F2031143F822104FF4A1
S32D0000FAC07043C4F20F034FF47042C4F20F02526911467A681278104646F6D432C0F2010252F8202002F01F0279
S32D0000FAE84FF0010000FA02F26FEA02020A405A61BBE04FF42043C4F204037A681278114646F6D432C0F20102A8
S32D0000FB1052F8212040F2031143F822104FF24003C4F20F034FF24002C4F20F02526911467A681278104646F6E3
S32D0000FB38D432C0F2010252F8202002F01F024FF0010000FA02F26FEA02020A405A618CE04FF43043C4F20403D8
S32D0000FB607A681278114646F6D432C0F2010252F8212040F2031143F822104FF28003C4F20F034FF28002C4F27A
S32D0000FB880F02526911467A681278104646F6D432C0F2010252F8202002F01F024FF0010000FA02F26FEA02024B
S32D0000FBB00A405A615DE04FF44043C4F204037A681278114646F6D432C0F2010252F8212040F2031143F822106A
S32D0000FBD84FF2C003C4F20F034FF2C002C4F20F02526911467A681278104646F6D432C0F2010252F8202002F022
S32D0000FC001F024FF0010000FA02F26FEA02020A405A612EE04FF45043C4F204037A681278114646F6D432C0F2CD
S32D0000FC28010252F8212040F2031143F822104FF47143C4F20F034FF47142C4F20F02526911467A68127810461D
S32D0000FC5046F6D432C0F2010252F8202002F01F024FF0010000FA02F26FEA02020A405A6100BF07F10C07BD4695
S32D0000FC7880BC704780B584B000AF78600B46FB704FF00B03FB73FA78FB7B786811461A4600F0ECF87B68184670
S32D0000FCA007F11007BD4680BD80B485B000AF78607B68A3F11003002B01DA03F11F034FEA6313FB60FB68012BB8
S32D0000FCC848D0022B00F08980002B40F0C9804FF46142CEF200024FF46143CEF20003D3F8803119467B68A3F188
S32D0000FCF010004FF01F03C8F200030340002B05DA03F1FF3363F01F0303F101034FF0010000FA03F30B43C2F8A0
S32D0000FD1880314FF46142CEF200024FF46143CEF200031B6819467B68A3F110004FF01F03C8F200030340002BC5
S32D0000FD4005DA03F1FF3363F01F0303F101034FF0010000FA03F30B43136085E04FF46142CEF200024FF461433E
S32D0000FD68CEF20003D3F8843119467B68A3F110004FF01F03C8F200030340002B05DA03F1FF3363F01F0303F14A
S32D0000FD9001034FF0010000FA03F30B43C2F884314FF46142CEF200024FF46143CEF200035B6819467B68A3F169
S32D0000FDB810004FF01F03C8F200030340002B05DA03F1FF3363F01F0303F101034FF0010000FA03F30B435360DE
S32D0000FDE042E04FF46142CEF200024FF46143CEF20003D3F8883119467B68A3F110004FF01F03C8F200030340B6
S32D0000FE08002B05DA03F1FF3363F01F0303F101034FF0010000FA03F30B43C2F888314FF46142CEF200024FF453
S32D0000FE306143CEF200039B6819467B68A3F110004FF01F03C8F200030340002B05DA03F1FF3363F01F0303F15A
S32D0000FE5801034FF0010000FA03F30B43936000BF07F11407BD4680BC704700BF80B584B000AF786013460A46E7
S32D0000FE80FA70BB707B68FA781A70BB78FB737B681B781A4646F69033C0F201039B5C042B00F2F68001A252F839
S32D0000FEA823F000BFC1FE000035FF0000A9FF0000910001001D0001004FF41043C4F204037A681278114646F6BD
S32D0000FED0D432C0F2010252F82110FA7B4FEA024202F4702242F4887242F0030243F821204FF47043C4F20F03B3
S32D0000FEF84FF47042C4F20F02526911467A681278104646F6D432C0F2010252F8202002F01F024FF0010000FA7E
S32D0000FF2002F26FEA02020A405A614FF06700FFF7BBFEADE04FF42043C4F204037A681278114646F6D432C0F261
S32D0000FF48010252F82110FA7B4FEA024202F4702242F4887242F0030243F821204FF24003C4F20F034FF24002E1
S32D0000FF70C4F20F02526911467A681278104646F6D432C0F2010252F8202002F01F024FF0010000FA02F26FEAAD
S32D0000FF9802020A405A614FF06800FFF781FE73E04FF43043C4F204037A681278114646F6D432C0F2010252F84C
S32D0000FFC02110FA7B4FEA024202F4702242F4887242F0030243F821204FF28003C4F20F034FF28002C4F20F026F
S32D0000FFE8526911467A681278104646F6D432C0F2010252F8202002F01F024FF0010000FA02F26FEA02020A40AE
S32D000100105A614FF06900FFF747FE39E04FF45043C4F204037A681278114646F6D432C0F2010252F82110FA7BCD
S32D000100384FEA024202F4702242F4887242F0030243F821204FF47143C4F20F034FF47142C4F20F025269114623
S32D000100607A681278104646F6D432C0F2010252F8202002F01F024FF0010000FA02F26FEA02020A405A614FF04C
S32D000100886B00FFF70DFE00BF07F11007BD4680BDB0B48BB000AF46F6C403C0F2010307F104041D460FCD0FC4B6
S32D000100B095E80F0084E80F004FF000037B6248E04FF42043C4F20403D3F8A0301A467B6A4FEA830307F12800B1
S32D000100D8C31853F8243C4FF0010101FA03F31340002B0CBF00230123DBB2002B29D041F2A813C1F6FF737A6A05
S32D0001010053F8223003F1010141F2A813C1F6FF737A6A43F822104FF42043C4F204034FF42042C4F20402D2F847
S32D00010128A02011467A6A4FEA820207F12800821852F8242C4FF0010000FA02F20A40C3F8A0207B6A03F10103CC
S32D000101507B627B6A072BCCBF00230123DBB2002BAED107F12C07BD46B0BC7047B0B489B000AF46F6E403C0F211
S32D00010178010307F104041D460FCD0FC495E8030084E803004FF00003FB6149E04FF43043C4F20403D3F8A0307E
S32D000101A01A46FB694FEA830307F12000C31853F81C3C4FF0010101FA03F31340002B0CBF00230123DBB2002B9D
S32D000101C82AD0FB6903F1080241F2A813C1F6FF7353F8223003F1010141F2A813C1F6FF7343F822104FF43043C8
S32D000101F0C4F204034FF43042C4F20402D2F8A0201146FA694FEA820207F12000821852F81C2C4FF0010000FA33
S32D0001021802F20A40C3F8A020FB6903F10103FB61FB69052BCCBF00230123DBB2002BADD107F12407BD46B0BC18
S32D00010240704700BFB0B48DB000AF46F6FC03C0F201033C461D460FCD0FC40FCD0FC495E8070084E807004FF05F
S32D000102680003FB6249E04FF41043C4F20403D3F8A0301A46FB6A4FEA830307F13000C31853F8303C4FF0010171
S32D0001029001FA03F31340002B0CBF00230123DBB2002B2AD0FB6A03F10E0241F2A813C1F6FF7353F8223003F1FB
S32D000102B8010141F2A813C1F6FF7343F822104FF41043C4F204034FF41042C4F20402D2F8A0201146FA6A4FEA6F
S32D000102E0820207F13000821852F8302C4FF0010000FA02F20A40C3F8A020FB6A03F10103FB62FB6A0A2BCCBF31
S32D0001030800230123DBB2002BADD107F13407BD46B0BC7047B0B487B000AF46F62813C0F201033C461D460FCDB8
S32D000103300FC42B6823604FF000037B6149E04FF45043C4F20403D3F8A0301A467B694FEA830307F11800C31852
S32D0001035853F8183C4FF0010101FA03F31340002B0CBF00230123DBB2002B2AD07B6903F1190241F2A813C1F6CB
S32D00010380FF7353F8223003F1010141F2A813C1F6FF7343F822104FF45043C4F204034FF45042C4F20402D2F8D7
S32D000103A8A02011467A694FEA820207F11800821852F8182C4FF0010000FA02F20A40C3F8A0207B6903F1010368
S32D000103D07B617B69042BCCBF00230123DBB2002BADD107F11C07BD46B0BC704780B483B000AF78607B681B7862
S32D000103F81A4641F2A813C1F6FF7353F82230184607F10C07BD4680BC704700BF80B483B000AF78607B681B7840
S32D000104201A4641F2A813C1F6FF734FF0000143F8221007F10C07BD4680BC704780B483B000AF78600B46FB70DE
S32D000104487B68FA781A707B68184607F10C07BD4680BC70470000000080B586B000AF78607B681B781A4646F660
S32D000104705443C0F2010353F822303B617B681B781A4646F6B033C0F201039B5CFB733B69DBB203F01F03DAB2F5
S32D0001049841F28813C1F6FF731A723B69DBB203F01F03DAB241F28813C1F6FF735A724FF46143CEF200034FF034
S32D000104C01002C3F88820FB7B002B1ED14FF43040C4F2030041F28811C1F6FF7100F08AFB4FF43043C4F20303C2
S32D000104E81B6803F08003002B14BF00230123DBB2002BF1D14FF43043C4F203031B697B611DE04FF43040C4F2F5
S32D000105100B0041F28811C1F6FF7100F06BFB4FF43043C4F20B031B6803F08003002B14BF00230123DBB2002BF8
S32D00010538F1D14FF43043C4F20B031B697B614FF46143CEF200034FF46142CEF20002D2F8882142F01002C3F834
S32D0001056088214FF46143CEF200034FF46142CEF20002926842F010029A607B694FEA03434FEA13431846FCF7F6
S32D0001058885F802460B46104619460FA3D3E90023FCF7F2F802460B46104619460CA3D3E90023FCF713FA0246E7
S32D000105B00B4610461946FCF7C5FB0346BB60BB68184607F11807BD4680BD00BFAFF30080A4703D0AD7A30A4027
S32D000105D800000000E0FFEF4080B586B000AF78607B681B781A4646F65443C0F2010353F822303B617B681B78E6
S32D000106001A4646F6B033C0F201039B5CFB733B69DBB203F01F03DAB241F29813C1F6FF731A723B69DBB203F0A8
S32D000106281F03DAB241F29813C1F6FF735A72FB7B002B1ED14FF43040C4F2030041F29811C1F6FF7100F0D2FA67
S32D000106504FF43043C4F203031B6803F08003002B14BF00230123DBB2002BF1D14FF43043C4F203031B697B617F
S32D000106781DE04FF43040C4F20B0041F29811C1F6FF7100F0B3FA4FF43043C4F20B031B6803F08003002B14BFD1
S32D000106A000230123DBB2002BF1D14FF43043C4F20B031B697B617B69184607F11807BD4680BD00BF98B500AF3C
S32D000106C841F28813C1F6FF734FF05C021A7041F28813C1F6FF734FF010025A7041F28813C1F6FF7341F2342253
S32D000106F05A8041F28813C1F6FF7345F278629A8041F28813C1F6FF734FF010029A7141F28813C1F6FF734FF056
S32D000107180702DA7141F28813C1F6FF734FF4C022DA6041F28813C1F6FF734FF01F021A7241F28813C1F6FF732E
S32D000107404FF01F025A724FF43040C4F2030041F28811C1F6FF7100F04DFA4FF43040C4F20B0041F28811C1F6D1
S32D00010768FF7100F043FA4FF43040C4F20B0000F097F94FF43040C4F2030000F091F94FF43040C4F20B0041F244
S32D000107908811C1F6FF7100F02DFA4FF43040C4F2030041F28811C1F6FF7100F023FA41F29812C1F6FF7241F2BF
S32D000107B88813C1F6FF7314460FCB84E80F0041F29813C1F6FF734FF05C021A7041F29813C1F6FF734FF0040225
S32D000107E0DA7198BD80B500AF41F22C23C1F6FF731B6803F1010241F22C23C1F6FF731A6000F04CF84FF4E04382
S32D00010808C4F203034FF00102C3F80C2180BD00BF80B500AF4FF4E043C4F203034FF001021A6048F2A060C0F231
S32D00010830010000F023F84FF4E043C4F203034FF00302C3F808214FF46143CEF200034FF46142CEF20002D2F827
S32D00010858882142F01002C3F888214FF46143CEF200034FF46142CEF20002926842F010029A6080BD80B483B0F2
S32D0001088000AF78604FF4E043C4F203037A68C3F8002107F10C07BD4680BC704780B584B000AF41F22823C1F694
S32D000108A8FF731B68FB6029E0FB685B78FB71FB689B68184600F02EF80346BB71BB79002B19D0FB685B68012B3D
S32D000108D015DDFB689B681B69BB6008E0BB685B6803F10102BB685A60BB681B69BB60BB68002B0CBF002301233E
S32D000108F8DBB2002BEED1FB68DB68FB60FB68002B0CBF00230123DBB2002BCDD107F11007BD4680BD80B584B0AB
S32D0001092000AF78607868FFF75BFE0346FB607B689B695B78FB72FB7A002B12D17B68DA68FB689A420DDA7B6876
S32D000109489B694FF001025A707B685B6803F101027B685A604FF0010317E0FB7A012B12D17B689A68FB689A4254
S32D000109700DDD7B689B694FF000025A707B685B6803F101027B685A604FF0010301E04FF00003184607F110076F
S32D00010998BD4680BD80B582B000AF78600B46FB707B681846FFF748F87B6803F101031846FFF742F87B6803F18F
S32D000109C002031846FFF73CF8FB78032B66D801A252F823F0E5090100130A0100410A01006F0A01007B68184688
S32D000109E84FF00001FFF734F87B6803F1010318464FF00101FFF72CF87B6803F1020318464FF00201FFF724F85C
S32D00010A1044E07B6818464FF00801FFF71DF87B6803F1010318464FF00901FFF715F87B6803F1020318464FF001
S32D00010A380A01FFF70DF82DE07B6818464FF01001FFF706F87B6803F1010318464FF01101FEF7FEFF7B6803F1A4
S32D00010A60020318464FF01201FEF7F6FF16E07B6818464FF01801FEF7EFFF7B6803F1010318464FF01901FEF7CF
S32D00010A88E7FF7B6803F1020318464FF01A01FEF7DFFF00BF7B68184607F10807BD4680BD80B485B000AF7860BB
S32D00010AB07B681B6A23F040027B681A627B685B6A23F00B027B685A627B685B6A43F007027B685A627B685B6A69
S32D00010AD843F080027B685A627B681B6803F08003002B14BF00230123DBB2002BF4D17B685B6A03F04003002BF4
S32D00010B000CBF00230123DBB2002B02D04FF0010369E04FF00003FB817B68DB6CFB817B689B6C9AB2FB89D31895
S32D00010B28FB817B685B6C9AB2FB89D318FB817B681B6C9AB2FB89D318FB817B68DB6B9AB2FB89D318FB817B685D
S32D00010B509B6B9AB2FB89D318FB81FB894FEA5303FB81FB896FEA43436FEA5343FB81FA897B68DA624FF00003F8
S32D00010B78FB817B68DB6EFB817B689B6E9AB2FB89D318FB817B685B6E9AB2FB89D318FB817B681B6E9AB2FB89E8
S32D00010BA0D318FB817B68DB6D9AB2FB89D318FB817B689B6D9AB2FB89D318FB81FB894FEA5303FB81FB896FEACF
S32D00010BC843436FEA5343FB81FA897B681A637B685B6A23F080027B685A624FF00003184607F11407BD4680BC5C
S32D00010BF0704700BF80B483B000AF786039603B681B781A467B689A603B685B781A467B68DA603B685B881A468D
S32D00010C187B689A613B689B881A467B68DA613B689B791A467B681A623B68DB791A467B685A623B68DA687B6857
S32D00010C401A653B681B7A1A467B681A603B685B7A1A467B685A6007F10C07BD4680BC704780B483B000AF7860AD
S32D00010C687B68184607F10C07BD4680BC704700BF80B582B000AF786039607B68012B0AD13A684FF6FF739A42B6
S32D00010C9005D141F23020C1F6FF70FFF7E1FF07F10807BD4680BD00BF80B500AF4FF001004FF6FF71FFF7E0FF2C
S32D00010CB880BD00BF80B483B000AF78600B46FB707B68FA781A707B684FF4FA725A807B6840F6C4129A807B6830
S32D00010CE0044A9A607B68184607F10C07BD4680BC704700BF000080BF80B483B000AF786039603A6840F2F313FC
S32D00010D089A4204DD3A6840F6C4139A4204DD7B684FF4FA725A8003E03B689AB27B685A8007F10C07BD4680BC4E
S32D00010D30704700BF80B483B000AF786039603A6840F2F3139A4204DD3A6840F6C4139A4204DD7B6840F6C412A5
S32D00010D589A8003E03B689AB27B689A8007F10C07BD4680BC704700BFF0B585B000AF786039604FF001031C4624
S32D00010D8038684B49FCF7DAFA0346002B02D14FF000031C46E3B2002B01D0454B3B604FF001031C4638684349D1
S32D00010DA8FCF7E6FA0346002B02D14FF000031C46E3B2002B01D03D4B3B607B689B6818463968FCF7ADFA0346E2
S32D00010DD0002B64D17B683A689A607B685E887B689B881A467B685B88D31A1846FBF762FC02460B461046194637
S32D00010DF82BA3D3E90023FBF7E9FD02460B4614461D463868FBF764FC02460B4620462946FBF7B2FC02460B4658
S32D00010E2010461946FBF76EFF03469BB2F318FB81FB897B73FB894FEA23233B734FF43040C4F20E004FF07F0119
S32D00010E48FEF7F6FB4FF43040C4F20E004FF00501FEF7EEFB7B681B784FF43040C4F20E001946FEF7E5FB3B7B24
S32D00010E704FF43040C4F20E001946FEF7DDFB7B7B4FF43040C4F20E001946FEF7D5FB4FF43040C4F20E004FF069
S32D00010E98FF01FEF7CDFB07F11407BD46F0BD00BF0000000000806640000000000000344380B582B000AF786061
S32D00010EC04FF43043C4F204034FF48072DA604FF42043C4F204034FF480729A644FF42043C4F204034FF48072F3
S32D00010EE81A644FF42043C4F204034FF480725A644FF42043C4F204034FF48072DA604FF28003C4F20F034FF268
S32D00010F108002C4F20F02526942F008025A614FF24003C4F20F034FF24002C4F20F02526942F480225A614FF292
S32D00010F384003C4F20F034FF24002C4F20F02526942F480325A614FF24003C4F20F034FF24002C4F20F02526986
S32D00010F6042F400325A614FF24003C4F20F034FF24002C4F20F02126842F008021A604FF24003C4F20F034FF2EC
S32D00010F884002C4F20F02526942F008025A614FF28003C4F20F034FF28002C4F20F02126842F008021A604FF4F6
S32D00010FB02043C4F204034FF480725A624FF42043C4F204034FF480721A624FF43043C4F204034FF480721A61CA
S32D00010FD84FF43043C4F204034FF480725A614FF43043C4F204034FF480729A614FF43043C4F204034FF480723C
S32D00011000DA614FF43043C4F204034FF480721A634FF43043C4F204034FF480725A634FF43043C4F204034FF446
S32D0001102880729A634FF43043C4F204034FF48072DA634FF43043C4F204034FF480721A644FF43043C4F204032C
S32D000110504FF480725A644FF43043C4F204034FF480729A644FF43043C4F204034FF48072DA644FF44043C4F276
S32D0001107804034FF480721A604FF44043C4F204034FF480729A604FF44043C4F204034FF48072DA604FF4404329
S32D000110A0C4F204034FF480721A614FF24003C4F20F034FF24002C4F20F02526942F440725A614FF28002C4F247
S32D000110C80F024FF28003C4F20F035B6919464FF2F003C0F20F030B4353614FF2C003C4F20F034FF2C002C4F2BA
S32D000110F00F02526942F01D025A6178684FF0E20100F0EAFE78684FF01D0101F029F878684FF0020101F024F8A1
S32D0001111878684FF0040101F01FF878684FF0E00100F0D6FE78684FF0010101F015F84FF06400FEF705FC786820
S32D000111404FF0E00100F0C8FE78684FF0030101F007F878684FF0010100F0BEFE4FF00100FEF7F2FB78684FF089
S32D00011168E60100F0B5FE78684FF0010100F0F4FF78684FF0A00100F0EFFF78684FF0FF0100F0EAFF78684FF015
S32D00011190B00100F0A1FE78684FF01C0100F0E0FF78684FF00F0100F0DBFF78684FF0010100F0D6FF78684FF0E7
S32D000111B83F0100F0D1FF78684FF0000100F0CCFF78684FF0EF0100F0C7FF78684FF0000100F0C2FF78684FF078
S32D000111E0B40100F079FE78684FF0010100F0B8FF78684FF0990100F0B3FF78684FF0000100F0AEFF78684FF0C5
S32D00011208450100F0A9FF78684FF0020100F0A4FF78684FF0000100F09FFF78684FF0000100F09AFF78684FF0AE
S32D00011230000100F095FF78684FF0B60100F04CFE78684FF0010100F08BFF78684FF0090100F086FF78684FF0A2
S32D00011258000100F081FF78684FF00E0100F07CFF78684FF0020100F077FF78684FF0000100F072FF78684FF035
S32D00011280000100F06DFF78684FF0BA0100F024FE78684FF00F0100F063FF4FF06400FEF753FB78684FF03A0135
S32D000112A800F016FE78684FF0600100F055FF78684FF02A0100F00CFE78684FF0000100F04BFF78684FF0000191
S32D000112D000F046FF78684FF0010100F041FF78684FF03F0100F03CFF78684FF02B0100F0F3FD78684FF0000194
S32D000112F800F032FF78684FF0000100F02DFF78684FF0000100F028FF78684FF0EF0100F023FF78684FF03601BC
S32D0001132000F0DAFD78684FF0000100F019FF78684FF0F00100F0D0FD78684FF0040100F00FFF78684FF0B801E8
S32D0001134800F0C6FD78684FF00F0100F005FF78684FF0010100F000FF4FF24003C4F20F034FF24002C4F20F02FA
S32D00011370126842F008021A604FF06400FEF7E4FA78684FF0360100F0A7FD78684FF0000100F0E6FE78684FF0AB
S32D00011398F00100F09DFD78684FF0040100F0DCFE41F23420C1F6FF704FF0010100F03EFA41F23420C1F6FF70FA
S32D000113C04FF06F014FF01E0200F0B2F841F23420C1F6FF704FF056014FF0AF0200F028F941F23420C1F6FF7065
S32D000113E84FF0000100F080FA41F23420C1F6FF7046F63C11C0F201014FF001024FF0010300F09AFA78684FF01A
S32D00011410290100F061FD4FF06400FEF795FA78684FF0BE0100F058FD78684FF00E0100F097FE78684FF0F00128
S32D0001143800F092FE78684FF0010100F08DFE78684FF0000100F088FE78684FF0000100F083FE78684FF00F0113
S32D0001146000F07EFE786800F097FA41F23420C1F6FF704FF0010100F03BFA41F23420C1F6FF704FF0000100F0A0
S32D000114880BFA07F10807BD4680BD00BF80B582B000AF78607B684FF00002DA617B684FF001021A627B684FF01A
S32D000114B00E025A607B684FF01A029A607B684FF000025A617B684FF000029A617B684FF4A072DA607B684FF079
S32D000114D8F0021A617B684FF000021A70786801F08BFD7B68184607F10807BD4680BD00BF80B582B000AF78603C
S32D0001150041F27823C1F6FF731B7883F00103DBB2002B09D041F27823C1F6FF734FF001021A707868FFF7C8FCCD
S32D0001152807F10807BD4680BD80B58AB002AFF860B9607A604FF07E030093F868B9687A684FF0620301F0FAF8A5
S32D0001155040F24E733B614FF00003FB615BE04FF00003BB6143E0FB6903F1010240F20043C1F6FF739B5C002B68
S32D0001157809D14FF0FF03FB754FF0FF03BB754FF0FF037B751CE0FB6903F1010240F20043C1F6FF739B5C012BFF
S32D000115A009D14FF0D403FB754FF00003BB754FF026037B7508E04FF0B503FB754FF0BA03BB754FF0B0037B7595
S32D000115C8F97DBA7D7B7DF86800F00EF90246FB68DA61F86801F010FDF86801F0ADFBBB6903F10103BB6140F251
S32D000115F00043C1F6FF73FA699B181B781A46BB699A42D4BF00230123DBB2002BABD1FB6903F10203FB61FA692D
S32D000116183B699A42ACBF00230123DBB2002B9AD107F12007BD4680BD80B58AB002AFF860B9607A604FF027031B
S32D000116400093F868B9687A684FF0950301F07AF840F2E6333B614FF00003FB615BE04FF00003BB6143E0FB69A6
S32D0001166803F1010240F65033C1F6FF739B5C002B09D14FF0FF03FB754FF0FF03BB754FF0FF037B751CE0FB69CB
S32D0001169003F1010240F65033C1F6FF739B5C012B09D14FF00003FB754FF00003BB754FF000037B7508E04FF0D8
S32D000116B8D403FB754FF00003BB754FF026037B75F97DBA7D7B7DF86800F08EF80246FB68DA61F86801F090FCB4
S32D000116E0F86801F02DFBBB6903F10103BB6140F65033C1F6FF73FA699B181B781A46BB699A42D4BF0023012365
S32D00011708DBB2002BABD1FB6903F10203FB61FA693B699A42ACBF00230123DBB2002B9AD107F12007BD4680BDAE
S32D0001173080B485B000AF78600B46FB70FB78062B2ED801A252F823F06D17010065170100751701007D17010010
S32D00011758851701008D170100951701006FF07F43FB6019E04FF00003FB6015E04FF47F03FB6011E04FF47F4356
S32D00011780FB600DE04FF0FF03FB6009E04FF41903FB6005E049F69913C0F29903FB6000BFFB68184607F11407A7
S32D000117A8BD4680BC704700BF80B584B000AF786039603B6803F47F034FEA1343FB733B6803F47F434FEA1323F0
S32D000117D0BB733B687B73F97BBA7B7B7B786800F007F80346184607F11007BD4680BD00BF80B487B000AF786016
S32D000117F8F970BA707B70FB784FEAA3037B61BB784FEAA3033B617B784FEAA303FB607B694FEA03323B694FEA0C
S32D0001182083131A43FB681343184607F11C07BD4680BC704780B582B000AF78600B46FB70FB7878681946FFF72C
S32D0001184873FF03467868194600F004F807F10807BD4680BD80B582B000AF7860396078683968FFF7A1FF02465E
S32D000118707B681A62786801F0C3FB786800F09AFD07F10807BD4680BD80B582B000AF7860786800F08FFD07F16B
S32D000118980807BD4680BD00BF80B582B000AF78600B46FB70FB7878681946FFF73DFF03467868194600F004F811
S32D000118C007F10807BD4680BD80B582B000AF7860396078683968FFF76BFF02467B681A62786801F08DFB07F152
S32D000118E80807BD4680BD00BF80B582B000AF78600B46FB70FB7878681946FFF715FF03467868194600F004F8E9
S32D0001191007F10807BD4680BD80B582B000AF7860396078683968FFF743FF02467B68DA61786801F065FB07F192
S32D000119380807BD4680BD00BF80B586B000AFF860B9607A603B604FF000037B6110E07B69BA68D3181B78F86880
S32D0001196079683A6801F052F87B6803F10C037B607B6903F101037B617B69BA68D3181B78002B0CBF0023012360
S32D00011988DBB2002BE3D107F11807BD4680BD00BF80B582B000AF7860FDF7B6FC4FF001004FF06701FDF706FC3D
S32D000119B04FF002004FF00001FDF700FC4FF003004FF0A001FDF7FAFB4FF004004FF05001FDF7F4FB4FF0050092
S32D000119D84FF02001FDF7EEFB4FF006004FF02001FDF7E8FB4FF007004FF07701FDF7E2FB4FF008004FF00001D2
S32D00011A00FDF7DCFB4FF009004FF00001FDF7D6FB4FF00A004FF00001FDF7D0FB4FF00B004FF00401FDF7CAFB10
S32D00011A287B684FF0FF32DA637B684FF0FF321A6407F10807BD4680BD80B586B000AFF860B9607A604FF0000043
S32D00011A50FDF7D8FB0346FB75FB7D03F00203002B00F0E380FDF7ECFB4FF0E000FDF798FBFDF7F8FB4FF0020050
S32D00011A78FDF766FFFDF7E0FB4FF0A500FDF78CFBFDF7B2FB03464FEA0323BB82FDF7ACFB03461A46BB8A134353
S32D00011AA0BB82FDF7A5FB03464FEA03237B82FDF79FFB03461A467B8A13437B82BB8A4FEA2313BB827B8A4FEAE3
S32D00011AC823137B82FDF7CAFBFB68DB6BB3F1FF3F3DD1FB681B6CB3F1FF3F38D1BA8AFB68DA637A8AFB681A64CC
S32D00011AF07B8AC3F57E6303F11F037B82BB8A1846FAF7D8FD02460B461046194652A3D3E90023FAF735FE02461F
S32D00011B180B4610461946FBF711F90246BB681A607B8A1846FAF7C2FD02460B461046194649A3D3E90023FAF79A
S32D00011B401FFE02460B4610461946FBF7FBF802467B681A6066E0FB68DA6BBB8AD31AF868194600F085F80346EC
S32D00011B68632B0DDCFB681A6C7B8AD31AF868194600F07AF80346632B02DC4FF0010301E04FF00003002B38D08D
S32D00011B90BA8AFB68DA637A8AFB681A647B8AC3F57E6303F11F037B82BB8A1846FAF782FD02460B46104619464B
S32D00011BB827A3D3E90023FAF7DFFD02460B4610461946FBF7BBF80246BB681A607B8A1846FAF76CFD02460B465A
S32D00011BE0104619461EA3D3E90023FAF7C9FD02460B4610461946FBF7A5F802467B681A6010E0BB68184A1A6059
S32D00011C087B68174A1A60FB684FF0FF32DA63FB684FF0FF321A644FF0000312E04FF001030FE0BB680E4A1A6033
S32D00011C307B680D4A1A60FB684FF0FF32DA63FB684FF0FF321A644FF00003184607F11807BD4680BDAFF3008057
S32D00011C58144001144001B43F1EE0011EE001AE3F000080BFAFF3008080B483B000AF786039603B68002B03DA42
S32D00011C803B68C3F100033B603B68184607F10C07BD4680BC704700BF80B584B000AF786039604FF00003FB6059
S32D00011CA8786800F0AFFC11E07B6859697B689A69FB683868C3181B78786800F083FE786800F0B6FCFB6803F17B
S32D00011CD00103FB60FB683A68D3181B78002B0CBF00230123DBB2002BE2D107F11007BD4680BD00BF80B590B0D8
S32D00011CF800AF7860396007F10C03184646F64811C0F201013A6803F0B5FC07F10C0378681946FFF7BDFF07F1B9
S32D00011D204007BD4680BD00BF90B593B000AF786039604FF001031C4638683049FBF712FB0346002B02D14FF063
S32D00011D4800031C46E3B2002B23D03868FBF71AFB03467B64786CFBF7FBF8034638681946FBF740F803461846A3
S32D00011D702349FBF745F903461846FBF707FB03463B6407F10C03184646F65811C0F201017A6C3B6C03F072FC79
S32D00011D9826E03B6883F000433B603868FBF7F2FA03467B64786CFBF7D3F8034638681946FBF718F803461846EA
S32D00011DC00F49FBF71DF903461846FBF7DFFA03463B6407F10C03184646F64C11C0F201017A6C3B6C03F04AFCC2
S32D00011DE807F10C0378681946FFF752FF07F14C07BD4690BD0000000000007A4480B582B000AF78600B46FB703C
S32D00011E10786800F0FBFB7B6859697B689A69FB78786800F0D3FD786800F006FC07F10807BD4680BD80B582B0BF
S32D00011E3800AF78603960786800F0E4FB78683968FFF726FF786800F0C5FB07F10807BD4680BD00BF80B582B013
S32D00011E6000AF78603960786800F0D0FB78683968FFF740FF786800F0B1FB07F10807BD4680BD00BF80B582B0F9
S32D00011E8800AF78603960786800F0BCFB78683968FFF746FF786800F09DFB07F10807BD4680BD00BF80B582B0F3
S32D00011EB000AF78600B46FB70786800F0A7FBFB7878681946FFF79EFF786800F087FB07F10807BD4680BD00BFB1
S32D00011ED880B483B000AF78600B46FB704FF28003C4F20F034FF28002C4F20F02126822F008021A604FF2400387
S32D00011F00C4F20F034FF24002C4F20F02126822F480221A604FF24003C4F20F034FF24002C4F20F02126842F4AE
S32D00011F2880321A604FF24003C4F20F034FF24002C4F20F02126822F440721A604FF28003C4F20F034FF28002BD
S32D00011F50C4F20F02126822F4425222F070021A604FF24003C4F20F034FF24002C4F20F0212681146FA7802F0AE
S32D00011F780102D2B2002A02D04FF4007201E04FF000020A431A604FF24003C4F20F034FF24002C4F20F02126809
S32D00011FA01146FA7802F00202002A02D04FF4807201E04FF000020A431A604FF28003C4F20F034FF28002C4F234
S32D00011FC80F0212681146FA7802F00402002A02D04FF0100201E04FF000020A431A604FF28003C4F20F034FF29B
S32D00011FF08002C4F20F0212681146FA7802F00802002A02D04FF0200201E04FF000020A431A604FF28003C4F27A
S32D000120180F034FF28002C4F20F0212681146FA7802F01002002A02D04FF0400201E04FF000020A431A604FF20F
S32D000120408003C4F20F034FF28002C4F20F0212681146FA7802F02002002A02D04FF0800201E04FF000020A4319
S32D000120681A604FF28003C4F20F034FF28002C4F20F0212681146FA7802F04002002A02D04FF4805201E04FF011
S32D0001209000020A431A604FF28003C4F20F034FF28002C4F20F0212681146FA7852B2002A02DA4FF4005201E07F
S32D000120B84FF000020A431A604FF24003C4F20F034FF24002C4F20F02126822F400321A604FF24003C4F20F03D3
S32D000120E04FF24002C4F20F02126842F400321A604FF28003C4F20F034FF28002C4F20F02126842F008021A60E5
S32D000121084FF24003C4F20F034FF24002C4F20F02126842F440721A604FF28003C4F20F034FF28002C4F20F0220
S32D00012130126842F4425242F070021A604FF24003C4F20F034FF24002C4F20F02126842F480221A6007F10C07B1
S32D00012158BD4680BC704700BF80B483B000AF78600B46FB704FF28003C4F20F034FF28002C4F20F02126822F057
S32D0001218008021A604FF24003C4F20F034FF24002C4F20F02126842F480321A604FF24003C4F20F034FF240026B
S32D000121A8C4F20F02126842F480221A604FF24003C4F20F034FF24002C4F20F02126822F440721A604FF280035F
S32D000121D0C4F20F034FF28002C4F20F02126822F4425222F070021A604FF24003C4F20F034FF24002C4F20F02D6
S32D000121F812681146FA7802F00102D2B2002A02D04FF4007201E04FF000020A431A604FF24003C4F20F034FF2D5
S32D000122204002C4F20F0212681146FA7802F00202002A02D04FF4807201E04FF000020A431A604FF28003C4F2B9
S32D000122480F034FF28002C4F20F0212681146FA7802F00402002A02D04FF0100201E04FF000020A431A604FF219
S32D000122708003C4F20F034FF28002C4F20F0212681146FA7802F00802002A02D04FF0200201E04FF000020A435F
S32D000122981A604FF28003C4F20F034FF28002C4F20F0212681146FA7802F01002002A02D04FF0400201E04FF0A3
S32D000122C000020A431A604FF28003C4F20F034FF28002C4F20F0212681146FA7802F02002002A02D04FF08002FC
S32D000122E801E04FF000020A431A604FF28003C4F20F034FF28002C4F20F0212681146FA7802F04002002A02D055
S32D000123104FF4805201E04FF000020A431A604FF28003C4F20F034FF28002C4F20F0212681146FA7852B2002A19
S32D0001233802DA4FF4005201E04FF000020A431A604FF24003C4F20F034FF24002C4F20F02126822F400321A604A
S32D000123604FF24003C4F20F034FF24002C4F20F02126842F400321A604FF28003C4F20F034FF28002C4F20F0246
S32D00012388126842F008021A604FF24003C4F20F034FF24002C4F20F02126822F480221A6007F10C07BD4680BC6A
S32D000123B0704700BF80B586B000AF78607B684FF000025A617B684FF000029A617B681B6AFB60FB68FB72FB68A2
S32D000123D84FEA1323BB72FB684FEA1343DBB203F003037B7278684FF02A01FFF771FD78684FF00001FFF7B0FE63
S32D0001240078684FF00001FFF7ABFE78684FF00101FFF7A6FE78684FF03F01FFF7A1FE78684FF02B01FFF758FDA9
S32D0001242878684FF00001FFF797FE78684FF00001FFF792FE78684FF00001FFF78DFE78684FF0EF01FFF788FE08
S32D0001245078684FF02C01FFF73FFD4FF24003C4F20F034FF24002C4F20F02126822F440721A604FF28002C4F214
S32D000124780F024FF28003C4F20F031B68194640F60F73CFF6F0730B4013604FF2C003C4F20F034FF2C002C4F293
S32D000124A00F02126822F01D021A604FF24003C4F20F034FF24002C4F20F02126811467A68126B0A431A604FF209
S32D000124C88003C4F20F034FF28002C4F20F02126811467A68526B0A431A604FF2C003C4F20F034FF2C002C4F254
S32D000124F00F02126811467A68926B0A431A604FF28003C4F20F034FF28002C4F20F02126822F008021A604FF2CE
S32D000125184003C4F20F034FF24002C4F20F02126842F480221A604FF000037B612DE04FF000033B611BE04FF22E
S32D000125404003C4F20F034FF24002C4F20F02126822F400321A604FF24003C4F20F034FF24002C4F20F021268CB
S32D0001256842F400321A603B6903F101033B613A6940F23F139A428CBF00230123DBB2002BD9D17B6903F1010357
S32D000125907B617B69EF2B8CBF00230123DBB2002BC9D14FF28003C4F20F034FF28002C4F20F02126842F0080292
S32D000125B81A604FF24003C4F20F034FF24002C4F20F02126822F480221A6007F11807BD4680BD00BF80B483B0BB
S32D000125E000AF78607B689B69002B09DD7B685B6903F101027B685A617B684FF000029A6107F10C07BD4680BCA8
S32D00012608704700BF80B582B000AF78607B685A697B685B689A4206DB7B684FF000025A617868FFF7C3FE07F1C8
S32D000126300807BD4680BD00BF80B582B000AF78607B689B6903F101027B689A617B689A697B689B689A4205D145
S32D000126587868FFF7BFFF7868FFF7D4FF07F10807BD4680BD80B586B002AFF860B9607A604FF001030093F86832
S32D00012680B9687A684FF0010300F05CF8F86800F057FB07F11007BD4680BD00BF80B485B000AF786039607B6885
S32D000126A81B68FB603B681A687B681A603B68FA681A6007F11407BD4680BC704780B586B002AFF860B9607A60B4
S32D000126D03B60BA683B68D3187A680092F868B9687A6800F0B5F8BA683B68D218B9683B68CB187868B96941186B
S32D000126F80091F86811467A6800F0A6F8BA683B68D2187968BB69CB187868B96941180091F86811461A46BB683E
S32D0001272000F096F87A68BB69D3187A680092F868B9681A46BB6800F08BF807F11007BD4680BD00BF80B588B0B5
S32D0001274800AFF860B9607A603B60FB681B78022B03D0FB681B78032B13D17B68FB61BA6AFB69D31803F1FF33F7
S32D00012770BB61FB68DA68BB68D31A3B613B683A69D31A03F101037B610FE0BB68FB613A68FB69D31803F1FF3341
S32D00012798BB617B687B61BA6A7B69D31803F1FF333B61F8684FF02A01FFF792FBFB6903F470634FEA1323DBB20B
S32D000127C0F8681946FFF7CCFCFB69DBB2F8681946FFF7C6FCBB6903F470634FEA1323DBB2F8681946FFF7BCFCAE
S32D000127E8BB69DBB2F8681946FFF7B6FCF8684FF02B01FFF76DFB7B6903F470634FEA1323DBB2F8681946FFF722
S32D00012810A7FC7B69DBB2F8681946FFF7A1FC3B6903F470634FEA1323DBB2F8681946FFF797FC3B69DBB2F868F0
S32D000128381946FFF791FCF8684FF02C01FFF748FB07F12007BD4680BD90B58BB000AFF860B9607A603B603A6874
S32D00012860BB68D31AF8681946FFF702FA0346FB61BA6B7B68D31AF8681946FFF7F9F90346BB61BA69FB699A427F
S32D00012888D4BF00230123FB75FB7D002B0DD007F1080207F1040310461946FFF7FBFE3B46184607F13801FFF7AC
S32D000128B0F5FEBA683B689A420DDD07F108023B4610461946FFF7EAFE07F10403184607F13801FFF7E3FE3A685E
S32D000128D8BB689A4207D1BA687B68F86811461A46FFF7C0FE69E0BA6B7B68D31A1846FAF72FFB04463A68BB6864
S32D00012900D31A1846FAF728FB034620461946FAF72BFC03463B617B681846FAF71DFB03467B62BB683B6243E0EB
S32D00012928FB7D002B1BD0786AF9F7D2FE02460B46104619464FF000024FF07E5303F5C003F9F768FD02460B4608
S32D0001295010461946FAF7AEF90346F86819463A6AFFF784FE1AE0786AF9F7B6FE02460B46104619464FF00002D8
S32D000129784FF07E5303F5C003F9F74CFD02460B4610461946FAF792F90346F868396A1A46FFF768FE786A3969D6
S32D000129A0FAF726FA03467B623B6A03F101033B623B683A6A9A42CCBF00230123DBB2002BB2D107F12C07BD4639
S32D000129C890BD00BF80B584B000AFF860B9607A60FB707A6813464FEA43039B184FEA830303F10201BA68134668
S32D000129F04FEA03139B1803F10302FB78F86800F005F807F11007BD4680BD00BF80B58EB002AFF860B9607A6080
S32D00012A18FB70FB780A2B06D1F868FFF7F3FDF868FFF7D8FD25E1FB787D2B02D8FB781F2B02D84FF02003FB70D5
S32D00012A40FB78A3F12003FB704FF011030093F868B9687A684FF00C03FFF774FEFA7813464FEA83039A1840F661
S32D00012A683873C1F6FF739B5C3B75FA7813464FEA83039B1803F1010240F63873C1F6FF739B5C7B75FA781346D4
S32D00012A904FEA83039B1803F1020240F63873C1F6FF739B5CBB75FA7813464FEA83039B1803F1030240F6387365
S32D00012AB8C1F6FF739B5CFB75FA7813464FEA83039B1803F1040240F63873C1F6FF739B5C3B764FF00003BB6217
S32D00012AE0A8E0F86800F0DCF9F86800F0CBF84FF0000387F82F304FF000037B6231E007F114027B6AD3181B7846
S32D00012B0803F00103FB76FB7E002B11D097F82F3083F00103DBB2002B03D0F86800F00CF902E0F86800F0AAF898
S32D00012B30F86800F0A7F80DE097F82F30002B03D0F86800F0ADF902E0F86800F09BF8F86800F098F8FB7E87F81B
