S01600002E2E2F506572666F726D616E6365322E733139AF
S32D0000C0000000002005E9000061EC000061EC000061EC000061EC000061EC000000000000000000000000000083
S32D0000C0280000000061EC000061EC00000000000061EC000061EC000061EC000061EC000061EC000061EC000082
S32D0000C05061EC000061EC000061EC000061EC000061EC000061EC000061EC000061EC000061EC000061EC0000C0
S32D0000C07861EC000061EC000061EC000061EC000061EC000061EC000061EC000061EC000061EC000061EC000098
S32D0000C0A061EC000061EC000061EC000061EC000061EC000061EC000061EC000061EC000061EC000061EC000070
S32D0000C0C861EC000061EC000061EC000061EC000061EC000061EC000061EC000061EC000061EC000061EC000048
S32D0000C0F061EC0000413F010061EC000061EC000061EC000061EC000061EC000061EC000061EC000061EC0000EC
S32D0000C11861EC000061EC000061EC000061EC000061EC000061EC000061EC000061EC000061EC000061EC0000F7
S32D0000C14061EC000061EC000061EC000061EC00003D09010061EC000061EC000061EC000061EC000061EC0000D5
S32D0000C16861EC000061EC000061EC000061EC000061EC000061EC000061EC000061EC000061EC000061EC0000A7
S32D0000C19061EC000061EC000061EC00009D030100F1010100C5020100B1EC00007504010061EC000061EC00008D
S32D0000C1B861EC000061EC000061EC000061EC000061EC000061EC000061EC000061EC000061EC000061EC000057
S32D0000C41081F0004102E000BF83F0004330B54FEA41044FEA430594EA050F08BF90EA020F1FBF54EA000C55EAC6
S32D0000C438020C7FEA645C7FEA655C00F0E2804FEA5454D4EB5555B8BF6D420CDD2C4480EA020281EA030382EA0F
S32D0000C460000083EA010180EA020281EA0303362D88BF30BD11F0004F4FEA01314FF4801C4CEA113102D0404263
S32D0000C48861EB410113F0004F4FEA03334CEA133302D0524263EB430394EA050F00F0A780A4F10104D5F1200E8A
S32D0000C4B00DDB02FA0EFC22FA05F2801841F1000103FA0EF2801843FA05F359410EE0A5F120050EF1200E012A2D
S32D0000C4D803FA0EFC28BF4CF0020C43FA05F3C01851EBE37101F0004507D54FF0000EDCF1000C7EEB00006EEB67
S32D0000C5000101B1F5801F1BD3B1F5001F0CD349085FEA30004FEA3C0C04F101044FEA445212F5800F80F09A8000
S32D0000C528BCF1004F08BF5FEA500C50F1000041EB045141EA050130BD5FEA4C0C404141EB010111F4801FA4F114
S32D0000C5500104E9D191F0000F04BF01460020B1FA81F308BF2033A3F10B03B3F120020CDA0C3208DD02F1140C87
S32D0000C578C2F10C0201FA0CF021FA02F10CE002F11402D8BFC2F1200C01FA02F120FA0CFCDCBF41EA0C019040B1
S32D0000C5A0E41AA2BF01EB0451294330BD6FEA04041F3C1CDA0C340EDC04F11404C4F1200220FA04F001FA02F3B6
S32D0000C5C840EA030021FA04F345EA030130BDC4F10C04C4F1200220FA02F001FA04F340EA0300294630BD21FAA8
S32D0000C5F004F0294630BD94F0000F83F4801306BF81F480110134013D4EE77FEA645C18BF7FEA655C29D094EA1C
S32D0000C618050F08BF90EA020F05D054EA000C04BF1946104630BD91EA030F1EBF0021002030BD5FEA545C05D1A3
S32D0000C6404000494128BF41F0004130BD14F580043CBF01F5801130BD01F0004545F0FE4141F470014FF0000031
S32D0000C66830BD7FEA645C1ABF194610467FEA655C1CBF0B46024650EA013406BF52EA033591EA030F41F40021D7
S32D0000C69030BD00BF90F0000F04BF0021704730B54FF4806404F132044FF000054FF0000150E700BF90F0000F66
S32D0000C6B804BF0021704730B54FF4806404F1320410F0004548BF40424FF000013EE700BF42004FEAE2014FEAF9
S32D0000C6E031014FEA02701FBF12F07F4393F07F4F81F06051704792F0000F14BF93F07F4F704730B54FF460741B
S32D0000C70801F0004521F0004120E700BF50EA010208BF704730B54FF000050AE050EA010208BF704730B511F046
S32D0000C730004502D5404261EB41014FF4806404F132045FEA915C3FF4DCAE4FF003025FEADC0C18BF03325FEAA0
S32D0000C758DC0C18BF033202EBDC02C2F1200300FA03FC20FA02F001FA03FE40EA0E0021FA02F11444C1E600BF19
S32D0000C78070B54FF0FF0C4CF4E06C1CEA11541DBF1CEA135594EA0C0F95EA0C0F00F0DEF82C4481EA030621EAF3
S32D0000C7A84C5123EA4C5350EA013518BF52EA033541F4801143F4801338D0A0FB02CE4FF00005E1FB02E506F05F
S32D0000C7D00042E0FB03E54FF00006E1FB03569CF0000F18BF4EF0010EA4F1FF04B6F5007F64F5407404D25FEA0F
S32D0000C7F84E0E6D4146EB060642EAC62141EA55514FEAC52040EA5E504FEACE2EB4F1FD0C88BFBCF5E06F1ED8D2
S32D0000C820BEF1004F08BF5FEA500E50F1000041EB045170BD06F0004646EA010140EA020081EA0301B4EB5C0487
S32D0000C848C2BFD4EB0C0541EA045170BD41F480114FF0000E013C00F3AB8014F1360FDEBF002001F0004170BDF0
S32D0000C870C4F10004203C35DA0C341BDC04F11404C4F1200500FA05F320FA04F001FA05F240EA020001F0004207
S32D0000C89821F0004110EBD37021FA04F642EB06015EEA430E08BF20EAD37070BDC4F10C04C4F1200500FA04F32F
S32D0000C8C020FA05F001FA04F240EA020001F0004110EBD37041F100015EEA430E08BF20EAD37070BDC4F12005C7
S32D0000C8E800FA05F24EEA020E20FA04F301FA05F243EA020321FA04F001F0004121FA04F220EA020000EBD37028
S32D0000C9105EEA430E08BF20EAD37070BD94F0000F0FD101F00046400041EB010111F4801F08BF013CF7D041EA6D
S32D0000C938060195F0000F18BF704703F00046520043EB030313F4801F08BF013DF7D043EA0603704794EA0C0FF1
S32D0000C9600CEA135518BF95EA0C0F0CD050EA410618BF52EA4306D1D181EA030101F000414FF0000070BD50EA38
S32D0000C988410606BF1046194652EA430619D094EA0C0F02D150EA013613D195EA0C0F05D152EA03361CBF10467B
S32D0000C9B019460AD181EA030101F0004141F0FE4141F470014FF0000070BD41F0FE4141F4780170BD70B54FF04D
S32D0000C9D8FF0C4CF4E06C1CEA11541DBF1CEA135594EA0C0F95EA0C0F00F0A7F8A4EB050481EA030E52EA03359B
S32D0000CA004FEA013100F088804FEA03334FF0805545EA131343EA12634FEA022245EA111545EA10654FEA002676
S32D0000CA280EF000419D4208BF964244F1FD0404F5407402D25B084FEA3202B61A65EB03055B084FEA32024FF461
S32D0000CA5080104FF4002CB6EB020E75EB030E22BFB61A754640EA0C005B084FEA3202B6EB020E75EB030E22BF22
S32D0000CA78B61A754640EA5C005B084FEA3202B6EB020E75EB030E22BFB61A754640EA9C005B084FEA3202B6EBEA
S32D0000CAA0020E75EB030E22BFB61A754640EADC0055EA060E18D04FEA051545EA16754FEA06164FEAC30343EAAC
S32D0000CAC852734FEAC2025FEA1C1CC0D111F4801F0BD141EA00014FF000004FF0004CB6E711F4801F04BF0143AE
S32D0000CAF00020B4F1FD0C88BFBCF5E06F3FF6AFAEB5EB030C04BFB6EB020C5FEA500C50F1000041EB045170BDBC
S32D0000CB180EF0004E4EEA113114EB5C04C2BFD4EB0C0541EA045170BD41F480114FF0000E013C90E645EA060EC3
S32D0000CB408DE60CEA135594EA0C0F08BF95EA0C0F3FF43BAF94EA0C0F0AD150EA01347FF434AF95EA0C0F7FF499
S32D0000CB6825AF104619462CE795EA0C0F06D152EA03353FF4FDAE1046194622E750EA410618BF52EA43067FF432
S32D0000CB90C5AE50EA41047FF40DAF52EA43057FF4EBAE12E74FF0FF3C06E000BF4FF0010C02E000BF4FF0010C75
S32D0000CBB84DF804CD4FEA410C7FEA6C5C4FEA430C18BF7FEA6C5C1BD001B050EA410C0CBF52EA430C91EA030FEC
S32D0000CBE002BF90EA020F0020704710F1000F91EA030F58BF994208BF90422CBFD8176FEAE37040F0010070476E
S32D0000CC084FEA410C7FEA6C5C02D150EA013C07D14FEA430C7FEA6C5CD6D152EA033CD3D05DF8040B704700BFCD
S32D0000CC308446104662468C461946634600E000BF01B5FFF7B7FF002848BF10F1000F01BD4DF808EDFFF7F4FF13
S32D0000CC580CBF012000205DF808FB00BF4DF808EDFFF7EAFF34BF012000205DF808FB00BF4DF808EDFFF7E0FF18
S32D0000CC8094BF012000205DF808FB00BF4DF808EDFFF7CEFF94BF012000205DF808FB00BF4DF808EDFFF7C4FF40
S32D0000CCA834BF012000205DF808FB00BF4FEA410212F5001215D211D56FF47873B3EB625212D94FEAC12343F0D6
S32D0000CCD0004343EA505311F0004F23FA02F018BF404270474FF00000704750EA013005D111F0004008BF6FF016
S32D0000CCF8004070474FF00000704700BF4A0011D212F5001211D20DD56FF47873B3EB62520ED44FEAC12343F085
S32D0000CD20004343EA505323FA02F070474FF00000704750EA013002D14FF0FF3070474FF0000070474FEA410241
S32D0000CD48B2F1E04324BFB3F5001CDCF1FE5C0DD901F0004C4FEAC0024CEA5070B2F1004F40EB830008BF20F09E
S32D0000CD700100704711F0804F21D113F13872BCBF01F00040704741F480114FEA5252C2F11802C2F1200C10FAB1
S32D0000CD980CF320FA02F018BF40F001004FEAC1234FEAD32303FA0CFC40EA0C0023FA02F34FEA4303CCE77FEA26
S32D0000CDC0625307D150EA01331EBF4FF0FE4040F44000704701F0004040F0FE4040F40000704700BF80F00040CC
S32D0000CDE802E000BF81F0004142001FBF5FEA410392EA030F7FEA226C7FEA236C6AD04FEA1262D2EB1363C1BF06
S32D0000CE10D218414048404140B8BF5B42192B88BF704710F0004F40F4000020F07F4018BF404211F0004F41F4FA
S32D0000CE38000121F07F4118BF494292EA030F3FD0A2F1010241FA03FC10EB0C00C3F1200301FA03F100F000432B
S32D0000CE6002D5494260EB4000B0F5000F13D3B0F1807F06D340084FEA310102F10102FE2A51D2B1F1004F40EB94
S32D0000CE88C25008BF20F0010040EA03007047490040EB000010F4000FA2F10102EDD1B0FA80FCACF1080CB2EB5F
S32D0000CEB00C0200FA0CF0AABF00EBC25052421843BCBFD0401843704792F0000F81F4000106BF80F400000132EB
S32D0000CED8013BB5E74FEA41037FEA226C18BF7FEA236C21D092EA030F04D092F0000F08BF0846704790EA010FD7
S32D0000CF001CBF0020704712F07F4F04D1400028BF40F00040704712F100723CBF00F50000704700F0004343F0DC
S32D0000CF28FE4040F4000070477FEA226216BF08467FEA23630146420206BF5FEA412390EA010F40F480007047C1
S32D0000CF504FF0000304E000BF10F0004348BF40425FEA000C08BF704743F0964301464FF000001CE050EA010264
S32D0000CF7808BF70474FF000030AE000BF50EA010208BF704711F0004302D5404261EB41015FEA010C02BF84465B
S32D0000CFA00146002043F0B64308BFA3F18053A3F50003BCFA8CF2083AA3EBC25310DB01FA02FC634400FA02FC6B
S32D0000CFC8C2F12002BCF1004F20FA02F243EB020008BF20F00100704702F1200201FA02FCC2F1200250EA4C0034
S32D0000CFF021FA02F243EB020008BF20EADC7070474FF0FF0C1CEAD0521EBF1CEAD15392EA0C0F93EA0C0F6FD019
S32D0000D0181A4480EA010C400218BF5FEA41211ED04FF0006343EA501043EA5111A0FB01310CF00040B1F5000FE7
S32D0000D0403EBF490041EAD3715B0040EA010062F17F02FD2A1DD8B3F1004F40EBC25008BF20F00100704790F058
S32D0000D068000F0CF0004C08BF49024CEA502040EA51207F3AC2BFD2F1FF0340EAC250704740F400004FF0000388
S32D0000D090013A5DDC12F1190FDCBF00F000407047C2F10002410021FA02F1C2F1200200FA02FC5FEA310040F1D5
S32D0000D0B8000053EA4C0308BF20EADC70704792F0000F00F0004C02BF400010F4000F013AF9D040EA0C0093F04C
S32D0000D0E0000F01F0004C02BF490011F4000F013BF9D041EA0C018FE70CEAD15392EA0C0F18BF93EA0C0F0AD00B
S32D0000D10830F0004C18BF31F0004CD8D180EA010000F00040704790F0000F17BF90F0004F084691F0000F91F0BB
S32D0000D130004F14D092EA0C0F01D142020FD193EA0C0F03D14B0218BF084608D180EA010000F0004040F0FE4051
S32D0000D15840F40000704740F0FE4040F4400070474FF0FF0C1CEAD0521EBF1CEAD15392EA0C0F93EA0C0F69D044
S32D0000D180A2EB030280EA010C49024FEA402037D04FF0805343EA111143EA10130CF000408B4238BF5B0042F14E
S32D0000D1A87D024FF4000C8B4224BF5B1A40EA0C00B3EB510F24BFA3EB510340EA5C00B3EB910F24BFA3EB9103A4
S32D0000D1D040EA9C00B3EBD10F24BFA3EBD10340EADC001B0118BF5FEA1C1CE0D1FD2A3FF650AF8B4240EBC25018
S32D0000D1F808BF20F0010070470CF0004C4CEA50207F32C2BFD2F1FF0340EAC250704740F400004FF00003013AF1
S32D0000D22037E792F0000F00F0004C02BF400010F4000F013AF9D040EA0C0093F0000F01F0004C02BF490011F4C9
S32D0000D248000F013BF9D041EA0C0195E70CEAD15392EA0C0F08D142027FF47DAF93EA0C0F7FF470AF084676E7AE
S32D0000D27093EA0C0F04D14B023FF44CAF08466EE730F0004C18BF31F0004CCAD130F000427FF45CAF31F0004376
S32D0000D2987FF43CAF5FE700BF4FF0FF3C06E000BF4FF0010C02E000BF4FF0010C4DF804CD4FEA40024FEA41039F
S32D0000D2C07FEA226C18BF7FEA236C11D001B052EA530C18BF90EA010F58BFB2EB030088BFC81738BF6FEAE1706E
S32D0000D2E818BF40F0010070477FEA226C02D15FEA402C05D17FEA236CE4D15FEA412CE1D05DF8040B704700BF16
S32D0000D310844608466146FFE70FB5FFF7C9FF002848BF10F1000F0FBD4DF808EDFFF7F4FF0CBF012000205DF839
S32D0000D33808FB00BF4DF808EDFFF7EAFF34BF012000205DF808FB00BF4DF808EDFFF7E0FF94BF012000205DF8A9
S32D0000D36008FB00BF4DF808EDFFF7D2FF94BF012000205DF808FB00BF4DF808EDFFF7C8FF34BF012000205DF8B1
S32D0000D38808FB00BF4FEA4002B2F1FE4F0FD34FF09E03B3EB12620DD94FEA002343F0004310F0004F23FA02F060
S32D0000D3B018BF404270474FF00000704712F1610F01D1420205D110F0004008BF6FF0004070474FF00000704797
S32D0000D3D880B500AF00BF41F24810C1F6FF7003F00BFC034683F00103DBB2002BF3D141F24810C1F6FF7003F0F9
S32D0000D400FFFB0346002BF6D180BD00BF80B582B000AF78607868FFF79FFD034641F23810C1F6FF70194601F033
S32D0000D4281BFD7B6803F101031846FFF791FD034641F24010C1F6FF70194601F00DFD07F10807BD4680BD00BFAF
S32D0000D45080B582B000AF78607868FFF77DFD034641F23810C1F6FF70194601F0F9FC7B68C3F100031846FFF753
S32D0000D4786FFD034641F24010C1F6FF70194601F0EBFC07F10807BD4680BD00BF80B582B000AF78607B68C3F166
S32D0000D4A000031846FFF758FD034641F23810C1F6FF70194601F0D4FC7868FFF74DFD034641F24010C1F6FF7096
S32D0000D4C8194601F0C9FC07F10807BD4680BD00BF80B500AF41F23810C1F6FF7001F06CFC41F24010C1F6FF7094
S32D0000D4F001F066FC4FF000004FF07E5101F5C00102F046FA80BD00BF80B500AF41F24C10C1F6FF7003F02AF8DB
S32D0000D51841F25010C1F6FF7003F024F880BD00BF98B500AF41F25010C1F6FF7003F006F8034683EAE374A4EBDF
S32D0000D540E37441F24C10C1F6FF7002F0FBFF0346002BB8BF5B42E3181846FFF7ABF802460B46104619464FF0BE
S32D0000D56800024FF08043FFF731FA02460B4610461946FFF79BFB0346184698BD0000000080B586B000AFF86028
S32D0000D590C7E90023D7E900011BA3D3E90023FFF7EFF802460B461046194619A3D3E90023FFF710FA02460B46DD
S32D0000D5B810461946FFF77AFB03467B61FFF7A0FFF868FFF71FFF09E0FFF7AAFF034641F21820C1F6FF70194636
S32D0000D5E004F01CFCFFF7A0FF02467B699A42ACBF00230123DBB2002BEAD1FFF76DFF07F11807BD4680BD00BFD7
S32D0000D6080000000000E073400BD7A3703D6A1F4080B582B000AF78603960FFF771FF7868FFF712FF09E0FFF7B3
S32D0000D6307BFF034641F21820C1F6FF70194604F0EDFBFFF771FF02463B689A42ACBF00230123DBB2002BEAD1EB
S32D0000D658FFF73EFF07F10807BD4680BD80B582B000AF78603960FFF74BFF7868FFF70EFF09E0FFF755FF034604
S32D0000D68041F21820C1F6FF70194604F0C7FBFFF74BFF02463B689A42ACBF00230123DBB2002BEAD1FFF718FF9D
S32D0000D6A807F10807BD4680BD98B500AF41F22C10C1F6FF7002F07CFF03464FF00102144618462049FFF736FE39
S32D0000D6D00346002B02D14FF000031C46E3B2002B2DD141F23010C1F6FF7002F065FF03464FF001021446184651
S32D0000D6F81449FFF71FFE0346002B02D14FF000031C46E3B2002B16D141F23410C1F6FF7002F04EFF03464FF09E
S32D0000D7200102144618460949FFF708FE0346002B02D14FF000031C46E3B2002B02D04FF0010301E04FF00003EF
S32D0000D748184698BD0000C03F98B500AF41F22C10C1F6FF7002F02CFF03464FF00102144618463249FFF7E6FDBC
S32D0000D7700346002B02D14FF000031C46E3B2002B0DD041F23810C1F6FF702B4901F068FB41F24010C1F6FF70F1
S32D0000D798284901F061FB41F23410C1F6FF7002F007FF03464FF00102144618461F49FFF7C1FD0346002B02D16A
S32D0000D7C04FF000031C46E3B2002B0DD041F23810C1F6FF70194901F043FB41F24010C1F6FF70154901F03CFB99
S32D0000D7E841F23010C1F6FF7002F0E2FE03464FF00102144618460D49FFF79CFD0346002B02D14FF000031C4695
S32D0000D810E3B2002B0DD041F23810C1F6FF70074901F01EFB41F24010C1F6FF70034901F017FB98BD0000C03F06
S32D0000D8380000704200002041F0B583B000AF786016E141F21820C1F6FF7046F64C01C0F2010104F0E1F941F28A
S32D0000D8608020C1F6FF7007F0B9FD034641F21820C1F6FF70194604F0E5FA41F28020C1F6FF7007F0ABFD03463A
S32D0000D8884FF00102144618467968FFF771FD0346002B02D14FF000031C46E3B2002B68D06FF00B00FFF7AEFD45
S32D0000D8B000BF41F28020C1F6FF7007F08FFD03461846FEF709FF04460D467868FEF704FF02460B4610461946A8
S32D0000D8D84FF000024FF07E5303F5C003FEF798FD02460B464FF001010E4620462946FFF7B5F90346002B02D19E
S32D0000D9004FF000031E46F3B2002B2CD141F28020C1F6FF7007F062FD03461846FEF7DCFE04460D467868FEF74F
S32D0000D928D7FE02460B46104619464FF000024FF07E5303F5C003FEF76DFD02460B464FF001010E462046294640
S32D0000D950FFF7A6F90346002B02D14FF000031E46F3B2002B02D04FF0010301E04FF00003002B9ED1FFF7B0FDE2
S32D0000D9787EE041F28020C1F6FF7007F02BFD03464FF00102144618467968FFF7D3FC0346002B02D14FF0000399
S32D0000D9A01C46E3B2002B67D04FF00C00FFF72EFD00BF41F28020C1F6FF7007F00FFD03461846FEF789FE04466C
S32D0000D9C80D467868FEF784FE02460B46104619464FF000024FF07E5303F5C003FEF718FD02460B464FF0010149
S32D0000D9F00E4620462946FFF735F90346002B02D14FF000031E46F3B2002B2CD141F28020C1F6FF7007F0E2FC34
S32D0000DA1803461846FEF75CFE04460D467868FEF757FE02460B46104619464FF000024FF07E5303F5C003FEF7D4
S32D0000DA40EDFC02460B464FF001010E4620462946FFF726F90346002B02D14FF000031E46F3B2002B02D04FF0E9
S32D0000DA68010301E04FF00003002B9ED1FFF730FD41F28020C1F6FF7007F0ACFC03461846FEF726FE04460D46B7
S32D0000DA907868FEF721FE02460B46104619464FF000024FF07E5303F5C003FEF7B5FC02460B464FF001010E4646
S32D0000DAB820462946FFF7D2F80346002B02D14FF000031E46F3B2002B2CD141F28020C1F6FF7007F07FFC03463D
S32D0000DAE01846FEF7F9FD04460D467868FEF7F4FD02460B46104619464FF000024FF07E5303F5C003FEF78AFC97
S32D0000DB0802460B464FF001010E4620462946FFF7C3F80346002B02D14FF000031E46F3B2002B02D04FF0010369
S32D0000DB3001E04FF00003002B7FF487AE07F10C07BD46F0BDF0B583B000AF786016E141F21820C1F6FF7046F6F3
S32D0000DB585801C0F2010104F05FF841F28020C1F6FF7007F047FC034641F21820C1F6FF70194604F063F941F258
S32D0000DB808020C1F6FF7007F039FC03464FF00102144618467968FFF7EFFB0346002B02D14FF000031C46E3B201
S32D0000DBA8002B68D06FF00B00FFF72CFC00BF41F28020C1F6FF7007F01DFC03461846FEF787FD04460D467868FF
S32D0000DBD0FEF782FD02460B46104619464FF000024FF07E5303F5C003FEF716FC02460B464FF001010E462046BE
S32D0000DBF82946FFF733F80346002B02D14FF000031E46F3B2002B2CD141F28020C1F6FF7007F0F0FB0346184633
S32D0000DC20FEF75AFD04460D467868FEF755FD02460B46104619464FF000024FF07E5303F5C003FEF7EBFB024649
S32D0000DC480B464FF001010E4620462946FFF724F80346002B02D14FF000031E46F3B2002B02D04FF0010301E02E
S32D0000DC704FF00003002B9ED1FFF72EFC7EE041F28020C1F6FF7007F0B9FB03464FF00102144618467968FFF76E
S32D0000DC9851FB0346002B02D14FF000031C46E3B2002B67D04FF00C00FFF7ACFB00BF41F28020C1F6FF7007F099
S32D0000DCC09DFB03461846FEF707FD04460D467868FEF702FD02460B46104619464FF000024FF07E5303F5C00333
S32D0000DCE8FEF796FB02460B464FF001010E4620462946FEF7B3FF0346002B02D14FF000031E46F3B2002B2CD124
S32D0000DD1041F28020C1F6FF7007F070FB03461846FEF7DAFC04460D467868FEF7D5FC02460B46104619464FF048
S32D0000DD3800024FF07E5303F5C003FEF76BFB02460B464FF001010E4620462946FEF7A4FF0346002B02D14FF074
S32D0000DD6000031E46F3B2002B02D04FF0010301E04FF00003002B9ED1FFF7AEFB41F28020C1F6FF7007F03AFBC8
S32D0000DD88054678681D49FFF72DF803464FF00102144628461946FFF7CDFA0346002B02D14FF000031C46E3B2D2
S32D0000DDB0002B1BD141F28020C1F6FF7007F01EFB054678680F49FFF713F803464FF00102144628461946FFF7F9
S32D0000DDD8CFFA0346002B02D14FF000031C46E3B2002B02D04FF0010301E04FF00003002B7FF4A9AE07F10C0771
S32D0000DE00BD46F0BD0000803FB0B584B000AF786041F28020C1F6FF7007F000FB03461846FEF75AFC02460B46EF
S32D0000DE28C7E90223BEE17868FEF752FC02460B4610461946D7E90223FEF7EAFA02460B464FF001010C461046A7
S32D0000DE5019464FF000024FF00003FEF721FF0346002B02D14FF000031C46E3B2002B00F0C68041F21820C1F6AA
S32D0000DE78FF7046F66401C0F2010103F0CDFE41F28020C1F6FF7007F0C5FA034641F21820C1F6FF70194603F01F
S32D0000DEA0D1FF7868FEF718FC02460B4610461946D7E90223FEF7B0FA02460B464FF001010C4610461946ACA399
S32D0000DEC8D3E90023FEF7CAFE0346002B02D14FF000031C46E3B2002B46D04FF00900FFF7B3FA00BF41F2802052
S32D0000DEF0C1F6FF7007F092FA05467868A049FEF775FF03464FF00102144628461946FFF715FA0346002B02D1E0
S32D0000DF184FF000031C46E3B2002B1BD141F28020C1F6FF7007F076FA054678689249FEF75BFF03464FF001024B
S32D0000DF40144628461946FFF717FA0346002B02D14FF000031C46E3B2002B02D04FF0010301E04FF00003002B77
S32D0000DF68C0D1FFF7B5FA0FE14FF00900FFF78EFA00BF41F28020C1F6FF7007F04BFA054678687D49FEF72EFF98
S32D0000DF9003464FF00102144628461946FFF7CEF90346002B02D14FF000031C46E3B2002B1BD141F28020C1F6D3
S32D0000DFB8FF7007F02FFA054678686F49FEF714FF03464FF00102144628461946FFF7D0F90346002B02D14FF0CA
S32D0000DFE000031C46E3B2002B02D04FF0010301E04FF00003002BC0D1FFF76EFAC8E041F21820C1F6FF7046F627
S32D0000E0086401C0F2010103F007FE41F28020C1F6FF7007F0FFF9034641F21820C1F6FF70194603F00BFF7868DB
S32D0000E030FEF752FB02460B46D7E90201FEF7ECF902460B464FF001010C46104619464AA3D3E90023FEF706FEA4
S32D0000E0580346002B02D14FF000031C46E3B2002B46D04FF00900FFF711FA00BF41F28020C1F6FF7007F0CEF91A
S32D0000E080054678683E49FEF7B1FE03464FF00102144628461946FFF751F90346002B02D14FF000031C46E3B2AA
S32D0000E0A8002B1BD141F28020C1F6FF7007F0B2F9054678683049FEF797FE03464FF00102144628461946FFF7C2
S32D0000E0D053F90346002B02D14FF000031C46E3B2002B02D04FF0010301E04FF00003002BC0D1FFF7F1F94BE02C
S32D0000E0F84FF00900FFF7A8F900BF41F28020C1F6FF7007F087F9054678681B49FEF76AFE03464FF0010214461B
S32D0000E12028461946FFF70AF90346002B02D14FF000031C46E3B2002B1BD141F28020C1F6FF7007F06BF90546D5
S32D0000E14878680D49FEF750FE03464FF00102144628461946FFF70CF90346002B02D14FF000031C46E3B2002BD8
S32D0000E17008D04FF0010307E00000000000806640000000404FF00003002BBAD1FFF7A4F941F28020C1F6FF7095
S32D0000E19807F040F903461846FEF79AFA02460B46C7E9022341F28020C1F6FF7007F032F9054678681D49FEF7EA
S32D0000E1C015FE03464FF00102144628461946FFF7B5F80346002B02D14FF000031C46E3B2002B1BD141F280205F
S32D0000E1E8C1F6FF7007F016F9054678680F49FEF7FBFD03464FF00102144628461946FFF7B7F80346002B02D1CF
S32D0000E2104FF000031C46E3B2002B02D04FF0010301E04FF00003002B7FF401AE07F11007BD46B0BD0000004038
S32D0000E238F0B585B000AFC7E902017A607868FFF7E1F817E041F21820C1F6FF7046F67001C0F2010103F0E0FC3B
S32D0000E26041F28020C1F6FF7007F0B8F8034641F21820C1F6FF70194603F0E4FD41F28020C1F6FF7007F0AAF851
S32D0000E28803461846FEF724FA04460D46D7E902014FF000024FF07E5303F5E003FEF7B8F802460B464FF00101A3
S32D0000E2B00E4620462946FEF7D5FC0346002B02D14FF000031E46F3B2002B27D141F28020C1F6FF7007F082F832
S32D0000E2D803461846FEF7FCF904460D46D7E902014FF000024FF07E5303F5E003FEF792F802460B464FF00101A2
S32D0000E3000E4620462946FEF7CBFC0346002B02D14FF000031E46F3B2002B02D04FF0010301E04FF00003002BEA
S32D0000E32890D107F11407BD46F0BD00BFF0B585B000AFC7E902017A607868FFF763F817E041F21820C1F6FF7015
S32D0000E35046F67C01C0F2010103F062FC41F28020C1F6FF7007F04AF8034641F21820C1F6FF70194603F066FD20
S32D0000E37841F28020C1F6FF7007F03CF803461846FEF7A6F904460D46D7E902014FF000024FF07E5303F5E0038C
S32D0000E3A0FEF73AF802460B464FF001010E4620462946FEF757FC0346002B02D14FF000031E46F3B2002B27D128
S32D0000E3C841F28020C1F6FF7007F014F803461846FEF77EF904460D46D7E902014FF000024FF07E5303F5E0038C
S32D0000E3F0FEF714F802460B464FF001010E4620462946FEF74DFC0346002B02D14FF000031E46F3B2002B02D02E
S32D0000E4184FF0010301E04FF00003002B90D107F11407BD46F0BD00BF98B500AF41F28020C1F6FF7006F0FEFA7F
S32D0000E44041F21820C1F6FF7046F66401C0F2010103F0E6FB41F28020C1F6FF7006F0DEFF034641F21820C1F6BD
S32D0000E468FF70194603F0EAFCFEF7B2FF4FF000004FF0804101F570114FF01902FFF7D8FEC748FFF7D9F9C74877
S32D0000E490FFF7BAFCFEF7A0FF03E04FF01400FEF7B5FF41F28020C1F6FF7006F0A7FF03464FF001021446184667
S32D0000E4B8BD49FEF73FFF0346002B02D14FF000031C46E3B2002BE4D1FFF702F8B2A1D1E900016FF00E02FFF73A
S32D0000E4E029FFB348FFF72EFB4FF014004FF0C801FFF792F8AF48FFF787FC4FF01400FEF785FF00BFFFF7D4F834
S32D0000E508034683F00103DBB2002BF7D14FF00A004FF000024FF0804303F50023FFF730F84FF014004FF07D01D0
S32D0000E530FFF772F841F28020C1F6FF7006F06EFF03464FF00102144618469B49FEF714FF0346002B02D14FF04C
S32D0000E55800031C46E3B2002B50D003E04FF00A00FEF772FF41F28020C1F6FF7006F052FF03464FF00102144699
S32D0000E58018468E49FEF7DAFE0346002B02D14FF000031C46E3B2002BE4D133E0FFF788F80346002B14D041F2F7
S32D0000E5A81810C1F6FF7001F06DFB0346002B0BD041F21C10C1F6FF7001F064FB0346002B02D04FF0010301E010
S32D0000E5D04FF00003002B10D041F21810C1F6FF7001F054FB034641F21820C1F6FF70194603F03CFCFFF7ACF811
S32D0000E5F805E04FF00F00FEF705FF00E000BF41F21810C1F6FF7001F03DFB0346002B08D141F21C10C1F6FF70AE
S32D0000E62001F034FB0346002B02D04FF0010301E04FF00003002BB1D1FEF74EFF6FF009004FF000024FF0804366
S32D0000E64803F50013FEF79CFF4FF014004FF06E01FFF704F84FF00F00FEF7D4FE4FF000004FF07E5101F5F001CD
S32D0000E67001F08EF900BF4FF00A004FF000024FF0804303F50023FEF77FFF4FF014004FF07D01FEF7C1FF41F233
S32D0000E6988020C1F6FF7006F0BDFE03464FF00102144618464249FEF763FE0346002B02D14FF000031C46E3B239
S32D0000E6C0002B42D003E04FF00A00FEF7C1FE41F28020C1F6FF7006F0A1FE03464FF00102144618463549FEF7CB
S32D0000E6E829FE0346002B02D14FF000031C46E3B2002BE4D125E0FEF7D7FF0346002B14D041F21810C1F6FF70D4
S32D0000E71001F0BCFA0346002B0BD041F21C10C1F6FF7001F0B3FA0346002B02D04FF0010301E04FF00003002BEB
S32D0000E73802D0FFF709F805E04FF00F00FEF762FE00E000BF41F21810C1F6FF7001F09AFA0346002B08D141F23D
S32D0000E7601C10C1F6FF7001F091FA0346002B02D04FF0010301E04FF00003002BBFD1FEF7ABFE6FF009004FF011
S32D0000E78800024FF0804303F50013FEF7F9FE4FF00003184698BD00BF00000000004047400000E0410000B442D6
S32D0000E7B000003A4200003C430000000000007A4380B582B000AF786039607B68012B6ED13A684FF6FF739A4279
S32D0000E7D869D141F21810C1F6FF704FF0130101F021F941F21C10C1F6FF704FF0040101F019F941F22010C1F614
S32D0000E800FF704FF0120101F011F941F22410C1F6FF704FF0030101F009F941F22810C1F6FF704FF0100101F099
S32D0000E828B5FE41F22C10C1F6FF704FF00A0101F0ADFE41F23010C1F6FF704FF0090101F0A5FE41F23410C1F6F0
S32D0000E850FF704FF0080101F09DFE41F23810C1F6FF704FF00101144A00F052FA41F24010C1F6FF704FF00001F2
S32D0000E8780F4A00F049FA41F24810C1F6FF704FF0030102F033F941F24C10C1F6FF704FF0000101F09BFA41F226
S32D0000E8A05010C1F6FF704FF0010101F093FA07F10807BD4680BD00BF0000404180B500AF4FF001004FF6FF71A5
S32D0000E8C8FFF77AFF80BD00BF80B500AF41F2BC22C1F6FF7241F21813C1F6FF73D31A194641F21813C1F6FF7340
S32D0000E8F01A460B4610464FF000011A4606F015FF80BD00BF07F08AFF00F0B0F9FFF7E0FF07F05CFF07F0F8FE20
S32D0000E91807F090FF00F00CF84FF0000041F25411C1F6FF71FFF780FD0346184606F0D4FE80B500AF4FF4E0432D
S32D0000E940C4F204034FF4E042C4F2040202F5805202F13802126842F4785203F5805303F138031A6000F02EF9D0
S32D0000E96800F094F841F26413C1F6FF734FF058021A6041F26413C1F6FF731B684FF47A7202FB03F241F2601302
S32D0000E990C1F6FF731A6041F26013C1F6FF731B681A464FF4E043C4F2040303F5825303F104031B6803F07063D0
S32D0000E9B84FEA136303F10103B2FBF3F31A4641F26813C1F6FF731A604FF4E043C4F204034FF4E042C4F2040202
S32D0000E9E002F5805202F13C02126842F0225203F5805303F13C031A604FF4E043C4F204034FF4E042C4F2040233
S32D0000EA0802F5805202F13002126842F0006203F5805303F130031A604FF45043C4F203034FF480721A614FF0F7
S32D0000EA30640000F025FE4FF45043C4F203034FF45042C4F20302526922F010025A614FF45043C4F203034FF0B4
S32D0000EA5800021A604FF45043C4F203034FF010025A6101F0D7FE01F07FFF41F25C10C1F6FF7000F085FE41F2D6
S32D0000EA801820C1F6FF7002F0F9FC41F2883000F063FF80BD80B400AF4FF48043C4F206034FF000025A704FF4B3
S32D0000EAA88043C4F206034FF098021A704FF48043C4F206039B79DBB203F01003002B0CBF00230123DBB2002BFA
S32D0000EAD0F0D14FF48043C4F206039B79DBB203F00C034FEA9303022B0CBF00230123DBB2002BEED14FF4804364
S32D0000EAF8C4F206034FF018021A714FF48043C4F206034FF000025A714FF4E043C4F2040303F5825303F1040391
S32D0000EB204FF00002C0F213121A604FF48043C4F206034FF054025A7100BF4FF48043C4F206039B79DBB203F0F8
S32D0000EB482003002B14BF00230123DBB2002BF0D100BF4FF48043C4F206039B79DBB203F04003002B14BF002342
S32D0000EB700123DBB2002BF0D14FF48043C4F206034FF48042C4F206021278D2B202F03F02D2B21A704FF48043FD
S32D0000EB98C4F206039B79DBB203F00C034FEA9303032B0CBF00230123DBB2002BEED14FF000031846BD4680BC88
S32D0000EBC0704700BF80B400AF4FF44043C4F204034FF480725A634FF2C003C4F20F034FF2C002C4F20F02526908
S32D0000EBE842F400525A614FF2C003C4F20F034FF2C002C4F20F02126842F400521A604FF44043C4F2040340F2F5
S32D0000EC100312C0F20A021A634FF46143CEF200034FF46142CEF20002D2F8882142F08062C3F888214FF4614362
S32D0000EC38CEF200034FF46142CEF20002926842F080629A60BD4680BC704700BF80B483B000AF7860FEE700BFF4
S32D0000EC6080B400AF00BEBD4680BC704780B400AF4FF0E0224CF20003C0F20003C2F8083D4FF40053C4F2050382
S32D0000EC884CF22052DA814FF40053C4F205034DF62812DA814FF40053C4F205034FF0D2021A80BD4680BC704730
S32D0000ECB080B400AF4FF44043C4F20403D3F8A03003F48053002B0CBF00230123DBB2002B19D04FF44043C4F211
S32D0000ECD804034FF44042C4F20402D2F8A02022F48052C3F8A0204FF2C003C4F20F034FF2C002C4F20F02126889
S32D0000ED0022F400521A60BD4680BC70470000000090B585B000AFF8600B467A60FB72FB68FA7A1A71FB684FF0F0
S32D0000ED2800025A714FF001031C4678682049FEF71FFB0346002B02D14FF000031C46E3B2002B02D01A4B7B6036
S32D0000ED5011E04FF001031C4678681849FEF7F8FA0346002B02D14FF000031C46E3B2002B01D0124B7B60786843
S32D0000ED78FDF7AEFC02460B46104619460AA3D3E90023FDF7F9FC02460B4610461946FDF7D5FF0246FB681A60D1
S32D0000EDA0FB68184607F11407BD4690BDAFF30080ABAAAAAAAAAA2040000040410000803F80B582B000AF786074
S32D0000EDC87B685B79002B10D07B684FF000025A717B681B7941F25C10C1F6FF7019464FF000024FF01E0300F040
S32D0000EDF015FD07F10807BD4680BD00BF80B584B000AF786039603B687F2B03DD4FF07F03FB7309E03B6813F168
S32D0000EE18800F03DA4FF08003FB7301E03B68FB737B685B79FA7B9A420FD07B68FA7B5A717B681A79FB7B41F215
S32D0000EE405C10C1F6FF7011461A464FF01E0300F0E5FC07F11007BD4680BD00BF00000000B0B584B000AF7860FC
S32D0000EE6839604FF001031C4638684D49FEF762FA0346002B02D14FF000031C46E3B2002B02D0474B3B6011E01C
S32D0000EE904FF001031C4638684449FEF76DFA0346002B02D14FF000031C46E3B2002B01D03E4B3B603868FDF7F2
S32D0000EEB80FFC04460D467B681B681846FDF708FC02460B46104619464FF000024FF0804303F5B203FDF77AFD1F
S32D0000EEE002460B4620462946FDF74AFC02460B4610461946FDF726FF03463B604FF001031C4638682A49FEF764
S32D0000EF082DFA0346002B02D14FF000031C46E3B2002B14D03868FDF7DBFB02460B46104619461DA3D3E90023CE
S32D0000EF30FDF726FC02460B4610461946FDF7BAFE0346FB6022E03868FDF7C6FB02460B46104619464FF0000219
S32D0000EF584FF0804303F5C003FDF70EFC02460B46104619464FF000024FF0804303F5B203FDF72CFD02460B46DC
S32D0000EF8010461946FDF796FE0346FB607868F968FFF734FF07F11007BD46B0BDAFF3008052B81E85EB51F43F5B
S32D0000EFA80000C8C20000C84200000000AFF3008080B485B000AF02460B46FA71BB71BB79002B07D141F2581368
S32D0000EFD0C1F6FF734FF000021A7006E041F25813C1F6FF734FF001021A704FF03803FB7341F25813C1F6FF73F7
S32D0000EFF81A78FB7B1343FB734FF4C043C4F206034FF4C042C4F206029278D2B242F01002D2B29A704FF4C04371
S32D0000F020C4F206034FF4C042C4F206029278D2B242F02002D2B29A704FF4C043C4F20603FA7B1A7107F1140778
S32D0000F048BD4680BC704700BF80B483B000AF4FF001037B6004E000BF7B6803F101037B607B68312BCCBF00236B
S32D0000F0700123DBB2002BF2D107F10C07BD4680BC704700BF80B582B000AF02460B46FA71BB7141F25913C1F677
S32D0000F098FF731B7818464FF00001FFF789FF4FF4C043C4F20603DB78DBB203F00203002B14BF00230123DBB27A
S32D0000F0C0002BF0D14FF4C043C4F206034FF4C042C4F20602D278D2B242F00202D2B2DA704FF4C043C4F2060357
S32D0000F0E8FA791A714FF4C043C4F20603DB78DBB203F00203002B14BF00230123DBB2002BF0D14FF4C043C4F265
S32D0000F11006034FF4C042C4F20602D278D2B242F00202D2B2DA704FF4C043C4F20603BA791A714FF4C043C4F234
S32D0000F1380603DB78DBB203F00203002B14BF00230123DBB2002BF0D14FF4C043C4F206034FF4C042C4F2060202
S32D0000F160D278D2B242F00202D2B2DA704FF4C043C4F206034FF4C042C4F206029278D2B222F02002D2B29A7057
S32D0000F1884FF4C043C4F206034FF4C042C4F206029278D2B222F01002D2B29A70FFF754FF07F10807BD4680BD81
S32D0000F1B080B582B000AF0346FB71FB79184600F06BF807F10807BD4680BD00BF80B582B000AF02460B46FA7121
S32D0000F1D8BB7100F039F8FB794FEA4303DBB21846FFF7E2FFBB791846FFF7DEFF00F03EF807F10807BD4680BD35
S32D0000F20080B500AF4FF0FF0000F046F80346184680BD00BF80B584B000AF0346FB7100F017F8FB794FEA43032E
S32D0000F228DBB243F00103DBB2DBB21846FFF7BCFFFFF7E2FF0346FB7300F018F8FB7B184607F11007BD4680BD1A
S32D0000F25080B400AF4FF24003C4F20F034FF24002C4F20F02926842F480129A60BD4680BC704700BF80B400AFC3
S32D0000F2784FF24003C4F20F034FF24002C4F20F02526842F480125A60BD4680BC704700BF80B485B000AF034680
S32D0000F2A0FB714FF00003BB7303E0FB7B03F10103FB734FF44043C4F20A03DB6A4FF00003002BF2D14FF44043E1
S32D0000F2C8C4F20A034FF44042C4F20A02D26A42F00042DA624FF44043C4F20A03FA795A6300BF4FF44043C4F2EE
S32D0000F2F00A03DB6A03F40033002B14BF00230123DBB2002BF1D14FF44043C4F20A039B6BBB73BB7B184607F16C
S32D0000F3181407BD4680BC704780B582B000AF4FF4E043C4F204034FF4E042C4F2040202F5805202F130021268F4
S32D0000F34042F4805203F5805303F130031A604FF42043C4F204034FF480721A654FF24003C4F20F034FF2400245
S32D0000F368C4F20F02526942F480125A61FFF77EFF4FF42043C4F204034FF400725A654FF42043C4F204034FF482
S32D0000F39000729A654FF42043C4F204034FF40072DA654FF44043C4F20A034FF44062C8F200021A604FF440431D
S32D0000F3B8C4F20A034FF00502C3F60062DA604FF000037B6007E04FF0FF00FFF7EDFE7B6803F101037B607B680D
S32D0000F3E0092BCCBF00230123DBB2002BEFD104A1D1E9000100F0CCFA07F10807BD4680BD9A9999999999B93F95
S32D0000F40890B486B000AFF860B9607A60FA684FF42043C4F206039A4214D14FF4E043C4F204034FF4E042C4F29C
S32D0000F430040202F5805202F13402126842F4806203F5805303F134031A6083E0FA684FF43043C4F206039A429E
S32D0000F45814D14FF4E043C4F204034FF4E042C4F2040202F5805202F13402126842F4006203F5805303F1340363
S32D0000F4801A6067E0FA684FF44043C4F206039A4214D14FF4E043C4F204034FF4E042C4F2040202F5805202F1F5
S32D0000F4A83402126842F4805203F5805303F134031A604BE0FA684FF45043C4F206039A4214D14FF4E043C4F20F
S32D0000F4D004034FF4E042C4F2040202F5805202F13402126842F4005203F5805303F134031A602FE0FA684FF4CE
S32D0000F4F82043C4F20E039A4214D14FF4E043C4F204034FF4E042C4F2040202F5805202F12802126842F480623F
S32D0000F52003F5805303F128031A6013E04FF4E043C4F204034FF4E042C4F2040202F5805202F12802126842F48C
S32D0000F548006203F5805303F128031A60FB68DB78DBB223F00C03DAB2FB68DA70FB684FF000029A70BB684FF41D
S32D0000F5707A7202FB03F27B684FEA031392FBF3F39CB2FB681B78DBB223F01F03FB75234603F4F8534FEA23234A
S32D0000F598DBB203F01F03DAB2FB7D1343DAB2FB681A70E2B2FB685A70BB684FF4FA4202FB03F27B684FEA031349
S32D0000F5C092FBF3F39AB2234619464FEAC121CB1A4FEA43139BB2D3189CB2FB689B7ADBB223F01F03FB75E3B242
S32D0000F5E803F01F03DAB2FB7D1343DAB2FB689A72FB68DB78DBB243F00C03DAB2FB68DA7007F11807BD4690BC67
S32D0000F610704700BF80B483B000AF786000BF7B681B79DBB203F02003002B14BF00230123DBB2002BF3D17B68EB
S32D0000F638DB79DBB2184607F10C07BD4680BC704780B483B000AF78600B46FB7000BF7B681B79DBB2DBB26FEA11
S32D0000F6600303DBB24FEAD313DBB2002BF3D17B68FA78DA7107F10C07BD4680BC704700BF80B483B000AF786000
S32D0000F6884FF4E043C4F204034FF4E042C4F2040202F5805202F13802126842F0010203F5805303F138031A60F7
S32D0000F6B04FF00003C4F204037A689A604FF00003C4F204034FF005025A604FF00003C4F204034FF00002C4F25C
S32D0000F6D80402126842F001021A6000BF4FF00003C4F204031B6803F08003002B14BF00230123DBB2002BF1D15F
S32D0000F7004FF00003C4F204034FF00002C4F20402126822F001021A6007F10C07BD4680BC704700BF80B582B0AF
S32D0000F72800AF786039607B68012B0AD13A684FF6FF739A4205D141F25C10C1F6FF7000F00FF807F10807BD46D8
S32D0000F75080BD00BF80B500AF4FF001004FF6FF71FFF7E0FF80BD00BF80B483B000AF78607B684FF000021A7049
S32D0000F7787B68184607F10C07BD4680BC704700BF80B582B000AF78607B681B7883F00103DBB2002B36D04FF486
S32D0000F7A0E043C4F2040303F5805303F128034FF400621A604FF45043C4F204034FF440721A624FF45043C4F2C2
S32D0000F7C804034FF440725A6241F26013C1F6FF731B684FEAD372D3184FEA63034FF43040C4F20E0019464FF4E8
S32D0000F7F06142FFF709FE4FF0640000F0ADF87B684FF001021A704FF0010301E04FF00003184607F10807BD4696
S32D0000F81880BD00BF80B582B000AF7860F970BA707B704FF43040C4F20E004FF07F01FFF707FF4FF43040C4F2BF
S32D0000F8400E004FF00801FFF7FFFEFB784FF43040C4F20E001946FFF7F7FEBB784FF43040C4F20E001946FFF71E
S32D0000F868EFFE7B784FF43040C4F20E001946FFF7E7FE4FF43040C4F20E004FF0FF01FFF7DFFE07F10807BD464E
S32D0000F89080BD00BF80B487B000AFF860B9607A60FA6844F6D353C1F26203A3FB02134FEA9312BB68D3187B6194
S32D0000F8B8FA6844F6D353C1F26203A3FB02134FEA93134FF47A7101FB03F3D31AFB60FB684FEAC33244F6D3535D
S32D0000F8E0C1F26203A3FB02134FEA93127B68D3183B613B694FEAD3337A69D3187B613B694FEA43434FEA534328
S32D0000F9083B614FF45043C4F203031B681A467B699A4211D34FF45043C4F203031B681A467B699A420BD14FF4C8
S32D0000F9305043C4F203035B681A463B699A4202D24FF0010301E04FF00003002BDDD107F11C07BD4680BC704793
S32D0000F95880B584B000AF78604FF45043C4F203031B68FB604FF45043C4F203035B68BB607B681846F968BA68ED
S32D0000F980FFF788FF07F11007BD4680BD0000000080B584B000AFC7E900014FF45043C4F203031B68FB604FF411
S32D0000F9A85043C4F203035B68BB60D7E900010AA3D3E90023FCF7E0FE02460B4610461946FDF79CF90346184668
S32D0000F9D0F968BA68FFF75EFF07F11007BD4680BD0000000000408F4080B483B000AF4FF45043C4F203031B68AA
S32D0000F9F84FF47A7202FB03F37B604FF45043C4F203035B684FF47A7202FB03F34FEAD3337A68D3187B607B68A3
S32D0000FA20184607F10C07BD4680BC704780B582B000AF78600B46FB70FB787868194600F013F87B68184607F1C9
S32D0000FA480807BD4680BD00BF80B483B000AF78607B68184607F10C07BD4680BC704700BF80B483B000AF7860A5
S32D0000FA700B46FB707B68FA781A707B681B781A4646F65433C0F201039B5C042B00F2F98001A252F823F000BF2E
S32D0000FA98ADFA00000BFB000069FB0000C7FB000025FC00004FF41043C4F204037A681278114646F69832C0F27E
S32D0000FAC0010252F8212040F2031143F822104FF47043C4F20F034FF47042C4F20F02526911467A681278104689
S32D0000FAE846F69832C0F2010252F8202002F01F024FF0010000FA02F26FEA02020A405A61BBE04FF42043C4F211
S32D0000FB1004037A681278114646F69832C0F2010252F8212040F2031143F822104FF24003C4F20F034FF2400235
S32D0000FB38C4F20F02526911467A681278104646F69832C0F2010252F8202002F01F024FF0010000FA02F26FEA25
S32D0000FB6002020A405A618CE04FF43043C4F204037A681278114646F69832C0F2010252F8212040F2031143F805
S32D0000FB8822104FF28003C4F20F034FF28002C4F20F02526911467A681278104646F69832C0F2010252F82020EE
S32D0000FBB002F01F024FF0010000FA02F26FEA02020A405A615DE04FF44043C4F204037A681278114646F69832FB
S32D0000FBD8C0F2010252F8212040F2031143F822104FF2C003C4F20F034FF2C002C4F20F02526911467A681278F8
S32D0000FC00104646F69832C0F2010252F8202002F01F024FF0010000FA02F26FEA02020A405A612EE04FF45043B4
S32D0000FC28C4F204037A681278114646F69832C0F2010252F8212040F2031143F822104FF47143C4F20F034FF433
S32D0000FC507142C4F20F02526911467A681278104646F69832C0F2010252F8202002F01F024FF0010000FA02F2B2
S32D0000FC786FEA02020A405A6100BF07F10C07BD4680BC704780B485B000AF78604FF00003FB607B681B781A46D9
S32D0000FCA046F65433C0F201039B5C042B00F2868001A252F823F000BFCDFC0000FDFC00002DFD00005DFD00009A
S32D0000FCC88DFD00004FF47043C4F20F031B691A467B681B78194646F69833C0F2010353F8213003F01F034FF060
S32D0000FCF0010101FA03F31340FB605FE04FF24003C4F20F031B691A467B681B78194646F69833C0F2010353F8F9
S32D0000FD18213003F01F034FF0010101FA03F31340FB6047E04FF28003C4F20F031B691A467B681B78194646F6CF
S32D0000FD409833C0F2010353F8213003F01F034FF0010101FA03F31340FB602FE04FF2C003C4F20F031B691A46C4
S32D0000FD687B681B78194646F69833C0F2010353F8213003F01F034FF0010101FA03F31340FB6017E04FF471435C
S32D0000FD90C4F20F031B691A467B681B78194646F69833C0F2010353F8213003F01F034FF0010101FA03F31340D1
S32D0000FDB8FB6000BFFB68002B0CBF00230123DBB2184607F11407BD4680BC704780B584B000AF78600B46FB70C3
S32D0000FDE04FF00B03FB73FA78FB7B786811461A4600F0ECF87B68184607F11007BD4680BD80B485B000AF786067
S32D0000FE087B68A3F11003002B01DA03F11F034FEA6313FB60FB68012B48D0022B00F08980002B40F0C9804FF468
S32D0000FE306142CEF200024FF46143CEF20003D3F8803119467B68A3F110004FF01F03C8F200030340002B05DAC8
S32D0000FE5803F1FF3363F01F0303F101034FF0010000FA03F30B43C2F880314FF46142CEF200024FF46143CEF2B1
S32D0000FE8000031B6819467B68A3F110004FF01F03C8F200030340002B05DA03F1FF3363F01F0303F101034FF0AB
S32D0000FEA8010000FA03F30B43136085E04FF46142CEF200024FF46143CEF20003D3F8843119467B68A3F110005D
S32D0000FED04FF01F03C8F200030340002B05DA03F1FF3363F01F0303F101034FF0010000FA03F30B43C2F8843119
S32D0000FEF84FF46142CEF200024FF46143CEF200035B6819467B68A3F110004FF01F03C8F200030340002B05DA76
S32D0000FF2003F1FF3363F01F0303F101034FF0010000FA03F30B43536042E04FF46142CEF200024FF46143CEF27E
S32D0000FF480003D3F8883119467B68A3F110004FF01F03C8F200030340002B05DA03F1FF3363F01F0303F1010320
S32D0000FF704FF0010000FA03F30B43C2F888314FF46142CEF200024FF46143CEF200039B6819467B68A3F1100037
S32D0000FF984FF01F03C8F200030340002B05DA03F1FF3363F01F0303F101034FF0010000FA03F30B43936000BF0D
S32D0000FFC007F11407BD4680BC704700BF80B584B000AF786013460A46FA70BB707B68FA781A70BB78FB737B68BA
S32D0000FFE81B781A4646F65433C0F201039B5C042B00F2F68001A252F823F000BF190001008D0001000101010087
S32D00010010E9010100750101004FF41043C4F204037A681278114646F69832C0F2010252F82110FA7B4FEA024221
S32D0001003802F4702242F4887242F0030243F821204FF47043C4F20F034FF47042C4F20F02526911467A68127836
S32D00010060104646F69832C0F2010252F8202002F01F024FF0010000FA02F26FEA02020A405A614FF06700FFF797
S32D00010088BBFEADE04FF42043C4F204037A681278114646F69832C0F2010252F82110FA7B4FEA024202F470222D
S32D000100B042F4887242F0030243F821204FF24003C4F20F034FF24002C4F20F02526911467A681278104646F698
S32D000100D89832C0F2010252F8202002F01F024FF0010000FA02F26FEA02020A405A614FF06800FFF781FE73E0DE
S32D000101004FF43043C4F204037A681278114646F69832C0F2010252F82110FA7B4FEA024202F4702242F48872BA
S32D0001012842F0030243F821204FF28003C4F20F034FF28002C4F20F02526911467A681278104646F69832C0F253
S32D00010150010252F8202002F01F024FF0010000FA02F26FEA02020A405A614FF06900FFF747FE39E04FF450437E
S32D00010178C4F204037A681278114646F69832C0F2010252F82110FA7B4FEA024202F4702242F4887242F00302C1
S32D000101A043F821204FF47143C4F20F034FF47142C4F20F02526911467A681278104646F69832C0F2010252F85F
S32D000101C8202002F01F024FF0010000FA02F26FEA02020A405A614FF06B00FFF70DFE00BF07F11007BD4680BD6C
S32D000101F0B0B48BB000AF46F68803C0F2010307F104041D460FCD0FC495E80F0084E80F004FF000037B6248E0B5
S32D000102184FF42043C4F20403D3F8A0301A467B6A4FEA830307F12800C31853F8243C4FF0010101FA03F313408A
S32D00010240002B0CBF00230123DBB2002B29D041F28C13C1F6FF737A6A53F8223003F1010141F28C13C1F6FF7334
S32D000102687A6A43F822104FF42043C4F204034FF42042C4F20402D2F8A02011467A6A4FEA820207F12800821816
S32D0001029052F8242C4FF0010000FA02F20A40C3F8A0207B6A03F101037B627B6A072BCCBF00230123DBB2002B57
S32D000102B8AED107F12C07BD46B0BC7047B0B489B000AF46F6A803C0F2010307F104041D460FCD0FC495E80300CC
S32D000102E084E803004FF00003FB6149E04FF43043C4F20403D3F8A0301A46FB694FEA830307F12000C31853F8EA
S32D000103081C3C4FF0010101FA03F31340002B0CBF00230123DBB2002B2AD0FB6903F1080241F28C13C1F6FF739D
S32D0001033053F8223003F1010141F28C13C1F6FF7343F822104FF43043C4F204034FF43042C4F20402D2F8A02035
S32D000103581146FA694FEA820207F12000821852F81C2C4FF0010000FA02F20A40C3F8A020FB6903F10103FB6110
S32D00010380FB69052BCCBF00230123DBB2002BADD107F12407BD46B0BC704700BFB0B48DB000AF46F6C003C0F2A9
S32D000103A801033C461D460FCD0FC40FCD0FC495E8070084E807004FF00003FB6249E04FF41043C4F20403D3F802
S32D000103D0A0301A46FB6A4FEA830307F13000C31853F8303C4FF0010101FA03F31340002B0CBF00230123DBB2A1
S32D000103F8002B2AD0FB6A03F10E0241F28C13C1F6FF7353F8223003F1010141F28C13C1F6FF7343F822104FF40F
S32D000104201043C4F204034FF41042C4F20402D2F8A0201146FA6A4FEA820207F13000821852F8302C4FF00100A2
S32D0001044800FA02F20A40C3F8A020FB6A03F10103FB62FB6A0A2BCCBF00230123DBB2002BADD107F13407BD4640
S32D00010470B0BC7047B0B487B000AF46F6EC03C0F201033C461D460FCD0FC42B6823604FF000037B6149E04FF4DB
S32D000104985043C4F20403D3F8A0301A467B694FEA830307F11800C31853F8183C4FF0010101FA03F31340002B0D
S32D000104C00CBF00230123DBB2002B2AD07B6903F1190241F28C13C1F6FF7353F8223003F1010141F28C13C1F63F
S32D000104E8FF7343F822104FF45043C4F204034FF45042C4F20402D2F8A02011467A694FEA820207F118008218B7
S32D0001051052F8182C4FF0010000FA02F20A40C3F8A0207B6903F101037B617B69042BCCBF00230123DBB2002BE6
S32D00010538ADD107F11C07BD46B0BC704780B483B000AF78607B681B781A4641F28C13C1F6FF7353F8223018461B
S32D0001056007F10C07BD4680BC704700BF80B483B000AF78607B681B781A4641F28C13C1F6FF734FF0000143F872
S32D00010588221007F10C07BD4680BC704780B483B000AF78600B46FB707B68FA781A707B68184607F10C07BD4639
S32D000105B080BC70470000000080B586B000AF78607B681B781A4646F61843C0F2010353F822303B617B681B7865
S32D000105D81A4646F67433C0F201039B5CFB733B69DBB203F01F03DAB241F26C13C1F6FF731A723B69DBB203F039
S32D000106001F03DAB241F26C13C1F6FF735A724FF46143CEF200034FF01002C3F88820FB7B002B1ED14FF43040D5
S32D00010628C4F2030041F26C11C1F6FF7100F09EFB4FF43043C4F203031B6803F08003002B14BF00230123DBB24D
S32D00010650002BF1D14FF43043C4F203031B697B611DE04FF43040C4F20B0041F26C11C1F6FF7100F07FFB4FF4C7
S32D000106783043C4F20B031B6803F08003002B14BF00230123DBB2002BF1D14FF43043C4F20B031B697B614FF447
S32D000106A06143CEF200034FF46142CEF20002D2F8882142F01002C3F888214FF46143CEF200034FF46142CEF2B1
S32D000106C80002926842F010029A607B694FEA03434FEA13431846FBF7D9FF02460B46104619460FA3D3E90023D0
S32D000106F0FCF746F802460B46104619460CA3D3E90023FCF767F902460B4610461946FCF719FB0346BB60BB689F
S32D00010718184607F11807BD4680BD00BFAFF30080A4703D0AD7A30A4000000000E0FFEF4080B586B000AF7860FD
S32D000107407B681B781A4646F61843C0F2010353F822303B617B681B781A4646F67433C0F201039B5CFB733B69B6
S32D00010768DBB203F01F03DAB241F27C13C1F6FF731A723B69DBB203F01F03DAB241F27C13C1F6FF735A72FB7BBE
S32D00010790002B1ED14FF43040C4F2030041F27C11C1F6FF7100F0E6FA4FF43043C4F203031B6803F08003002B67
S32D000107B814BF00230123DBB2002BF1D14FF43043C4F203031B697B611DE04FF43040C4F20B0041F27C11C1F6C4
S32D000107E0FF7100F0C7FA4FF43043C4F20B031B6803F08003002B14BF00230123DBB2002BF1D14FF43043C4F22B
S32D000108080B031B697B617B69184607F11807BD4680BD00BF98B500AF41F26C13C1F6FF734FF05C021A7041F2CA
S32D000108306C13C1F6FF734FF010025A7041F26C13C1F6FF7341F234225A8041F26C13C1F6FF7345F278629A8092
S32D0001085841F26C13C1F6FF734FF010029A7141F26C13C1F6FF734FF00702DA7141F26C13C1F6FF734FF4C022CC
S32D00010880DA6041F26C13C1F6FF734FF01F021A7241F26C13C1F6FF734FF01F025A724FF43040C4F2030041F2A2
S32D000108A86C11C1F6FF7100F061FA4FF43040C4F20B0041F26C11C1F6FF7100F057FA4FF43040C4F20B0000F042
S32D000108D0ABF94FF43040C4F2030000F0A5F94FF43040C4F20B0041F26C11C1F6FF7100F041FA4FF43040C4F27C
S32D000108F8030041F26C11C1F6FF7100F037FA41F27C12C1F6FF7241F26C13C1F6FF7314460FCB84E80F0041F230
S32D000109207C13C1F6FF734FF05C021A7041F27C13C1F6FF734FF00402DA7198BD80B500AF41F21023C1F6FF7386
S32D000109481B6803F1010241F21023C1F6FF731A6000F04CF84FF4E043C4F203034FF00102C3F80C2180BD00BF81
S32D0001097080B500AF4FF4E043C4F203034FF001021A6048F2A060C0F2010000F023F84FF4E043C4F203034FF03D
S32D000109980302C3F808214FF46143CEF200034FF46142CEF20002D2F8882142F01002C3F888214FF46143CEF233
S32D000109C000034FF46142CEF20002926842F010029A6080BD80B483B000AF78604FF4E043C4F203037A68C3F83B
S32D000109E8002107F10C07BD4680BC704780B584B000AF41F20C23C1F6FF731B68FB6029E0FB685B78FB71FB682F
S32D00010A109B68184600F02EF80346BB71BB79002B19D0FB685B68012B15DDFB689B681B69BB6008E0BB685B686C
S32D00010A3803F10102BB685A60BB681B69BB60BB68002B0CBF00230123DBB2002BEED1FB68DB68FB60FB68002B93
S32D00010A600CBF00230123DBB2002BCDD107F11007BD4680BD80B584B000AF78607868FFF75BFE0346FB607B680A
S32D00010A889B695B78FB72FB7A002B12D17B68DA68FB689A420DDA7B689B694FF001025A707B685B6803F101029D
S32D00010AB07B685A604FF0010317E0FB7A012B12D17B689A68FB689A420DDD7B689B694FF000025A707B685B6816
S32D00010AD803F101027B685A604FF0010301E04FF00003184607F11007BD4680BD80B582B000AF78600B46FB709E
S32D00010B007B681846FEF7A4FF7B6803F101031846FEF79EFF7B6803F102031846FEF798FFFB78032B66D801A2DA
S32D00010B2852F823F03D0B01006B0B0100990B0100C70B01007B6818464FF00001FEF790FF7B6803F101031846CB
S32D00010B504FF00101FEF788FF7B6803F1020318464FF00201FEF780FF44E07B6818464FF00801FEF779FF7B68CC
S32D00010B7803F1010318464FF00901FEF771FF7B6803F1020318464FF00A01FEF769FF2DE07B6818464FF01001CB
S32D00010BA0FEF762FF7B6803F1010318464FF01101FEF75AFF7B6803F1020318464FF01201FEF752FF16E07B684D
S32D00010BC818464FF01801FEF74BFF7B6803F1010318464FF01901FEF743FF7B6803F1020318464FF01A01FEF7B7
S32D00010BF03BFF00BF7B68184607F10807BD4680BD80B582B000AF78607B6803F101031846FFF73CF8034683F048
S32D00010C180103DBB2184607F10807BD4680BD00BF80B485B000AF78607B681B6A23F040027B681A627B685B6A04
S32D00010C4023F00B027B685A627B685B6A43F007027B685A627B685B6A43F080027B685A627B681B6803F080036B
S32D00010C68002B14BF00230123DBB2002BF4D17B685B6A03F04003002B0CBF00230123DBB2002B02D04FF00103B3
S32D00010C9069E04FF00003FB817B68DB6CFB817B689B6C9AB2FB89D318FB817B685B6C9AB2FB89D318FB817B68A3
S32D00010CB81B6C9AB2FB89D318FB817B68DB6B9AB2FB89D318FB817B689B6B9AB2FB89D318FB81FB894FEA5303BC
S32D00010CE0FB81FB896FEA43436FEA5343FB81FA897B68DA624FF00003FB817B68DB6EFB817B689B6E9AB2FB89D7
S32D00010D08D318FB817B685B6E9AB2FB89D318FB817B681B6E9AB2FB89D318FB817B68DB6D9AB2FB89D318FB816D
S32D00010D307B689B6D9AB2FB89D318FB81FB894FEA5303FB81FB896FEA43436FEA5343FB81FA897B681A637B684F
S32D00010D585B6A23F080027B685A624FF00003184607F11407BD4680BC704700BF80B483B000AF786039603B68E1
S32D00010D801B781A467B689A603B685B781A467B68DA603B685B881A467B689A613B689B881A467B68DA613B68D6
S32D00010DA89B791A467B681A623B68DB791A467B685A623B68DA687B681A653B681B7A1A467B681A603B685B7A9F
S32D00010DD01A467B685A6007F10C07BD4680BC704780B483B000AF78607B68184607F10C07BD4680BC704700BF07
S32D00010DF880B582B000AF786039607B68012B0AD13A684FF6FF739A4205D141F21420C1F6FF70FFF7E1FF07F1F5
S32D00010E200807BD4680BD00BF80B500AF4FF001004FF6FF71FFF7E0FF80BD00BF80B582B000AF78604FF4304347
S32D00010E48C4F204034FF48072DA604FF42043C4F204034FF480729A644FF42043C4F204034FF480721A644FF460
S32D00010E702043C4F204034FF480725A644FF42043C4F204034FF48072DA604FF28003C4F20F034FF28002C4F269
S32D00010E980F02526942F008025A614FF24003C4F20F034FF24002C4F20F02526942F480225A614FF24003C4F24A
S32D00010EC00F034FF24002C4F20F02526942F480325A614FF24003C4F20F034FF24002C4F20F02526942F4003290
S32D00010EE85A614FF24003C4F20F034FF24002C4F20F02126842F008021A604FF24003C4F20F034FF24002C4F2D5
S32D00010F100F02526942F008025A614FF28003C4F20F034FF28002C4F20F02126842F008021A604FF42043C4F24D
S32D00010F3804034FF480725A624FF42043C4F204034FF480721A624FF43043C4F204034FF480721A614FF43043A5
S32D00010F60C4F204034FF480725A614FF43043C4F204034FF480729A614FF43043C4F204034FF48072DA614FF4EC
S32D00010F883043C4F204034FF480721A634FF43043C4F204034FF480725A634FF43043C4F204034FF480729A634E
S32D00010FB04FF43043C4F204034FF48072DA634FF43043C4F204034FF480721A644FF43043C4F204034FF480725F
S32D00010FD85A644FF43043C4F204034FF480729A644FF43043C4F204034FF48072DA644FF44043C4F204034FF4DA
S32D0001100080721A604FF44043C4F204034FF480729A604FF44043C4F204034FF48072DA604FF44043C4F204032E
S32D000110284FF480721A614FF24003C4F20F034FF24002C4F20F02526942F440725A614FF28002C4F20F024FF22A
S32D000110508003C4F20F035B6919464FF2F003C0F20F030B4353614FF2C003C4F20F034FF2C002C4F20F025269B8
S32D0001107842F01D025A6178684FF0E20100F01EFF78684FF01D0101F05DF878684FF0020101F058F878684FF029
S32D000110A0040101F053F878684FF0E00100F00AFF78684FF0010101F049F84FF06400FEF74BFC78684FF0E001B5
S32D000110C800F0FCFE78684FF0030101F03BF878684FF0010100F0F2FE4FF00100FEF738FC78684FF0E60100F068
S32D000110F0E9FE78684FF0010101F028F878684FF0A00101F023F878684FF0FF0101F01EF878684FF0B00100F006
S32D00011118D5FE78684FF01C0101F014F878684FF00F0101F00FF878684FF0010101F00AF878684FF03F0101F011
S32D0001114005F878684FF0000101F000F878684FF0EF0100F0FBFF78684FF0000100F0F6FF78684FF0B40100F0B8
S32D00011168ADFE78684FF0010100F0ECFF78684FF0990100F0E7FF78684FF0000100F0E2FF78684FF0450100F0DC
S32D00011190DDFF78684FF0020100F0D8FF78684FF0000100F0D3FF78684FF0000100F0CEFF78684FF0000100F09C
S32D000111B8C9FF78684FF0B60100F080FE78684FF0010100F0BFFF78684FF0090100F0BAFF78684FF0000100F04B
S32D000111E0B5FF78684FF00E0100F0B0FF78684FF0020100F0ABFF78684FF0000100F0A6FF78684FF0000100F0DE
S32D00011208A1FF78684FF0BA0100F058FE78684FF00F0100F097FF4FF06400FEF799FB78684FF03A0100F04AFE84
S32D0001123078684FF0600100F089FF78684FF02A0100F040FE78684FF0000100F07FFF78684FF0000100F07AFF08
S32D0001125878684FF0010100F075FF78684FF03F0100F070FF78684FF02B0100F027FE78684FF0000100F066FF4F
S32D0001128078684FF0000100F061FF78684FF0000100F05CFF78684FF0EF0100F057FF78684FF0360100F00EFEBD
S32D000112A878684FF0000100F04DFF78684FF0F00100F004FE78684FF0040100F043FF78684FF0B80100F0FAFDA4
S32D000112D078684FF00F0100F039FF78684FF0010100F034FF4FF24003C4F20F034FF24002C4F20F02126842F012
S32D000112F808021A604FF06400FEF72AFB78684FF0360100F0DBFD78684FF0000100F01AFF78684FF0F00100F03F
S32D00011320D1FD78684FF0040100F010FF41F21820C1F6FF704FF0010100F03EFA41F21820C1F6FF704FF06F0173
S32D000113484FF01E0200F0B2F841F21820C1F6FF704FF056014FF0AF0200F028F941F21820C1F6FF704FF0000184
S32D0001137000F080FA41F21820C1F6FF7046F60011C0F201014FF001024FF0010300F09AFA78684FF0290100F010
S32D0001139895FD4FF06400FEF7DBFA78684FF0BE0100F08CFD78684FF00E0100F0CBFE78684FF0F00100F0C6FE25
S32D000113C078684FF0010100F0C1FE78684FF0000100F0BCFE78684FF0000100F0B7FE78684FF00F0100F0B2FED0
S32D000113E8786800F097FA41F21820C1F6FF704FF0010100F03BFA41F21820C1F6FF704FF0000100F00BFA07F1C0
S32D000114100807BD4680BD00BF80B582B000AF78607B684FF00002DA617B684FF001021A627B684FF00E025A60C5
S32D000114387B684FF01A029A607B684FF000025A617B684FF000029A617B684FF4A072DA607B684FF0F0021A614E
S32D000114607B684FF000021A70786801F0BFFD7B68184607F10807BD4680BD00BF80B582B000AF786041F25C233B
S32D00011488C1F6FF731B7883F00103DBB2002B09D041F25C23C1F6FF734FF001021A707868FFF7C8FC07F1080729
S32D000114B0BD4680BD80B58AB002AFF860B9607A604FF07E030093F868B9687A684FF0620301F02EF940F24E73FD
S32D000114D83B614FF00003FB615BE04FF00003BB6143E0FB6903F1010240F20043C1F6FF739B5C002B09D14FF0BB
S32D00011500FF03FB754FF0FF03BB754FF0FF037B751CE0FB6903F1010240F20043C1F6FF739B5C012B09D14FF077
S32D00011528D403FB754FF00003BB754FF026037B7508E04FF0B503FB754FF0BA03BB754FF0B0037B75F97DBA7D79
S32D000115507B7DF86800F00EF90246FB68DA61F86801F044FDF86801F0E1FBBB6903F10103BB6140F20043C1F614
S32D00011578FF73FA699B181B781A46BB699A42D4BF00230123DBB2002BABD1FB6903F10203FB61FA693B699A421F
S32D000115A0ACBF00230123DBB2002B9AD107F12007BD4680BD80B58AB002AFF860B9607A604FF027030093F86821
S32D000115C8B9687A684FF0950301F0AEF840F2E6333B614FF00003FB615BE04FF00003BB6143E0FB6903F10102E7
S32D000115F040F65033C1F6FF739B5C002B09D14FF0FF03FB754FF0FF03BB754FF0FF037B751CE0FB6903F1010244
S32D0001161840F65033C1F6FF739B5C012B09D14FF00003FB754FF00003BB754FF000037B7508E04FF0D403FB7500
S32D000116404FF00003BB754FF026037B75F97DBA7D7B7DF86800F08EF80246FB68DA61F86801F0C4FCF86801F0EE
S32D0001166861FBBB6903F10103BB6140F65033C1F6FF73FA699B181B781A46BB699A42D4BF00230123DBB2002B42
S32D00011690ABD1FB6903F10203FB61FA693B699A42ACBF00230123DBB2002B9AD107F12007BD4680BD80B485B076
S32D000116B800AF78600B46FB70FB78062B2ED801A252F823F0F1160100E9160100F91601000117010009170100C4
S32D000116E011170100191701006FF07F43FB6019E04FF00003FB6015E04FF47F03FB6011E04FF47F43FB600DE01C
S32D000117084FF0FF03FB6009E04FF41903FB6005E049F69913C0F29903FB6000BFFB68184607F11407BD4680BC28
S32D00011730704700BF80B584B000AF786039603B6803F47F034FEA1343FB733B6803F47F434FEA1323BB733B68D6
S32D000117587B73F97BBA7B7B7B786800F007F80346184607F11007BD4680BD00BF80B487B000AF7860F970BA70CC
S32D000117807B70FB784FEAA3037B61BB784FEAA3033B617B784FEAA303FB607B694FEA03323B694FEA83131A4324
S32D000117A8FB681343184607F11C07BD4680BC704780B582B000AF78600B46FB70FB7878681946FFF773FF0346DD
S32D000117D07868194600F004F807F10807BD4680BD80B582B000AF7860396078683968FFF7A1FF02467B681A6233
S32D000117F8786801F0F7FB786800F0CEFD07F10807BD4680BD80B582B000AF7860786800F0C3FD07F10807BD4695
S32D0001182080BD00BF80B582B000AF78600B46FB70FB7878681946FFF73DFF03467868194600F004F807F1080794
S32D00011848BD4680BD80B582B000AF7860396078683968FFF76BFF02467B681A62786801F0C1FB07F10807BD468B
S32D0001187080BD00BF80B582B000AF78600B46FB70FB7878681946FFF715FF03467868194600F004F807F108076C
S32D00011898BD4680BD80B582B000AF7860396078683968FFF743FF02467B68DA61786801F099FB07F10807BD46CC
S32D000118C080BD00BF80B586B000AFF860B9607A603B604FF000037B6110E07B69BA68D3181B78F86879683A6888
S32D000118E801F086F87B6803F10C037B607B6903F101037B617B69BA68D3181B78002B0CBF00230123DBB2002B70
S32D00011910E3D107F11807BD4680BD00BF80B582B000AF7860FDF7FCFC4FF001004FF06701FDF74CFC4FF00200A0
S32D000119384FF00001FDF746FC4FF003004FF0A001FDF740FC4FF004004FF05001FDF73AFC4FF005004FF0200117
S32D00011960FDF734FC4FF006004FF02001FDF72EFC4FF007004FF07701FDF728FC4FF008004FF00001FDF722FCC3
S32D000119884FF009004FF00001FDF71CFC4FF00A004FF00001FDF716FC4FF00B004FF00401FDF710FC7B684FF05D
S32D000119B0FF32DA637B684FF0FF321A6407F10807BD4680BD0000000080B586B000AFF860B9607A604FF00000DE
S32D000119D8FDF71CFC0346FB75FB7D03F00203002B00F0E380FDF730FC4FF0E000FDF7DCFBFDF73CFC4FF00200B6
S32D00011A00FDF7AAFFFDF724FC4FF0A500FDF7D0FBFDF7F6FB03464FEA0323BB82FDF7F0FB03461A46BB8A134376
S32D00011A28BB82FDF7E9FB03464FEA03237B82FDF7E3FB03461A467B8A13437B82BB8A4FEA2313BB827B8A4FEAD3
S32D00011A5023137B82FDF70EFCFB68DB6BB3F1FF3F3DD1FB681B6CB3F1FF3F38D1BA8AFB68DA637A8AFB681A64FF
S32D00011A787B8AC3F57E6303F11F037B82BB8A1846FAF714FE02460B461046194652A3D3E90023FAF771FE02461E
S32D00011AA00B4610461946FBF74DF90246BB681A607B8A1846FAF7FEFD02460B461046194649A3D3E90023FAF79B
S32D00011AC85BFE02460B4610461946FBF737F902467B681A6066E0FB68DA6BBB8AD31AF868194600F085F80346EC
S32D00011AF0632B0DDCFB681A6C7B8AD31AF868194600F07AF80346632B02DC4FF0010301E04FF00003002B38D006
S32D00011B18BA8AFB68DA637A8AFB681A647B8AC3F57E6303F11F037B82BB8A1846FAF7BEFD02460B461046194687
S32D00011B4027A3D3E90023FAF71BFE02460B4610461946FBF7F7F80246BB681A607B8A1846FAF7A8FD02460B461D
S32D00011B68104619461EA3D3E90023FAF705FE02460B4610461946FBF7E1F802467B681A6010E0BB68184A1A6058
S32D00011B907B68174A1A60FB684FF0FF32DA63FB684FF0FF321A644FF0000312E04FF001030FE0BB680E4A1A60AC
S32D00011BB87B680D4A1A60FB684FF0FF32DA63FB684FF0FF321A644FF00003184607F11807BD4680BDAFF30080D0
S32D00011BE0144001144001B43F1EE0011EE001AE3F000080BFAFF3008080B483B000AF786039603B68002B03DABB
S32D00011C083B68C3F100033B603B68184607F10C07BD4680BC704700BF80B584B000AF786039604FF00003FB60D1
S32D00011C30786800F0E1FC11E07B6859697B689A69FB683868C3181B78786800F0B5FE786800F0E8FCFB6803F15D
S32D00011C580103FB60FB683A68D3181B78002B0CBF00230123DBB2002BE2D107F11007BD4680BD00BF80B590B050
S32D00011C8000AF7860396007F10C03184646F60C11C0F201013A6803F0E7FC07F10C0378681946FFF7BDFF07F13B
S32D00011CA84007BD4680BD00BF90B593B000AF786039604FF001031C4638683049FBF74EFB0346002B02D14FF0A0
S32D00011CD000031C46E3B2002B23D03868FBF756FB03467B64786CFBF737F9034638681946FBF77CF80346184667
S32D00011CF82349FBF781F903461846FBF743FB03463B6407F10C03184646F61C11C0F201017A6C3B6C03F0A4FC84
S32D00011D2026E03B6883F000433B603868FBF72EFB03467B64786CFBF70FF9034638681946FBF754F803461846AC
S32D00011D480F49FBF759F903461846FBF71BFB03463B6407F10C03184646F61011C0F201017A6C3B6C03F07CFCCB
S32D00011D7007F10C0378681946FFF752FF07F14C07BD4690BD0000000000007A4480B582B000AF78600B46FB70B4
S32D00011D98FB78002B07D0786846F62411C0F20101FFF73AFF06E0786846F62C11C0F20101FFF732FF07F1080752
S32D00011DC0BD4680BD80B582B000AF78600B46FB70786800F011FC7B6859697B689A69FB78786800F0E9FD786899
S32D00011DE800F01CFC07F10807BD4680BD80B582B000AF78603960786800F0FAFB78683968FFF70AFF786800F0E1
S32D00011E10DBFB07F10807BD4680BD00BF80B582B000AF78603960786800F0E6FB78683968FFF724FF786800F025
S32D00011E38C7FB07F10807BD4680BD00BF80B582B000AF78603960786800F0D2FB78683968FFF72AFF786800F01F
S32D00011E60B3FB07F10807BD4680BD00BF80B582B000AF78600B46FB70786800F0BDFBFB7878681946FFF782FF44
S32D00011E88786800F09DFB07F10807BD4680BD00BF80B582B000AF78600B46FB70786800F0A7FBFB7878681946EF
S32D00011EB0FFF788FF786800F087FB07F10807BD4680BD00BF80B483B000AF78600B46FB704FF28003C4F20F03F8
S32D00011ED84FF28002C4F20F02126822F008021A604FF24003C4F20F034FF24002C4F20F02126822F480221A60FF
S32D00011F004FF24003C4F20F034FF24002C4F20F02126842F480321A604FF24003C4F20F034FF24002C4F20F02AA
S32D00011F28126822F440721A604FF28003C4F20F034FF28002C4F20F02126822F4425222F070021A604FF2400312
S32D00011F50C4F20F034FF24002C4F20F0212681146FA7802F00102D2B2002A02D04FF4007201E04FF000020A4374
S32D00011F781A604FF24003C4F20F034FF24002C4F20F0212681146FA7802F00202002A02D04FF4807201E04FF0A0
S32D00011FA000020A431A604FF28003C4F20F034FF28002C4F20F0212681146FA7802F00402002A02D04FF01002AB
S32D00011FC801E04FF000020A431A604FF28003C4F20F034FF28002C4F20F0212681146FA7802F00802002A02D0B0
S32D00011FF04FF0200201E04FF000020A431A604FF28003C4F20F034FF28002C4F20F0212681146FA7802F010021B
S32D00012018002A02D04FF0400201E04FF000020A431A604FF28003C4F20F034FF28002C4F20F0212681146FA78DA
S32D0001204002F02002002A02D04FF0800201E04FF000020A431A604FF28003C4F20F034FF28002C4F20F02126827
S32D000120681146FA7802F04002002A02D04FF4805201E04FF000020A431A604FF28003C4F20F034FF28002C4F24D
S32D000120900F0212681146FA7852B2002A02DA4FF4005201E04FF000020A431A604FF24003C4F20F034FF2400276
S32D000120B8C4F20F02126822F400321A604FF24003C4F20F034FF24002C4F20F02126842F400321A604FF2800340
S32D000120E0C4F20F034FF28002C4F20F02126842F008021A604FF24003C4F20F034FF24002C4F20F02126842F409
S32D0001210840721A604FF28003C4F20F034FF28002C4F20F02126842F4425242F070021A604FF24003C4F20F03B8
S32D000121304FF24002C4F20F02126842F480221A6007F10C07BD4680BC704700BF80B483B000AF78600B46FB7000
S32D000121584FF28003C4F20F034FF28002C4F20F02126822F008021A604FF24003C4F20F034FF24002C4F20F029C
S32D00012180126842F480321A604FF24003C4F20F034FF24002C4F20F02126842F480221A604FF24003C4F20F03A6
S32D000121A84FF24002C4F20F02126822F440721A604FF28003C4F20F034FF28002C4F20F02126822F4425222F0B6
S32D000121D070021A604FF24003C4F20F034FF24002C4F20F0212681146FA7802F00102D2B2002A02D04FF40072F1
S32D000121F801E04FF000020A431A604FF24003C4F20F034FF24002C4F20F0212681146FA7802F00202002A02D004
S32D000122204FF4807201E04FF000020A431A604FF28003C4F20F034FF28002C4F20F0212681146FA7802F0040220
S32D00012248002A02D04FF0100201E04FF000020A431A604FF28003C4F20F034FF28002C4F20F0212681146FA78D8
S32D0001227002F00802002A02D04FF0200201E04FF000020A431A604FF28003C4F20F034FF28002C4F20F0212686D
S32D000122981146FA7802F01002002A02D04FF0400201E04FF000020A431A604FF28003C4F20F034FF28002C4F2DF
S32D000122C00F0212681146FA7802F02002002A02D04FF0800201E04FF000020A431A604FF28003C4F20F034FF214
S32D000122E88002C4F20F0212681146FA7802F04002002A02D04FF4805201E04FF000020A431A604FF28003C4F293
S32D000123100F034FF28002C4F20F0212681146FA7852B2002A02DA4FF4005201E04FF000020A431A604FF24003B3
S32D00012338C4F20F034FF24002C4F20F02126822F400321A604FF24003C4F20F034FF24002C4F20F02126842F4E2
S32D0001236000321A604FF28003C4F20F034FF28002C4F20F02126842F008021A604FF24003C4F20F034FF240028D
S32D00012388C4F20F02126822F480221A6007F10C07BD4680BC704700BF80B586B000AF78607B684FF000025A6122
S32D000123B07B684FF000029A617B681B6AFB60FB68FB72FB684FEA1323BB72FB684FEA1343DBB203F003037B72E8
S32D000123D878684FF02A01FFF771FD78684FF00001FFF7B0FE78684FF00001FFF7ABFE78684FF00101FFF7A6FEEA
S32D0001240078684FF03F01FFF7A1FE78684FF02B01FFF758FD78684FF00001FFF797FE78684FF00001FFF792FED2
S32D0001242878684FF00001FFF78DFE78684FF0EF01FFF788FE78684FF02C01FFF73FFD4FF24003C4F20F034FF24E
S32D000124504002C4F20F02126822F440721A604FF28002C4F20F024FF28003C4F20F031B68194640F60F73CFF623
S32D00012478F0730B4013604FF2C003C4F20F034FF2C002C4F20F02126822F01D021A604FF24003C4F20F034FF2CC
S32D000124A04002C4F20F02126811467A68126B0A431A604FF28003C4F20F034FF28002C4F20F02126811467A6844
S32D000124C8526B0A431A604FF2C003C4F20F034FF2C002C4F20F02126811467A68926B0A431A604FF28003C4F2DA
S32D000124F00F034FF28002C4F20F02126822F008021A604FF24003C4F20F034FF24002C4F20F02126842F4802229
S32D000125181A604FF000037B612DE04FF000033B611BE04FF24003C4F20F034FF24002C4F20F02126822F40032BE
S32D000125401A604FF24003C4F20F034FF24002C4F20F02126842F400321A603B6903F101033B613A6940F23F13A1
S32D000125689A428CBF00230123DBB2002BD9D17B6903F101037B617B69EF2B8CBF00230123DBB2002BC9D14FF299
S32D000125908003C4F20F034FF28002C4F20F02126842F008021A604FF24003C4F20F034FF24002C4F20F02126807
S32D000125B822F480221A6007F11807BD4680BD00BF80B483B000AF78607B689B69002B09DD7B685B6903F1010228
S32D000125E07B685A617B684FF000029A6107F10C07BD4680BC704700BF80B582B000AF78607B685A697B685B6815
S32D000126089A4206DB7B684FF000025A617868FFF7C3FE07F10807BD4680BD00BF80B582B000AF78607B689B6995
S32D0001263003F101027B689A617B689A697B689B689A4205D17868FFF7BFFF7868FFF7D4FF07F10807BD4680BDA4
S32D0001265880B586B002AFF860B9607A604FF001030093F868B9687A684FF0010300F05CF8F86800F057FB07F192
S32D000126801007BD4680BD00BF80B485B000AF786039607B681B68FB603B681A687B681A603B68FA681A6007F1D2
S32D000126A81407BD4680BC704780B586B002AFF860B9607A603B60BA683B68D3187A680092F868B9687A6800F079
S32D000126D0B5F8BA683B68D218B9683B68CB187868B96941180091F86811467A6800F0A6F8BA683B68D218796835
S32D000126F8BB69CB187868B96941180091F86811461A46BB6800F096F87A68BB69D3187A680092F868B9681A46C2
S32D00012720BB6800F08BF807F11007BD4680BD00BF80B588B000AFF860B9607A603B60FB681B78022B03D0FB688B
S32D000127481B78032B13D17B68FB61BA6AFB69D31803F1FF33BB61FB68DA68BB68D31A3B613B683A69D31A03F151
S32D0001277001037B610FE0BB68FB613A68FB69D31803F1FF33BB617B687B61BA6A7B69D31803F1FF333B61F868E5
S32D000127984FF02A01FFF792FBFB6903F470634FEA1323DBB2F8681946FFF7CCFCFB69DBB2F8681946FFF7C6FC16
S32D000127C0BB6903F470634FEA1323DBB2F8681946FFF7BCFCBB69DBB2F8681946FFF7B6FCF8684FF02B01FFF7BA
S32D000127E86DFB7B6903F470634FEA1323DBB2F8681946FFF7A7FC7B69DBB2F8681946FFF7A1FC3B6903F4706327
S32D000128104FEA1323DBB2F8681946FFF797FC3B69DBB2F8681946FFF791FCF8684FF02C01FFF748FB07F12007BE
S32D00012838BD4680BD90B58BB000AFF860B9607A603B603A68BB68D31AF8681946FFF7D0F90346FB61BA6B7B683F
S32D00012860D31AF8681946FFF7C7F90346BB61BA69FB699A42D4BF00230123FB75FB7D002B0DD007F1080207F15B
S32D00012888040310461946FFF7FBFE3B46184607F13801FFF7F5FEBA683B689A420DDD07F108023B4610461946BA
S32D000128B0FFF7EAFE07F10403184607F13801FFF7E3FE3A68BB689A4207D1BA687B68F86811461A46FFF7C0FE6D
S32D000128D869E0BA6B7B68D31A1846FAF739FB04463A68BB68D31A1846FAF732FB034620461946FAF735FC03461F
S32D000129003B617B681846FAF727FB03467B62BB683B6243E0FB7D002B1BD0786AF9F7DCFE02460B461046194627
S32D000129284FF000024FF07E5303F5C003F9F772FD02460B4610461946FAF7B8F90346F86819463A6AFFF784FE01
S32D000129501AE0786AF9F7C0FE02460B46104619464FF000024FF07E5303F5C003F9F756FD02460B4610461946E3
S32D00012978FAF79CF90346F868396A1A46FFF768FE786A3969FAF730FA03467B623B6A03F101033B623B683A6A5C
S32D000129A09A42CCBF00230123DBB2002BB2D107F12C07BD4690BD00BF80B584B000AFF860B9607A60FB707A6835
S32D000129C813464FEA43039B184FEA830303F10201BA6813464FEA03139B1803F10302FB78F86800F005F807F171
S32D000129F01007BD4680BD00BF80B58EB002AFF860B9607A60FB70FB780A2B06D1F868FFF7F3FDF868FFF7D8FDD8
S32D00012A1825E1FB787D2B02D8FB781F2B02D84FF02003FB70FB78A3F12003FB704FF011030093F868B9687A6852
S32D00012A404FF00C03FFF774FEFA7813464FEA83039A1840F63873C1F6FF739B5C3B75FA7813464FEA83039B1887
S32D00012A6803F1010240F63873C1F6FF739B5C7B75FA7813464FEA83039B1803F1020240F63873C1F6FF739B5C21
S32D00012A90BB75FA7813464FEA83039B1803F1030240F63873C1F6FF739B5CFB75FA7813464FEA83039B1803F10F
S32D00012AB8040240F63873C1F6FF739B5C3B764FF00003BB62A8E0F86800F0DCF9F86800F0CBF84FF0000387F857
S32D00012AE02F304FF000037B6231E007F114027B6AD3181B7803F00103FB76FB7E002B11D097F82F3083F0010375
S32D00012B08DBB2002B03D0F86800F00CF902E0F86800F0AAF8F86800F0A7F80DE097F82F30002B03D0F86800F0D2
S32D00012B30ADF902E0F86800F09BF8F86800F098F8FB7E87F82F307B6A03F101037B627B6A042BCCBF0023012334
