S01F00002E2E2F496E646976696475616C436F6D7065746974696F6E2E733139B6
S32D0000C00000000020B9EF000015F3000015F3000015F3000015F3000015F3000000000000000000000000000022
S32D0000C0280000000015F3000015F300000000000015F3000015F3000015F3000015F3000015F3000015F30000AA
S32D0000C05015F3000015F3000015F3000015F3000015F3000015F3000015F3000015F3000015F3000015F3000072
S32D0000C07815F3000015F3000015F3000015F3000015F3000015F3000015F3000015F3000015F3000015F300004A
S32D0000C0A015F3000015F3000015F3000015F3000015F3000015F3000015F3000015F3000015F3000015F3000022
S32D0000C0C815F3000015F3000015F3000015F3000015F3000015F3000015F3000015F3000015F3000015F30000FA
S32D0000C0F015F30000F961010015F3000015F3000015F3000015F3000015F3000015F3000015F3000015F300007F
S32D0000C11815F3000015F3000015F3000015F3000015F3000015F3000015F3000015F3000015F3000015F30000A9
S32D0000C14015F3000015F3000015F3000015F30000152A010015F3000015F3000015F3000015F3000015F3000049
S32D0000C16815F3000015F3000015F3000015F3000015F3000015F3000015F3000015F3000015F3000015F3000059
S32D0000C19015F3000015F3000015F3000075240100C92201009D23010065F300004D25010015F3000015F3000047
S32D0000C1B815F3000015F3000015F3000015F3000015F3000015F3000015F3000015F3000015F3000015F3000009
S32D0000C41081F0004102E000BF83F0004330B54FEA41044FEA430594EA050F08BF90EA020F1FBF54EA000C55EAC6
S32D0000C438020C7FEA645C7FEA655C00F0E2804FEA5454D4EB5555B8BF6D420CDD2C4480EA020281EA030382EA0F
S32D0000C460000083EA010180EA020281EA0303362D88BF30BD11F0004F4FEA01314FF4801C4CEA113102D0404263
S32D0000C48861EB410113F0004F4FEA03334CEA133302D0524263EB430394EA050F00F0A780A4F10104D5F1200E8A
S32D0000C4B00DDB02FA0EFC22FA05F2801841F1000103FA0EF2801843FA05F359410EE0A5F120050EF1200E012A2D
S32D0000C4D803FA0EFC28BF4CF0020C43FA05F3C01851EBE37101F0004507D54FF0000EDCF1000C7EEB00006EEB67
S32D0000C5000101B1F5801F1BD3B1F5001F0CD349085FEA30004FEA3C0C04F101044FEA445212F5800F80F09A8000
S32D0000C528BCF1004F08BF5FEA500C50F1000041EB045141EA050130BD5FEA4C0C404141EB010111F4801FA4F114
S32D0000C5500104E9D191F0000F04BF01460020B1FA81F308BF2033A3F10B03B3F120020CDA0C3208DD02F1140C87
S32D0000C578C2F10C0201FA0CF021FA02F10CE002F11402D8BFC2F1200C01FA02F120FA0CFCDCBF41EA0C019040B1
S32D0000C5A0E41AA2BF01EB0451294330BD6FEA04041F3C1CDA0C340EDC04F11404C4F1200220FA04F001FA02F3B6
S32D0000C5C840EA030021FA04F345EA030130BDC4F10C04C4F1200220FA02F001FA04F340EA0300294630BD21FAA8
S32D0000C5F004F0294630BD94F0000F83F4801306BF81F480110134013D4EE77FEA645C18BF7FEA655C29D094EA1C
S32D0000C618050F08BF90EA020F05D054EA000C04BF1946104630BD91EA030F1EBF0021002030BD5FEA545C05D1A3
S32D0000C6404000494128BF41F0004130BD14F580043CBF01F5801130BD01F0004545F0FE4141F470014FF0000031
S32D0000C66830BD7FEA645C1ABF194610467FEA655C1CBF0B46024650EA013406BF52EA033591EA030F41F40021D7
S32D0000C69030BD00BF90F0000F04BF0021704730B54FF4806404F132044FF000054FF0000150E700BF90F0000F66
S32D0000C6B804BF0021704730B54FF4806404F1320410F0004548BF40424FF000013EE700BF42004FEAE2014FEAF9
S32D0000C6E031014FEA02701FBF12F07F4393F07F4F81F06051704792F0000F14BF93F07F4F704730B54FF460741B
S32D0000C70801F0004521F0004120E700BF50EA010208BF704730B54FF000050AE050EA010208BF704730B511F046
S32D0000C730004502D5404261EB41014FF4806404F132045FEA915C3FF4DCAE4FF003025FEADC0C18BF03325FEAA0
S32D0000C758DC0C18BF033202EBDC02C2F1200300FA03FC20FA02F001FA03FE40EA0E0021FA02F11444C1E600BF19
S32D0000C78070B54FF0FF0C4CF4E06C1CEA11541DBF1CEA135594EA0C0F95EA0C0F00F0DEF82C4481EA030621EAF3
S32D0000C7A84C5123EA4C5350EA013518BF52EA033541F4801143F4801338D0A0FB02CE4FF00005E1FB02E506F05F
S32D0000C7D00042E0FB03E54FF00006E1FB03569CF0000F18BF4EF0010EA4F1FF04B6F5007F64F5407404D25FEA0F
S32D0000C7F84E0E6D4146EB060642EAC62141EA55514FEAC52040EA5E504FEACE2EB4F1FD0C88BFBCF5E06F1ED8D2
S32D0000C820BEF1004F08BF5FEA500E50F1000041EB045170BD06F0004646EA010140EA020081EA0301B4EB5C0487
S32D0000C848C2BFD4EB0C0541EA045170BD41F480114FF0000E013C00F3AB8014F1360FDEBF002001F0004170BDF0
S32D0000C870C4F10004203C35DA0C341BDC04F11404C4F1200500FA05F320FA04F001FA05F240EA020001F0004207
S32D0000C89821F0004110EBD37021FA04F642EB06015EEA430E08BF20EAD37070BDC4F10C04C4F1200500FA04F32F
S32D0000C8C020FA05F001FA04F240EA020001F0004110EBD37041F100015EEA430E08BF20EAD37070BDC4F12005C7
S32D0000C8E800FA05F24EEA020E20FA04F301FA05F243EA020321FA04F001F0004121FA04F220EA020000EBD37028
S32D0000C9105EEA430E08BF20EAD37070BD94F0000F0FD101F00046400041EB010111F4801F08BF013CF7D041EA6D
S32D0000C938060195F0000F18BF704703F00046520043EB030313F4801F08BF013DF7D043EA0603704794EA0C0FF1
S32D0000C9600CEA135518BF95EA0C0F0CD050EA410618BF52EA4306D1D181EA030101F000414FF0000070BD50EA38
S32D0000C988410606BF1046194652EA430619D094EA0C0F02D150EA013613D195EA0C0F05D152EA03361CBF10467B
S32D0000C9B019460AD181EA030101F0004141F0FE4141F470014FF0000070BD41F0FE4141F4780170BD70B54FF04D
S32D0000C9D8FF0C4CF4E06C1CEA11541DBF1CEA135594EA0C0F95EA0C0F00F0A7F8A4EB050481EA030E52EA03359B
S32D0000CA004FEA013100F088804FEA03334FF0805545EA131343EA12634FEA022245EA111545EA10654FEA002676
S32D0000CA280EF000419D4208BF964244F1FD0404F5407402D25B084FEA3202B61A65EB03055B084FEA32024FF461
S32D0000CA5080104FF4002CB6EB020E75EB030E22BFB61A754640EA0C005B084FEA3202B6EB020E75EB030E22BF22
S32D0000CA78B61A754640EA5C005B084FEA3202B6EB020E75EB030E22BFB61A754640EA9C005B084FEA3202B6EBEA
S32D0000CAA0020E75EB030E22BFB61A754640EADC0055EA060E18D04FEA051545EA16754FEA06164FEAC30343EAAC
S32D0000CAC852734FEAC2025FEA1C1CC0D111F4801F0BD141EA00014FF000004FF0004CB6E711F4801F04BF0143AE
S32D0000CAF00020B4F1FD0C88BFBCF5E06F3FF6AFAEB5EB030C04BFB6EB020C5FEA500C50F1000041EB045170BDBC
S32D0000CB180EF0004E4EEA113114EB5C04C2BFD4EB0C0541EA045170BD41F480114FF0000E013C90E645EA060EC3
S32D0000CB408DE60CEA135594EA0C0F08BF95EA0C0F3FF43BAF94EA0C0F0AD150EA01347FF434AF95EA0C0F7FF499
S32D0000CB6825AF104619462CE795EA0C0F06D152EA03353FF4FDAE1046194622E750EA410618BF52EA43067FF432
S32D0000CB90C5AE50EA41047FF40DAF52EA43057FF4EBAE12E74FF0FF3C06E000BF4FF0010C02E000BF4FF0010C75
S32D0000CBB84DF804CD4FEA410C7FEA6C5C4FEA430C18BF7FEA6C5C1BD001B050EA410C0CBF52EA430C91EA030FEC
S32D0000CBE002BF90EA020F0020704710F1000F91EA030F58BF994208BF90422CBFD8176FEAE37040F0010070476E
S32D0000CC084FEA410C7FEA6C5C02D150EA013C07D14FEA430C7FEA6C5CD6D152EA033CD3D05DF8040B704700BFCD
S32D0000CC308446104662468C461946634600E000BF01B5FFF7B7FF002848BF10F1000F01BD4DF808EDFFF7F4FF13
S32D0000CC580CBF012000205DF808FB00BF4DF808EDFFF7EAFF34BF012000205DF808FB00BF4DF808EDFFF7E0FF18
S32D0000CC8094BF012000205DF808FB00BF4DF808EDFFF7CEFF94BF012000205DF808FB00BF4DF808EDFFF7C4FF40
S32D0000CCA834BF012000205DF808FB00BF4FEA410212F5001215D211D56FF47873B3EB625212D94FEAC12343F0D6
S32D0000CCD0004343EA505311F0004F23FA02F018BF404270474FF00000704750EA013005D111F0004008BF6FF016
S32D0000CCF8004070474FF00000704700BF4A0011D212F5001211D20DD56FF47873B3EB62520ED44FEAC12343F085
S32D0000CD20004343EA505323FA02F070474FF00000704750EA013002D14FF0FF3070474FF0000070474FEA410241
S32D0000CD48B2F1E04324BFB3F5001CDCF1FE5C0DD901F0004C4FEAC0024CEA5070B2F1004F40EB830008BF20F09E
S32D0000CD700100704711F0804F21D113F13872BCBF01F00040704741F480114FEA5252C2F11802C2F1200C10FAB1
S32D0000CD980CF320FA02F018BF40F001004FEAC1234FEAD32303FA0CFC40EA0C0023FA02F34FEA4303CCE77FEA26
S32D0000CDC0625307D150EA01331EBF4FF0FE4040F44000704701F0004040F0FE4040F40000704700BF80F00040CC
S32D0000CDE802E000BF81F0004142001FBF5FEA410392EA030F7FEA226C7FEA236C6AD04FEA1262D2EB1363C1BF06
S32D0000CE10D218414048404140B8BF5B42192B88BF704710F0004F40F4000020F07F4018BF404211F0004F41F4FA
S32D0000CE38000121F07F4118BF494292EA030F3FD0A2F1010241FA03FC10EB0C00C3F1200301FA03F100F000432B
S32D0000CE6002D5494260EB4000B0F5000F13D3B0F1807F06D340084FEA310102F10102FE2A51D2B1F1004F40EB94
S32D0000CE88C25008BF20F0010040EA03007047490040EB000010F4000FA2F10102EDD1B0FA80FCACF1080CB2EB5F
S32D0000CEB00C0200FA0CF0AABF00EBC25052421843BCBFD0401843704792F0000F81F4000106BF80F400000132EB
S32D0000CED8013BB5E74FEA41037FEA226C18BF7FEA236C21D092EA030F04D092F0000F08BF0846704790EA010FD7
S32D0000CF001CBF0020704712F07F4F04D1400028BF40F00040704712F100723CBF00F50000704700F0004343F0DC
S32D0000CF28FE4040F4000070477FEA226216BF08467FEA23630146420206BF5FEA412390EA010F40F480007047C1
S32D0000CF504FF0000304E000BF10F0004348BF40425FEA000C08BF704743F0964301464FF000001CE050EA010264
S32D0000CF7808BF70474FF000030AE000BF50EA010208BF704711F0004302D5404261EB41015FEA010C02BF84465B
S32D0000CFA00146002043F0B64308BFA3F18053A3F50003BCFA8CF2083AA3EBC25310DB01FA02FC634400FA02FC6B
S32D0000CFC8C2F12002BCF1004F20FA02F243EB020008BF20F00100704702F1200201FA02FCC2F1200250EA4C0034
S32D0000CFF021FA02F243EB020008BF20EADC7070474FF0FF0C1CEAD0521EBF1CEAD15392EA0C0F93EA0C0F6FD019
S32D0000D0181A4480EA010C400218BF5FEA41211ED04FF0006343EA501043EA5111A0FB01310CF00040B1F5000FE7
S32D0000D0403EBF490041EAD3715B0040EA010062F17F02FD2A1DD8B3F1004F40EBC25008BF20F00100704790F058
S32D0000D068000F0CF0004C08BF49024CEA502040EA51207F3AC2BFD2F1FF0340EAC250704740F400004FF0000388
S32D0000D090013A5DDC12F1190FDCBF00F000407047C2F10002410021FA02F1C2F1200200FA02FC5FEA310040F1D5
S32D0000D0B8000053EA4C0308BF20EADC70704792F0000F00F0004C02BF400010F4000F013AF9D040EA0C0093F04C
S32D0000D0E0000F01F0004C02BF490011F4000F013BF9D041EA0C018FE70CEAD15392EA0C0F18BF93EA0C0F0AD00B
S32D0000D10830F0004C18BF31F0004CD8D180EA010000F00040704790F0000F17BF90F0004F084691F0000F91F0BB
S32D0000D130004F14D092EA0C0F01D142020FD193EA0C0F03D14B0218BF084608D180EA010000F0004040F0FE4051
S32D0000D15840F40000704740F0FE4040F4400070474FF0FF0C1CEAD0521EBF1CEAD15392EA0C0F93EA0C0F69D044
S32D0000D180A2EB030280EA010C49024FEA402037D04FF0805343EA111143EA10130CF000408B4238BF5B0042F14E
S32D0000D1A87D024FF4000C8B4224BF5B1A40EA0C00B3EB510F24BFA3EB510340EA5C00B3EB910F24BFA3EB9103A4
S32D0000D1D040EA9C00B3EBD10F24BFA3EBD10340EADC001B0118BF5FEA1C1CE0D1FD2A3FF650AF8B4240EBC25018
S32D0000D1F808BF20F0010070470CF0004C4CEA50207F32C2BFD2F1FF0340EAC250704740F400004FF00003013AF1
S32D0000D22037E792F0000F00F0004C02BF400010F4000F013AF9D040EA0C0093F0000F01F0004C02BF490011F4C9
S32D0000D248000F013BF9D041EA0C0195E70CEAD15392EA0C0F08D142027FF47DAF93EA0C0F7FF470AF084676E7AE
S32D0000D27093EA0C0F04D14B023FF44CAF08466EE730F0004C18BF31F0004CCAD130F000427FF45CAF31F0004376
S32D0000D2987FF43CAF5FE700BF4FF0FF3C06E000BF4FF0010C02E000BF4FF0010C4DF804CD4FEA40024FEA41039F
S32D0000D2C07FEA226C18BF7FEA236C11D001B052EA530C18BF90EA010F58BFB2EB030088BFC81738BF6FEAE1706E
S32D0000D2E818BF40F0010070477FEA226C02D15FEA402C05D17FEA236CE4D15FEA412CE1D05DF8040B704700BF16
S32D0000D310844608466146FFE70FB5FFF7C9FF002848BF10F1000F0FBD4DF808EDFFF7F4FF0CBF012000205DF839
S32D0000D33808FB00BF4DF808EDFFF7EAFF34BF012000205DF808FB00BF4DF808EDFFF7E0FF94BF012000205DF8A9
S32D0000D36008FB00BF4DF808EDFFF7D2FF94BF012000205DF808FB00BF4DF808EDFFF7C8FF34BF012000205DF8B1
S32D0000D38808FB00BF4FEA4002B2F1FE4F0FD34FF09E03B3EB12620DD94FEA002343F0004310F0004F23FA02F060
S32D0000D3B018BF404270474FF00000704712F1610F01D1420205D110F0004008BF6FF0004070474FF00000704797
S32D0000D3D880B582B000AF78607868FFF7B9FD034641F25810C1F6FF70194602F091F87B6803F101031846FFF79A
S32D0000D400ABFD034641F26010C1F6FF70194602F083F807F10807BD4680BD00BF80B582B000AF78607868FFF7AE
S32D0000D42897FD034641F25810C1F6FF70194602F06FF87B68C3F100031846FFF789FD034641F26010C1F6FF70FA
S32D0000D450194602F061F807F10807BD4680BD00BF80B582B000AF78607B68C3F100031846FFF772FD034641F237
S32D0000D4785810C1F6FF70194602F04AF87868FFF767FD034641F26010C1F6FF70194602F03FF807F10807BD4687
S32D0000D4A080BD00BF80B500AF41F25810C1F6FF7001F0E2FF41F26010C1F6FF7001F0DCFF4FF000004FF07E5109
S32D0000D4C801F5C00104F038FB80BD00BF80B500AF41F26810C1F6FF7005F0B0F841F26C10C1F6FF7005F0AAF89E
S32D0000D4F080BD00BF98B500AF41F26C10C1F6FF7005F08CF8044641F26810C1F6FF7005F085F80346E318184699
S32D0000D518FFF7CCF802460B46104619464FF000024FF08043FFF752FA02460B4610461946FFF7BCFB03461846B6
S32D0000D54098BD00BF00000000B0B586B000AFF860C7E90023D7E9000133A3D3E90023FFF70FF902460B461046D1
S32D0000D568194631A3D3E90023FFF730FA02460B4610461946FFF79AFB03467B61FFF7A6FFF868FFF725FF04F05C
S32D0000D59003FB02460B4610461946FFF78BFB03463B6109E0FFF7A6FF034641F25840C1F6FF70194606F08EFD22
S32D0000D5B8FFF79CFF02467B699A4227DA04F0E8FA04460D463869FFF771F802460B4620462946FEF71DFF024671
S32D0000D5E00B464FF001010C46104619464FF000024FF0804303F50013FFF734FB0346002B02D14FF000031C4626
S32D0000D608E3B2002B02D04FF0010301E04FF00003002BC3D1FFF742FF07F11807BD46B0BD0000000000E07340EC
S32D0000D6300BD7A3703D6A1F40B0B584B000AF78603960FFF747FF7868FFF7E8FE04F0A4FA02460B461046194640
S32D0000D658FFF72CFB0346FB6009E0FFF747FF034641F25840C1F6FF70194606F02FFDFFF73DFF02463B689A420A
S32D0000D68027DA04F089FA04460D46F868FFF712F802460B4620462946FEF7BEFE02460B464FF001010C46104666
S32D0000D6A819464FF000024FF0804303F50013FFF7D5FA0346002B02D14FF000031C46E3B2002B02D04FF0010322
S32D0000D6D001E04FF00003002BC3D1FFF7E3FE07F11007BD46B0BD00BFB0B584B000AF78603960FFF7EFFE7868B9
S32D0000D6F8FFF7B2FE04F04CFA02460B4610461946FFF7D4FA0346FB6009E0FFF7EFFE034641F25840C1F6FF7068
S32D0000D720194606F0D7FCFFF7E5FE02463B689A4227DA04F031FA04460D46F868FEF7BAFF02460B4620462946DA
S32D0000D748FEF766FE02460B464FF001010C46104619464FF000024FF0804303F50013FFF77DFA0346002B02D177
S32D0000D7704FF000031C46E3B2002B02D04FF0010301E04FF00003002BC3D1FFF78BFE07F11007BD46B0BD00BF73
S32D0000D79898B500AF41F23410C1F6FF7004F074FF03464FF00102144618462049FFF7C2FD0346002B02D14FF07C
S32D0000D7C000031C46E3B2002B2DD141F23810C1F6FF7004F05DFF03464FF00102144618461449FFF7ABFD0346A0
S32D0000D7E8002B02D14FF000031C46E3B2002B16D141F23C10C1F6FF7004F046FF03464FF0010214461846094957
S32D0000D810FFF794FD0346002B02D14FF000031C46E3B2002B02D04FF0010301E04FF00003184698BD0000C03FCE
S32D0000D83890B583B000AF41F22C10C1F6FF7004F023FF03461846FEF743FF02460B464FF001010C461046194631
S32D0000D86031A3D3E90023FFF7FDF90346002B02D14FF000031C46E3B2002B03D04FF001037B604BE041F22C10C5
S32D0000D888C1F6FF7004F000FF03461846FEF720FF02460B464FF001010C461046194620A3D3E90023FFF7F8F934
S32D0000D8B00346002B02D14FF000031C46E3B2002B21D041F22C10C1F6FF7004F0E1FE03461846FEF701FF024662
S32D0000D8D80B464FF001010C461046194612A3D3E90023FFF7BBF90346002B02D14FF000031C46E3B2002B02D0CE
S32D0000D9004FF0010301E04FF00003002B03D04FF002037B6002E04FF003037B60184607F10C07BD4690BD00BFFC
S32D0000D928333333333333E33F333333333333FF3FF0B583B000AF786016E141F25840C1F6FF7048F66431C0F241
S32D0000D950010106F0C1FA41F2C040C1F6FF7009F099FE034641F25840C1F6FF70194606F0C5FB41F2C040C1F6D4
S32D0000D978FF7009F08BFE03464FF00102144618467968FFF7F5FC0346002B02D14FF000031C46E3B2002B68D0A2
S32D0000D9A06FF01100FFF718FD00BF41F2C040C1F6FF7009F06FFE03461846FEF78DFE04460D467868FEF788FE41
S32D0000D9C802460B46104619464FF000024FF07E5303F5C003FEF71CFD02460B464FF001010E4620462946FFF7D0
S32D0000D9F039F90346002B02D14FF000031E46F3B2002B2CD141F2C040C1F6FF7009F042FE03461846FEF760FE91
S32D0000DA1804460D467868FEF75BFE02460B46104619464FF000024FF07E5303F5C003FEF7F1FC02460B464FF001
S32D0000DA4001010E4620462946FFF72AF90346002B02D14FF000031E46F3B2002B02D04FF0010301E04FF000037F
S32D0000DA68002B9ED1FFF71AFD7EE041F2C040C1F6FF7009F00BFE03464FF00102144618467968FFF757FC03467A
S32D0000DA90002B02D14FF000031C46E3B2002B67D04FF01200FFF798FC00BF41F2C040C1F6FF7009F0EFFD0346AE
S32D0000DAB81846FEF70DFE04460D467868FEF708FE02460B46104619464FF000024FF07E5303F5C003FEF79CFC83
S32D0000DAE002460B464FF001010E4620462946FFF7B9F80346002B02D14FF000031E46F3B2002B2CD141F2C04081
S32D0000DB08C1F6FF7009F0C2FD03461846FEF7E0FD04460D467868FEF7DBFD02460B46104619464FF000024FF080
S32D0000DB307E5303F5C003FEF771FC02460B464FF001010E4620462946FFF7AAF80346002B02D14FF000031E4651
S32D0000DB58F3B2002B02D04FF0010301E04FF00003002B9ED1FFF79AFC41F2C040C1F6FF7009F08CFD03461846EF
S32D0000DB80FEF7AAFD04460D467868FEF7A5FD02460B46104619464FF000024FF07E5303F5C003FEF739FC0246FB
S32D0000DBA80B464FF001010E4620462946FFF756F80346002B02D14FF000031E46F3B2002B2CD141F2C040C1F6AC
S32D0000DBD0FF7009F05FFD03461846FEF77DFD04460D467868FEF778FD02460B46104619464FF000024FF07E53C7
S32D0000DBF803F5C003FEF70EFC02460B464FF001010E4620462946FFF747F80346002B02D14FF000031E46F3B27B
S32D0000DC20002B02D04FF0010301E04FF00003002B7FF487AE07F10C07BD46F0BDF0B583B000AF786016E141F25C
S32D0000DC485840C1F6FF7048F67031C0F2010106F03FF941F2C040C1F6FF7009F027FD034641F25840C1F6FF707F
S32D0000DC70194606F043FA41F2C040C1F6FF7009F019FD03464FF00102144618467968FFF773FB0346002B02D1BD
S32D0000DC984FF000031C46E3B2002B68D04FF01200FFF796FB00BF41F2C040C1F6FF7009F0FDFC03461846FEF744
S32D0000DCC00BFD04460D467868FEF706FD02460B46104619464FF000024FF07E5303F5C003FEF79AFB02460B463C
S32D0000DCE84FF001010E4620462946FEF7B7FF0346002B02D14FF000031E46F3B2002B2CD141F2C040C1F6FF70E6
S32D0000DD1009F0D0FC03461846FEF7DEFC04460D467868FEF7D9FC02460B46104619464FF000024FF07E5303F5CC
S32D0000DD38C003FEF76FFB02460B464FF001010E4620462946FEF7A8FF0346002B02D14FF000031E46F3B2002B3F
S32D0000DD6002D04FF0010301E04FF00003002B9ED1FFF798FB7EE041F2C040C1F6FF7009F099FC03464FF001026A
S32D0000DD88144618467968FFF7D5FA0346002B02D14FF000031C46E3B2002B67D06FF01100FFF716FB00BF41F2C4
S32D0000DDB0C040C1F6FF7009F07DFC03461846FEF78BFC04460D467868FEF786FC02460B46104619464FF0000207
S32D0000DDD84FF07E5303F5C003FEF71AFB02460B464FF001010E4620462946FEF737FF0346002B02D14FF0000391
S32D0000DE001E46F3B2002B2CD141F2C040C1F6FF7009F050FC03461846FEF75EFC04460D467868FEF759FC024620
S32D0000DE280B46104619464FF000024FF07E5303F5C003FEF7EFFA02460B464FF001010E4620462946FEF728FFBD
S32D0000DE500346002B02D14FF000031E46F3B2002B02D04FF0010301E04FF00003002B9ED1FFF718FB41F2C040D9
S32D0000DE78C1F6FF7009F01AFC03461846FEF728FC04460D467868FEF723FC02460B46104619464FF000024FF028
S32D0000DEA07E5303F5C003FEF7B7FA02460B464FF001010E4620462946FEF7D4FE0346002B02D14FF000031E466B
S32D0000DEC8F3B2002B2CD141F2C040C1F6FF7009F0EDFB03461846FEF7FBFB04460D467868FEF7F6FB02460B4697
S32D0000DEF0104619464FF000024FF07E5303F5C003FEF78CFA02460B464FF001010E4620462946FEF7C5FE0346C4
S32D0000DF18002B02D14FF000031E46F3B2002B02D04FF0010301E04FF00003002B7FF487AE07F10C07BD46F0BDA1
S32D0000DF4080B582B000AF4FF00003FB71FFF7D2FA03463B600CA1D1E9000103F0F1FDFFF7C9FA02463B689A4280
S32D0000DF6814BF00230123DBB2002B02D04FF00103FB71FB79184607F10807BD4680BD00BF333333333333C33F2C
S32D0000DF90F0B587B000AF786041F2C040C1F6FF7009F098FB03461846FEF796FB02460B46C7E9042303E24FF05A
S32D0000DFB81403FB607868FEF78BFB02460B4610461946D7E90423FEF723FA02460B464FF001010C461046194646
S32D0000DFE04FF000024FF00003FEF75AFE0346002B02D14FF000031C46E3B2002B00F0E68041F25840C1F6FF7051
S32D0000E00848F67C31C0F2010105F062FF41F2C040C1F6FF7009F05AFB034641F25840C1F6FF70194606F066F861
S32D0000E0307868FEF751FB02460B4610461946D7E90423FEF7E9F902460B464FF001010C4610461946ACA3D3E9A9
S32D0000E0580023FEF703FE0346002B02D14FF000031C46E3B2002B56D04FF01400FFF7D2F90FE0FFF761FF03460E
S32D0000E080002B04D0FB6803F10103FB6002E04FF01403FB60F868FFF7C1F941F2C040C1F6FF7009F017FB05466B
S32D0000E0A878689949FEF79EFE03464FF00102144628461946FFF73EF90346002B02D14FF000031C46E3B2002B6D
S32D0000E0D01BD141F2C040C1F6FF7009F0FBFA054678688B49FEF784FE03464FF00102144628461946FFF740F998
S32D0000E0F80346002B02D14FF000031C46E3B2002B02D04FF0010301E04FF00003002BB0D1FFF7C4F941E14FF057
S32D0000E1201400FFF79DF90FE0FFF70AFF0346002B04D0FB6803F10103FB6002E04FF01403FB60F868FFF78CF9D7
S32D0000E14841F2C040C1F6FF7009F0C0FA054678686D49FEF747FE03464FF00102144628461946FFF7E7F80346B2
S32D0000E170002B02D14FF000031C46E3B2002B1BD141F2C040C1F6FF7009F0A4FA054678685F49FEF72DFE034607
S32D0000E1984FF00102144628461946FFF7E9F80346002B02D14FF000031C46E3B2002B02D04FF0010301E04FF039
S32D0000E1C00003002BB0D1FFF76DF9EAE041F25840C1F6FF7048F67C31C0F2010105F07CFE41F2C040C1F6FF7004
S32D0000E1E809F074FA034641F25840C1F6FF70194605F080FF7868FEF76BFA02460B46D7E90401FEF705F90246C2
S32D0000E2100B464FF001010C46104619463AA3D3E90023FEF71FFD0346002B02D14FF000031C46E3B2002B56D0A9
S32D0000E2384FF01400FFF710F90FE0FFF77DFE0346002B04D0FB6803F10103FB6002E04FF01403FB60F868FFF71F
S32D0000E260FFF841F2C040C1F6FF7009F033FA054678682749FEF7BAFD03464FF00102144628461946FFF75AF8D9
S32D0000E2880346002B02D14FF000031C46E3B2002B1BD141F2C040C1F6FF7009F017FA054678681949FEF7A0FD4F
S32D0000E2B003464FF00102144628461946FFF75CF80346002B02D14FF000031C46E3B2002B02D04FF0010301E0A3
S32D0000E2D84FF00003002BB0D1FFF7E0F85DE04FF01400FFF797F817E0FFF726FE0346002B0CD0FB6803F101038B
S32D0000E300FB600AE0AFF300800000000000806640000000404FF01403FB60F868FFF77EF841F2C040C1F6FF704C
S32D0000E32809F0D4F9054678685649FEF75BFD03464FF00102144628461946FEF7FBFF0346002B02D14FF00003C0
S32D0000E3501C46E3B2002B1BD141F2C040C1F6FF7009F0B8F9054678684849FEF741FD03464FF00102144628464C
S32D0000E3781946FEF7FDFF0346002B02D14FF000031C46E3B2002B02D04FF0010301E04FF00003002BA8D1FFF7AA
S32D0000E3A081F841F2C040C1F6FF7009F093F903461846FEF791F902460B46C7E9042341F2C040C1F6FF7009F010
S32D0000E3C885F903461846FEF783F904460D467868FEF77EF902460B46104619464FF000024FF0804303F580237C
S32D0000E3F0FEF712F802460B464FF001010E4620462946FEF72FFC0346002B02D14FF000031E46F3B2002B2CD123
S32D0000E41841F2C040C1F6FF7009F058F903461846FEF756F904460D467868FEF751F902460B46104619464FF0FF
S32D0000E44000024FF0804303F58023FDF7E7FF02460B464FF001010E4620462946FEF720FC0346002B02D14FF09B
S32D0000E46800031E46F3B2002B02D04FF0010301E04FF00003002B7FF49AAD07F11C07BD46F0BD00BF0000004068
S32D0000E490F0B585B000AFC7E902017A607868FEF79BFF17E041F25840C1F6FF7048F68831C0F2010105F010FD44
S32D0000E4B841F2C040C1F6FF7009F0E8F8034641F25840C1F6FF70194605F014FE41F2C040C1F6FF7009F0DAF840
S32D0000E4E003461846FEF7F8F804460D46D7E902014FF000024FF07E5303F5E003FDF78CFF02460B464FF001019D
S32D0000E5080E4620462946FEF7A9FB0346002B02D14FF000031E46F3B2002B27D141F2C040C1F6FF7009F0B2F872
S32D0000E53003461846FEF7D0F804460D46D7E902014FF000024FF07E5303F5E003FDF766FF02460B464FF001019A
S32D0000E5580E4620462946FEF79FFB0346002B02D14FF000031E46F3B2002B02D04FF0010301E04FF00003002BBD
S32D0000E58090D1FEF78FFF07F11407BD46F0BD00BFF0B587B000AFF860C7E9002303F0FCFA02460B46104619461A
S32D0000E5A8FEF784FB03467B61ACE041F25840C1F6FF7048F6A031C0F2010105F089FC41F2C040C1F6FF7009F0A0
S32D0000E5D061F8034641F25840C1F6FF70194605F0C3FC41F25840C1F6FF7048F6A431C0F2010105F071FC41F22A
S32D0000E5F8C040C1F6FF7009F059F8034641F25840C1F6FF70194605F075FD41F2C040C1F6FF7009F03BF80346B7
S32D0000E6201846FEF759F804460D46D7E900014FF000024FF07E5303F5D003FDF7EDFE02460B464FF001010E46A1
S32D0000E64820462946FEF70AFB0346002B02D14FF000031E46F3B2002B14D04FF01E004FF05001FFF73DF8D7E95C
S32D0000E6700001FA68FFF70CFF4FF01E004FF05001FEF7DAFF4A48FFF783FC3FE041F2C040C1F6FF7008F0FEFFE9
S32D0000E69803461846FEF71CF804460D46D7E900014FF000024FF07E5303F5D003FDF7B2FE02460B464FF00101AC
S32D0000E6C00E4620462946FEF7EBFA0346002B02D14FF000031E46F3B2002B14D04FF01E004FF03201FEF7A8FF1D
S32D0000E6E8D7E90001FA68FFF7CFFE4FF01E004FF03201FEF7F5FF2C48FFF746FC02E0F868FEF766FE41F2C040EC
S32D0000E710C1F6FF7008F0CEFF03461846FDF7DCFF02460B464FF001010C4610461946D7E90C23FEF797FA0346DB
S32D0000E738002B02D14FF000031C46E3B2002B27D003F026FA04460D467869FDF7AFFF02460B4620462946FDF7C5
S32D0000E7605BFE02460B464FF001010C46104619464FF000024FF0804303F53813FEF772FA0346002B02D14FF0E4
S32D0000E78800031C46E3B2002B02D04FF0010301E04FF00003002B7FF408AFF868FEF718FE07F11C07BD46F0BD7B
S32D0000E7B00000B44280B500AF41F24C10C1F6FF70054904F0EDFB41F24010C1F6FF70034904F0E6FB80BD00BFBC
S32D0000E7D80000C8420000B84180B500AF41F24010C1F6FF701C4904F0D7FB4FF014004FF000024FF07E5303F5BC
S32D0000E800E003FEF7A1FE4FF000004FF07E5101F5C00103F095F941F24C10C1F6FF70114904F0BEFB41F24010AF
S32D0000E828C1F6FF700E4904F0B7FB09A1D1E9000103F082F96FF013004FF000024FF0804303F50023FEF77CFE8D
S32D0000E85080BD00BFAFF300809A9999999999C93F00000041000036430000F041AFF30080B0B586B002AF41F251
S32D0000E8785840C1F6FF704FF0000105F003F941F24010C1F6FF7040F2823104F049FB41F24010C1F6FF7040F2E2
S32D0000E8A06B7104F05FFB41F24C10C1F6FF704FF4FA7104F039FB41F24C10C1F6FF7040F26D6104F04FFB41F26F
S32D0000E8C84C10C1F6FF70DE4904F066FB41F24010C1F6FF70DB4904F05FFB41F2C040C1F6FF7008F003FA41F288
S32D0000E8F05840C1F6FF7048F67C31C0F2010105F0EBFA41F2C040C1F6FF7008F0E3FE034641F25840C1F6FF7057
S32D0000E918194605F0EFFB41F25840C1F6FF7048F6AC31C0F2010105F0D3FAFEF731FF034641F25840C1F6FF70B2
S32D0000E940194605F0EFFB03F027F902460B4610461946FEF7AFF90346FB6009E0FEF76CFF034641F25840C1F6B5
S32D0000E968FF70194605F0B2FB41F22C10C1F6FF7003F08AFE03461846FDF7AAFE02460B464FF001010C4610463C
S32D0000E9901946A5A3D3E90023FEF782F90346002B02D14FF000031C46E3B2002B24D003F0F3F804460D46F868E9
S32D0000E9B8FDF77CFE02460B4620462946FDF728FD02460B464FF001010C461046194696A3D3E90023FEF74CF909
S32D0000E9E00346002B02D14FF000031C46E3B2002B02D04FF0010301E04FF00003002BADD14FF000024FF080433A
S32D0000EA0803F54813C7E900234FF02300FEF7E0FC4FF000004FF0804101F5E01103F08CF8FEF73CFD6FF01D0040
S32D0000EA304FF000024FF0804303F5E013FEF784FD4FF02800FEF70CFD00BF41F2C040C1F6FF7008F03FFE034619
S32D0000EA584FF00102144618467B49FEF789FC0346002B02D14FF000031C46E3B2002BE8D1FEF714FD6EA1D1E925
S32D0000EA8000014FF01E02FFF703FD7248FEF754FF4FF01E004FF4AF71FEF726FE6E48FFF777FAFFF787FE4FF060
S32D0000EAA81400FEF795FC17E041F25840C1F6FF7048F6B831C0F2010105F00AFA41F2C040C1F6FF7008F0E2FDBA
S32D0000EAD0034641F25840C1F6FF70194605F00EFB41F2C040C1F6FF7008F0E4FD03464FF001021446184659496A
S32D0000EAF8FEF73EFC0346002B02D14FF000031C46E3B2002BD0D1FEF7C9FCFFF765FE4FF01E004FF06401FEF76C
S32D0000EB20E3FD4FF014004FF000024FF07E5303F5E003FEF709FD41F24010C1F6FF70484904F02EFA4FF00000D8
S32D0000EB484FF07E5101F5C00102F0F6FF41F24C10C1F6FF70414904F01FFA4FF000004FF07E5101F5C00102F0B1
S32D0000EB70E7FF41F24010C1F6FF703B4904F010FA41F24C10C1F6FF702F4904F009FA4FF01E004FF4FA71FEF742
S32D0000EB98A7FD3348FFF7F8F94FF000024FF0804303F54813CDE900234FF0140022A3D3E90023FFF7E9FCFEF713
S32D0000EBC071FC41F25810C1F6FF70284900F0A4FC41F26010C1F6FF70254900F09DFCFEF779FC00BFFEF786FC98
S32D0000EBE8024640F213539A4242DC41F2C040C1F6FF7008F05BFD03464FF00102144618461A49FEF797FB034606
S32D0000EC10002B02D14FF000031C46E3B2002B2BD04FF001032AE000BF9A9999999999F53F0000000000804140A1
S32D0000EC38CDCCCCCCCCCC3740CDCCCCCCCC4C3C40000034430000F4420000C0406666BE41008089430000904114
S32D0000EC60000020410000F0410000B4420000704200007442000014424FF00003002BB1D14FF01900FEF7A8FB61
S32D0000EC8800BF41F2C040C1F6FF7008F00FFD03464FF00102144618466149FEF74BFB0346002B02D14FF0000391
S32D0000ECB01C46E3B2002BE8D1FEF7F4FB41F24010C1F6FF70594904F06BF953A3D3E90023CDE900234FF01400D3
S32D0000ECD851A3D3E90023FFF757FCFEF7DFFB5248FFF752F941F25840C1F6FF704FF0FF0104F0FEFE4FF01900D0
S32D0000ED00FEF76AFB4FF000004FF07E5101F5F00102F016FFFEF7C6FB4FF000004FF0804101F5B01102F00CFFA7
S32D0000ED286FF013004FF000024FF0804303F5A013FEF706FC41F24010C1F6FF703A4904F02BF941F24C10C1F6DC
S32D0000ED50FF70364904F024F96FF013004FF000024FF0804303F50813FEF7EEFB41F25840C1F6FF704FF00001BF
S32D0000ED7804F088FE4FF01E004FF4C871FEF758FC4FF014004FF000024FF07E5303F5F003FEF7D6FB4FF01E001F
S32D0000EDA04FF4BE71FEF748FC2248FFF7F1F84FF01E00FEF711FB00BF41F2C040C1F6FF7008F078FC03464FF0E7
S32D0000EDC80102144618461A49FEF7D2FA0346002B02D14FF000031C46E3B2002BE8D11448FEF728FFFEF75AFB18
S32D0000EDF04FF019004FF0C801FEF776FC0F48FFF7C7F84FF01900FEF7E7FA4FF00003184607F11007BD46B0BDD5
S32D0000EE189A99999999594C40CDCCCCCCCC4C3D4000001442000034430000B442008086430000B041000048439B
S32D0000EE4080B582B000AF786039607B68012B40F088803A684FF6FF739A4240F0828041F21C10C1F6FF704FF0AB
S32D0000EE68060102F0EFFE41F22010C1F6FF704FF0040102F0E7FE41F22410C1F6FF704FF0120102F0DFFE41F211
S32D0000EE902810C1F6FF704FF0030102F0D7FE41F22C10C1F6FF704FF00E0103F0DFFB41F23010C1F6FF704FF064
S32D0000EEB8100103F0D7FB41F23410C1F6FF704FF00C0103F0CFFB41F23810C1F6FF704FF00A0103F0C7FB41F2DD
S32D0000EEE03C10C1F6FF704FF0080103F0BFFB41F24010C1F6FF704FF0000103F0F7FF41F24C10C1F6FF704FF0D7
S32D0000EF08020103F0EFFF41F25810C1F6FF704FF00101144A00F054FA41F26010C1F6FF704FF000010F4A00F007
S32D0000EF304BFA41F26810C1F6FF704FF0000102F0B5FF41F26C10C1F6FF704FF0010102F0ADFF41F27010C1F699
S32D0000EF58FF704FF0030103F035FE07F10807BD4680BD00BF0000404180B500AF4FF001004FF6FF71FFF760FFFE
S32D0000EF8080BD00BF80B500AF41F22472C1F6FF7241F21C13C1F6FF73D31A194641F21C13C1F6FF731A460B467F
S32D0000EFA810464FF000011A4608F039FD80BD00BF09F0AEFD00F0B0F9FFF7E0FF09F080FD09F01CFD09F0B4FDD7
S32D0000EFD000F00CF84FF0000041F27411C1F6FF71FFF746FC0346184608F0F8FC80B500AF4FF4E043C4F204032F
S32D0000EFF84FF4E042C4F2040202F5805202F13802126842F4785203F5805303F138031A6000F02EF900F094F853
S32D0000F02041F2A433C1F6FF734FF058021A6041F2A433C1F6FF731B684FF47A7202FB03F241F2A033C1F6FF7376
S32D0000F0481A6041F2A033C1F6FF731B681A464FF4E043C4F2040303F5825303F104031B6803F070634FEA13632B
S32D0000F07003F10103B2FBF3F31A4641F2A833C1F6FF731A604FF4E043C4F204034FF4E042C4F2040202F58052C9
S32D0000F09802F13C02126842F0225203F5805303F13C031A604FF4E043C4F204034FF4E042C4F2040202F5805274
S32D0000F0C002F13002126842F0006203F5805303F130031A604FF45043C4F203034FF480721A614FF0640002F0AC
S32D0000F0E8A3FB4FF45043C4F203034FF45042C4F20302526922F010025A614FF45043C4F203034FF000021A6053
S32D0000F1104FF45043C4F203034FF010025A6103F0E9FB03F091FC41F29C30C1F6FF7002F003FC41F25840C1F644
S32D0000F138FF7004F0F5FA41F2883002F0E1FC80BD80B400AF4FF48043C4F206034FF000025A704FF48043C4F2F1
S32D0000F16006034FF098021A704FF48043C4F206039B79DBB203F01003002B0CBF00230123DBB2002BF0D14FF4B0
S32D0000F1888043C4F206039B79DBB203F00C034FEA9303022B0CBF00230123DBB2002BEED14FF48043C4F20603EA
S32D0000F1B04FF018021A714FF48043C4F206034FF000025A714FF4E043C4F2040303F5825303F104034FF0000250
S32D0000F1D8C0F213121A604FF48043C4F206034FF054025A7100BF4FF48043C4F206039B79DBB203F02003002B2D
S32D0000F20014BF00230123DBB2002BF0D100BF4FF48043C4F206039B79DBB203F04003002B14BF00230123DBB220
S32D0000F228002BF0D14FF48043C4F206034FF48042C4F206021278D2B202F03F02D2B21A704FF48043C4F2060330
S32D0000F2509B79DBB203F00C034FEA9303032B0CBF00230123DBB2002BEED14FF000031846BD4680BC704700BF12
S32D0000F27880B400AF4FF44043C4F204034FF480725A634FF2C003C4F20F034FF2C002C4F20F02526942F4005237
S32D0000F2A05A614FF2C003C4F20F034FF2C002C4F20F02126842F400521A604FF44043C4F2040340F20312C0F2F7
S32D0000F2C80A021A634FF46143CEF200034FF46142CEF20002D2F8882142F08062C3F888214FF46143CEF20003A8
S32D0000F2F04FF46142CEF20002926842F080629A60BD4680BC704700BF80B483B000AF7860FEE700BF80B400AF16
S32D0000F31800BEBD4680BC704780B400AF4FF0E0224CF20003C0F20003C2F8083D4FF40053C4F205034CF22052F6
S32D0000F340DA814FF40053C4F205034DF62812DA814FF40053C4F205034FF0D2021A80BD4680BC704780B500AF3D
S32D0000F3684FF44043C4F20403D3F8A03003F48053002B0CBF00230123DBB2002B1FD04FF44043C4F204034FF4E5
S32D0000F3904042C4F20402D2F8A02022F48052C3F8A02041F2E040C1F6FF7008F09DFA4FF2C003C4F20F034FF20F
S32D0000F3B8C002C4F20F02126822F400521A6080BD90B585B000AFF8600B467A60FB72FB68FA7A1A71FB684FF0E8
S32D0000F3E000025A714FF001031C4678682049FDF7C3FF0346002B02D14FF000031C46E3B2002B02D01A4B7B60D1
S32D0000F40811E04FF001031C4678681849FDF79CFF0346002B02D14FF000031C46E3B2002B01D0124B7B607868DC
S32D0000F430FDF752F902460B46104619460AA3D3E90023FDF79DF902460B4610461946FDF779FC0246FB681A602F
S32D0000F458FB68184607F11407BD4690BDAFF30080ABAAAAAAAAAA2040000040410000803F80B582B000AF7860B5
S32D0000F4807B685B79002B10D07B684FF000025A717B681B7941F29C30C1F6FF7019464FF000024FF01E0302F01F
S32D0000F4A891FA07F10807BD4680BD00BF80B584B000AF786039603B687F2B03DD4FF07F03FB7309E03B6813F130
S32D0000F4D0800F03DA4FF08003FB7301E03B68FB737B685B79FA7B9A420FD07B68FA7B5A717B681A79FB7B41F257
S32D0000F4F89C30C1F6FF7011461A464FF01E0302F061FA07F11007BD4680BD00BF00000000B0B584B000AF786062
S32D0000F52039604FF001031C4638684D49FDF706FF0346002B02D14FF000031C46E3B2002B02D0474B3B6011E0B5
S32D0000F5484FF001031C4638684449FDF711FF0346002B02D14FF000031C46E3B2002B01D03E4B3B603868FDF78B
S32D0000F570B3F804460D467B681B681846FDF7ACF802460B46104619464FF000024FF0804303F5B203FDF71EFA7F
S32D0000F59802460B4620462946FDF7EEF802460B4610461946FDF7CAFB03463B604FF001031C4638682A49FDF766
S32D0000F5C0D1FE0346002B02D14FF000031C46E3B2002B14D03868FDF77FF802460B46104619461DA3D3E90023C7
S32D0000F5E8FDF7CAF802460B4610461946FDF75EFB0346FB6022E03868FDF76AF802460B46104619464FF0000279
S32D0000F6104FF0804303F5C003FDF7B2F802460B46104619464FF000024FF0804303F5B203FDF7D0F902460B46DD
S32D0000F63810461946FDF73AFB0346FB607868F968FFF734FF07F11007BD46B0BDAFF3008052B81E85EB51F43FFB
S32D0000F6600000C8C20000C84200000000AFF3008080B485B000AF02460B46FA71BB71BB79002B07D141F2781389
S32D0000F688C1F6FF734FF000021A7006E041F27813C1F6FF734FF001021A704FF03803FB7341F27813C1F6FF73F8
S32D0000F6B01A78FB7B1343FB734FF4C043C4F206034FF4C042C4F206029278D2B242F01002D2B29A704FF4C043B2
S32D0000F6D8C4F206034FF4C042C4F206029278D2B242F02002D2B29A704FF4C043C4F20603FA7B1A7107F11407BA
S32D0000F700BD4680BC704700BF80B483B000AF4FF001037B6004E000BF7B6803F101037B607B68312BCCBF0023AC
S32D0000F7280123DBB2002BF2D107F10C07BD4680BC704700BF80B582B000AF02460B46FA71BB7141F27913C1F698
S32D0000F750FF731B7818464FF00001FFF789FF4FF4C043C4F20603DB78DBB203F00203002B14BF00230123DBB2BB
S32D0000F778002BF0D14FF4C043C4F206034FF4C042C4F20602D278D2B242F00202D2B2DA704FF4C043C4F2060398
S32D0000F7A0FA791A714FF4C043C4F20603DB78DBB203F00203002B14BF00230123DBB2002BF0D14FF4C043C4F2A6
S32D0000F7C806034FF4C042C4F20602D278D2B242F00202D2B2DA704FF4C043C4F20603BA791A714FF4C043C4F276
S32D0000F7F00603DB78DBB203F00203002B14BF00230123DBB2002BF0D14FF4C043C4F206034FF4C042C4F2060244
S32D0000F818D278D2B242F00202D2B2DA704FF4C043C4F206034FF4C042C4F206029278D2B222F02002D2B29A7098
S32D0000F8404FF4C043C4F206034FF4C042C4F206029278D2B222F01002D2B29A70FFF754FF07F10807BD4680BDC2
S32D0000F86880B582B000AF0346FB71FB79184600F06BF807F10807BD4680BD00BF80B582B000AF02460B46FA7162
S32D0000F890BB7100F039F8FB794FEA4303DBB21846FFF7E2FFBB791846FFF7DEFF00F03EF807F10807BD4680BD76
S32D0000F8B880B500AF4FF0FF0000F046F80346184680BD00BF80B584B000AF0346FB7100F017F8FB794FEA430370
S32D0000F8E0DBB243F00103DBB2DBB21846FFF7BCFFFFF7E2FF0346FB7300F018F8FB7B184607F11007BD4680BD5C
S32D0000F90880B400AF4FF24003C4F20F034FF24002C4F20F02926842F480129A60BD4680BC704700BF80B400AF04
S32D0000F9304FF24003C4F20F034FF24002C4F20F02526842F480125A60BD4680BC704700BF80B485B000AF0346C1
S32D0000F958FB714FF00003BB7303E0FB7B03F10103FB734FF44043C4F20A03DB6A4FF00003002BF2D14FF4404322
S32D0000F980C4F20A034FF44042C4F20A02D26A42F00042DA624FF44043C4F20A03FA795A6300BF4FF44043C4F22F
S32D0000F9A80A03DB6A03F40033002B14BF00230123DBB2002BF1D14FF44043C4F20A039B6BBB73BB7B184607F1AD
S32D0000F9D01407BD4680BC704780B582B000AF4FF4E043C4F204034FF4E042C4F2040202F5805202F13002126836
S32D0000F9F842F4805203F5805303F130031A604FF42043C4F204034FF480721A654FF24003C4F20F034FF2400287
S32D0000FA20C4F20F02526942F480125A61FFF77EFF4FF42043C4F204034FF400725A654FF42043C4F204034FF4C3
S32D0000FA4800729A654FF42043C4F204034FF40072DA654FF44043C4F20A034FF44062C8F200021A604FF440435E
S32D0000FA70C4F20A034FF00502C3F60062DA604FF000037B6007E04FF0FF00FFF7EDFE7B6803F101037B607B684E
S32D0000FA98092BCCBF00230123DBB2002BEFD104A1D1E9000102F048F807F10807BD4680BD9A9999999999B93F5A
S32D0000FAC090B486B000AFF860B9607A60FA684FF42043C4F206039A4214D14FF4E043C4F204034FF4E042C4F2DE
S32D0000FAE8040202F5805202F13402126842F4806203F5805303F134031A6083E0FA684FF43043C4F206039A42E0
S32D0000FB1014D14FF4E043C4F204034FF4E042C4F2040202F5805202F13402126842F4006203F5805303F13403A4
S32D0000FB381A6067E0FA684FF44043C4F206039A4214D14FF4E043C4F204034FF4E042C4F2040202F5805202F136
S32D0000FB603402126842F4805203F5805303F134031A604BE0FA684FF45043C4F206039A4214D14FF4E043C4F250
S32D0000FB8804034FF4E042C4F2040202F5805202F13402126842F4005203F5805303F134031A602FE0FA684FF40F
S32D0000FBB02043C4F20E039A4214D14FF4E043C4F204034FF4E042C4F2040202F5805202F12802126842F4806280
S32D0000FBD803F5805303F128031A6013E04FF4E043C4F204034FF4E042C4F2040202F5805202F12802126842F4CE
S32D0000FC00006203F5805303F128031A60FB68DB78DBB223F00C03DAB2FB68DA70FB684FF000029A70BB684FF45E
S32D0000FC287A7202FB03F27B684FEA031392FBF3F39CB2FB681B78DBB223F01F03FB75234603F4F8534FEA23238B
S32D0000FC50DBB203F01F03DAB2FB7D1343DAB2FB681A70E2B2FB685A70BB684FF4FA4202FB03F27B684FEA03138A
S32D0000FC7892FBF3F39AB2234619464FEAC121CB1A4FEA43139BB2D3189CB2FB689B7ADBB223F01F03FB75E3B283
S32D0000FCA003F01F03DAB2FB7D1343DAB2FB689A72FB68DB78DBB243F00C03DAB2FB68DA7007F11807BD4690BCA8
S32D0000FCC8704700BF80B483B000AF786000BF7B681B79DBB203F02003002B14BF00230123DBB2002BF3D17B682D
S32D0000FCF0DB79DBB2184607F10C07BD4680BC704780B483B000AF78600B46FB7000BF7B681B79DBB2DBB26FEA53
S32D0000FD180303DBB24FEAD313DBB2002BF3D17B68FA78DA7107F10C07BD4680BC704700BF80B487B000AFF860BD
S32D0000FD40B9607A60FB687B6107E0BB68DAB27B691A707B6903F101037B617B68002B0CBF00230123DBB27A6818
S32D0000FD6802F1FF327A60002BEBD107F11C07BD4680BC704780B584B000AF786039607B681B6BFB60FA683B6825
S32D0000FD909A4264D07B681B79002B43D07B685A787B6803F1340310461946FA684FF0010301F0ACFB0346002B57
S32D0000FDB80CBF00230123DBB2002B02D04FF001034BE07B684FF000021A717B685A6A7B681B6AD218FB689A422C
S32D0000FDE020D97B68DB78FB7214E07B681B6AFA68D318FB607B685A787B6803F1340310461946FA684FF0010338
S32D0000FE0801F080FBFB7A03F1FF33FB72FB7A012B94BF00230123DBB2002BE2D13B68002B19D07B685A787B6863
S32D0000FE3003F13403104619463A684FF0010301F057FA0346002B0CBF00230123DBB2002B02D04FF0010304E066
S32D0000FE587B683A681A634FF00003184607F11007BD4680BD80B584B000AF786078684FF00001FFF77FFF0346BE
S32D0000FE80FB73FB7B002B40F0AE807B681B78032B40F095807B685B79002B00F090807B684FF000021A637B6898
S32D0000FEA803F1340318464FF000014FF40072FFF73FFF7B684FF0550283F832227B684FF0AA0283F833227B68B1
S32D0000FED04FF0520283F834207B684FF0520283F835207B684FF0610283F836207B684FF0410283F837207B68EC
S32D0000FEF84FF0720283F818227B684FF0720283F819227B684FF0410283F81A227B684FF0610283F81B227B68EC
S32D0000FF201B69DAB27B6883F81C227B681B699BB24FEA2323DAB27B6883F81D227B681B694FEA1343DAB27B6846
S32D0000FF4883F81E227B681B694FEA1363DAB27B6883F81F227B68DB68DAB27B6883F820227B68DB689BB24FEA91
S32D0000FF702323DAB27B6883F821227B68DB684FEA1343DAB27B6883F822227B68DB684FEA1363DAB27B6883F84E
S32D0000FF9823227B6859787B6803F134027B685B69084611461A464FF0010301F0ABFA7B684FF000025A717B68DE
S32D0000FFC05B7818464FF000014FF0000201F084FB0346002B0CBF00230123DBB2002B02D04FF00103FB73FB7BBA
S32D0000FFE8184607F11007BD4680BD00BF80B582B000AF78600B467B807B68002B08D07B681B78002B04D07B6807
S32D00010010DB887A889A4202D04FF009030FE07B685B78184601F0ECFB034603F00103DBB2002B02D04FF0030379
S32D0001003801E04FF00003184607F10807BD4680BD80B586B000AF78607B681A687B689B8810461946FFF7CAFF00
S32D000100600346FB75FB7D002B40F0C8807B689B7903F02003002B00F0C1807B689B7903F04003002B20D07B6809
S32D000100881B6859787B6803F128027B689B69084611461A464FF0010301F034FA0346002B0CBF00230123DBB293
S32D000100B0002B02D04FF00103A1E07B689B7923F04003DAB27B689A717B681A687B68DB6910461946FFF752FE12
S32D000100D80346FB75FB7D002B40F08C807B681B6A3B613B6903F10B033A6902F10B02127842F02002D2B21A7028
S32D000101003B6903F11C037A68D268D2B21A703B6903F11D037A68D26892B24FEA2222D2B21A703B6903F11E0393
S32D000101287A68D2684FEA1242D2B21A703B6903F11F037A68D2684FEA1262D2B21A703B6903F11A037A6812694E
S32D00010150D2B21A703B6903F11B037A68126992B24FEA2222D2B21A703B6903F114037A6812694FEA1242D2B273
S32D000101781A703B6903F115037A6812694FEA124292B24FEA2222D2B21A704FF00003FB603B6903F11603FA68B5
S32D000101A0D2B21A703B6903F11703FA6892B24FEA2222D2B21A703B6903F11803FA684FEA1242D2B21A703B69EB
S32D000101C803F11903FA684FEA1262D2B21A707B689B7923F02003DAB27B689A717B681B684FF001021A717B681E
S32D000101F01B681846FFF73AFE0346FB75FB7D184607F11807BD4680BD80B584B000AF78607868FFF719FF0346C4
S32D00010218FB73FB7B002B03D17B684FF000021A60FB7B184607F11007BD4680BD80B588B000AF786039604FF047
S32D0001024080033B614FF00F03FB604FF0FF337B614FF00203FB612AE04FF00103BB611AE0FB69BA6902FB03F3FA
S32D000102683A6802FB03F27B68D31ABB60BB68002B09DBBA687B699A4205D2BB687B61FB693B61BB69FB60BB695B
S32D0001029003F10103BB61BB69102B8CBF00230123DBB2002BDCD1FB694FEA4303FB61FB69B3F5807F8CBF00231D
S32D000102B80123DBB2002BCBD14FF48053C4F20B034FF48052C4F20B02D26A22F00802DA624FF48053C4F20B037F
S32D000102E0DB6A1A464FF00F03CFF6F0731340BB614FF48053C4F20B033A694FEA52024FEA02224FEA02424FEA45
S32D000103081242F96801F1FF314FEA0111C9B21143BA690A4342F46022DA6203E04FF00A0001F0EEFB4FF4805355
S32D00010330C4F20B035B6A03F00803002B14BF00230123DBB2002BEDD14FF48053C4F20B034FF48052C4F20B02AA
S32D00010358D26A42F00802DA624FF48053C4F20B034FF48052C4F20B02126B42F480121A6307F12007BD4680BDEF
S32D0001038080B582B000AF786039607B684FF000021A604FF48053C4F20B034FF40042C0F20012DA624FF48053B4
S32D000103A8C4F20B03DB6A03F08073002B0CBF00230123DBB2002BF1D14FF48053C4F20B034FF00002C3F8C020CA
S32D000103D04FF48053C4F20B034FF481325A604FF48053C4F20B034FF028029A624FF48053C4F20B034FF0011209
S32D000103F85A643B689B6818464CF66041C0F20501FFF714FF4FF48053C4F20B035B6A03F00303002B0CBF0023BF
S32D000104200123DBB2002BF1D14FF45043C4F2040340F243421A604FF45043C4F2040340F243425A604FF4504371
S32D00010448C4F204034FF488629A604FF45043C4F2040340F24342DA604FF45043C4F2040340F243421A614FF415
S32D000104705043C4F2040340F243425A614FF4E043C4F204034FF4E042C4F2040202F5805202F13002126842F4B9
S32D00010498003203F5805303F130031A604FF48053C4F20B034FF6FF721A634FF48053C4F20B034FF0B302C0F20A
S32D000104C07F025A634FF48053C4F20B034FF48052C4F20B02D26A42F00062DA624FF48053C4F20B03DB6A03F0FF
S32D000104E80063002B0CBF00230123DBB2002BF1D14FF48053C4F20B035B6A03F48033002B0CBF00230123DBB2B8
S32D00010510002B03D07B684FF001021A604FF48053C4F20B034FF48052C4F20B02126B42F080021A634FF000037D
S32D00010538184607F10807BD4680BD00BF80B400AF4FF48053C4F20B035B6A1A4640F207331340002B0CBF002376
S32D000105600123DBB21846BD4680BC704780B485B000AF78604FF48053C4F20B031B6B1A467B681340FB60FB68C3
S32D00010588002B14BF00230123DBB2002BEED1FB68184607F11407BD4680BC704780B584B000AF78607B681B7858
S32D000105B003F03F0248F69C63C0F2010353F82230FB60FB68002B06D17B681B78002B02D04FF0010330E14FF48E
S32D000105D88053C4F20B034FF48052C4F20B02126B42F080021A634FF48053C4F20B035B6A03F00103DBB2002B89
S32D00010600F5D14FF48053C4F20B037A6852689A60FB6823F44003FB607B685B784FEA835303F44003FA681343C6
S32D00010628FB607B685B78022B03D1FB6843F40013FB607B685B78042B16D1FB6803F44033B3F5003F08D1FB68CD
S32D0001065023F44033FB60FB6843F44033FB6007E0FB6823F44033FB60FB6843F40033FB604FF48053C4F20B03FD
S32D000106784FF48052C4F20B0252684FEA02424FEA12425A607B68DB68002B32D0FB6803F44033B3F5403F03D0E3
S32D000106A0FB6843F40013FB607B681B7A002B03D0FB6843F01003FB607B68DB68012B03D9FB6843F02003FB6067
S32D000106C87B68DB68B3F1FF3F13D04FF48053C4F20B034FF48052C4F20B02526811467A68D2684FEA02420A436F
S32D000106F05A60FB6843F00203FB604FF48053C4F20B034FF000021A604FF48053C4F20B03FA68DA604FF00100E0
S32D00010718C0F20E00FFF726FF0346012B0CBF00230123DBB2002B10D04FF48053C4F20B034FF48052C4F20B0206
S32D00010740126B42F4702242F001021A634FF0010372E04FF48053C4F20B031B6B03F08003002B0CBF00230123EB
S32D00010768DBB2002B0ED04FF48053C4F20B034FF48052C4F20B02126B42F001121A634FF0010355E04FF480534D
S32D00010790C4F20B031B6B03F48033002B0CBF00230123DBB2002B0ED04FF48053C4F20B034FF48052C4F20B02C1
S32D000107B8126B42F001121A634FF0FF3338E0FB6803F44033002B25D04FF48053C4F20B031B691A467B681A6141
S32D000107E0FB6803F44033B3F5803F17D14FF48053C4F20B035B691A467B685A614FF48053C4F20B039B691A46F4
S32D000108087B689A614FF48053C4F20B03DB691A467B68DA614FF48053C4F20B034FF48052C4F20B02126B42F0E6
S32D0001083001021A634FF00003184607F11007BD4680BD00BF80B592B000AF786039604FF00003FB633B68BB6373
S32D0001085841F29013C1F6FF737B637B6B002B03D140F6012300F0A0BC41F29433C1F6FF733B633B6B002B03D1A3
S32D0001088040F60B2300F094BC3B6B1B68FB62FB6A002B03D140F60B2300F08ABC7B6841F20432934200F0388256
S32D000108A841F2043293421BD841F20132934238D041F20132934207D8032B00F03D84092B00F0298400F066BCD1
S32D000108D041F20232934200F0128241F20332934200F0BE8300F05ABC41F20732934200F04B8341F20732934285
S32D000108F80BD841F20532934200F0348241F20632934200F0108300F045BC41F20832934200F0B68241F209327D
S32D00010920934200F0C48200F039BC786B48F69061C0F20101FFF724FD0346FB63FB6B002B40F030844FF000037D
S32D0001094887F847304FF0000387F82B304FF0000387F82A304FF0000387F829304FF0000387F846304FF00003C0
S32D0001097087F828304FF000033B724FF000037B724FF00003FB604FF000033B744FF000037B6107F10803184656
S32D00010998FFF704FE0346002B0CBF00230123DBB2002B03D04FF00103FB63FCE340F24C4001F0A6F84FF0080310
S32D000109C03B724FF000037B724FF4D573FB604FF000033B744FF000037B6107F108031846FFF7E0FD03463B641B
S32D000109E83B6C002B0BD1BA69FB689A4203D04FF00103FB63D7E34FF0010387F846304FF0010387F8283097F8C1
S32D00010A102830002B00F0C6804FF037033B724FF000037B724FF00003FB604FF000033B744FF000037B6107F105
S32D00010A3808031846FFF7B2FD03463B643B6C002B03D04FF00103FB63ADE34FF069033B724FF000037B724FF0FD
S32D00010A600003FB604FF000033B744FF000037B6107F108031846FFF795FD0346002B0CBF00230123DBB2002BD3
S32D00010A8803D04FF00103FB638DE3BB6903F44013002B00F083804FF000033B644FF00A0001F02EF83B6C03F1F3
S32D00010AB001033B644FF037033B724FF000037B724FF00003FB604FF000033B744FF000037B6107F10803184612
S32D00010AD8FFF764FD0346002B0CBF00230123DBB2002B03D04FF00103FB6336E04FF069033B724FF000037B7249
S32D00010B0097F84630002B05D04FF00003C4F23003FB6002E04FF44013FB604FF000033B744FF000037B6107F161
S32D00010B2808031846FFF73AFD0346002B0CBF00230123DBB2002B03D04FF00103FB630CE0BB69002B05DB3B6C94
S32D00010B50632B02D84FF0010301E04FF00003002BA0D1FB6B002B40F01F833B6C632B04D94FF0000387F8463060
S32D00010B7814E04FF0010387F8473097F84630002B0CD04FF0000387F84630BB6903F08043002B03D04FF00103C3
S32D00010BA087F8463097F82A30002B03D07B6B4FF007021A6097F82930002B03D07B6B4FF008021A6097F82B3029
S32D00010BC8002B03D07B6B4FF004021A6097F84730002B0BD07B6B4FF002021A6097F84630002B03D07B6B4FF084
S32D00010BF003021A6097F82B30002B0FD097F84730002B0BD07B6B4FF005021A6097F84630002B03D07B6B4FF089
S32D00010C1806021A604FF45043C4F204034FF000021A604FF45043C4F204034FF000025A604FF45043C4F20403BC
S32D00010C404FF000029A604FF45043C4F204034FF00002DA604FF45043C4F204034FF000021A614FF45043C4F261
S32D00010C6804034FF000025A61FB6A9A68FB6A5B6810461946FFF7DAFA4FF45043C4F2040340F243421A604FF445
S32D00010C905043C4F2040340F243425A604FF45043C4F204034FF488629A604FF45043C4F2040340F24342DA6036
S32D00010CB84FF45043C4F2040340F243421A614FF45043C4F2040340F243425A614FF4E043C4F204034FF4E042BB
S32D00010CE0C4F2040202F5805202F13002126842F4003203F5805303F130031A6057E2B86BFFF750FC03463B6467
S32D00010D083B6C002B00F04E824FF00203FB6349E2BB6B002B03D14FF00C03FB6343E24FF48053C4F20B03DB6A48
S32D00010D3003F47F434FEA13234FEA43033B644FF48053C4F20B03DB6A03F0F0034FEA131303F101023B6C02FB4F
S32D00010D5803F33B64FB6A9A683B6CB2FBF3F2BB6B1A6020E2BB6B002B03D14FF00C03FB6319E2BB6B1B68002BF5
S32D00010D8003D14FF00C03FB6311E2FFF7DBFB0346002B14BF00230123DBB2002B70D04FF45043C4F204034FF0AD
S32D00010DA800021A604FF45043C4F204034FF000025A604FF45043C4F204034FF000029A604FF45043C4F20403B1
S32D00010DD04FF00002DA604FF45043C4F204034FF000021A614FF45043C4F204034FF000025A61FB6A9A68BB6B0E
S32D00010DF81B6810461946FFF719FA4FF45043C4F2040340F243421A604FF45043C4F2040340F243425A604FF480
S32D00010E205043C4F204034FF488629A604FF45043C4F2040340F24342DA604FF45043C4F2040340F243421A61E3
S32D00010E484FF45043C4F2040340F243425A614FF4E043C4F204034FF4E042C4F2040202F5805202F130021268CA
S32D00010E7042F4003203F5805303F130031A6096E140F60A23FB6392E1BB6B002B03D14FF00C03FB638BE14FF454
S32D00010E988053C4F20B035B684FEAC3434FEAD343BA6B13607FE1BB6B002B03D14FF00C03FB6378E1FFF742FBEE
S32D00010EC00346002B14BF00230123DBB2002B2AD0BB6B1A6840F6FF739A4203D94FF00C03FB6364E14FF48053B4
S32D00010EE8C4F20B034FF48052C4F20B02526822F4FE5222F03F025A604FF48053C4F20B034FF48052C4F20B0260
S32D00010F1052681146BA6B12684FEAC2424FEAD2420A435A6043E140F60A23FB633FE1BB6B002B03D14FF00C03F9
S32D00010F38FB6338E14FF48053C4F20B039B6A03F006034FEA53033B643B6C002B04D1BB6B4FF000021A6026E17B
S32D00010F603B6C012B04D1BB6B4FF001021A601EE13B6C102B04D1BB6B4FF002021A6016E14FF00503FB6312E1B0
S32D00010F88BB6B002B03D14FF00C03FB630BE1FFF7D5FA0346002B14BF00230123DBB2002B56D0BB6B1B68002B78
S32D00010FB016D14FF48053C4F20B034FF48052C4F20B02926A22F006029A624FF48053C4F20B034FF48052C4F2C2
S32D00010FD80B02926A9A62E6E0BB6B1B68012B18D14FF48053C4F20B034FF48052C4F20B02926A22F006029A629D
S32D000110004FF48053C4F20B034FF48052C4F20B02926A42F002029A62C9E0BB6B1B68022B16D14FF48053C4F2AF
S32D000110280B034FF48052C4F20B02926A22F006029A624FF48053C4F20B034FF48052C4F20B02926A9A62AEE069
S32D000110504FF00503FB63AAE040F60A23FB63A6E0BB6B002B03D14FF00C03FB639FE04FF48053C4F20B034FF48E
S32D000110788052C4F20B02D26A42F00062DA624FF48053C4F20B03DB6A03F00063002B0CBF00230123DBB2002B3E
S32D000110A0F1D14FF48053C4F20B031B6B03F08003002B0CBF00230123DBB2002B0FD04FF48053C4F20B034FF498
S32D000110C88052C4F20B02126B42F080021A637B6B4FF000021A604FF48053C4F20B035B6A03F48033002B0CBFD6
S32D000110F000230123DBB2002B08D07B6B1B68002B08D17B6B4FF001021A6003E07B6B4FF000021A607B6B1A68FF
S32D00011118BB6B1A6047E0BB6B4FF01C021A60BB6B03F104034FF004021A60BB6B03F108034FF41E721A6036E07C
S32D000111404FF00200FFF712FA4FF48053C4F20B031B6B03F4E003002B0CBF00230123DBB2002B0ED04FF480531A
S32D00011168C4F20B034FF48052C4F20B02126B42F4E0021A634FF00403FB634FF48053C4F20B034FF48052C4F261
S32D000111900B02126B42F032021A6308E040F60923FB6304E000BF02E000BF00E000BFFB6B184607F14807BD462A
S32D000111B880BD00BF80B489B000AF786039607B687B6141F29013C1F6FF733B613B69002B02D14FF0000381E0E0
S32D000111E03B691B68022B0BD03B691B68032B07D03B691B68072B03D03B691B68082B0DD14FF48053C4F20B0347
S32D000112085B6A03F00403002B0CBF00230123DBB2002BF1D13B68FB6156E0FB69B3F5007F28BF4FF40073FB6089
S32D00011230FB6803F103034FEA9303BB613CE04FF48053C4F20B031B6B03F4E003002B0CBF00230123DBB2002BFC
S32D0001125810D04FF48053C4F20B034FF48052C4F20B02126B42F4E00242F020021A634FF0000333E04FF4805304
S32D00011280C4F20B035B6A03F40063002B14BF00230123DBB2002BF1D14FF48053C4F20B031B6A1A467B691A6080
S32D000112A87B6903F104037B61BB6903F1FF33BB61BB69002B0CBF00230123DBB2002BBAD1FA69FB68D31AFB6143
S32D000112D0FB69002B0CBF00230123DBB2002BA0D14FF00103184607F12407BD4680BC704780B58EB000AFB96030
S32D000112F87A600246FA73BB7341F27C13C1F6FF737B63FB7B002B02D1BB7B002B02D14FF0040381E040F200437D
S32D00011320C1F6FF731B78DBB203F00103DBB2002B02D04FF0030373E0BB68002B02D14FF000036DE07B6B1B7B10
S32D00011348002B03D17B684FEA43237B60BB7B012B2CD14FF011033B754FF000037B757B68BB614FF001033B7792
S32D00011370BB7B3B6207F1140341F202301946FFF761FA0346002B14BF00230123DBB2002B3ED0B8684FF400712F
S32D00011398FFF710FF0346002B0CBF00230123DBB2002B31D04FF00003BB732DE04FF012033B754FF000037B752F
S32D000113C07B68BB614FF001033B77BB7B3B6207F1140341F202301946FFF734FA0346002B14BF00230123DBB225
S32D000113E8002B11D0BB7B4FEA4323B8681946FFF7E1FE0346002B0CBF00230123DBB2002B02D04FF00003BB7321
S32D00011410BB7B002B02D04FF0010301E04FF00003184607F13807BD4680BD00BF80B487B000AF786039607B6812
S32D00011438FB603B687B6155E07B69B3F5007F28BF4FF400733B617A693B69D31A7B613B6903F103034FEA930375
S32D000114603B613BE04FF48053C4F20B031B6B03F4E003002B0CBF00230123DBB2002B10D04FF48053C4F20B03BD
S32D000114884FF48052C4F20B02126B42F4E00242F010021A634FF0FF332EE04FF48053C4F20B035B6A03F480630F
S32D000114B0002B14BF00230123DBB2002BF1D14FF48053C4F20B03FA6812681A62FB6803F10403FB603B6903F1CB
S32D000114D8FF333B613B69002B0CBF00230123DBB2002BBBD17B69002B0CBF00230123DBB2002BA1D14FF0010364
S32D00011500184607F11C07BD4680BC704780B58EB000AFB9607A600246FA73BB7341F27C13C1F6FF737B63FB7B16
S32D00011528002B02D1BB7B002B02D14FF00403CAE040F20043C1F6FF731B78DBB203F00103DBB2002B02D04FF0F4
S32D000115500303BCE040F20043C1F6FF731B78DBB203F00403002B0CBF00230123DBB2002B02D04FF00203AAE07D
S32D00011578BB68002B02D14FF00003A4E07B6B1B7B002B03D17B684FEA43237B60BB7B012B2CD14FF018033B751C
S32D000115A04FF000037B757B68BB614FF000033B77BB7B3B6207F1140341F202301946FFF741F90346002B14BFDA
S32D000115C800230123DBB2002B3ED0B8684FF40071FFF728FF0346002B0CBF00230123DBB2002B31D04FF0000375
S32D000115F0BB732DE04FF019033B754FF000037B757B68BB614FF000033B77BB7B3B6207F1140341F202301946BB
S32D00011618FFF714F90346002B14BF00230123DBB2002B11D0BB7B4FEA4323B8681946FFF7F9FE0346002B0CBFF9
S32D0001164000230123DBB2002B02D04FF00003BB734FF00D033B754FF000037B757B6B1B69BB614FF000033B778F
S32D000116684FF000033B6207F1140341F202301946FFF7E4F80346002B0CBF00230123DBB2002B02D04FF001037C
S32D000116901DE07A6A48F20803CFF6D9731340002B02D04FF0010312E07B6A03F4F853B3F5106F0CBF002301230F
S32D000116B8DBB2002BC8D1BB7B002B02D04FF0010301E04FF00003184607F13807BD4680BD80B58CB000AF0B46D3
S32D000116E03A600246FA71BB7141F27C13C1F6FF73BB62FB79002B02D04FF004037AE04FF0010387F82F3040F2F6
S32D000117080043C1F6FF731B78DBB203F00103DBB2002B02D04FF0030368E0BB79032B5FD801A252F823F000BFC0
S32D00011730411701004B1701005D1701006F1701004FF0000387F82F3052E0BB6A9A683B681A604FF0000387F87B
S32D000117582F3049E03B684FF400721A804FF0000387F82F3040E04FF009033B724FF000037B72BB6A1B69FB607D
S32D000117804FF000033B744FF000037B6107F1080341F202301946FFF755F80346002B0CBF00230123DBB2002BE3
S32D000117A802D04FF0010321E07B6A03F44003002B11D13B6A4FEA934303F07F0303F101027B6A4FEA132303F069
S32D000117D0030303F1FF3302FA03F23B681A604FF0000387F82F3003E04FF0040387F82F3097F82F30184607F145
S32D000117F83007BD4680BD00BF80B483B000AF0346FB71FB79002B02D04FF0010305E040F20043C1F6FF731B78F7
S32D00011820DBB2184607F10C07BD4680BC704700BF80B483B000AF78604FF4E043C4F204034FF4E042C4F20402BC
S32D0001184802F5805202F13802126842F0010203F5805303F138031A604FF00003C4F204037A689A604FF000033B
S32D00011870C4F204034FF005025A604FF00003C4F204034FF00002C4F20402126842F001021A6000BF4FF0000366
S32D00011898C4F204031B6803F08003002B14BF00230123DBB2002BF1D14FF00003C4F204034FF00002C4F20402B0
S32D000118C0126822F001021A6007F10C07BD4680BC704700BF80B582B000AF786039607B68012B0AD13A684FF6D8
S32D000118E8FF739A4205D141F29C30C1F6FF7000F00FF807F10807BD4680BD00BF80B500AF4FF001004FF6FF71B2
S32D00011910FFF7E0FF80BD00BF80B483B000AF78607B684FF000021A707B68184607F10C07BD4680BC704700BF3A
S32D0001193880B582B000AF78607B681B7883F00103DBB2002B36D04FF4E043C4F2040303F5805303F128034FF497
S32D0001196000621A604FF45043C4F204034FF440721A624FF45043C4F204034FF440725A6241F2A033C1F6FF7305
S32D000119881B684FEAD372D3184FEA63034FF43040C4F20E0019464FF46142FEF78DF84FF0640000F0ADF87B6854
S32D000119B04FF001021A704FF0010301E04FF00003184607F10807BD4680BD00BF80B582B000AF7860F970BA70F1
S32D000119D87B704FF43040C4F20E004FF07F01FEF78BF94FF43040C4F20E004FF00801FEF783F9FB784FF43040F0
S32D00011A00C4F20E001946FEF77BF9BB784FF43040C4F20E001946FEF773F97B784FF43040C4F20E001946FEF703
S32D00011A286BF94FF43040C4F20E004FF0FF01FEF763F907F10807BD4680BD00BF80B487B000AFF860B9607A60B9
S32D00011A50FA6844F6D353C1F26203A3FB02134FEA9312BB68D3187B61FA6844F6D353C1F26203A3FB02134FEA4C
S32D00011A7893134FF47A7101FB03F3D31AFB60FB684FEAC33244F6D353C1F26203A3FB02134FEA93127B68D318C9
S32D00011AA03B613B694FEAD3337A69D3187B613B694FEA43434FEA53433B614FF45043C4F203031B681A467B69C7
S32D00011AC89A4211D34FF45043C4F203031B681A467B699A420BD14FF45043C4F203035B681A463B699A4202D215
S32D00011AF04FF0010301E04FF00003002BDDD107F11C07BD4680BC704780B584B000AF78604FF45043C4F20303F5
S32D00011B181B68FB604FF45043C4F203035B68BB607B681846F968BA68FFF788FF07F11007BD4680BD00000000C0
S32D00011B4080B584B000AFC7E900014FF45043C4F203031B68FB604FF45043C4F203035B68BB60D7E900010AA35F
S32D00011B68D3E90023FAF708FE02460B4610461946FBF7C4F803461846F968BA68FFF75EFF07F11007BD4680BDB0
S32D00011B900000000000408F4080B584B000AF4FF45043C4F203031B68FB604FF45043C4F203035B68BB60F868BF
S32D00011BB8FAF76CFD02460B46C7E90023B868FAF765FD02460B46104619464FF000024FF0804303F56003FAF7E8
S32D00011BE0F9FE02460B46D7E90001FAF717FC02460B46C7E90023D7E900231046194607F11007BD4680BD00BF6F
S32D00011C0880B483B000AF4FF45043C4F203031B684FF47A7202FB03F37B604FF45043C4F203035B684FF47A7201
S32D00011C3002FB03F34FEAD3337A68D3187B607B68184607F10C07BD4680BC704780B582B000AF78600B46FB70BF
S32D00011C58FB787868194600F013F87B68184607F10807BD4680BD00BF80B483B000AF78607B68184607F10C072F
S32D00011C80BD4680BC704700BF80B483B000AF78600B46FB707B68FA781A707B681B781A4648F69C73C0F201031E
S32D00011CA89B5C042B00F2F98001A252F823F000BFCD1C01002B1D0100891D0100E71D0100451E01004FF41043E4
S32D00011CD0C4F204037A681278114648F6E072C0F2010252F8212040F2031143F822104FF47043C4F20F034FF4E1
S32D00011CF87042C4F20F02526911467A681278104648F6E072C0F2010252F8202002F01F024FF0010000FA02F260
S32D00011D206FEA02020A405A61BBE04FF42043C4F204037A681278114648F6E072C0F2010252F8212040F203115B
S32D00011D4843F822104FF24003C4F20F034FF24002C4F20F02526911467A681278104648F6E072C0F2010252F806
S32D00011D70202002F01F024FF0010000FA02F26FEA02020A405A618CE04FF43043C4F204037A681278114648F681
S32D00011D98E072C0F2010252F8212040F2031143F822104FF28003C4F20F034FF28002C4F20F02526911467A68CD
S32D00011DC01278104648F6E072C0F2010252F8202002F01F024FF0010000FA02F26FEA02020A405A615DE04FF422
S32D00011DE84043C4F204037A681278114648F6E072C0F2010252F8212040F2031143F822104FF2C003C4F20F037A
S32D00011E104FF2C002C4F20F02526911467A681278104648F6E072C0F2010252F8202002F01F024FF0010000FAE9
S32D00011E3802F26FEA02020A405A612EE04FF45043C4F204037A681278114648F6E072C0F2010252F8212040F2BF
S32D00011E60031143F822104FF47143C4F20F034FF47142C4F20F02526911467A681278104648F6E072C0F201023D
S32D00011E8852F8202002F01F024FF0010000FA02F26FEA02020A405A6100BF07F10C07BD4680BC704780B584B0D5
S32D00011EB000AF78600B46FB704FF00B03FB73FA78FB7B786811461A4600F0ECF87B68184607F11007BD4680BD22
S32D00011ED880B485B000AF78607B68A3F11003002B01DA03F11F034FEA6313FB60FB68012B48D0022B00F089806E
S32D00011F00002B40F0C9804FF46142CEF200024FF46143CEF20003D3F8803119467B68A3F110004FF01F03C8F23F
S32D00011F2800030340002B05DA03F1FF3363F01F0303F101034FF0010000FA03F30B43C2F880314FF46142CEF218
S32D00011F5000024FF46143CEF200031B6819467B68A3F110004FF01F03C8F200030340002B05DA03F1FF3363F069
S32D00011F781F0303F101034FF0010000FA03F30B43136085E04FF46142CEF200024FF46143CEF20003D3F88431F8
S32D00011FA019467B68A3F110004FF01F03C8F200030340002B05DA03F1FF3363F01F0303F101034FF0010000FAF4
S32D00011FC803F30B43C2F884314FF46142CEF200024FF46143CEF200035B6819467B68A3F110004FF01F03C8F221
S32D00011FF000030340002B05DA03F1FF3363F01F0303F101034FF0010000FA03F30B43536042E04FF46142CEF2E6
S32D0001201800024FF46143CEF20003D3F8883119467B68A3F110004FF01F03C8F200030340002B05DA03F1FF33F2
S32D0001204063F01F0303F101034FF0010000FA03F30B43C2F888314FF46142CEF200024FF46143CEF200039B68BE
S32D0001206819467B68A3F110004FF01F03C8F200030340002B05DA03F1FF3363F01F0303F101034FF0010000FA2B
S32D0001209003F30B43936000BF07F11407BD4680BC704700BF80B584B000AF786013460A46FA70BB707B68FA78E0
S32D000120B81A70BB78FB737B681B781A4648F69C73C0F201039B5C042B00F2F68001A252F823F000BFF120010096
S32D000120E065210100D9210100C12201004D2201004FF41043C4F204037A681278114648F6E072C0F2010252F856
S32D000121082110FA7B4FEA024202F4702242F4887242F0030243F821204FF47043C4F20F034FF47042C4F20F02A0
S32D00012130526911467A681278104648F6E072C0F2010252F8202002F01F024FF0010000FA02F26FEA02020A40F5
S32D000121585A614FF06700FFF7BBFEADE04FF42043C4F204037A681278114648F6E072C0F2010252F82110FA7B60
S32D000121804FEA024202F4702242F4887242F0030243F821204FF24003C4F20F034FF24002C4F20F0252691146A0
S32D000121A87A681278104648F6E072C0F2010252F8202002F01F024FF0010000FA02F26FEA02020A405A614FF095
S32D000121D06800FFF781FE73E04FF43043C4F204037A681278114648F6E072C0F2010252F82110FA7B4FEA0242C8
S32D000121F802F4702242F4887242F0030243F821204FF28003C4F20F034FF28002C4F20F02526911467A681278B9
S32D00012220104648F6E072C0F2010252F8202002F01F024FF0010000FA02F26FEA02020A405A614FF06900FFF729
S32D0001224847FE39E04FF45043C4F204037A681278114648F6E072C0F2010252F82110FA7B4FEA024202F4702279
S32D0001227042F4887242F0030243F821204FF47143C4F20F034FF47142C4F20F02526911467A681278104648F6CE
S32D00012298E072C0F2010252F8202002F01F024FF0010000FA02F26FEA02020A405A614FF06B00FFF70DFE00BF79
S32D000122C007F11007BD4680BDB0B48BB000AF48F6C433C0F2010307F104041D460FCD0FC495E80F0084E80F004E
S32D000122E84FF000037B6248E04FF42043C4F20403D3F8A0301A467B6A4FEA830307F12800C31853F8243C4FF099
S32D00012310010101FA03F31340002B0CBF00230123DBB2002B29D041F2CC33C1F6FF737A6A53F8223003F1010198
S32D0001233841F2CC33C1F6FF737A6A43F822104FF42043C4F204034FF42042C4F20402D2F8A02011467A6A4FEA08
S32D00012360820207F12800821852F8242C4FF0010000FA02F20A40C3F8A0207B6A03F101037B627B6A072BCCBF27
S32D0001238800230123DBB2002BAED107F12C07BD46B0BC7047B0B489B000AF48F6E433C0F2010307F104041D469D
S32D000123B00FCD0FC495E8030084E803004FF00003FB6149E04FF43043C4F20403D3F8A0301A46FB694FEA830308
S32D000123D807F12000C31853F81C3C4FF0010101FA03F31340002B0CBF00230123DBB2002B2AD0FB6903F108026A
S32D0001240041F2CC33C1F6FF7353F8223003F1010141F2CC33C1F6FF7343F822104FF43043C4F204034FF43042CF
S32D00012428C4F20402D2F8A0201146FA694FEA820207F12000821852F81C2C4FF0010000FA02F20A40C3F8A02091
S32D00012450FB6903F10103FB61FB69052BCCBF00230123DBB2002BADD107F12407BD46B0BC704700BFB0B48DB060
S32D0001247800AF48F6FC33C0F201033C461D460FCD0FC40FCD0FC495E8070084E807004FF00003FB6249E04FF41E
S32D000124A01043C4F20403D3F8A0301A46FB6A4FEA830307F13000C31853F8303C4FF0010101FA03F31340002B74
S32D000124C80CBF00230123DBB2002B2AD0FB6A03F10E0241F2CC33C1F6FF7353F8223003F1010141F2CC33C1F6E1
S32D000124F0FF7343F822104FF41043C4F204034FF41042C4F20402D2F8A0201146FA6A4FEA820207F13000821876
S32D0001251852F8302C4FF0010000FA02F20A40C3F8A020FB6A03F10103FB62FB6A0A2BCCBF00230123DBB2002B1D
S32D00012540ADD107F13407BD46B0BC7047B0B487B000AF48F62843C0F201033C461D460FCD0FC42B6823604FF003
S32D0001256800037B6149E04FF45043C4F20403D3F8A0301A467B694FEA830307F11800C31853F8183C4FF0010140
S32D0001259001FA03F31340002B0CBF00230123DBB2002B2AD07B6903F1190241F2CC33C1F6FF7353F8223003F10A
S32D000125B8010141F2CC33C1F6FF7343F822104FF45043C4F204034FF45042C4F20402D2F8A02011467A694FEA09
S32D000125E0820207F11800821852F8182C4FF0010000FA02F20A40C3F8A0207B6903F101037B617B69042BCCBFC7
S32D0001260800230123DBB2002BADD107F11C07BD46B0BC704780B483B000AF78607B681B781A4641F2CC33C1F638
S32D00012630FF7353F82230184607F10C07BD4680BC704700BF80B483B000AF78607B681B781A4641F2CC33C1F6A1
S32D00012658FF734FF0000143F8221007F10C07BD4680BC704780B483B000AF78600B46FB707B68FA781A707B68C7
S32D00012680184607F10C07BD4680BC70470000000080B586B000AF78607B681B781A4649F26003C0F2010353F865
S32D000126A822303B617B681B781A4648F6BC73C0F201039B5CFB733B69DBB203F01F03DAB241F2AC33C1F6FF73AA
S32D000126D01A723B69DBB203F01F03DAB241F2AC33C1F6FF735A724FF46143CEF200034FF01002C3F88820FB7BA2
S32D000126F8002B1ED14FF43040C4F2030041F2AC31C1F6FF7100F08AFB4FF43043C4F203031B6803F08003002BEB
S32D0001272014BF00230123DBB2002BF1D14FF43043C4F203031B697B611DE04FF43040C4F20B0041F2AC31C1F6EC
S32D00012748FF7100F06BFB4FF43043C4F20B031B6803F08003002B14BF00230123DBB2002BF1D14FF43043C4F2FE
S32D000127700B031B697B614FF46143CEF200034FF46142CEF20002D2F8882142F01002C3F888214FF46143CEF2B8
S32D0001279800034FF46142CEF20002926842F010029A607B694FEA03434FEA13431846F9F76DFF02460B46104694
S32D000127C019460FA3D3E90023F9F7DAFF02460B46104619460CA3D3E90023FAF7FBF802460B4610461946FAF732
S32D000127E8ADFA0346BB60BB68184607F11807BD4680BD00BFAFF30080A4703D0AD7A30A4000000000E0FFEF40D1
S32D0001281080B586B000AF78607B681B781A4649F26003C0F2010353F822303B617B681B781A4648F6BC73C0F24F
S32D0001283801039B5CFB733B69DBB203F01F03DAB241F2BC33C1F6FF731A723B69DBB203F01F03DAB241F2BC336B
S32D00012860C1F6FF735A72FB7B002B1ED14FF43040C4F2030041F2BC31C1F6FF7100F0D2FA4FF43043C4F20303E3
S32D000128881B6803F08003002B14BF00230123DBB2002BF1D14FF43043C4F203031B697B611DE04FF43040C4F231
S32D000128B00B0041F2BC31C1F6FF7100F0B3FA4FF43043C4F20B031B6803F08003002B14BF00230123DBB2002B9A
S32D000128D8F1D14FF43043C4F20B031B697B617B69184607F11807BD4680BD00BF98B500AF41F2AC33C1F6FF73A6
S32D000129004FF05C021A7041F2AC33C1F6FF734FF010025A7041F2AC33C1F6FF7341F234225A8041F2AC33C1F6C4
S32D00012928FF7345F278629A8041F2AC33C1F6FF734FF010029A7141F2AC33C1F6FF734FF00702DA7141F2AC336C
S32D00012950C1F6FF734FF4C022DA6041F2AC33C1F6FF734FF01F021A7241F2AC33C1F6FF734FF01F025A724FF4FF
S32D000129783040C4F2030041F2AC31C1F6FF7100F04DFA4FF43040C4F20B0041F2AC31C1F6FF7100F043FA4FF47E
S32D000129A03040C4F20B0000F097F94FF43040C4F2030000F091F94FF43040C4F20B0041F2AC31C1F6FF7100F0D6
S32D000129C82DFA4FF43040C4F2030041F2AC31C1F6FF7100F023FA41F2BC32C1F6FF7241F2AC33C1F6FF7314462B
S32D000129F00FCB84E80F0041F2BC33C1F6FF734FF05C021A7041F2BC33C1F6FF734FF00402DA7198BD80B500AFDD
S32D00012A1841F25043C1F6FF731B6803F1010241F25043C1F6FF731A6000F04CF84FF4E043C4F203034FF0010225
S32D00012A40C3F80C2180BD00BF80B500AF4FF4E043C4F203034FF001021A6048F2A060C0F2010000F023F84FF486
S32D00012A68E043C4F203034FF00302C3F808214FF46143CEF200034FF46142CEF20002D2F8882142F01002C3F874
S32D00012A9088214FF46143CEF200034FF46142CEF20002926842F010029A6080BD80B483B000AF78604FF4E04353
S32D00012AB8C4F203037A68C3F8002107F10C07BD4680BC704780B584B000AF41F24C43C1F6FF731B68FB6029E08A
S32D00012AE0FB685B78FB71FB689B68184600F02EF80346BB71BB79002B19D0FB685B68012B15DDFB689B681B6960
S32D00012B08BB6008E0BB685B6803F10102BB685A60BB681B69BB60BB68002B0CBF00230123DBB2002BEED1FB68E5
