S01A00002E2E2F46696E616C436F6D7065746974696F6E2E733139DA
S32D0000C00000000020C1FB00001DFF00001DFF00001DFF00001DFF00001DFF0000000000000000000000000000AA
S32D0000C028000000001DFF00001DFF0000000000001DFF00001DFF00001DFF00001DFF00001DFF00001DFF00000A
S32D0000C0501DFF00001DFF00001DFF00001DFF00001DFF00001DFF00001DFF00001DFF00001DFF00001DFF0000AA
S32D0000C0781DFF00001DFF00001DFF00001DFF00001DFF00001DFF00001DFF00001DFF00001DFF00001DFF000082
S32D0000C0A01DFF00001DFF00001DFF00001DFF00001DFF00001DFF00001DFF00001DFF00001DFF00001DFF00005A
S32D0000C0C81DFF00001DFF00001DFF00001DFF00001DFF00001DFF00001DFF00001DFF00001DFF00001DFF000032
S32D0000C0F01DFF0000656F01001DFF00001DFF00001DFF00001DFF00001DFF00001DFF00001DFF00001DFF000051
S32D0000C1181DFF00001DFF00001DFF00001DFF00001DFF00001DFF00001DFF00001DFF00001DFF00001DFF0000E1
S32D0000C1401DFF00001DFF00001DFF00001DFF0000653701001DFF00001DFF00001DFF00001DFF00001DFF000038
S32D0000C1681DFF00001DFF00001DFF00001DFF00001DFF00001DFF00001DFF00001DFF00001DFF00001DFF000091
S32D0000C1901DFF00001DFF00001DFF0000C531010019300100ED3001006DFF00009D3201001DFF00001DFF00005A
S32D0000C1B81DFF00001DFF00001DFF00001DFF00001DFF00001DFF00001DFF00001DFF00001DFF00001DFF000041
S32D0000C41081F0004102E000BF83F0004330B54FEA41044FEA430594EA050F08BF90EA020F1FBF54EA000C55EAC6
S32D0000C438020C7FEA645C7FEA655C00F0E2804FEA5454D4EB5555B8BF6D420CDD2C4480EA020281EA030382EA0F
S32D0000C460000083EA010180EA020281EA0303362D88BF30BD11F0004F4FEA01314FF4801C4CEA113102D0404263
S32D0000C48861EB410113F0004F4FEA03334CEA133302D0524263EB430394EA050F00F0A780A4F10104D5F1200E8A
S32D0000C4B00DDB02FA0EFC22FA05F2801841F1000103FA0EF2801843FA05F359410EE0A5F120050EF1200E012A2D
S32D0000C4D803FA0EFC28BF4CF0020C43FA05F3C01851EBE37101F0004507D54FF0000EDCF1000C7EEB00006EEB67
S32D0000C5000101B1F5801F1BD3B1F5001F0CD349085FEA30004FEA3C0C04F101044FEA445212F5800F80F09A8000
S32D0000C528BCF1004F08BF5FEA500C50F1000041EB045141EA050130BD5FEA4C0C404141EB010111F4801FA4F114
S32D0000C5500104E9D191F0000F04BF01460020B1FA81F308BF2033A3F10B03B3F120020CDA0C3208DD02F1140C87
S32D0000C578C2F10C0201FA0CF021FA02F10CE002F11402D8BFC2F1200C01FA02F120FA0CFCDCBF41EA0C019040B1
S32D0000C5A0E41AA2BF01EB0451294330BD6FEA04041F3C1CDA0C340EDC04F11404C4F1200220FA04F001FA02F3B6
S32D0000C5C840EA030021FA04F345EA030130BDC4F10C04C4F1200220FA02F001FA04F340EA0300294630BD21FAA8
S32D0000C5F004F0294630BD94F0000F83F4801306BF81F480110134013D4EE77FEA645C18BF7FEA655C29D094EA1C
S32D0000C618050F08BF90EA020F05D054EA000C04BF1946104630BD91EA030F1EBF0021002030BD5FEA545C05D1A3
S32D0000C6404000494128BF41F0004130BD14F580043CBF01F5801130BD01F0004545F0FE4141F470014FF0000031
S32D0000C66830BD7FEA645C1ABF194610467FEA655C1CBF0B46024650EA013406BF52EA033591EA030F41F40021D7
S32D0000C69030BD00BF90F0000F04BF0021704730B54FF4806404F132044FF000054FF0000150E700BF90F0000F66
S32D0000C6B804BF0021704730B54FF4806404F1320410F0004548BF40424FF000013EE700BF42004FEAE2014FEAF9
S32D0000C6E031014FEA02701FBF12F07F4393F07F4F81F06051704792F0000F14BF93F07F4F704730B54FF460741B
S32D0000C70801F0004521F0004120E700BF50EA010208BF704730B54FF000050AE050EA010208BF704730B511F046
S32D0000C730004502D5404261EB41014FF4806404F132045FEA915C3FF4DCAE4FF003025FEADC0C18BF03325FEAA0
S32D0000C758DC0C18BF033202EBDC02C2F1200300FA03FC20FA02F001FA03FE40EA0E0021FA02F11444C1E600BF19
S32D0000C78070B54FF0FF0C4CF4E06C1CEA11541DBF1CEA135594EA0C0F95EA0C0F00F0DEF82C4481EA030621EAF3
S32D0000C7A84C5123EA4C5350EA013518BF52EA033541F4801143F4801338D0A0FB02CE4FF00005E1FB02E506F05F
S32D0000C7D00042E0FB03E54FF00006E1FB03569CF0000F18BF4EF0010EA4F1FF04B6F5007F64F5407404D25FEA0F
S32D0000C7F84E0E6D4146EB060642EAC62141EA55514FEAC52040EA5E504FEACE2EB4F1FD0C88BFBCF5E06F1ED8D2
S32D0000C820BEF1004F08BF5FEA500E50F1000041EB045170BD06F0004646EA010140EA020081EA0301B4EB5C0487
S32D0000C848C2BFD4EB0C0541EA045170BD41F480114FF0000E013C00F3AB8014F1360FDEBF002001F0004170BDF0
S32D0000C870C4F10004203C35DA0C341BDC04F11404C4F1200500FA05F320FA04F001FA05F240EA020001F0004207
S32D0000C89821F0004110EBD37021FA04F642EB06015EEA430E08BF20EAD37070BDC4F10C04C4F1200500FA04F32F
S32D0000C8C020FA05F001FA04F240EA020001F0004110EBD37041F100015EEA430E08BF20EAD37070BDC4F12005C7
S32D0000C8E800FA05F24EEA020E20FA04F301FA05F243EA020321FA04F001F0004121FA04F220EA020000EBD37028
S32D0000C9105EEA430E08BF20EAD37070BD94F0000F0FD101F00046400041EB010111F4801F08BF013CF7D041EA6D
S32D0000C938060195F0000F18BF704703F00046520043EB030313F4801F08BF013DF7D043EA0603704794EA0C0FF1
S32D0000C9600CEA135518BF95EA0C0F0CD050EA410618BF52EA4306D1D181EA030101F000414FF0000070BD50EA38
S32D0000C988410606BF1046194652EA430619D094EA0C0F02D150EA013613D195EA0C0F05D152EA03361CBF10467B
S32D0000C9B019460AD181EA030101F0004141F0FE4141F470014FF0000070BD41F0FE4141F4780170BD70B54FF04D
S32D0000C9D8FF0C4CF4E06C1CEA11541DBF1CEA135594EA0C0F95EA0C0F00F0A7F8A4EB050481EA030E52EA03359B
S32D0000CA004FEA013100F088804FEA03334FF0805545EA131343EA12634FEA022245EA111545EA10654FEA002676
S32D0000CA280EF000419D4208BF964244F1FD0404F5407402D25B084FEA3202B61A65EB03055B084FEA32024FF461
S32D0000CA5080104FF4002CB6EB020E75EB030E22BFB61A754640EA0C005B084FEA3202B6EB020E75EB030E22BF22
S32D0000CA78B61A754640EA5C005B084FEA3202B6EB020E75EB030E22BFB61A754640EA9C005B084FEA3202B6EBEA
S32D0000CAA0020E75EB030E22BFB61A754640EADC0055EA060E18D04FEA051545EA16754FEA06164FEAC30343EAAC
S32D0000CAC852734FEAC2025FEA1C1CC0D111F4801F0BD141EA00014FF000004FF0004CB6E711F4801F04BF0143AE
S32D0000CAF00020B4F1FD0C88BFBCF5E06F3FF6AFAEB5EB030C04BFB6EB020C5FEA500C50F1000041EB045170BDBC
S32D0000CB180EF0004E4EEA113114EB5C04C2BFD4EB0C0541EA045170BD41F480114FF0000E013C90E645EA060EC3
S32D0000CB408DE60CEA135594EA0C0F08BF95EA0C0F3FF43BAF94EA0C0F0AD150EA01347FF434AF95EA0C0F7FF499
S32D0000CB6825AF104619462CE795EA0C0F06D152EA03353FF4FDAE1046194622E750EA410618BF52EA43067FF432
S32D0000CB90C5AE50EA41047FF40DAF52EA43057FF4EBAE12E74FF0FF3C06E000BF4FF0010C02E000BF4FF0010C75
S32D0000CBB84DF804CD4FEA410C7FEA6C5C4FEA430C18BF7FEA6C5C1BD001B050EA410C0CBF52EA430C91EA030FEC
S32D0000CBE002BF90EA020F0020704710F1000F91EA030F58BF994208BF90422CBFD8176FEAE37040F0010070476E
S32D0000CC084FEA410C7FEA6C5C02D150EA013C07D14FEA430C7FEA6C5CD6D152EA033CD3D05DF8040B704700BFCD
S32D0000CC308446104662468C461946634600E000BF01B5FFF7B7FF002848BF10F1000F01BD4DF808EDFFF7F4FF13
S32D0000CC580CBF012000205DF808FB00BF4DF808EDFFF7EAFF34BF012000205DF808FB00BF4DF808EDFFF7E0FF18
S32D0000CC8094BF012000205DF808FB00BF4DF808EDFFF7CEFF94BF012000205DF808FB00BF4DF808EDFFF7C4FF40
S32D0000CCA834BF012000205DF808FB00BF4FEA410212F5001215D211D56FF47873B3EB625212D94FEAC12343F0D6
S32D0000CCD0004343EA505311F0004F23FA02F018BF404270474FF00000704750EA013005D111F0004008BF6FF016
S32D0000CCF8004070474FF00000704700BF4A0011D212F5001211D20DD56FF47873B3EB62520ED44FEAC12343F085
S32D0000CD20004343EA505323FA02F070474FF00000704750EA013002D14FF0FF3070474FF0000070474FEA410241
S32D0000CD48B2F1E04324BFB3F5001CDCF1FE5C0DD901F0004C4FEAC0024CEA5070B2F1004F40EB830008BF20F09E
S32D0000CD700100704711F0804F21D113F13872BCBF01F00040704741F480114FEA5252C2F11802C2F1200C10FAB1
S32D0000CD980CF320FA02F018BF40F001004FEAC1234FEAD32303FA0CFC40EA0C0023FA02F34FEA4303CCE77FEA26
S32D0000CDC0625307D150EA01331EBF4FF0FE4040F44000704701F0004040F0FE4040F40000704700BF80F00040CC
S32D0000CDE802E000BF81F0004142001FBF5FEA410392EA030F7FEA226C7FEA236C6AD04FEA1262D2EB1363C1BF06
S32D0000CE10D218414048404140B8BF5B42192B88BF704710F0004F40F4000020F07F4018BF404211F0004F41F4FA
S32D0000CE38000121F07F4118BF494292EA030F3FD0A2F1010241FA03FC10EB0C00C3F1200301FA03F100F000432B
S32D0000CE6002D5494260EB4000B0F5000F13D3B0F1807F06D340084FEA310102F10102FE2A51D2B1F1004F40EB94
S32D0000CE88C25008BF20F0010040EA03007047490040EB000010F4000FA2F10102EDD1B0FA80FCACF1080CB2EB5F
S32D0000CEB00C0200FA0CF0AABF00EBC25052421843BCBFD0401843704792F0000F81F4000106BF80F400000132EB
S32D0000CED8013BB5E74FEA41037FEA226C18BF7FEA236C21D092EA030F04D092F0000F08BF0846704790EA010FD7
S32D0000CF001CBF0020704712F07F4F04D1400028BF40F00040704712F100723CBF00F50000704700F0004343F0DC
S32D0000CF28FE4040F4000070477FEA226216BF08467FEA23630146420206BF5FEA412390EA010F40F480007047C1
S32D0000CF504FF0000304E000BF10F0004348BF40425FEA000C08BF704743F0964301464FF000001CE050EA010264
S32D0000CF7808BF70474FF000030AE000BF50EA010208BF704711F0004302D5404261EB41015FEA010C02BF84465B
S32D0000CFA00146002043F0B64308BFA3F18053A3F50003BCFA8CF2083AA3EBC25310DB01FA02FC634400FA02FC6B
S32D0000CFC8C2F12002BCF1004F20FA02F243EB020008BF20F00100704702F1200201FA02FCC2F1200250EA4C0034
S32D0000CFF021FA02F243EB020008BF20EADC7070474FF0FF0C1CEAD0521EBF1CEAD15392EA0C0F93EA0C0F6FD019
S32D0000D0181A4480EA010C400218BF5FEA41211ED04FF0006343EA501043EA5111A0FB01310CF00040B1F5000FE7
S32D0000D0403EBF490041EAD3715B0040EA010062F17F02FD2A1DD8B3F1004F40EBC25008BF20F00100704790F058
S32D0000D068000F0CF0004C08BF49024CEA502040EA51207F3AC2BFD2F1FF0340EAC250704740F400004FF0000388
S32D0000D090013A5DDC12F1190FDCBF00F000407047C2F10002410021FA02F1C2F1200200FA02FC5FEA310040F1D5
S32D0000D0B8000053EA4C0308BF20EADC70704792F0000F00F0004C02BF400010F4000F013AF9D040EA0C0093F04C
S32D0000D0E0000F01F0004C02BF490011F4000F013BF9D041EA0C018FE70CEAD15392EA0C0F18BF93EA0C0F0AD00B
S32D0000D10830F0004C18BF31F0004CD8D180EA010000F00040704790F0000F17BF90F0004F084691F0000F91F0BB
S32D0000D130004F14D092EA0C0F01D142020FD193EA0C0F03D14B0218BF084608D180EA010000F0004040F0FE4051
S32D0000D15840F40000704740F0FE4040F4400070474FF0FF0C1CEAD0521EBF1CEAD15392EA0C0F93EA0C0F69D044
S32D0000D180A2EB030280EA010C49024FEA402037D04FF0805343EA111143EA10130CF000408B4238BF5B0042F14E
S32D0000D1A87D024FF4000C8B4224BF5B1A40EA0C00B3EB510F24BFA3EB510340EA5C00B3EB910F24BFA3EB9103A4
S32D0000D1D040EA9C00B3EBD10F24BFA3EBD10340EADC001B0118BF5FEA1C1CE0D1FD2A3FF650AF8B4240EBC25018
S32D0000D1F808BF20F0010070470CF0004C4CEA50207F32C2BFD2F1FF0340EAC250704740F400004FF00003013AF1
S32D0000D22037E792F0000F00F0004C02BF400010F4000F013AF9D040EA0C0093F0000F01F0004C02BF490011F4C9
S32D0000D248000F013BF9D041EA0C0195E70CEAD15392EA0C0F08D142027FF47DAF93EA0C0F7FF470AF084676E7AE
S32D0000D27093EA0C0F04D14B023FF44CAF08466EE730F0004C18BF31F0004CCAD130F000427FF45CAF31F0004376
S32D0000D2987FF43CAF5FE700BF4FF0FF3C06E000BF4FF0010C02E000BF4FF0010C4DF804CD4FEA40024FEA41039F
S32D0000D2C07FEA226C18BF7FEA236C11D001B052EA530C18BF90EA010F58BFB2EB030088BFC81738BF6FEAE1706E
S32D0000D2E818BF40F0010070477FEA226C02D15FEA402C05D17FEA236CE4D15FEA412CE1D05DF8040B704700BF16
S32D0000D310844608466146FFE70FB5FFF7C9FF002848BF10F1000F0FBD4DF808EDFFF7F4FF0CBF012000205DF839
S32D0000D33808FB00BF4DF808EDFFF7EAFF34BF012000205DF808FB00BF4DF808EDFFF7E0FF94BF012000205DF8A9
S32D0000D36008FB00BF4DF808EDFFF7D2FF94BF012000205DF808FB00BF4DF808EDFFF7C8FF34BF012000205DF8B1
S32D0000D38808FB00BF4FEA4002B2F1FE4F0FD34FF09E03B3EB12620DD94FEA002343F0004310F0004F23FA02F060
S32D0000D3B018BF404270474FF00000704712F1610F01D1420205D110F0004008BF6FF0004070474FF00000704797
S32D0000D3D880B582B000AF78607868FFF7B9FD034641F25810C1F6FF70194602F095FE7B6803F101031846FFF790
S32D0000D400ABFD034641F26010C1F6FF70194602F087FE07F10807BD4680BD00BF80B582B000AF78607868FFF7A4
S32D0000D42897FD034641F25810C1F6FF70194602F073FE7B68C3F100031846FFF789FD034641F26010C1F6FF70F0
S32D0000D450194602F065FE07F10807BD4680BD00BF80B582B000AF78607B68C3F100031846FFF772FD034641F22D
S32D0000D4785810C1F6FF70194602F04EFE7868FFF767FD034641F26010C1F6FF70194602F043FE07F10807BD4673
S32D0000D4A080BD00BF80B500AF41F25810C1F6FF7002F0E6FD41F26010C1F6FF7002F0E0FD4FF000004FF07E5103
S32D0000D4C801F5C00105F03CF980BD00BF80B500AF41F26810C1F6FF7005F058FF41F26C10C1F6FF7005F052FF3D
S32D0000D4F080BD00BF98B500AF41F26C10C1F6FF7005F034FF044641F26810C1F6FF7005F02DFF0346E31818463B
S32D0000D518FFF7CCF802460B46104619464FF000024FF08043FFF752FA02460B4610461946FFF7BCFB03461846B6
S32D0000D54098BD00BF00000000B0B586B000AFF860C7E90023D7E9000133A3D3E90023FFF70FF902460B461046D1
S32D0000D568194631A3D3E90023FFF730FA02460B4610461946FFF79AFB03467B61FFF7A6FFF868FFF725FF05F05B
S32D0000D59007F902460B4610461946FFF78BFB03463B6109E0FFF7A6FF034641F25840C1F6FF70194607F03EFC70
S32D0000D5B8FFF79CFF02467B699A4227DA05F0ECF804460D463869FFF771F802460B4620462946FEF71DFF02466E
S32D0000D5E00B464FF001010C46104619464FF000024FF0804303F50013FFF734FB0346002B02D14FF000031C4626
S32D0000D608E3B2002B02D04FF0010301E04FF00003002BC3D1FFF742FF07F11807BD46B0BD0000000000E07340EC
S32D0000D6300BD7A3703D6A1F40B0B584B000AF78603960FFF747FF7868FFF7E8FE05F0A8F802460B46104619463D
S32D0000D658FFF72CFB0346FB6009E0FFF747FF034641F25840C1F6FF70194607F0DFFBFFF73DFF02463B689A425B
S32D0000D68027DA05F08DF804460D46F868FFF712F802460B4620462946FEF7BEFE02460B464FF001010C46104663
S32D0000D6A819464FF000024FF0804303F50013FFF7D5FA0346002B02D14FF000031C46E3B2002B02D04FF0010322
S32D0000D6D001E04FF00003002BC3D1FFF7E3FE07F11007BD46B0BD00BFB0B584B000AF78603960FFF7EFFE7868B9
S32D0000D6F8FFF7B2FE05F050F802460B4610461946FFF7D4FA0346FB6009E0FFF7EFFE034641F25840C1F6FF7065
S32D0000D720194607F087FBFFF7E5FE02463B689A4227DA05F035F804460D46F868FEF7BAFF02460B462046294627
S32D0000D748FEF766FE02460B464FF001010C46104619464FF000024FF0804303F50013FFF77DFA0346002B02D177
S32D0000D7704FF000031C46E3B2002B02D04FF0010301E04FF00003002BC3D1FFF78BFE07F11007BD46B0BD00BF73
S32D0000D79890B583B000AF41F22C10C1F6FF7005F01BFE03461846FEF793FF02460B464FF001010C46104619468A
S32D0000D7C031A3D3E90023FFF74DFA0346002B02D14FF000031C46E3B2002B03D04FF001037B604BE041F22C1015
S32D0000D7E8C1F6FF7005F0F8FD03461846FEF770FF02460B464FF001010C461046194620A3D3E90023FFF748FA3D
S32D0000D8100346002B02D14FF000031C46E3B2002B21D041F22C10C1F6FF7005F0D9FD03461846FEF751FF0246BA
S32D0000D8380B464FF001010C461046194612A3D3E90023FFF70BFA0346002B02D14FF000031C46E3B2002B02D01D
S32D0000D8604FF0010301E04FF00003002B03D04FF002037B6002E04FF003037B60184607F10C07BD4690BD00BF9D
S32D0000D888666666666666E63F9A9999999999FD3F90B583B000AF41F23010C1F6FF7005F09BFD03461846FEF72D
S32D0000D8B013FF02460B464FF001010C461046194631A3D3E90023FFF7CDF90346002B02D14FF000031C46E3B268
S32D0000D8D8002B03D04FF001037B604BE041F23010C1F6FF7005F078FD03461846FEF7F0FE02460B464FF0010174
S32D0000D9000C461046194620A3D3E90023FFF7C8F90346002B02D14FF000031C46E3B2002B21D041F23010C1F6D3
S32D0000D928FF7005F059FD03461846FEF7D1FE02460B464FF001010C461046194612A3D3E90023FFF78BF9034674
S32D0000D950002B02D14FF000031C46E3B2002B02D04FF0010301E04FF00003002B03D04FF002037B6002E04FF0D1
S32D0000D97803037B60184607F10C07BD4690BD00BF666666666666E63F9A9999999999FD3FF0B583B000AF78606D
S32D0000D9A016E141F25840C1F6FF7049F6D001C0F2010107F05DF941F2C040C1F6FF700AF01FFD034641F25840DD
S32D0000D9C8C1F6FF70194607F045FA41F2C040C1F6FF700AF011FD03464FF00102144618467968FFF7C5FC0346F1
S32D0000D9F0002B02D14FF000031C46E3B2002B68D06FF01100FFF7E8FC00BF41F2C040C1F6FF700AF0F5FC0346D9
S32D0000DA181846FEF75DFE04460D467868FEF758FE02460B46104619464FF000024FF07E5303F5C003FEF7ECFC33
S32D0000DA4002460B464FF001010E4620462946FFF709F90346002B02D14FF000031E46F3B2002B2CD141F2C040D0
S32D0000DA68C1F6FF700AF0C8FC03461846FEF730FE04460D467868FEF72BFE02460B46104619464FF000024FF079
S32D0000DA907E5303F5C003FEF7C1FC02460B464FF001010E4620462946FFF7FAF80346002B02D14FF000031E4652
S32D0000DAB8F3B2002B02D04FF0010301E04FF00003002B9ED1FFF7EAFC7EE041F2C040C1F6FF700AF091FC03463B
S32D0000DAE04FF00102144618467968FFF727FC0346002B02D14FF000031C46E3B2002B67D04FF01200FFF768FC97
S32D0000DB0800BF41F2C040C1F6FF700AF075FC03461846FEF7DDFD04460D467868FEF7D8FD02460B461046194661
S32D0000DB304FF000024FF07E5303F5C003FEF76CFC02460B464FF001010E4620462946FFF789F80346002B02D19D
S32D0000DB584FF000031E46F3B2002B2CD141F2C040C1F6FF700AF048FC03461846FEF7B0FD04460D467868FEF7DA
S32D0000DB80ABFD02460B46104619464FF000024FF07E5303F5C003FEF741FC02460B464FF001010E462046294640
S32D0000DBA8FFF77AF80346002B02D14FF000031E46F3B2002B02D04FF0010301E04FF00003002B9ED1FFF76AFCFC
S32D0000DBD041F2C040C1F6FF700AF012FC03461846FEF77AFD04460D467868FEF775FD02460B46104619464FF042
S32D0000DBF800024FF07E5303F5C003FEF709FC02460B464FF001010E4620462946FFF726F80346002B02D14FF09B
S32D0000DC2000031E46F3B2002B2CD141F2C040C1F6FF700AF0E5FB03461846FEF74DFD04460D467868FEF748FDD2
S32D0000DC4802460B46104619464FF000024FF07E5303F5C003FEF7DEFB02460B464FF001010E4620462946FFF78D
S32D0000DC7017F80346002B02D14FF000031E46F3B2002B02D04FF0010301E04FF00003002B7FF487AE07F10C07A4
S32D0000DC98BD46F0BDF0B583B000AF786016E141F25840C1F6FF7049F6DC01C0F2010106F0DBFF41F2C040C1F6DD
S32D0000DCC0FF700AF0ADFB034641F25840C1F6FF70194607F0C3F841F2C040C1F6FF700AF09FFB03464FF0010262
S32D0000DCE8144618467968FFF743FB0346002B02D14FF000031C46E3B2002B68D04FF01200FFF766FB00BF41F2C4
S32D0000DD10C040C1F6FF700AF083FB03461846FEF7DBFC04460D467868FEF7D6FC02460B46104619464FF0000201
S32D0000DD384FF07E5303F5C003FEF76AFB02460B464FF001010E4620462946FEF787FF0346002B02D14FF0000391
S32D0000DD601E46F3B2002B2CD141F2C040C1F6FF700AF056FB03461846FEF7AEFC04460D467868FEF7A9FC02461B
S32D0000DD880B46104619464FF000024FF07E5303F5C003FEF73FFB02460B464FF001010E4620462946FEF778FFBD
S32D0000DDB00346002B02D14FF000031E46F3B2002B02D04FF0010301E04FF00003002B9ED1FFF768FB7EE041F2CC
S32D0000DDD8C040C1F6FF700AF01FFB03464FF00102144618467968FFF7A5FA0346002B02D14FF000031C46E3B2AA
S32D0000DE00002B67D06FF01100FFF7E6FA00BF41F2C040C1F6FF700AF003FB03461846FEF75BFC04460D467868CC
S32D0000DE28FEF756FC02460B46104619464FF000024FF07E5303F5C003FEF7EAFA02460B464FF001010E462046BE
S32D0000DE502946FEF707FF0346002B02D14FF000031E46F3B2002B2CD141F2C040C1F6FF700AF0D6FA03461846B6
S32D0000DE78FEF72EFC04460D467868FEF729FC02460B46104619464FF000024FF07E5303F5C003FEF7BFFA024676
S32D0000DEA00B464FF001010E4620462946FEF7F8FE0346002B02D14FF000031E46F3B2002B02D04FF0010301E0FB
S32D0000DEC84FF00003002B9ED1FFF7E8FA41F2C040C1F6FF700AF0A0FA03461846FEF7F8FB04460D467868FEF78A
S32D0000DEF0F3FB02460B46104619464FF000024FF07E5303F5C003FEF787FA02460B464FF001010E462046294643
S32D0000DF18FEF7A4FE0346002B02D14FF000031E46F3B2002B2CD141F2C040C1F6FF700AF073FA03461846FEF72E
S32D0000DF40CBFB04460D467868FEF7C6FB02460B46104619464FF000024FF07E5303F5C003FEF75CFA02460B467C
S32D0000DF684FF001010E4620462946FEF795FE0346002B02D14FF000031E46F3B2002B02D04FF0010301E04FF0A7
S32D0000DF900003002B7FF487AE07F10C07BD46F0BDF0B583B000AF786016E141F25840C1F6FF7049F6DC01C0F2BD
S32D0000DFB8010106F059FE41F2C040C1F6FF700AF02BFA034641F25840C1F6FF70194606F041FF41F2C040C1F6BB
S32D0000DFE0FF700AF01DFA03464FF00102144618467968FFF7C1F90346002B02D14FF000031C46E3B2002B68D0DC
S32D0000E0086FF01100FFF7E4F900BF41F2C040C1F6FF700AF001FA03461846FEF759FB04460D467868FEF754FBE9
S32D0000E03002460B46104619464FF000024FF07E5303F5C003FEF7E8F902460B464FF001010E4620462946FEF79A
S32D0000E05805FE0346002B02D14FF000031E46F3B2002B2CD141F2C040C1F6FF700AF0D4F903461846FEF72CFBFA
S32D0000E08004460D467868FEF727FB02460B46104619464FF000024FF07E5303F5C003FEF7BDF902460B464FF001
S32D0000E0A801010E4620462946FEF7F6FD0346002B02D14FF000031E46F3B2002B02D04FF0010301E04FF0000342
S32D0000E0D0002B9ED1FFF7E6F97EE041F2C040C1F6FF700AF09DF903464FF00102144618467968FFF723F90346ED
S32D0000E0F8002B02D14FF000031C46E3B2002B67D04FF01200FFF764F900BF41F2C040C1F6FF700AF081F90346E8
S32D0000E1201846FEF7D9FA04460D467868FEF7D4FA02460B46104619464FF000024FF07E5303F5C003FEF768F9BB
S32D0000E14802460B464FF001010E4620462946FEF785FD0346002B02D14FF000031E46F3B2002B2CD141F2C04042
S32D0000E170C1F6FF700AF054F903461846FEF7ACFA04460D467868FEF7A7FA02460B46104619464FF000024FF0F1
S32D0000E1987E5303F5C003FEF73DF902460B464FF001010E4620462946FEF776FD0346002B02D14FF000031E464A
S32D0000E1C0F3B2002B02D04FF0010301E04FF00003002B9ED1FFF766F941F2C040C1F6FF700AF01EF90346184629
S32D0000E1E8FEF776FA04460D467868FEF771FA02460B46104619464FF000024FF07E5303F5C003FEF705F9024632
S32D0000E2100B464FF001010E4620462946FEF722FD0346002B02D14FF000031E46F3B2002B2CD141F2C040C1F66D
S32D0000E238FF700AF0F1F803461846FEF749FA04460D467868FEF744FA02460B46104619464FF000024FF07E5338
S32D0000E26003F5C003FEF7DAF802460B464FF001010E4620462946FEF713FD0346002B02D14FF000031E46F3B274
S32D0000E288002B02D04FF0010301E04FF00003002B7FF487AE07F10C07BD46F0BD0000000080B582B000AF4FF022
S32D0000E2B00003FB71FFF71EF903463B600CA1D1E9000104F041FAFFF715F902463B689A4214BF00230123DBB2D7
S32D0000E2D8002B02D04FF00103FB71FB79184607F10807BD4680BD00BF333333333333C33FF0B587B000AF7860FD
S32D0000E30041F2C040C1F6FF700AF09AF803461846FEF7E2F902460B46C7E90423C4E14FF01503FB607868FEF7F7
S32D0000E328D7F902460B4610461946D7E90423FEF76FF802460B464FF001010C46104619464FF000024FF0000302
S32D0000E350FEF7A6FC0346002B02D14FF000031C46E3B2002B1FD07868FEF7B6F902460B4610461946D7E90423B5
S32D0000E378FEF74EF802460B464FF001010C461046194685A3D3E90023FEF768FC0346002B02D14FF000031C4610
S32D0000E3A0E3B2002B40D17868FEF796F902460B4610461946D7E90423FEF72EF802460B464FF001010C46104648
S32D0000E3C819464FF000024FF00003FEF751FC0346002B02D14FF000031C46E3B2002B00F0B0807868FEF774F9F6
S32D0000E3F002460B46D7E90401FEF70EF802460B464FF001010C461046194665A3D3E90023FEF73CFC0346002B3D
S32D0000E41802D14FF000031C46E3B2002B00F0918041F25840C1F6FF7049F6E801C0F2010106F01AFC41F2C04092
S32D0000E440C1F6FF7009F0FCFF034641F25840C1F6FF70194606F002FD4FF01500FEF7DEFF0FE0FFF721FF034692
S32D0000E468002B04D0FB6803F10103FB6002E04FF01503FB60F868FEF7CDFF41F2C040C1F6FF7009F0D9FF0346A9
S32D0000E4901846FEF721F904460D467868FEF71CF902460B46104619464FF000024FF0804303F58023FDF7B0FF9B
S32D0000E4B802460B464FF001010E4620462946FEF7CDFB0346002B02D14FF000031E46F3B2002B2CD141F2C04089
S32D0000E4E0C1F6FF7009F0ACFF03461846FEF7F4F804460D467868FEF7EFF802460B46104619464FF000024FF095
S32D0000E508804303F58023FDF785FF02460B464FF001010E4620462946FEF7BEFB0346002B02D14FF000031E4671
S32D0000E530F3B2002B02D04FF0010301E04FF00003002B8ED1FEF7AEFFA0E041F25840C1F6FF7049F6E801C0F23E
S32D0000E558010106F089FB41F2C040C1F6FF7009F06BFF034641F25840C1F6FF70194606F071FC4FF01500FEF718
S32D0000E5806FFF4FF00003BB6018E0FFF78DFE0346002B09D0FB6803F10103FB6007E000BF00000000008066405A
S32D0000E5A84FF01503FB60F868FEF756FFBB6803F10103BB6041F2C040C1F6FF7009F03CFF03461846FEF784F80E
S32D0000E5D004460D467868FEF77FF802460B46104619464FF000024FF0804303F58023FDF713FF02460B464FF02A
S32D0000E5F801010E4620462946FEF730FB0346002B02D14FF000031E46F3B2002B2CD141F2C040C1F6FF7009F09E
S32D0000E6200FFF03461846FEF757F804460D467868FEF752F802460B46104619464FF000024FF0804303F58023EB
S32D0000E648FDF7E8FE02460B464FF001010E4620462946FEF721FB0346002B02D14FF000031E46F3B2002B07D022
S32D0000E670BA6840F257239A4202DC4FF0010301E04FF00003002B80D1FEF70CFF41F2C040C1F6FF7009F0D4FEEE
S32D0000E69803461846FEF71CF802460B46C7E9042341F2C040C1F6FF7009F0C6FE03461846FEF70EF804460D46DF
S32D0000E6C07868FEF709F802460B461046194626A3D3E90023FDF7A0FE02460B464FF001010E4620462946FEF7D6
S32D0000E6E8BDFA0346002B02D14FF000031E46F3B2002B29D141F2C040C1F6FF7009F09CFE03461846FDF7E4FF2C
S32D0000E71004460D467868FDF7DFFF02460B461046194611A3D3E90023FDF778FE02460B464FF001010E462046AD
S32D0000E7382946FEF7B1FA0346002B02D14FF000031E46F3B2002B02D04FF0010301E04FF00003002B7FF4DFAD85
S32D0000E76007F11C07BD46F0BD9A99999999990540F0B587B000AFC7E902017A607868FEF72BFE04F00DF802468D
S32D0000E7880B4610461946FEF791FA03467B6117E041F25840C1F6FF7049F6F401C0F2010106F062FA41F2C04063
S32D0000E7B0C1F6FF7009F024FE034641F25840C1F6FF70194606F04AFB41F2C040C1F6FF7009F016FE0346184619
S32D0000E7D8FDF77EFF04460D46D7E902014FF000024FF07E5303F5E003FDF712FE02460B464FF001010E4620467E
S32D0000E8002946FEF72FFA0346002B02D14FF000031E46F3B2002B4CD141F2C040C1F6FF7009F0EEFD034618469F
S32D0000E828FDF756FF04460D46D7E902014FF000024FF07E5303F5E003FDF7ECFD02460B464FF001010E4620467C
S32D0000E8502946FEF725FA0346002B02D14FF000031E46F3B2002B27D003F09AFF04460D467869FDF71FFF0246FF
S32D0000E8780B4620462946FDF7CBFD02460B464FF001010C46104619464FF000024FF0804303F5E013FEF7E2F9B1
S32D0000E8A00346002B02D14FF000031C46E3B2002B02D04FF0010301E04FF00003002B7FF46BAFFEF7EFFD07F1D6
S32D0000E8C81C07BD46F0BD00BFF0B58FB000AFF860C7E90023F868FEF77BFD03F05DFF02460B4610461946FEF773
S32D0000E8F0E1F903467B6302E141F25840C1F6FF7049F60C11C0F2010106F0B2F941F2C040C1F6FF7009F074FDB1
S32D0000E918034641F25840C1F6FF70194606F0ECF941F25840C1F6FF7049F61011C0F2010106F09AF941F2C0409C
S32D0000E940C1F6FF7009F06CFD034641F25840C1F6FF70194606F082FA41F2C040C1F6FF7009F04EFD03461846D2
S32D0000E968FDF7B6FE04460D46D7E900014FF000024FF07E5303F5E003FDF74AFD02460B464FF001010E46204680
S32D0000E9902946FEF767F90346002B02D14FF000031E46F3B2002B3ED041F2C040C1F6FF7009F026FD03461846AE
S32D0000E9B8FDF78EFE02460B46C7E90A234FF01E004FF05001FEF734FE41F2C040C1F6FF7009F012FD034618461F
S32D0000E9E0FDF77AFE02460B46D7E90A01FDF714FD02460B46C7E90823D7E90001D7E90823FDF70AFD02460B4680
S32D0000EA0810461946FA68FFF7AFFE4FF01E004FF05001FEF765FE6148FFF76AFC6BE041F2C040C1F6FF7009F03F
S32D0000EA30E7FC03461846FDF74FFE04460D46D7E900014FF000024FF07E5303F5E003FDF7E5FC02460B464FF0B6
S32D0000EA5801010E4620462946FEF71EF90346002B02D14FF000031E46F3B2002B40D041F2C040C1F6FF7009F03A
S32D0000EA80BFFC03461846FDF727FE02460B46C7E906234FF01E004FF05001FEF725FE41F2C040C1F6FF7009F024
S32D0000EAA8ABFC03461846FDF713FE02460B4610461946D7E90623FDF7ABFC02460B46C7E90423D7E90001D7E92A
S32D0000EAD00423FDF7A3FC02460B4610461946FA68FFF746FE4FF01E004FF05001FEF7A4FD2C48FFF701FC02E0A8
S32D0000EAF8F868FEF76DFC41F2C040C1F6FF7009F08BFC03461846FDF7E3FD02460B464FF001010C4610461946FD
S32D0000EB20D7E91423FEF7BCF80346002B02D14FF000031C46E3B2002B27D003F031FE04460D46786BFDF7B6FD3C
S32D0000EB4802460B4620462946FDF762FC02460B464FF001010C46104619464FF000024FF0804303F53813FEF783
S32D0000EB7079F80346002B02D14FF000031C46E3B2002B02D04FF0010301E04FF00003002B7FF4B2AEF868FEF7D0
S32D0000EB981FFC07F13C07BD46F0BD00BF00008743F0B58FB000AFF860C7E9002303F0F4FD02460B4610461946D0
S32D0000EBC0FEF778F803467B6302E141F25840C1F6FF7049F60C11C0F2010106F049F841F2C040C1F6FF7009F02E
S32D0000EBE80BFC034641F25840C1F6FF70194606F083F841F25840C1F6FF7049F61011C0F2010106F031F841F297
S32D0000EC10C040C1F6FF7009F003FC034641F25840C1F6FF70194606F019F941F2C040C1F6FF7009F0E5FB03469C
S32D0000EC381846FDF74DFD04460D46D7E900014FF000024FF07E5303F5E003FDF7E1FB02460B464FF001010E468A
S32D0000EC6020462946FDF7FEFF0346002B02D14FF000031E46F3B2002B3ED041F2C040C1F6FF7009F0BDFB0346A2
S32D0000EC881846FDF725FD02460B46C7E90A234FF01E004FF05001FEF723FD41F2C040C1F6FF7009F0A9FB034633
S32D0000ECB01846FDF711FD02460B46D7E90A01FDF7ABFB02460B46C7E90823D7E90001D7E90823FDF7A1FB0246E0
S32D0000ECD80B4610461946FA68FFF746FD4FF01E004FF05001FEF7A4FC6048FFF701FB6BE041F2C040C1F6FF70AD
S32D0000ED0009F07EFB03461846FDF7E6FC04460D46D7E900014FF000024FF07E5303F5E003FDF77CFB02460B4668
S32D0000ED284FF001010E4620462946FDF7B5FF0346002B02D14FF000031E46F3B2002B40D041F2C040C1F6FF7085
S32D0000ED5009F056FB03461846FDF7BEFC02460B46C7E906234FF01E004FF05001FEF764FC41F2C040C1F6FF70E9
S32D0000ED7809F042FB03461846FDF7AAFC02460B4610461946D7E90623FDF742FB02460B46C7E90423D7E900015D
S32D0000EDA0D7E90423FDF73AFB02460B4610461946FA68FFF7DDFC4FF01E004FF05001FEF793FC2C48FFF798FA49
S32D0000EDC802E0F868FEF704FB41F2C040C1F6FF7009F022FB03461846FDF77AFC02460B464FF001010C461046E5
S32D0000EDF01946D7E91423FDF735FF0346002B02D14FF000031C46E3B2002B27D003F0C8FC04460D46786BFDF7AA
S32D0000EE184DFC02460B4620462946FDF7F9FA02460B464FF001010C46104619464FF000024FF0804303F53813C7
S32D0000EE40FDF710FF0346002B02D14FF000031C46E3B2002B02D04FF0010301E04FF00003002B7FF4B2AEF86860
S32D0000EE68FEF7B6FA07F13C07BD46F0BD0000B44290B583B000AF4FF000037B6041F21C10C1F6FF7003F012FE2A
S32D0000EE90034683F00103DBB21C4641F22010C1F6FF7003F007FE034683F00103DBB22340002B0CBF0023012337
S32D0000EEB8DBB2002B03D04FF002037B6021E041F21C10C1F6FF7003F0F1FD034683F00103DBB2002B0BD141F294
S32D0000EEE02010C1F6FF7003F0E5FD034683F00103DBB2002B02D04FF0010301E04FF00003002B02D04FF00103E9
S32D0000EF087B607B68184607F10C07BD4690BD00BF80B500AF41F24C10C1F6FF70054904F007FF41F24010C1F68A
S32D0000EF30FF70034904F000FF80BD00BF0000C8420000B8410000000080B500AF41F24010C1F6FF701A4904F022
S32D0000EF58EFFE4FF01900FEF73BFA13A1D1E9000103F0EEFBFEF79AFA41F24C10C1F6FF70124904F0DDFE41F236
S32D0000EF804010C1F6FF70104904F0D6FE0AA1D1E9000103F0D9FB6FF01B004FF000024FF0804303F50023FEF7D2
S32D0000EFA8CFFA80BDAFF30080666666666666E63F9A9999999999C93F00000041000036430000F041AFF30080DE
S32D0000EFD080B584B000AFF860B9607A603B6041F2C040C1F6FF7008F03BFD41F25840C1F6FF704FF0000105F066
S32D0000EFF815FC41F25840C1F6FF7049F61811C0F2010105F031FE41F2A440C1F6FF7007F001FE034641F2584062
S32D0000F020C1F6FF70194605F06BFE41F25840C1F6FF7049F62411C0F2010105F0E7FE41F25840C1F6FF7049F6BC
S32D0000F0482C11C0F2010105F0DDFE41F25840C1F6FF7049F6E801C0F2010105F005FE41F2C040C1F6FF7009F0C2
S32D0000F070E7F9034641F25840C1F6FF70194605F0EDFEFFF749FF41F25840C1F6FF7049F63011C0F2010105F0C1
S32D0000F098B9FE00BF41F27010C1F6FF7004F0C0FC034683F00103DBB2002BF3D141F2C040C1F6FF7009F0A0F924
S32D0000F0C003461846FDF708FB02460B46B968C1E9002341F2C040C1F6FF7009F0A1F903461846FDF7F9FA02463B
S32D0000F0E80B46F968C1E9002341F25840C1F6FF7049F64411C0F2010105F0B6FD41F2C040C1F6FF7009F078F9D7
S32D0000F110034641F25840C1F6FF70194605F09EFE41F25840C1F6FF7049F65011C0F2010105F09EFD41F2C0409F
S32D0000F138C1F6FF7009F070F9034641F25840C1F6FF70194605F086FE00BF41F27010C1F6FF7004F079FC0346C5
S32D0000F16083F00103DBB2002BF3D19DA1D1E9000103F0EAFA41F24010C1F6FF709A4904F0DBFD41F24C10C1F620
S32D0000F188FF70984904F0D4FD41F25840C1F6FF7049F65C11C0F2010105F034FE00BF41F27010C1F6FF7004F040
S32D0000F1B03BFC034683F00103DBB2002BF3D141F2C040C1F6FF7009F01BF903461846FDF783FA02460B46396806
S32D0000F1D8C1E9002341F2C040C1F6FF7009F01CF903461846FDF774FA02460B467968C1E9002341F25840C1F603
S32D0000F200FF7049F64411C0F2010105F031FD41F2C040C1F6FF7009F0F3F8034641F25840C1F6FF70194605F03B
S32D0000F22819FE41F25840C1F6FF7049F65011C0F2010105F019FD41F2C040C1F6FF7009F0EBF8034641F2584008
S32D0000F250C1F6FF70194605F001FE00BF41F27010C1F6FF7004F0F4FB034683F00103DBB2002BF3D15AA1D1E9AB
S32D0000F278000103F065FA41F24010C1F6FF70594904F056FD41F25840C1F6FF7049F66C11C0F2010105F0B6FD7A
S32D0000F2A000BF41F27010C1F6FF7004F0BDFB034683F00103DBB2002BF3D141F2C040C1F6FF7009F09DF8034690
S32D0000F2C81846FDF705FA02460B46B969C1E9002341F2C040C1F6FF7009F09EF803461846FDF7F6F902460B4634
S32D0000F2F0F969C1E9002341F25840C1F6FF7049F64411C0F2010105F0B3FC41F2C040C1F6FF7009F075F80346DC
S32D0000F31841F25840C1F6FF70194605F09BFD41F25840C1F6FF7049F65011C0F2010105F09BFC41F2C040C1F62F
S32D0000F340FF7009F06DF8034641F25840C1F6FF70194605F083FD00BF41F27010C1F6FF7004F076FB034683F00B
S32D0000F3680103DBB2002BF3D11BA1D1E9000103F0E7F941F25840C1F6FF704FF4004105F083FA41F25840C1F644
S32D0000F390FF7049F68011C0F2010105F037FD00BF41F27010C1F6FF7004F03EFB034683F00103DBB2002BF3D132
S32D0000F3B800BF41F27010C1F6FF7004F045FB034683F00103DBB2002BF3D107F11007BD4680BD00BFAFF30080EF
S32D0000F3E09A9999999999C93F0000B44200003443B0B590B002AF41F24010C1F6FF7040F2823104F05DFC41F28F
S32D0000F4084010C1F6FF7040F26B7104F073FC41F24C10C1F6FF704FF4FA7104F04DFC41F24C10C1F6FF7040F268
S32D0000F4306D6104F063FC07F1280007F1200107F1180207F1100307F1080400943C460194FFF7BEFD41F258400C
S32D0000F458C1F6FF704FF0000105F0E0F941F24C10C1F6FF70EA4904F063FC41F24010C1F6FF70E84904F05CFCF1
S32D0000F48003F08EF902460B4610461946FDF712FC03467B6309E0FEF77FF9034641F25840C1F6FF70194605F089
S32D0000F4A8C5FC41F22C10C1F6FF7003F095FF03464FF0010214461846D749FDF759FF0346002B02D14FF0000321
S32D0000F4D01C46E3B2002B24D003F062F904460D46786BFDF7E7F802460B4620462946FCF793FF02460B464FF08C
S32D0000F4F801010C4610461946B9A3D3E90023FDF7ADFB0346002B02D14FF000031C46E3B2002B02D04FF0010346
S32D0000F52001E04FF00003002BB5D14FF02300FDF753FF00BFFFF7A0FC0346002B14BF00230123DBB2002BF5D1E4
S32D0000F548A9A1D1E9000103F0FBF8FDF7A7FF6FF01D004FF000024FF0804303F5E013FDF7EFFF4FF02800FDF729
S32D0000F57077FF00BF41F2C040C1F6FF7008F060FF03464FF0010214461846A649FDF7F4FE0346002B02D14FF0EA
S32D0000F59800031C46E3B2002BE8D1FDF77FFF94A1D1E900014FF01E02FFF7DEF89C48FEF7EFF94FF028004FF46F
S32D0000F5C0AF71FEF791F89948FEF796FEFFF7A4FCD7E90823D7E90A01CDE900014FF01900FFF776F9FDF75EFF04
S32D0000F5E8FFF7AEFC4FF028004FF06401FEF778F84FF014004FF000024FF07E5303F5E003FDF79EFF41F2401052
S32D0000F610C1F6FF70864904F08FFB41F24C10C1F6FF70844904F088FB75A1D1E9000103F08BF841F24010C1F6DF
S32D0000F638FF707F4904F07CFB71A1D1E9000103F07FF841F24C10C1F6FF70714904F070FB4FF0280040F226211D
S32D0000F660FEF742F87448FEF747FED7E90423D7E90601CDE900014FF01900FFF795FAFDF711FF4FF04900FDF795
S32D0000F688A7FEFDF723FF00BFFDF730FF024640F2AF439A4219DC41F2C040C1F6FF7008F0BBFE03464FF00102E5
S32D0000F6B0144618466149FDF741FE0346002B02D14FF000031C46E3B2002B02D04FF0010301E04FF00003002B89
S32D0000F6D8DAD14FF01E00FDF77BFE00BF41F2C040C1F6FF7008F098FE03464FF00102144618465049FDF71EFEFD
S32D0000F7000346002B02D14FF000031C46E3B2002BE8D1FDF7C7FE41F24010C1F6FF703E4904F00AFBD7E90223B0
S32D0000F728D7E90001CDE900014FF01900FFF738FAFDF7B4FE3E48FEF7DBFDD7E9002310461946FDF7FBFA0346F8
S32D0000F7501846FEF725FCFEF79FF80346012B14BF00230123DBB2002B6ED041F25840C1F6FF704FF47F0105F05D
S32D0000F77855F86FF01B004FF000024FF0804303F50813FDF7DDFE2A48FEF7B2FD41F24010C1F6FF70284904F053
S32D0000F7A0CBFA41F24C10C1F6FF70264904F0C4FA4FF000004FF07E5101F5E00102F0C4FF4FF01900FDF708FE75
S32D0000F7C811A1D1E9000102F0BBFFFDF767FE4FF000004FF0804101F5B01102F0B1FF57E00000000000804040D2
S32D0000F7F0666666666666E63FCDCCCCCCCCCC37409A9999999999E93F9A9999999999B93F9A9999999999F93F05
S32D0000F818000034430000F4420000C03F0000C0406666BE4100008743000000410000F0410000B44200001442C3
S32D0000F8400000A04000000A4241F25840C1F6FF704FF0FF0104F0E6FF4FF01900FDF7BCFD4FF000004FF07E5113
S32D0000F86801F5F00102F06CFFFDF718FE4FF000004FF0804101F5B01102F062FF6FF013004FF000024FF0804326
S32D0000F89003F5A013FDF758FE41F24010C1F6FF70634904F049FA41F24C10C1F6FF70614904F042FA41F258406F
S32D0000F8B8C1F6FF704FF0000104F0B0FF6FF01D004FF000024FF0804303F50813FDF738FE4FF028004FF4C8713A
S32D0000F8E0FDF7AAFE4FF01E004FA3D3E90023FDF72BFE4FF028004FF4A071FDF79DFE4E48FEF7FAFC41F24010C5
S32D0000F908C1F6FF704B4904F013FA4FF02800FDF75FFD2EE0FFF7ACFA0346002BD4BF00230123DBB2002B24D0BB
S32D0000F930FDF7B8FD6FF01D004FF000024FF0804303F5C013FDF700FE4FF028004FF06401FDF772FE4FF01E00B8
S32D0000F9584FF000024FF0804303F54023FDF7F0FD4FF028004FF06401FDF7BAFE3048FEF7BFFC41F2C040C1F639
S32D0000F980FF7008F04DFD03464FF00102144618462B49FDF7F1FC0346002B02D14FF000031C46E3B2002BB9D1DB
S32D0000F9A82548FEF777F9FDF779FD4FF023004FF0FA01FDF795FE2148FEF79AFC4FF02D00FDF706FD00BFFFF7C6
S32D0000F9D053FA0346002B14BF00230123DBB2002BF5D14FF000004FF07E5101F5D00102F0ABFE6FF027004FF03C
S32D0000F9F800024FF0804303F5A013FDF7A1FD4FF028004FF03201FDF76BFE4FF02D00FDF7DFFC4FF0000318468F
S32D0000FA2007F13807BD46B0BD9A9999999999E93F0000B4420000344300008743000070430000B04100004D43E7
S32D0000FA4880B582B000AF786039607B68012B40F088803A684FF6FF739A4240F0828041F21C10C1F6FF704FF097
S32D0000FA70060102F0EFFE41F22010C1F6FF704FF0040102F0E7FE41F22410C1F6FF704FF0120102F0DFFE41F2FD
S32D0000FA982810C1F6FF704FF0030102F0D7FE41F22C10C1F6FF704FF00E0103F083FC41F23010C1F6FF704FF0AB
S32D0000FAC0100103F07BFC41F23410C1F6FF704FF00C0103F073FC41F23810C1F6FF704FF00A0103F06BFC41F2DA
S32D0000FAE83C10C1F6FF704FF0080103F063FC41F24010C1F6FF704FF0000104F0BFF841F24C10C1F6FF704FF05C
S32D0000FB10020104F0B7F841F25810C1F6FF704FF00101144A00F054FA41F26010C1F6FF704FF000010F4A00F031
S32D0000FB384BFA41F26810C1F6FF704FF0000103F059F841F26C10C1F6FF704FF0010103F051F841F27010C1F649
S32D0000FB60FF704FF0030103F0D9FE07F10807BD4680BD00BF0000404180B500AF4FF001004FF6FF71FFF760FF46
S32D0000FB8880BD00BF80B500AF41F22472C1F6FF7241F21C13C1F6FF73D31A194641F21C13C1F6FF731A460B466B
S32D0000FBB010464FF000011A4608F0EBFD80BD00BF09F060FE00F0B0F9FFF7E0FF09F032FE09F0CEFD09F066FE46
S32D0000FBD800F00CF84FF0000041F27411C1F6FF71FFF702FC0346184608F0AAFD80B500AF4FF4E043C4F20403AC
S32D0000FC004FF4E042C4F2040202F5805202F13802126842F4785203F5805303F138031A6000F02EF900F094F83E
S32D0000FC2841F2A433C1F6FF734FF058021A6041F2A433C1F6FF731B684FF47A7202FB03F241F2A033C1F6FF7362
S32D0000FC501A6041F2A033C1F6FF731B681A464FF4E043C4F2040303F5825303F104031B6803F070634FEA136317
S32D0000FC7803F10103B2FBF3F31A4641F2A833C1F6FF731A604FF4E043C4F204034FF4E042C4F2040202F58052B5
S32D0000FCA002F13C02126842F0225203F5805303F13C031A604FF4E043C4F204034FF4E042C4F2040202F5805260
S32D0000FCC802F13002126842F0006203F5805303F130031A604FF45043C4F203034FF480721A614FF0640002F098
S32D0000FCF0A3FB4FF45043C4F203034FF45042C4F20302526922F010025A614FF45043C4F203034FF000021A603F
S32D0000FD184FF45043C4F203034FF010025A6103F08DFC03F035FD41F29C30C1F6FF7002F003FC41F25840C1F6E6
S32D0000FD40FF7004F0BDFB41F2883002F0E1FC80BD80B400AF4FF48043C4F206034FF000025A704FF48043C4F214
S32D0000FD6806034FF098021A704FF48043C4F206039B79DBB203F01003002B0CBF00230123DBB2002BF0D14FF49C
S32D0000FD908043C4F206039B79DBB203F00C034FEA9303022B0CBF00230123DBB2002BEED14FF48043C4F20603D6
S32D0000FDB84FF018021A714FF48043C4F206034FF000025A714FF4E043C4F2040303F5825303F104034FF000023C
S32D0000FDE0C0F213121A604FF48043C4F206034FF054025A7100BF4FF48043C4F206039B79DBB203F02003002B19
S32D0000FE0814BF00230123DBB2002BF0D100BF4FF48043C4F206039B79DBB203F04003002B14BF00230123DBB20C
S32D0000FE30002BF0D14FF48043C4F206034FF48042C4F206021278D2B202F03F02D2B21A704FF48043C4F206031C
S32D0000FE589B79DBB203F00C034FEA9303032B0CBF00230123DBB2002BEED14FF000031846BD4680BC704700BFFE
S32D0000FE8080B400AF4FF44043C4F204034FF480725A634FF2C003C4F20F034FF2C002C4F20F02526942F4005223
S32D0000FEA85A614FF2C003C4F20F034FF2C002C4F20F02126842F400521A604FF44043C4F2040340F20312C0F2E3
S32D0000FED00A021A634FF46143CEF200034FF46142CEF20002D2F8882142F08062C3F888214FF46143CEF2000394
S32D0000FEF84FF46142CEF20002926842F080629A60BD4680BC704700BF80B483B000AF7860FEE700BF80B400AF02
S32D0000FF2000BEBD4680BC704780B400AF4FF0E0224CF20003C0F20003C2F8083D4FF40053C4F205034CF22052E2
S32D0000FF48DA814FF40053C4F205034DF62812DA814FF40053C4F205034FF0D2021A80BD4680BC704780B500AF29
S32D0000FF704FF44043C4F20403D3F8A03003F48053002B0CBF00230123DBB2002B1FD04FF44043C4F204034FF4D1
S32D0000FF984042C4F20402D2F8A02022F48052C3F8A02041F2E040C1F6FF7008F04FFB4FF2C003C4F20F034FF248
S32D0000FFC0C002C4F20F02126822F400521A6080BD90B585B000AFF8600B467A60FB72FB68FA7A1A71FB684FF0D4
S32D0000FFE800025A714FF001031C4678682049FDF7BFF90346002B02D14FF000031C46E3B2002B02D01A4B7B60C7
S32D0001001011E04FF001031C4678681849FDF798F90346002B02D14FF000031C46E3B2002B01D0124B7B607868D1
S32D00010038FCF74EFB02460B46104619460AA3D3E90023FCF799FB02460B4610461946FCF775FE0246FB681A6023
S32D00010060FB68184607F11407BD4690BDAFF30080ABAAAAAAAAAA2040000040410000803F80B582B000AF7860A0
S32D000100887B685B79002B10D07B684FF000025A717B681B7941F29C30C1F6FF7019464FF000024FF01E0302F00A
S32D000100B091FA07F10807BD4680BD00BF80B584B000AF786039603B687F2B03DD4FF07F03FB7309E03B6813F11B
S32D000100D8800F03DA4FF08003FB7301E03B68FB737B685B79FA7B9A420FD07B68FA7B5A717B681A79FB7B41F242
S32D000101009C30C1F6FF7011461A464FF01E0302F061FA07F11007BD4680BD00BF00000000B0B584B000AF78604C
S32D0001012839604FF001031C4638684D49FDF702F90346002B02D14FF000031C46E3B2002B02D0474B3B6011E0AA
S32D000101504FF001031C4638684449FDF70DF90346002B02D14FF000031C46E3B2002B01D03E4B3B603868FCF781
S32D00010178AFFA04460D467B681B681846FCF7A8FA02460B46104619464FF000024FF0804303F5B203FCF71AFC72
S32D000101A002460B4620462946FCF7EAFA02460B4610461946FCF7C6FD03463B604FF001031C4638682A49FDF757
S32D000101C8CDF80346002B02D14FF000031C46E3B2002B14D03868FCF77BFA02460B46104619461DA3D3E90023BF
S32D000101F0FCF7C6FA02460B4610461946FCF75AFD0346FB6022E03868FCF766FA02460B46104619464FF000026D
S32D000102184FF0804303F5C003FCF7AEFA02460B46104619464FF000024FF0804303F5B203FCF7CCFB02460B46CE
S32D0001024010461946FCF736FD0346FB607868F968FFF734FF07F11007BD46B0BDAFF3008052B81E85EB51F43FE9
S32D000102680000C8C20000C84200000000AFF3008080B485B000AF02460B46FA71BB71BB79002B07D141F2781374
S32D00010290C1F6FF734FF000021A7006E041F27813C1F6FF734FF001021A704FF03803FB7341F27813C1F6FF73E3
S32D000102B81A78FB7B1343FB734FF4C043C4F206034FF4C042C4F206029278D2B242F01002D2B29A704FF4C0439D
S32D000102E0C4F206034FF4C042C4F206029278D2B242F02002D2B29A704FF4C043C4F20603FA7B1A7107F11407A5
S32D00010308BD4680BC704700BF80B483B000AF4FF001037B6004E000BF7B6803F101037B607B68312BCCBF002397
S32D000103300123DBB2002BF2D107F10C07BD4680BC704700BF80B582B000AF02460B46FA71BB7141F27913C1F683
S32D00010358FF731B7818464FF00001FFF789FF4FF4C043C4F20603DB78DBB203F00203002B14BF00230123DBB2A6
S32D00010380002BF0D14FF4C043C4F206034FF4C042C4F20602D278D2B242F00202D2B2DA704FF4C043C4F2060383
S32D000103A8FA791A714FF4C043C4F20603DB78DBB203F00203002B14BF00230123DBB2002BF0D14FF4C043C4F291
S32D000103D006034FF4C042C4F20602D278D2B242F00202D2B2DA704FF4C043C4F20603BA791A714FF4C043C4F261
S32D000103F80603DB78DBB203F00203002B14BF00230123DBB2002BF0D14FF4C043C4F206034FF4C042C4F206022F
S32D00010420D278D2B242F00202D2B2DA704FF4C043C4F206034FF4C042C4F206029278D2B222F02002D2B29A7083
S32D000104484FF4C043C4F206034FF4C042C4F206029278D2B222F01002D2B29A70FFF754FF07F10807BD4680BDAD
S32D0001047080B582B000AF0346FB71FB79184600F06BF807F10807BD4680BD00BF80B582B000AF02460B46FA714D
S32D00010498BB7100F039F8FB794FEA4303DBB21846FFF7E2FFBB791846FFF7DEFF00F03EF807F10807BD4680BD61
S32D000104C080B500AF4FF0FF0000F046F80346184680BD00BF80B584B000AF0346FB7100F017F8FB794FEA43035B
S32D000104E8DBB243F00103DBB2DBB21846FFF7BCFFFFF7E2FF0346FB7300F018F8FB7B184607F11007BD4680BD47
S32D0001051080B400AF4FF24003C4F20F034FF24002C4F20F02926842F480129A60BD4680BC704700BF80B400AFEF
S32D000105384FF24003C4F20F034FF24002C4F20F02526842F480125A60BD4680BC704700BF80B485B000AF0346AC
S32D00010560FB714FF00003BB7303E0FB7B03F10103FB734FF44043C4F20A03DB6A4FF00003002BF2D14FF440430D
S32D00010588C4F20A034FF44042C4F20A02D26A42F00042DA624FF44043C4F20A03FA795A6300BF4FF44043C4F21A
S32D000105B00A03DB6A03F40033002B14BF00230123DBB2002BF1D14FF44043C4F20A039B6BBB73BB7B184607F198
S32D000105D81407BD4680BC704780B582B000AF4FF4E043C4F204034FF4E042C4F2040202F5805202F13002126821
S32D0001060042F4805203F5805303F130031A604FF42043C4F204034FF480721A654FF24003C4F20F034FF2400271
S32D00010628C4F20F02526942F480125A61FFF77EFF4FF42043C4F204034FF400725A654FF42043C4F204034FF4AE
S32D0001065000729A654FF42043C4F204034FF40072DA654FF44043C4F20A034FF44062C8F200021A604FF4404349
S32D00010678C4F20A034FF00502C3F60062DA604FF000037B6007E04FF0FF00FFF7EDFE7B6803F101037B607B6839
S32D000106A0092BCCBF00230123DBB2002BEFD104A1D1E9000102F048F807F10807BD4680BD9A9999999999B93F45
S32D000106C890B486B000AFF860B9607A60FA684FF42043C4F206039A4214D14FF4E043C4F204034FF4E042C4F2C9
S32D000106F0040202F5805202F13402126842F4806203F5805303F134031A6083E0FA684FF43043C4F206039A42CB
S32D0001071814D14FF4E043C4F204034FF4E042C4F2040202F5805202F13402126842F4006203F5805303F134038F
S32D000107401A6067E0FA684FF44043C4F206039A4214D14FF4E043C4F204034FF4E042C4F2040202F5805202F121
S32D000107683402126842F4805203F5805303F134031A604BE0FA684FF45043C4F206039A4214D14FF4E043C4F23B
S32D0001079004034FF4E042C4F2040202F5805202F13402126842F4005203F5805303F134031A602FE0FA684FF4FA
S32D000107B82043C4F20E039A4214D14FF4E043C4F204034FF4E042C4F2040202F5805202F12802126842F480626B
S32D000107E003F5805303F128031A6013E04FF4E043C4F204034FF4E042C4F2040202F5805202F12802126842F4B9
S32D00010808006203F5805303F128031A60FB68DB78DBB223F00C03DAB2FB68DA70FB684FF000029A70BB684FF449
S32D000108307A7202FB03F27B684FEA031392FBF3F39CB2FB681B78DBB223F01F03FB75234603F4F8534FEA232376
S32D00010858DBB203F01F03DAB2FB7D1343DAB2FB681A70E2B2FB685A70BB684FF4FA4202FB03F27B684FEA031375
S32D0001088092FBF3F39AB2234619464FEAC121CB1A4FEA43139BB2D3189CB2FB689B7ADBB223F01F03FB75E3B26E
S32D000108A803F01F03DAB2FB7D1343DAB2FB689A72FB68DB78DBB243F00C03DAB2FB68DA7007F11807BD4690BC93
S32D000108D0704700BF80B483B000AF786000BF7B681B79DBB203F02003002B14BF00230123DBB2002BF3D17B6818
S32D000108F8DB79DBB2184607F10C07BD4680BC704780B483B000AF78600B46FB7000BF7B681B79DBB2DBB26FEA3E
S32D000109200303DBB24FEAD313DBB2002BF3D17B68FA78DA7107F10C07BD4680BC704700BF80B487B000AFF860A8
S32D00010948B9607A60FB687B6107E0BB68DAB27B691A707B6903F101037B617B68002B0CBF00230123DBB27A6803
S32D0001097002F1FF327A60002BEBD107F11C07BD4680BC704780B584B000AF786039607B681B6BFB60FA683B6810
S32D000109989A4264D07B681B79002B43D07B685A787B6803F1340310461946FA684FF0010301F0ACFB0346002B42
S32D000109C00CBF00230123DBB2002B02D04FF001034BE07B684FF000021A717B685A6A7B681B6AD218FB689A4217
S32D000109E820D97B68DB78FB7214E07B681B6AFA68D318FB607B685A787B6803F1340310461946FA684FF0010323
S32D00010A1001F080FBFB7A03F1FF33FB72FB7A012B94BF00230123DBB2002BE2D13B68002B19D07B685A787B684E
S32D00010A3803F13403104619463A684FF0010301F057FA0346002B0CBF00230123DBB2002B02D04FF0010304E051
S32D00010A607B683A681A634FF00003184607F11007BD4680BD80B584B000AF786078684FF00001FFF77FFF0346A9
S32D00010A88FB73FB7B002B40F0AE807B681B78032B40F095807B685B79002B00F090807B684FF000021A637B6883
S32D00010AB003F1340318464FF000014FF40072FFF73FFF7B684FF0550283F832227B684FF0AA0283F833227B689C
S32D00010AD84FF0520283F834207B684FF0520283F835207B684FF0610283F836207B684FF0410283F837207B68D7
S32D00010B004FF0720283F818227B684FF0720283F819227B684FF0410283F81A227B684FF0610283F81B227B68D6
S32D00010B281B69DAB27B6883F81C227B681B699BB24FEA2323DAB27B6883F81D227B681B694FEA1343DAB27B6831
S32D00010B5083F81E227B681B694FEA1363DAB27B6883F81F227B68DB68DAB27B6883F820227B68DB689BB24FEA7C
S32D00010B782323DAB27B6883F821227B68DB684FEA1343DAB27B6883F822227B68DB684FEA1363DAB27B6883F839
S32D00010BA023227B6859787B6803F134027B685B69084611461A464FF0010301F0ABFA7B684FF000025A717B68C9
S32D00010BC85B7818464FF000014FF0000201F084FB0346002B0CBF00230123DBB2002B02D04FF00103FB73FB7BA5
S32D00010BF0184607F11007BD4680BD00BF80B582B000AF78600B467B807B68002B08D07B681B78002B04D07B68F2
S32D00010C18DB887A889A4202D04FF009030FE07B685B78184601F0ECFB034603F00103DBB2002B02D04FF0030365
S32D00010C4001E04FF00003184607F10807BD4680BD80B586B000AF78607B681A687B689B8810461946FFF7CAFFEC
S32D00010C680346FB75FB7D002B40F0C8807B689B7903F02003002B00F0C1807B689B7903F04003002B20D07B68F5
S32D00010C901B6859787B6803F128027B689B69084611461A464FF0010301F034FA0346002B0CBF00230123DBB27F
S32D00010CB8002B02D04FF00103A1E07B689B7923F04003DAB27B689A717B681A687B68DB6910461946FFF752FEFE
S32D00010CE00346FB75FB7D002B40F08C807B681B6A3B613B6903F10B033A6902F10B02127842F02002D2B21A7014
S32D00010D083B6903F11C037A68D268D2B21A703B6903F11D037A68D26892B24FEA2222D2B21A703B6903F11E037F
S32D00010D307A68D2684FEA1242D2B21A703B6903F11F037A68D2684FEA1262D2B21A703B6903F11A037A6812693A
S32D00010D58D2B21A703B6903F11B037A68126992B24FEA2222D2B21A703B6903F114037A6812694FEA1242D2B25F
S32D00010D801A703B6903F115037A6812694FEA124292B24FEA2222D2B21A704FF00003FB603B6903F11603FA68A1
S32D00010DA8D2B21A703B6903F11703FA6892B24FEA2222D2B21A703B6903F11803FA684FEA1242D2B21A703B69D7
S32D00010DD003F11903FA684FEA1262D2B21A707B689B7923F02003DAB27B689A717B681B684FF001021A717B680A
S32D00010DF81B681846FFF73AFE0346FB75FB7D184607F11807BD4680BD80B584B000AF78607868FFF719FF0346B0
S32D00010E20FB73FB7B002B03D17B684FF000021A60FB7B184607F11007BD4680BD80B588B000AF786039604FF033
S32D00010E4880033B614FF00F03FB604FF0FF337B614FF00203FB612AE04FF00103BB611AE0FB69BA6902FB03F3E6
S32D00010E703A6802FB03F27B68D31ABB60BB68002B09DBBA687B699A4205D2BB687B61FB693B61BB69FB60BB6947
S32D00010E9803F10103BB61BB69102B8CBF00230123DBB2002BDCD1FB694FEA4303FB61FB69B3F5807F8CBF002309
S32D00010EC00123DBB2002BCBD14FF48053C4F20B034FF48052C4F20B02D26A22F00802DA624FF48053C4F20B036B
S32D00010EE8DB6A1A464FF00F03CFF6F0731340BB614FF48053C4F20B033A694FEA52024FEA02224FEA02424FEA31
S32D00010F101242F96801F1FF314FEA0111C9B21143BA690A4342F46022DA6203E04FF00A0001F0EEFB4FF4805341
S32D00010F38C4F20B035B6A03F00803002B14BF00230123DBB2002BEDD14FF48053C4F20B034FF48052C4F20B0296
S32D00010F60D26A42F00802DA624FF48053C4F20B034FF48052C4F20B02126B42F480121A6307F12007BD4680BDDB
S32D00010F8880B582B000AF786039607B684FF000021A604FF48053C4F20B034FF40042C0F20012DA624FF48053A0
S32D00010FB0C4F20B03DB6A03F08073002B0CBF00230123DBB2002BF1D14FF48053C4F20B034FF00002C3F8C020B6
S32D00010FD84FF48053C4F20B034FF481325A604FF48053C4F20B034FF028029A624FF48053C4F20B034FF00112F5
S32D000110005A643B689B6818464CF66041C0F20501FFF714FF4FF48053C4F20B035B6A03F00303002B0CBF0023AA
S32D000110280123DBB2002BF1D14FF45043C4F2040340F243421A604FF45043C4F2040340F243425A604FF450435D
S32D00011050C4F204034FF488629A604FF45043C4F2040340F24342DA604FF45043C4F2040340F243421A614FF401
S32D000110785043C4F2040340F243425A614FF4E043C4F204034FF4E042C4F2040202F5805202F13002126842F4A5
S32D000110A0003203F5805303F130031A604FF48053C4F20B034FF6FF721A634FF48053C4F20B034FF0B302C0F2F6
S32D000110C87F025A634FF48053C4F20B034FF48052C4F20B02D26A42F00062DA624FF48053C4F20B03DB6A03F0EB
S32D000110F00063002B0CBF00230123DBB2002BF1D14FF48053C4F20B035B6A03F48033002B0CBF00230123DBB2A4
S32D00011118002B03D07B684FF001021A604FF48053C4F20B034FF48052C4F20B02126B42F080021A634FF0000369
S32D00011140184607F10807BD4680BD00BF80B400AF4FF48053C4F20B035B6A1A4640F207331340002B0CBF002362
S32D000111680123DBB21846BD4680BC704780B485B000AF78604FF48053C4F20B031B6B1A467B681340FB60FB68AF
S32D00011190002B14BF00230123DBB2002BEED1FB68184607F11407BD4680BC704780B584B000AF78607B681B7844
S32D000111B803F03F0249F67443C0F2010353F82230FB60FB68002B06D17B681B78002B02D04FF0010330E14FF4C1
S32D000111E08053C4F20B034FF48052C4F20B02126B42F080021A634FF48053C4F20B035B6A03F00103DBB2002B75
S32D00011208F5D14FF48053C4F20B037A6852689A60FB6823F44003FB607B685B784FEA835303F44003FA681343B2
S32D00011230FB607B685B78022B03D1FB6843F40013FB607B685B78042B16D1FB6803F44033B3F5003F08D1FB68B9
S32D0001125823F44033FB60FB6843F44033FB6007E0FB6823F44033FB60FB6843F40033FB604FF48053C4F20B03E9
S32D000112804FF48052C4F20B0252684FEA02424FEA12425A607B68DB68002B32D0FB6803F44033B3F5403F03D0CF
S32D000112A8FB6843F40013FB607B681B7A002B03D0FB6843F01003FB607B68DB68012B03D9FB6843F02003FB6053
S32D000112D07B68DB68B3F1FF3F13D04FF48053C4F20B034FF48052C4F20B02526811467A68D2684FEA02420A435B
S32D000112F85A60FB6843F00203FB604FF48053C4F20B034FF000021A604FF48053C4F20B03FA68DA604FF00100CC
S32D00011320C0F20E00FFF726FF0346012B0CBF00230123DBB2002B10D04FF48053C4F20B034FF48052C4F20B02F2
S32D00011348126B42F4702242F001021A634FF0010372E04FF48053C4F20B031B6B03F08003002B0CBF00230123D7
S32D00011370DBB2002B0ED04FF48053C4F20B034FF48052C4F20B02126B42F001121A634FF0010355E04FF4805339
S32D00011398C4F20B031B6B03F48033002B0CBF00230123DBB2002B0ED04FF48053C4F20B034FF48052C4F20B02AD
S32D000113C0126B42F001121A634FF0FF3338E0FB6803F44033002B25D04FF48053C4F20B031B691A467B681A612D
S32D000113E8FB6803F44033B3F5803F17D14FF48053C4F20B035B691A467B685A614FF48053C4F20B039B691A46E0
S32D000114107B689A614FF48053C4F20B03DB691A467B68DA614FF48053C4F20B034FF48052C4F20B02126B42F0D2
S32D0001143801021A634FF00003184607F11007BD4680BD00BF80B592B000AF786039604FF00003FB633B68BB635F
S32D0001146041F29013C1F6FF737B637B6B002B03D140F6012300F0A0BC41F29433C1F6FF733B633B6B002B03D18F
S32D0001148840F60B2300F094BC3B6B1B68FB62FB6A002B03D140F60B2300F08ABC7B6841F20432934200F0388242
S32D000114B041F2043293421BD841F20132934238D041F20132934207D8032B00F03D84092B00F0298400F066BCBD
S32D000114D841F20232934200F0128241F20332934200F0BE8300F05ABC41F20732934200F04B8341F20732934271
S32D000115000BD841F20532934200F0348241F20632934200F0108300F045BC41F20832934200F0B68241F2093268
S32D00011528934200F0C48200F039BC786B49F66841C0F20101FFF724FD0346FB63FB6B002B40F030844FF00003B0
S32D0001155087F847304FF0000387F82B304FF0000387F82A304FF0000387F829304FF0000387F846304FF00003AC
S32D0001157887F828304FF000033B724FF000037B724FF00003FB604FF000033B744FF000037B6107F10803184642
S32D000115A0FFF704FE0346002B0CBF00230123DBB2002B03D04FF00103FB63FCE340F24C4001F0A6F84FF00803FC
S32D000115C83B724FF000037B724FF4D573FB604FF000033B744FF000037B6107F108031846FFF7E0FD03463B6407
S32D000115F03B6C002B0BD1BA69FB689A4203D04FF00103FB63D7E34FF0010387F846304FF0010387F8283097F8AD
S32D000116182830002B00F0C6804FF037033B724FF000037B724FF00003FB604FF000033B744FF000037B6107F1F1
S32D0001164008031846FFF7B2FD03463B643B6C002B03D04FF00103FB63ADE34FF069033B724FF000037B724FF0E9
S32D000116680003FB604FF000033B744FF000037B6107F108031846FFF795FD0346002B0CBF00230123DBB2002BBF
S32D0001169003D04FF00103FB638DE3BB6903F44013002B00F083804FF000033B644FF00A0001F02EF83B6C03F1DF
S32D000116B801033B644FF037033B724FF000037B724FF00003FB604FF000033B744FF000037B6107F108031846FE
S32D000116E0FFF764FD0346002B0CBF00230123DBB2002B03D04FF00103FB6336E04FF069033B724FF000037B7235
S32D0001170897F84630002B05D04FF00003C4F23003FB6002E04FF44013FB604FF000033B744FF000037B6107F14D
S32D0001173008031846FFF73AFD0346002B0CBF00230123DBB2002B03D04FF00103FB630CE0BB69002B05DB3B6C80
S32D00011758632B02D84FF0010301E04FF00003002BA0D1FB6B002B40F01F833B6C632B04D94FF0000387F846304C
S32D0001178014E04FF0010387F8473097F84630002B0CD04FF0000387F84630BB6903F08043002B03D04FF00103AF
S32D000117A887F8463097F82A30002B03D07B6B4FF007021A6097F82930002B03D07B6B4FF008021A6097F82B3015
S32D000117D0002B03D07B6B4FF004021A6097F84730002B0BD07B6B4FF002021A6097F84630002B03D07B6B4FF070
S32D000117F803021A6097F82B30002B0FD097F84730002B0BD07B6B4FF005021A6097F84630002B03D07B6B4FF075
S32D0001182006021A604FF45043C4F204034FF000021A604FF45043C4F204034FF000025A604FF45043C4F20403A8
S32D000118484FF000029A604FF45043C4F204034FF00002DA604FF45043C4F204034FF000021A614FF45043C4F24D
S32D0001187004034FF000025A61FB6A9A68FB6A5B6810461946FFF7DAFA4FF45043C4F2040340F243421A604FF431
S32D000118985043C4F2040340F243425A604FF45043C4F204034FF488629A604FF45043C4F2040340F24342DA6022
S32D000118C04FF45043C4F2040340F243421A614FF45043C4F2040340F243425A614FF4E043C4F204034FF4E042A7
S32D000118E8C4F2040202F5805202F13002126842F4003203F5805303F130031A6057E2B86BFFF750FC03463B6453
S32D000119103B6C002B00F04E824FF00203FB6349E2BB6B002B03D14FF00C03FB6343E24FF48053C4F20B03DB6A34
S32D0001193803F47F434FEA13234FEA43033B644FF48053C4F20B03DB6A03F0F0034FEA131303F101023B6C02FB3B
S32D0001196003F33B64FB6A9A683B6CB2FBF3F2BB6B1A6020E2BB6B002B03D14FF00C03FB6319E2BB6B1B68002BE1
S32D0001198803D14FF00C03FB6311E2FFF7DBFB0346002B14BF00230123DBB2002B70D04FF45043C4F204034FF099
S32D000119B000021A604FF45043C4F204034FF000025A604FF45043C4F204034FF000029A604FF45043C4F204039D
S32D000119D84FF00002DA604FF45043C4F204034FF000021A614FF45043C4F204034FF000025A61FB6A9A68BB6BFA
S32D00011A001B6810461946FFF719FA4FF45043C4F2040340F243421A604FF45043C4F2040340F243425A604FF46B
S32D00011A285043C4F204034FF488629A604FF45043C4F2040340F24342DA604FF45043C4F2040340F243421A61CF
S32D00011A504FF45043C4F2040340F243425A614FF4E043C4F204034FF4E042C4F2040202F5805202F130021268B6
S32D00011A7842F4003203F5805303F130031A6096E140F60A23FB6392E1BB6B002B03D14FF00C03FB638BE14FF440
S32D00011AA08053C4F20B035B684FEAC3434FEAD343BA6B13607FE1BB6B002B03D14FF00C03FB6378E1FFF742FBDA
S32D00011AC80346002B14BF00230123DBB2002B2AD0BB6B1A6840F6FF739A4203D94FF00C03FB6364E14FF48053A0
S32D00011AF0C4F20B034FF48052C4F20B02526822F4FE5222F03F025A604FF48053C4F20B034FF48052C4F20B024C
S32D00011B1852681146BA6B12684FEAC2424FEAD2420A435A6043E140F60A23FB633FE1BB6B002B03D14FF00C03E5
S32D00011B40FB6338E14FF48053C4F20B039B6A03F006034FEA53033B643B6C002B04D1BB6B4FF000021A6026E167
S32D00011B683B6C012B04D1BB6B4FF001021A601EE13B6C102B04D1BB6B4FF002021A6016E14FF00503FB6312E19C
S32D00011B90BB6B002B03D14FF00C03FB630BE1FFF7D5FA0346002B14BF00230123DBB2002B56D0BB6B1B68002B64
S32D00011BB816D14FF48053C4F20B034FF48052C4F20B02926A22F006029A624FF48053C4F20B034FF48052C4F2AE
S32D00011BE00B02926A9A62E6E0BB6B1B68012B18D14FF48053C4F20B034FF48052C4F20B02926A22F006029A6289
S32D00011C084FF48053C4F20B034FF48052C4F20B02926A42F002029A62C9E0BB6B1B68022B16D14FF48053C4F29B
S32D00011C300B034FF48052C4F20B02926A22F006029A624FF48053C4F20B034FF48052C4F20B02926A9A62AEE055
S32D00011C584FF00503FB63AAE040F60A23FB63A6E0BB6B002B03D14FF00C03FB639FE04FF48053C4F20B034FF47A
S32D00011C808052C4F20B02D26A42F00062DA624FF48053C4F20B03DB6A03F00063002B0CBF00230123DBB2002B2A
S32D00011CA8F1D14FF48053C4F20B031B6B03F08003002B0CBF00230123DBB2002B0FD04FF48053C4F20B034FF484
S32D00011CD08052C4F20B02126B42F080021A637B6B4FF000021A604FF48053C4F20B035B6A03F48033002B0CBFC2
S32D00011CF800230123DBB2002B08D07B6B1B68002B08D17B6B4FF001021A6003E07B6B4FF000021A607B6B1A68EB
S32D00011D20BB6B1A6047E0BB6B4FF01C021A60BB6B03F104034FF004021A60BB6B03F108034FF41E721A6036E068
S32D00011D484FF00200FFF712FA4FF48053C4F20B031B6B03F4E003002B0CBF00230123DBB2002B0ED04FF4805306
S32D00011D70C4F20B034FF48052C4F20B02126B42F4E0021A634FF00403FB634FF48053C4F20B034FF48052C4F24D
S32D00011D980B02126B42F032021A6308E040F60923FB6304E000BF02E000BF00E000BFFB6B184607F14807BD4616
S32D00011DC080BD00BF80B489B000AF786039607B687B6141F29013C1F6FF733B613B69002B02D14FF0000381E0CC
S32D00011DE83B691B68022B0BD03B691B68032B07D03B691B68072B03D03B691B68082B0DD14FF48053C4F20B0333
S32D00011E105B6A03F00403002B0CBF00230123DBB2002BF1D13B68FB6156E0FB69B3F5007F28BF4FF40073FB6075
S32D00011E38FB6803F103034FEA9303BB613CE04FF48053C4F20B031B6B03F4E003002B0CBF00230123DBB2002BE8
S32D00011E6010D04FF48053C4F20B034FF48052C4F20B02126B42F4E00242F020021A634FF0000333E04FF48053F0
S32D00011E88C4F20B035B6A03F40063002B14BF00230123DBB2002BF1D14FF48053C4F20B031B6A1A467B691A606C
S32D00011EB07B6903F104037B61BB6903F1FF33BB61BB69002B0CBF00230123DBB2002BBAD1FA69FB68D31AFB612F
S32D00011ED8FB69002B0CBF00230123DBB2002BA0D14FF00103184607F12407BD4680BC704780B58EB000AFB9601C
S32D00011F007A600246FA73BB7341F27C13C1F6FF737B63FB7B002B02D1BB7B002B02D14FF0040381E040F2004368
S32D00011F28C1F6FF731B78DBB203F00103DBB2002B02D04FF0030373E0BB68002B02D14FF000036DE07B6B1B7BFC
S32D00011F50002B03D17B684FEA43237B60BB7B012B2CD14FF011033B754FF000037B757B68BB614FF001033B777E
S32D00011F78BB7B3B6207F1140341F202301946FFF761FA0346002B14BF00230123DBB2002B3ED0B8684FF400711B
S32D00011FA0FFF710FF0346002B0CBF00230123DBB2002B31D04FF00003BB732DE04FF012033B754FF000037B751B
S32D00011FC87B68BB614FF001033B77BB7B3B6207F1140341F202301946FFF734FA0346002B14BF00230123DBB211
S32D00011FF0002B11D0BB7B4FEA4323B8681946FFF7E1FE0346002B0CBF00230123DBB2002B02D04FF00003BB730D
S32D00012018BB7B002B02D04FF0010301E04FF00003184607F13807BD4680BD00BF80B487B000AF786039607B68FE
S32D00012040FB603B687B6155E07B69B3F5007F28BF4FF400733B617A693B69D31A7B613B6903F103034FEA930361
S32D000120683B613BE04FF48053C4F20B031B6B03F4E003002B0CBF00230123DBB2002B10D04FF48053C4F20B03A9
S32D000120904FF48052C4F20B02126B42F4E00242F010021A634FF0FF332EE04FF48053C4F20B035B6A03F48063FB
S32D000120B8002B14BF00230123DBB2002BF1D14FF48053C4F20B03FA6812681A62FB6803F10403FB603B6903F1B7
S32D000120E0FF333B613B69002B0CBF00230123DBB2002BBBD17B69002B0CBF00230123DBB2002BA1D14FF0010350
S32D00012108184607F11C07BD4680BC704780B58EB000AFB9607A600246FA73BB7341F27C13C1F6FF737B63FB7B02
S32D00012130002B02D1BB7B002B02D14FF00403CAE040F20043C1F6FF731B78DBB203F00103DBB2002B02D04FF0E0
S32D000121580303BCE040F20043C1F6FF731B78DBB203F00403002B0CBF00230123DBB2002B02D04FF00203AAE069
S32D00012180BB68002B02D14FF00003A4E07B6B1B7B002B03D17B684FEA43237B60BB7B012B2CD14FF018033B7508
S32D000121A84FF000037B757B68BB614FF000033B77BB7B3B6207F1140341F202301946FFF741F90346002B14BFC6
S32D000121D000230123DBB2002B3ED0B8684FF40071FFF728FF0346002B0CBF00230123DBB2002B31D04FF0000361
S32D000121F8BB732DE04FF019033B754FF000037B757B68BB614FF000033B77BB7B3B6207F1140341F202301946A7
S32D00012220FFF714F90346002B14BF00230123DBB2002B11D0BB7B4FEA4323B8681946FFF7F9FE0346002B0CBFE5
S32D0001224800230123DBB2002B02D04FF00003BB734FF00D033B754FF000037B757B6B1B69BB614FF000033B777B
S32D000122704FF000033B6207F1140341F202301946FFF7E4F80346002B0CBF00230123DBB2002B02D04FF0010368
S32D000122981DE07A6A48F20803CFF6D9731340002B02D04FF0010312E07B6A03F4F853B3F5106F0CBF00230123FB
S32D000122C0DBB2002BC8D1BB7B002B02D04FF0010301E04FF00003184607F13807BD4680BD80B58CB000AF0B46BF
S32D000122E83A600246FA71BB7141F27C13C1F6FF73BB62FB79002B02D04FF004037AE04FF0010387F82F3040F2E2
S32D000123100043C1F6FF731B78DBB203F00103DBB2002B02D04FF0030368E0BB79032B5FD801A252F823F000BFAC
S32D00012338492301005323010065230100772301004FF0000387F82F3052E0BB6A9A683B681A604FF0000387F817
S32D000123602F3049E03B684FF400721A804FF0000387F82F3040E04FF009033B724FF000037B72BB6A1B69FB6069
S32D000123884FF000033B744FF000037B6107F1080341F202301946FFF755F80346002B0CBF00230123DBB2002BCF
S32D000123B002D04FF0010321E07B6A03F44003002B11D13B6A4FEA934303F07F0303F101027B6A4FEA132303F055
S32D000123D8030303F1FF3302FA03F23B681A604FF0000387F82F3003E04FF0040387F82F3097F82F30184607F131
S32D000124003007BD4680BD00BF80B483B000AF0346FB71FB79002B02D04FF0010305E040F20043C1F6FF731B78E2
S32D00012428DBB2184607F10C07BD4680BC704700BF80B483B000AF78604FF4E043C4F204034FF4E042C4F20402A8
S32D0001245002F5805202F13802126842F0010203F5805303F138031A604FF00003C4F204037A689A604FF0000327
S32D00012478C4F204034FF005025A604FF00003C4F204034FF00002C4F20402126842F001021A6000BF4FF0000352
S32D000124A0C4F204031B6803F08003002B14BF00230123DBB2002BF1D14FF00003C4F204034FF00002C4F204029C
S32D000124C8126822F001021A6007F10C07BD4680BC704700BF80B582B000AF786039607B68012B0AD13A684FF6C4
S32D000124F0FF739A4205D141F29C30C1F6FF7000F00FF807F10807BD4680BD00BF80B500AF4FF001004FF6FF719E
S32D00012518FFF7E0FF80BD00BF80B483B000AF78607B684FF000021A707B68184607F10C07BD4680BC704700BF26
S32D0001254080B582B000AF78607B681B7883F00103DBB2002B36D04FF4E043C4F2040303F5805303F128034FF483
S32D0001256800621A604FF45043C4F204034FF440721A624FF45043C4F204034FF440725A6241F2A033C1F6FF73F1
S32D000125901B684FEAD372D3184FEA63034FF43040C4F20E0019464FF46142FEF78DF84FF0640000F0ADF87B6840
S32D000125B84FF001021A704FF0010301E04FF00003184607F10807BD4680BD00BF80B582B000AF7860F970BA70DD
S32D000125E07B704FF43040C4F20E004FF07F01FEF78BF94FF43040C4F20E004FF00801FEF783F9FB784FF43040DC
S32D00012608C4F20E001946FEF77BF9BB784FF43040C4F20E001946FEF773F97B784FF43040C4F20E001946FEF7EF
S32D000126306BF94FF43040C4F20E004FF0FF01FEF763F907F10807BD4680BD00BF80B487B000AFF860B9607A60A5
S32D00012658FA6844F6D353C1F26203A3FB02134FEA9312BB68D3187B61FA6844F6D353C1F26203A3FB02134FEA38
S32D0001268093134FF47A7101FB03F3D31AFB60FB684FEAC33244F6D353C1F26203A3FB02134FEA93127B68D318B5
S32D000126A83B613B694FEAD3337A69D3187B613B694FEA43434FEA53433B614FF45043C4F203031B681A467B69B3
S32D000126D09A4211D34FF45043C4F203031B681A467B699A420BD14FF45043C4F203035B681A463B699A4202D201
S32D000126F84FF0010301E04FF00003002BDDD107F11C07BD4680BC704780B584B000AF78604FF45043C4F20303E1
S32D000127201B68FB604FF45043C4F203035B68BB607B681846F968BA68FFF788FF07F11007BD4680BD00000000AC
S32D0001274880B584B000AFC7E900014FF45043C4F203031B68FB604FF45043C4F203035B68BB60D7E900010AA34B
S32D00012770D3E90023FAF704F802460B4610461946FAF7C0FA03461846F968BA68FFF75EFF07F11007BD4680BDA9
S32D000127980000000000408F4080B584B000AF4FF45043C4F203031B68FB604FF45043C4F203035B68BB60F868AB
S32D000127C0F9F768FF02460B46C7E90023B868F9F761FF02460B46104619464FF000024FF0804303F56003FAF7DA
S32D000127E8F5F802460B46D7E90001F9F713FE02460B46C7E90023D7E900231046194607F11007BD4680BD00BF68
S32D0001281080B483B000AF4FF45043C4F203031B684FF47A7202FB03F37B604FF45043C4F203035B684FF47A72ED
S32D0001283802FB03F34FEAD3337A68D3187B607B68184607F10C07BD4680BC704780B582B000AF78600B46FB70AB
S32D00012860FB787868194600F013F87B68184607F10807BD4680BD00BF80B483B000AF78607B68184607F10C071B
S32D00012888BD4680BC704700BF80B483B000AF78600B46FB707B68FA781A707B681B781A4649F67453C0F2010351
S32D000128B09B5C042B00F2F98001A252F823F000BFD52801003329010091290100EF2901004D2A01004FF410436C
S32D000128D8C4F204037A681278114649F6B852C0F2010252F8212040F2031143F822104FF47043C4F20F034FF414
S32D000129007042C4F20F02526911467A681278104649F6B852C0F2010252F8202002F01F024FF0010000FA02F292
S32D000129286FEA02020A405A61BBE04FF42043C4F204037A681278114649F6B852C0F2010252F8212040F203118E
S32D0001295043F822104FF24003C4F20F034FF24002C4F20F02526911467A681278104649F6B852C0F2010252F839
S32D00012978202002F01F024FF0010000FA02F26FEA02020A405A618CE04FF43043C4F204037A681278114649F66C
S32D000129A0B852C0F2010252F8212040F2031143F822104FF28003C4F20F034FF28002C4F20F02526911467A6801
S32D000129C81278104649F6B852C0F2010252F8202002F01F024FF0010000FA02F26FEA02020A405A615DE04FF455
S32D000129F04043C4F204037A681278114649F6B852C0F2010252F8212040F2031143F822104FF2C003C4F20F03AD
S32D00012A184FF2C002C4F20F02526911467A681278104649F6B852C0F2010252F8202002F01F024FF0010000FA1C
S32D00012A4002F26FEA02020A405A612EE04FF45043C4F204037A681278114649F6B852C0F2010252F8212040F2F2
S32D00012A68031143F822104FF47143C4F20F034FF47142C4F20F02526911467A681278104649F6B852C0F2010270
S32D00012A9052F8202002F01F024FF0010000FA02F26FEA02020A405A6100BF07F10C07BD4680BC704780B485B0C1
S32D00012AB800AF78604FF00003FB607B681B781A4649F67453C0F201039B5C042B00F2868001A252F823F000BF5C
S32D00012AE0F52A0100252B0100552B0100852B0100B52B01004FF47043C4F20F031B691A467B681B78194649F68D
S32D00012B08B853C0F2010353F8213003F01F034FF0010101FA03F31340FB605FE04FF24003C4F20F031B691A46DD
S32D00012B307B681B78194649F6B853C0F2010353F8213003F01F034FF0010101FA03F31340FB6047E04FF2800325
